{
  "_format": "hh-sol-artifact-1",
  "contractName": "Controller",
  "sourceName": "contracts/Controller.sol",
  "abi": [
    {
      "inputs": [
        {
          "internalType": "address",
          "name": "_ptm",
          "type": "address"
        },
        {
          "internalType": "address",
          "name": "_vault",
          "type": "address"
        }
      ],
      "stateMutability": "nonpayable",
      "type": "constructor"
    },
    {
      "inputs": [],
      "name": "FEE_DENOMINATOR",
      "outputs": [
        {
          "internalType": "uint256",
          "name": "",
          "type": "uint256"
        }
      ],
      "stateMutability": "view",
      "type": "function"
    },
    {
      "inputs": [],
      "name": "admin",
      "outputs": [
        {
          "internalType": "address",
          "name": "",
          "type": "address"
        }
      ],
      "stateMutability": "view",
      "type": "function"
    },
    {
      "inputs": [],
      "name": "backend",
      "outputs": [
        {
          "internalType": "address",
          "name": "",
          "type": "address"
        }
      ],
      "stateMutability": "view",
      "type": "function"
    },
    {
      "inputs": [
        {
          "internalType": "address",
          "name": "_user",
          "type": "address"
        }
      ],
      "name": "balanceOf",
      "outputs": [
        {
          "internalType": "uint256",
          "name": "",
          "type": "uint256"
        }
      ],
      "stateMutability": "view",
      "type": "function"
    },
    {
      "inputs": [
        {
          "internalType": "address",
          "name": "_user",
          "type": "address"
        }
      ],
      "name": "balanceOfFiat",
      "outputs": [
        {
          "internalType": "uint256",
          "name": "",
          "type": "uint256"
        }
      ],
      "stateMutability": "view",
      "type": "function"
    },
    {
      "inputs": [],
      "name": "busd",
      "outputs": [
        {
          "internalType": "address",
          "name": "",
          "type": "address"
        }
      ],
      "stateMutability": "view",
      "type": "function"
    },
    {
      "inputs": [
        {
          "internalType": "address",
          "name": "_to",
          "type": "address"
        },
        {
          "internalType": "uint256",
          "name": "_amount",
          "type": "uint256"
        }
      ],
      "name": "depositWallet",
      "outputs": [],
      "stateMutability": "nonpayable",
      "type": "function"
    },
    {
      "inputs": [
        {
          "internalType": "bool",
          "name": "_flag",
          "type": "bool"
        }
      ],
      "name": "disableRouter",
      "outputs": [],
      "stateMutability": "nonpayable",
      "type": "function"
    },
    {
      "inputs": [],
      "name": "disabledRouter",
      "outputs": [
        {
          "internalType": "bool",
          "name": "",
          "type": "bool"
        }
      ],
      "stateMutability": "view",
      "type": "function"
    },
    {
      "inputs": [],
      "name": "enableTestnet",
      "outputs": [],
      "stateMutability": "nonpayable",
      "type": "function"
    },
    {
      "inputs": [],
      "name": "fiatWithdrawFee",
      "outputs": [
        {
          "internalType": "uint256",
          "name": "",
          "type": "uint256"
        }
      ],
      "stateMutability": "view",
      "type": "function"
    },
    {
      "inputs": [],
      "name": "governance",
      "outputs": [
        {
          "internalType": "address",
          "name": "",
          "type": "address"
        }
      ],
      "stateMutability": "view",
      "type": "function"
    },
    {
      "inputs": [],
      "name": "ptm",
      "outputs": [
        {
          "internalType": "contract IERC20",
          "name": "",
          "type": "address"
        }
      ],
      "stateMutability": "view",
      "type": "function"
    },
    {
      "inputs": [],
      "name": "ptmPrice",
      "outputs": [
        {
          "internalType": "uint256",
          "name": "_price",
          "type": "uint256"
        }
      ],
      "stateMutability": "view",
      "type": "function"
    },
    {
      "inputs": [],
      "name": "ptmWithdrawFee",
      "outputs": [
        {
          "internalType": "uint256",
          "name": "",
          "type": "uint256"
        }
      ],
      "stateMutability": "view",
      "type": "function"
    },
    {
      "inputs": [
        {
          "internalType": "address",
          "name": "_user",
          "type": "address"
        }
      ],
      "name": "removeUser",
      "outputs": [],
      "stateMutability": "nonpayable",
      "type": "function"
    },
    {
      "inputs": [],
      "name": "rewardPool",
      "outputs": [
        {
          "internalType": "contract RewardPool",
          "name": "",
          "type": "address"
        }
      ],
      "stateMutability": "view",
      "type": "function"
    },
    {
      "inputs": [
        {
          "internalType": "address",
          "name": "_admin",
          "type": "address"
        }
      ],
      "name": "setAdmin",
      "outputs": [],
      "stateMutability": "nonpayable",
      "type": "function"
    },
    {
      "inputs": [
        {
          "internalType": "address",
          "name": "_backend",
          "type": "address"
        }
      ],
      "name": "setBackend",
      "outputs": [],
      "stateMutability": "nonpayable",
      "type": "function"
    },
    {
      "inputs": [
        {
          "internalType": "address",
          "name": "_governance",
          "type": "address"
        }
      ],
      "name": "setGovernace",
      "outputs": [],
      "stateMutability": "nonpayable",
      "type": "function"
    },
    {
      "inputs": [
        {
          "internalType": "address",
          "name": "_ptm",
          "type": "address"
        }
      ],
      "name": "setPTM",
      "outputs": [],
      "stateMutability": "nonpayable",
      "type": "function"
    },
    {
      "inputs": [
        {
          "internalType": "uint256",
          "name": "_price",
          "type": "uint256"
        }
      ],
      "name": "setStaticPtmPrice",
      "outputs": [],
      "stateMutability": "nonpayable",
      "type": "function"
    },
    {
      "inputs": [
        {
          "internalType": "address",
          "name": "_vault",
          "type": "address"
        }
      ],
      "name": "setVault",
      "outputs": [],
      "stateMutability": "nonpayable",
      "type": "function"
    },
    {
      "inputs": [],
      "name": "startDistributeRewards",
      "outputs": [],
      "stateMutability": "nonpayable",
      "type": "function"
    },
    {
      "inputs": [],
      "name": "staticPtmPrice",
      "outputs": [
        {
          "internalType": "uint256",
          "name": "",
          "type": "uint256"
        }
      ],
      "stateMutability": "view",
      "type": "function"
    },
    {
      "inputs": [],
      "name": "stopDistributeRewards",
      "outputs": [],
      "stateMutability": "nonpayable",
      "type": "function"
    },
    {
      "inputs": [],
      "name": "systemPool",
      "outputs": [
        {
          "internalType": "contract SystemPool",
          "name": "",
          "type": "address"
        }
      ],
      "stateMutability": "view",
      "type": "function"
    },
    {
      "inputs": [
        {
          "internalType": "uint256",
          "name": "_amount",
          "type": "uint256"
        },
        {
          "internalType": "uint256",
          "name": "_percentage",
          "type": "uint256"
        }
      ],
      "name": "takeTranactionFee",
      "outputs": [],
      "stateMutability": "nonpayable",
      "type": "function"
    },
    {
      "inputs": [],
      "name": "uniswapRouter",
      "outputs": [
        {
          "internalType": "address",
          "name": "",
          "type": "address"
        }
      ],
      "stateMutability": "view",
      "type": "function"
    },
    {
      "inputs": [
        {
          "internalType": "address",
          "name": "_from",
          "type": "address"
        },
        {
          "internalType": "address",
          "name": "_to",
          "type": "address"
        }
      ],
      "name": "updateWallet",
      "outputs": [],
      "stateMutability": "nonpayable",
      "type": "function"
    },
    {
      "inputs": [
        {
          "internalType": "address",
          "name": "_to",
          "type": "address"
        },
        {
          "internalType": "uint256",
          "name": "_balance",
          "type": "uint256"
        }
      ],
      "name": "updateWalletBalance",
      "outputs": [],
      "stateMutability": "nonpayable",
      "type": "function"
    },
    {
      "inputs": [],
      "name": "userCount",
      "outputs": [
        {
          "internalType": "uint256",
          "name": "",
          "type": "uint256"
        }
      ],
      "stateMutability": "view",
      "type": "function"
    },
    {
      "inputs": [],
      "name": "userList",
      "outputs": [
        {
          "internalType": "address[]",
          "name": "",
          "type": "address[]"
        }
      ],
      "stateMutability": "view",
      "type": "function"
    },
    {
      "inputs": [
        {
          "internalType": "address",
          "name": "_user",
          "type": "address"
        }
      ],
      "name": "userWallet",
      "outputs": [
        {
          "internalType": "uint256",
          "name": "balance",
          "type": "uint256"
        },
        {
          "internalType": "uint256",
          "name": "lastDepositBlock",
          "type": "uint256"
        },
        {
          "internalType": "uint256",
          "name": "lastDepositTime",
          "type": "uint256"
        },
        {
          "internalType": "uint256",
          "name": "lastWithdrawBlock",
          "type": "uint256"
        },
        {
          "internalType": "uint256",
          "name": "lastWithdrawTime",
          "type": "uint256"
        }
      ],
      "stateMutability": "view",
      "type": "function"
    },
    {
      "inputs": [],
      "name": "vault",
      "outputs": [
        {
          "internalType": "address",
          "name": "",
          "type": "address"
        }
      ],
      "stateMutability": "view",
      "type": "function"
    },
    {
      "inputs": [],
      "name": "wbnb",
      "outputs": [
        {
          "internalType": "address",
          "name": "",
          "type": "address"
        }
      ],
      "stateMutability": "view",
      "type": "function"
    },
    {
      "inputs": [
        {
          "internalType": "uint256",
          "name": "_amount",
          "type": "uint256"
        }
      ],
      "name": "withdraw",
      "outputs": [],
      "stateMutability": "nonpayable",
      "type": "function"
    },
    {
      "inputs": [
        {
          "internalType": "uint256",
          "name": "_amount",
          "type": "uint256"
        }
      ],
      "name": "withdrawFiat",
      "outputs": [],
      "stateMutability": "nonpayable",
      "type": "function"
    }
  ],
  "bytecode": "0x6080604052600080546001600160a01b031990811673e9e7cea3dedca5984780bafc599bd69add087d5617825560018054821673bb4cdb9cbd36b01bd1cbaebf2de08d9173bc095c1790556002805460ff60a01b1992167305ff2b0db69458a0750badebc4f9e13add608c7f17919091169055600355610bb8600e556107d0600f553480156200008e57600080fd5b5060405162004e3238038062004e32833981016040819052620000b191620002b4565b600480546001600160a01b038085166001600160a01b0319928316179092556008805482163390811790915560098054831682179055600580549385169390921692909217905560405183919062000109906200027b565b62000116929190620002ff565b604051809103906000f08015801562000133573d6000803e3d6000fd5b50600660006101000a8154816001600160a01b0302191690836001600160a01b0316021790555081336040516200016a9062000289565b62000177929190620002ff565b604051809103906000f08015801562000194573d6000803e3d6000fd5b50600780546001600160a01b0319166001600160a01b039283161790819055604051636817031b60e01b8152911690636817031b90620001d9908490600401620002eb565b600060405180830381600087803b158015620001f457600080fd5b505af115801562000209573d6000803e3d6000fd5b5050600754604051630fa9d60160e11b81526001600160a01b039091169250631f53ac0291506200023f903390600401620002eb565b600060405180830381600087803b1580156200025a57600080fd5b505af11580156200026f573d6000803e3d6000fd5b50505050505062000319565b610bb7806200240f83390190565b611e6c8062002fc683390190565b80516001600160a01b0381168114620002af57600080fd5b919050565b60008060408385031215620002c7578182fd5b620002d28362000297565b9150620002e26020840162000297565b90509250929050565b6001600160a01b0391909116815260200190565b6001600160a01b0392831681529116602082015260400190565b6120e680620003296000396000f3fe608060405234801561001057600080fd5b50600436106102325760003560e01c8063704b6c0211610130578063ad36712e116100b8578063e57f8bd91161007c578063e57f8bd914610423578063eba233f614610436578063f851a4401461043e578063fbfa77cf14610446578063fc9dbc691461044e57610232565b8063ad36712e146103d8578063d1820d94146103e0578063d73792a9146103f3578063da7fc24f146103fb578063e1c8c05a1461040e57610232565b80638861e646116100ff5780638861e6461461039a5780638d72647e146103ad578063981275a2146103b557806398575188146103bd578063acb0cf35146103d057610232565b8063704b6c021461035957806370a082311461036c578063735de9f71461037f578063851e3ca51461038757610232565b806340acc862116101be5780635f30040b116101825780635f30040b1461030557806363c5bb0214610318578063664a61f21461032b57806366666aa91461033e5780636817031b1461034657610232565b806340acc862146102bc5780634812c021146102c45780634a6bb4a5146102d757806352d442fa146102ea5780635aa6e675146102fd57610232565b806316f446ec1161020557806316f446ec146102895780632e1a7d4d1461029157806336a6b1ab146102a45780633c0ad3f6146102ac5780633ca5b234146102b457610232565b806307973ccf14610237578063099e4133146102555780630cc4c8961461026a5780630e0f785f14610274575b600080fd5b61023f610472565b60405161024c9190611fcf565b60405180910390f35b61025d610484565b60405161024c9190611d9c565b610272610493565b005b61027c610525565b60405161024c9190611dc9565b6102726105f4565b61027261029f366004611d08565b61071a565b61023f610b13565b61023f610b19565b61025d610b1f565b61025d610b2e565b6102726102d2366004611c00565b610b3d565b6102726102e5366004611bce565b610b9c565b61023f6102f8366004611bb4565b610c4c565b61025d610c6b565b610272610313366004611ce8565b610c7a565b610272610326366004611d38565b610cd7565b610272610339366004611bb4565b610ec5565b61025d610fdf565b610272610354366004611bb4565b610fee565b610272610367366004611bb4565b611074565b61023f61037a366004611bb4565b6110d5565b61025d611113565b610272610395366004611bb4565b611122565b6102726103a8366004611c00565b611183565b61025d6111e8565b61023f6111f7565b6102726103cb366004611bb4565b6113b1565b61023f6113ed565b61025d6113f3565b6102726103ee366004611d08565b611402565b61023f611446565b610272610409366004611bb4565b61144c565b6104166114ad565b60405161024c9190611ddc565b610272610431366004611d08565b6114bd565b6102726116eb565b61025d61178f565b61025d61179e565b61046161045c366004611bb4565b6117ad565b60405161024c959493929190611fd8565b600061047e600c6117e5565b90505b90565b600a546001600160a01b031681565b6008546001600160a01b03163314806104b657506009546001600160a01b031633145b6104db5760405162461bcd60e51b81526004016104d290611f27565b60405180910390fd5b600080546001600160a01b0319908116738301f2213c0eed49a7e28ae4c3e91722919b8b47179091556001805490911673094616f0bdfb0b526bd735bf66eca0ad254ca81f179055565b60606000610533600c6117e5565b67ffffffffffffffff81111561055957634e487b7160e01b600052604160045260246000fd5b604051908082528060200260200182016040528015610582578160200160208202803683370190505b50905060005b610592600c6117e5565b8110156105ee576105a4600c826117f0565b8282815181106105c457634e487b7160e01b600052603260045260246000fd5b6001600160a01b0390921660209283029190910190910152806105e681612069565b915050610588565b50905090565b6008546001600160a01b031633148061061757506009546001600160a01b031633145b8061062c5750600a546001600160a01b031633145b6106485760405162461bcd60e51b81526004016104d290611e9d565b600760009054906101000a90046001600160a01b03166001600160a01b031663b31dbd346040518163ffffffff1660e01b8152600401600060405180830381600087803b15801561069857600080fd5b505af11580156106ac573d6000803e3d6000fd5b50505050600560009054906101000a90046001600160a01b03166001600160a01b0316636f4a2cd06040518163ffffffff1660e01b8152600401600060405180830381600087803b15801561070057600080fd5b505af1158015610714573d6000803e3d6000fd5b50505050565b610725600c33611803565b6107415760405162461bcd60e51b81526004016104d290611f47565b600081116107615760405162461bcd60e51b81526004016104d290611eff565b336000908152600b60205260409020805482111561077e57805491505b60006107ad6127106107a76107a0600f5461271061181890919063ffffffff16565b869061185a565b9061189f565b90506107cc6107ba6111f7565b6107a783670de0b6b3a764000061185a565b9050600660009054906101000a90046001600160a01b03166001600160a01b031663b69ef8a86040518163ffffffff1660e01b815260040160206040518083038186803b15801561081c57600080fd5b505afa158015610830573d6000803e3d6000fd5b505050506040513d601f19601f820116820180604052508101906108549190611d20565b8111156108e457600660009054906101000a90046001600160a01b03166001600160a01b031663b69ef8a86040518163ffffffff1660e01b815260040160206040518083038186803b1580156108a957600080fd5b505afa1580156108bd573d6000803e3d6000fd5b505050506040513d601f19601f820116820180604052508101906108e19190611d20565b90505b60065460405163a9059cbb60e01b81526001600160a01b039091169063a9059cbb906109169033908590600401611db0565b600060405180830381600087803b15801561093057600080fd5b505af1158015610944573d6000803e3d6000fd5b5050505060006109656127106107a7600f548761185a90919063ffffffff16565b90506109726107ba6111f7565b9050600660009054906101000a90046001600160a01b03166001600160a01b031663b69ef8a86040518163ffffffff1660e01b815260040160206040518083038186803b1580156109c257600080fd5b505afa1580156109d6573d6000803e3d6000fd5b505050506040513d601f19601f820116820180604052508101906109fa9190611d20565b811115610a8a57600660009054906101000a90046001600160a01b03166001600160a01b031663b69ef8a86040518163ffffffff1660e01b815260040160206040518083038186803b158015610a4f57600080fd5b505afa158015610a63573d6000803e3d6000fd5b505050506040513d601f19601f82011682018060405250810190610a879190611d20565b90505b60065460075460405163a9059cbb60e01b81526001600160a01b039283169263a9059cbb92610ac0929116908590600401611db0565b600060405180830381600087803b158015610ada57600080fd5b505af1158015610aee573d6000803e3d6000fd5b50508454610aff9250905085611818565b835550504360048201554260039091015550565b600f5481565b60035481565b6000546001600160a01b031681565b6006546001600160a01b031681565b600a546001600160a01b03163314610b675760405162461bcd60e51b81526004016104d290611fad565b6001600160a01b0382166000908152600b60205260409020818155436002820155426001820155610b97836118e1565b505050565b600a546001600160a01b03163314610bc65760405162461bcd60e51b81526004016104d290611fad565b610bd1600c83611803565b610bed5760405162461bcd60e51b81526004016104d290611f47565b6001600160a01b038083166000908152600b6020526040808220928416825290208154815560028083015490820155600180830154908201556004808301549082015560038083015490820155610c43836118e1565b610714846113b1565b6001600160a01b0381166000908152600b60205260409020545b919050565b6008546001600160a01b031681565b6008546001600160a01b0316331480610c9d57506009546001600160a01b031633145b610cb95760405162461bcd60e51b81526004016104d290611f27565b60028054911515600160a01b0260ff60a01b19909216919091179055565b600a546001600160a01b03163314610d015760405162461bcd60e51b81526004016104d290611fad565b60008211610d215760405162461bcd60e51b81526004016104d290611eff565b6000610d336127106107a7858561185a565b9050610d406107ba6111f7565b9050600660009054906101000a90046001600160a01b03166001600160a01b031663b69ef8a86040518163ffffffff1660e01b815260040160206040518083038186803b158015610d9057600080fd5b505afa158015610da4573d6000803e3d6000fd5b505050506040513d601f19601f82011682018060405250810190610dc89190611d20565b811115610e5857600660009054906101000a90046001600160a01b03166001600160a01b031663b69ef8a86040518163ffffffff1660e01b815260040160206040518083038186803b158015610e1d57600080fd5b505afa158015610e31573d6000803e3d6000fd5b505050506040513d601f19601f82011682018060405250810190610e559190611d20565b90505b60065460075460405163a9059cbb60e01b81526001600160a01b039283169263a9059cbb92610e8e929116908590600401611db0565b600060405180830381600087803b158015610ea857600080fd5b505af1158015610ebc573d6000803e3d6000fd5b50505050505050565b6008546001600160a01b0316331480610ee857506009546001600160a01b031633145b610f045760405162461bcd60e51b81526004016104d290611f27565b600480546001600160a01b0319166001600160a01b0383811691909117825560075460405163332530f960e11b815291169163664a61f291610f4891859101611d9c565b600060405180830381600087803b158015610f6257600080fd5b505af1158015610f76573d6000803e3d6000fd5b505060065460405163332530f960e11b81526001600160a01b03909116925063664a61f29150610faa908490600401611d9c565b600060405180830381600087803b158015610fc457600080fd5b505af1158015610fd8573d6000803e3d6000fd5b5050505050565b6007546001600160a01b031681565b6008546001600160a01b031633148061101157506009546001600160a01b031633145b61102d5760405162461bcd60e51b81526004016104d290611f27565b600580546001600160a01b0319166001600160a01b0383811691909117909155600754604051636817031b60e01b8152911690636817031b90610faa908490600401611d9c565b6008546001600160a01b031633148061109757506009546001600160a01b031633145b6110b35760405162461bcd60e51b81526004016104d290611f27565b600980546001600160a01b0319166001600160a01b0392909216919091179055565b600061110d6110e26111f7565b6001600160a01b0384166000908152600b60205260409020546107a790670de0b6b3a764000061185a565b92915050565b6002546001600160a01b031681565b6008546001600160a01b031633148061114557506009546001600160a01b031633145b6111615760405162461bcd60e51b81526004016104d290611f27565b600880546001600160a01b0319166001600160a01b0392909216919091179055565b600a546001600160a01b031633146111ad5760405162461bcd60e51b81526004016104d290611fad565b6001600160a01b0382166000908152600b6020526040902080546111d19083611900565b8155436002820155426001820155610b97836118e1565b6001546001600160a01b031681565b600254600090600160a01b900460ff1615156001141561121a5750600354610481565b6040805160038082526080820190925260009160208201606080368337505060045482519293506001600160a01b03169183915060009061126b57634e487b7160e01b600052603260045260246000fd5b6001600160a01b03928316602091820292909201015260018054835192169183919081106112a957634e487b7160e01b600052603260045260246000fd5b6001600160a01b0392831660209182029290920101526000548251911690829060029081106112e857634e487b7160e01b600052603260045260246000fd5b6001600160a01b03928316602091820292909201015260025460405163d06ca61f60e01b815291169063d06ca61f9061132f90670de0b6b3a7640000908590600401611de7565b60006040518083038186803b15801561134757600080fd5b505afa15801561135b573d6000803e3d6000fd5b505050506040513d6000823e601f3d908101601f191682016040526113839190810190611c29565b6002815181106113a357634e487b7160e01b600052603260045260246000fd5b602002602001015191505090565b6113bc600c82611803565b1515600114156113d3576113d1600c8261192f565b505b6001600160a01b03166000908152600b6020526040812055565b600e5481565b6004546001600160a01b031681565b6008546001600160a01b031633148061142557506009546001600160a01b031633145b6114415760405162461bcd60e51b81526004016104d290611f27565b600355565b61271081565b6008546001600160a01b031633148061146f57506009546001600160a01b031633145b61148b5760405162461bcd60e51b81526004016104d290611f27565b600a80546001600160a01b0319166001600160a01b0392909216919091179055565b600254600160a01b900460ff1681565b6114c8600c33611803565b6114e45760405162461bcd60e51b81526004016104d290611f47565b600081116115045760405162461bcd60e51b81526004016104d290611eff565b336000908152600b60205260409020805482111561152157805491505b600061153e6127106107a7600e548661185a90919063ffffffff16565b905061154b6107ba6111f7565b9050600660009054906101000a90046001600160a01b03166001600160a01b031663b69ef8a86040518163ffffffff1660e01b815260040160206040518083038186803b15801561159b57600080fd5b505afa1580156115af573d6000803e3d6000fd5b505050506040513d601f19601f820116820180604052508101906115d39190611d20565b81111561166357600660009054906101000a90046001600160a01b03166001600160a01b031663b69ef8a86040518163ffffffff1660e01b815260040160206040518083038186803b15801561162857600080fd5b505afa15801561163c573d6000803e3d6000fd5b505050506040513d601f19601f820116820180604052508101906116609190611d20565b90505b60065460075460405163a9059cbb60e01b81526001600160a01b039283169263a9059cbb92611699929116908590600401611db0565b600060405180830381600087803b1580156116b357600080fd5b505af11580156116c7573d6000803e3d6000fd5b505083546116d89250905084611818565b8255504360048201554260039091015550565b6008546001600160a01b031633148061170e57506009546001600160a01b031633145b806117235750600a546001600160a01b031633145b61173f5760405162461bcd60e51b81526004016104d290611e9d565b600760009054906101000a90046001600160a01b03166001600160a01b031663a425632f6040518163ffffffff1660e01b8152600401600060405180830381600087803b15801561070057600080fd5b6009546001600160a01b031681565b6005546001600160a01b031681565b6001600160a01b03166000908152600b6020526040902080546001820154600283015460038401546004909401549294909391929190565b600061110d82611944565b60006117fc8383611948565b9392505050565b60006117fc836001600160a01b0384166119a1565b60006117fc83836040518060400160405280601e81526020017f536166654d6174683a207375627472616374696f6e206f766572666c6f7700008152506119b9565b6000826118695750600061110d565b60006118758385612033565b9050826118828583612013565b146117fc5760405162461bcd60e51b81526004016104d290611f6c565b60006117fc83836040518060400160405280601a81526020017f536166654d6174683a206469766973696f6e206279207a65726f0000000000008152506119f3565b6118ec600c82611803565b6118fd576118fb600c82611a21565b505b50565b60008061190d8385611ffb565b9050838110156117fc5760405162461bcd60e51b81526004016104d290611ec8565b60006117fc836001600160a01b038416611a36565b5490565b8154600090821061196b5760405162461bcd60e51b81526004016104d290611e5b565b82600001828154811061198e57634e487b7160e01b600052603260045260246000fd5b9060005260206000200154905092915050565b60009081526001919091016020526040902054151590565b600081848411156119dd5760405162461bcd60e51b81526004016104d29190611e08565b5060006119ea8486612052565b95945050505050565b60008183611a145760405162461bcd60e51b81526004016104d29190611e08565b5060006119ea8486612013565b60006117fc836001600160a01b038416611b53565b60008181526001830160205260408120548015611b49576000611a5a600183612052565b8554909150600090611a6e90600190612052565b90506000866000018281548110611a9557634e487b7160e01b600052603260045260246000fd5b9060005260206000200154905080876000018481548110611ac657634e487b7160e01b600052603260045260246000fd5b600091825260209091200155611add836001611ffb565b60008281526001890160205260409020558654879080611b0d57634e487b7160e01b600052603160045260246000fd5b6001900381819060005260206000200160009055905586600101600087815260200190815260200160002060009055600194505050505061110d565b600091505061110d565b6000611b5f83836119a1565b611b955750815460018181018455600084815260208082209093018490558454848252828601909352604090209190915561110d565b50600061110d565b80356001600160a01b0381168114610c6657600080fd5b600060208284031215611bc5578081fd5b6117fc82611b9d565b60008060408385031215611be0578081fd5b611be983611b9d565b9150611bf760208401611b9d565b90509250929050565b60008060408385031215611c12578182fd5b611c1b83611b9d565b946020939093013593505050565b60006020808385031215611c3b578182fd5b825167ffffffffffffffff80821115611c52578384fd5b818501915085601f830112611c65578384fd5b815181811115611c7757611c7761209a565b838102604051601f19603f83011681018181108582111715611c9b57611c9b61209a565b604052828152858101935084860182860187018a1015611cb9578788fd5b8795505b83861015611cdb578051855260019590950194938601938601611cbd565b5098975050505050505050565b600060208284031215611cf9578081fd5b813580151581146117fc578182fd5b600060208284031215611d19578081fd5b5035919050565b600060208284031215611d31578081fd5b5051919050565b60008060408385031215611d4a578182fd5b50508035926020909101359150565b6000815180845260208085019450808401835b83811015611d915781516001600160a01b031687529582019590820190600101611d6c565b509495945050505050565b6001600160a01b0391909116815260200190565b6001600160a01b03929092168252602082015260400190565b6000602082526117fc6020830184611d59565b901515815260200190565b600083825260406020830152611e006040830184611d59565b949350505050565b6000602080835283518082850152825b81811015611e3457858101830151858201604001528201611e18565b81811115611e455783604083870101525b50601f01601f1916929092016040019392505050565b60208082526022908201527f456e756d657261626c655365743a20696e646578206f7574206f6620626f756e604082015261647360f01b606082015260800190565b6020808252601190820152700858591b5a5b881bdc88189858dad95b99607a1b604082015260600190565b6020808252601b908201527f536166654d6174683a206164646974696f6e206f766572666c6f770000000000604082015260600190565b6020808252600e908201526d1a5b9d985b1a5908185b5bdd5b9d60921b604082015260600190565b60208082526006908201526510b0b236b4b760d11b604082015260600190565b6020808252600b908201526a10b2bc34b9ba103ab9b2b960a91b604082015260600190565b60208082526021908201527f536166654d6174683a206d756c7469706c69636174696f6e206f766572666c6f6040820152607760f81b606082015260800190565b60208082526008908201526708589858dad95b9960c21b604082015260600190565b90815260200190565b948552602085019390935260408401919091526060830152608082015260a00190565b6000821982111561200e5761200e612084565b500190565b60008261202e57634e487b7160e01b81526012600452602481fd5b500490565b600081600019048311821515161561204d5761204d612084565b500290565b60008282101561206457612064612084565b500390565b600060001982141561207d5761207d612084565b5060010190565b634e487b7160e01b600052601160045260246000fd5b634e487b7160e01b600052604160045260246000fdfea2646970667358221220e1129a1c504c0810f5454851deef7cdbe25356ad28f9a82b4b4defc8f9fe86f964736f6c63430008010033608060405234801561001057600080fd5b50604051610bb7380380610bb783398101604081905261002f91610097565b600180546001600160a01b03199081163317909155600380546001600160a01b0393841690831681179091556002805483169091179055600080549390921692169190911790556100c9565b80516001600160a01b038116811461009257600080fd5b919050565b600080604083850312156100a9578182fd5b6100b28361007b565b91506100c06020840161007b565b90509250929050565b610adf806100d86000396000f3fe608060405234801561001057600080fd5b50600436106100ea5760003560e01c8063a9059cbb1161008c578063b6b55f2511610066578063b6b55f25146101a6578063de5f6268146101b9578063f77c4791146101c1578063f851a440146101c9576100ea565b8063a9059cbb14610176578063ad36712e14610189578063b69ef8a814610191576100ea565b8063704b6c02116100c8578063704b6c0214610135578063851e3ca514610148578063853828b61461015b57806392eefe9b14610163576100ea565b80632e1a7d4d146100ef5780635aa6e67514610104578063664a61f214610122575b600080fd5b6101026100fd36600461086a565b6101d1565b005b61010c610262565b60405161011991906108b6565b60405180910390f35b610102610130366004610807565b610271565b610102610143366004610807565b6102e7565b610102610156366004610807565b610348565b6101026103a9565b610102610171366004610807565b6103b6565b610102610184366004610821565b610417565b61010c610476565b610199610485565b6040516101199190610a74565b6101026101b436600461086a565b61050b565b610102610523565b61010c6105a5565b61010c6105b4565b6002546001600160a01b03163314806101f457506003546001600160a01b031633145b8061020957506001546001600160a01b031633145b61022e5760405162461bcd60e51b8152600401610225906109c5565b60405180910390fd5b610236610485565b81111561024857610245610485565b90505b60005461025f906001600160a01b031633836105c3565b50565b6002546001600160a01b031681565b6002546001600160a01b031633148061029457506003546001600160a01b031633145b806102a957506001546001600160a01b031633145b6102c55760405162461bcd60e51b8152600401610225906109c5565b600080546001600160a01b0319166001600160a01b0392909216919091179055565b6002546001600160a01b031633148061030a57506003546001600160a01b031633145b6103265760405162461bcd60e51b8152600401610225906109a5565b600380546001600160a01b0319166001600160a01b0392909216919091179055565b6002546001600160a01b031633148061036b57506003546001600160a01b031633145b6103875760405162461bcd60e51b8152600401610225906109a5565b600280546001600160a01b0319166001600160a01b0392909216919091179055565b6103b46100fd610485565b565b6002546001600160a01b03163314806103d957506003546001600160a01b031633145b6103f55760405162461bcd60e51b8152600401610225906109a5565b600180546001600160a01b0319166001600160a01b0392909216919091179055565b6001546001600160a01b031633146104415760405162461bcd60e51b81526004016102259061093a565b610449610485565b81111561045b57610458610485565b90505b600054610472906001600160a01b031683836105c3565b5050565b6000546001600160a01b031681565b600080546040516370a0823160e01b81526001600160a01b03909116906370a08231906104b69030906004016108b6565b60206040518083038186803b1580156104ce57600080fd5b505afa1580156104e2573d6000803e3d6000fd5b505050506040513d601f19601f820116820180604052508101906105069190610882565b905090565b60005461025f906001600160a01b031633308461061e565b6000546040516370a0823160e01b81526103b4916001600160a01b0316906370a08231906105559033906004016108b6565b60206040518083038186803b15801561056d57600080fd5b505afa158015610581573d6000803e3d6000fd5b505050506040513d601f19601f820116820180604052508101906101b49190610882565b6001546001600160a01b031681565b6003546001600160a01b031681565b6106198363a9059cbb60e01b84846040516024016105e29291906108ee565b60408051601f198184030181529190526020810180516001600160e01b03166001600160e01b031990931692909217909152610645565b505050565b61063f846323b872dd60e01b8585856040516024016105e2939291906108ca565b50505050565b600061069a826040518060400160405280602081526020017f5361666545524332303a206c6f772d6c6576656c2063616c6c206661696c6564815250856001600160a01b03166106d49092919063ffffffff16565b80519091501561061957808060200190518101906106b8919061084a565b6106195760405162461bcd60e51b815260040161022590610a2a565b60606106e384846000856106ed565b90505b9392505050565b60608247101561070f5760405162461bcd60e51b81526004016102259061095f565b610718856107ad565b6107345760405162461bcd60e51b8152600401610225906109f3565b600080866001600160a01b03168587604051610750919061089a565b60006040518083038185875af1925050503d806000811461078d576040519150601f19603f3d011682016040523d82523d6000602084013e610792565b606091505b50915091506107a28282866107b7565b979650505050505050565b803b15155b919050565b606083156107c65750816106e6565b8251156107d65782518084602001fd5b8160405162461bcd60e51b81526004016102259190610907565b80356001600160a01b03811681146107b257600080fd5b600060208284031215610818578081fd5b6106e6826107f0565b60008060408385031215610833578081fd5b61083c836107f0565b946020939093013593505050565b60006020828403121561085b578081fd5b815180151581146106e6578182fd5b60006020828403121561087b578081fd5b5035919050565b600060208284031215610893578081fd5b5051919050565b600082516108ac818460208701610a7d565b9190910192915050565b6001600160a01b0391909116815260200190565b6001600160a01b039384168152919092166020820152604081019190915260600190565b6001600160a01b03929092168252602082015260400190565b6000602082528251806020840152610926816040850160208701610a7d565b601f01601f19169190910160400192915050565b6020808252600b908201526a10b1b7b73a3937b63632b960a91b604082015260600190565b60208082526026908201527f416464726573733a20696e73756666696369656e742062616c616e636520666f6040820152651c8818d85b1b60d21b606082015260800190565b60208082526006908201526510b0b236b4b760d11b604082015260600190565b60208082526014908201527310b0b236b4b71037b91031b7b73a3937b63632b960611b604082015260600190565b6020808252601d908201527f416464726573733a2063616c6c20746f206e6f6e2d636f6e7472616374000000604082015260600190565b6020808252602a908201527f5361666545524332303a204552433230206f7065726174696f6e20646964206e6040820152691bdd081cdd58d8d9595960b21b606082015260800190565b90815260200190565b60005b83811015610a98578181015183820152602001610a80565b8381111561063f575050600091015256fea2646970667358221220f6c78eb8bf70e7388d7ea07f24c5b1de233c3b0806a1908c365dddb4cde6c87364736f6c63430008010033608060405262278d006006556203f480600755610bb8600a55611388600b556107d0600c553480156200003157600080fd5b5060405162001e6c38038062001e6c8339810160408190526200005491620000c2565b600180546001600160a01b03199081163317909155600380546001600160a01b03938416908316811790915560028054831690911790556000805493909216921691909117905542600855620000f9565b80516001600160a01b0381168114620000bd57600080fd5b919050565b60008060408385031215620000d5578182fd5b620000e083620000a5565b9150620000f060208401620000a5565b90509250929050565b611d6380620001096000396000f3fe608060405234801561001057600080fd5b506004361061025e5760003560e01c80638d35613111610146578063bd6018bb116100c3578063e538b28011610087578063e538b28014610439578063e88958dc1461044c578063f77c479114610454578063f851a4401461045c578063fb75817d14610464578063fbfa77cf146104775761025e565b8063bd6018bb14610406578063d73792a914610419578063d82faa4814610421578063dcb0f85814610429578063de5f6268146104315761025e565b8063ad36712e1161010a578063ad36712e146103c6578063b103929b146103ce578063b31dbd34146103e3578063b69ef8a8146103eb578063b6b55f25146103f35761025e565b80638d356131146103935780638ea5220f1461039b57806392eefe9b146103a35780639994673d146103b6578063a425632f146103be5761025e565b806354e48122116101df5780636817031b116101a35780636817031b146103375780636827e7641461034a578063704b6c02146103525780637da5790b14610365578063851e3ca514610378578063853828b61461038b5761025e565b806354e48122146102f75780635aa6e675146102ff5780635ccbdcc0146103145780635cfdd4f51461031c578063664a61f2146103245761025e565b806312eb4f9a1161022657806312eb4f9a146102b95780631d2d7507146102c15780631f53ac02146102c95780632e1a7d4d146102dc578063417745e9146102ef5761025e565b806301ac145b14610263578063079cff0a14610281578063091dffca146102895780630af01b0f1461029357806310c9e0ca146102a6575b600080fd5b61026b61047f565b6040516102789190611c59565b60405180910390f35b61026b610485565b61029161048b565b005b6102916102a1366004611745565b610565565b6102916102b436600461178e565b6105f1565b61026b610635565b61026b61063b565b6102916102d736600461172b565b610641565b6102916102ea36600461178e565b6106b7565b61026b61073c565b610291610742565b61030761081c565b6040516102789190611805565b61026b61082b565b61026b610831565b61029161033236600461172b565b610837565b61029161034536600461172b565b6108ad565b61026b610923565b61029161036036600461172b565b610929565b61026b61037336600461172b565b61098a565b61029161038636600461172b565b61099c565b6102916109fd565b610291610a0a565b610307610b2a565b6102916103b136600461172b565b610b39565b61026b610b9a565b610291610ba0565b610307610c09565b6103d6610c18565b6040516102789190611856565b610291610ce7565b61026b610dff565b61029161040136600461178e565b610e85565b61029161041436600461172b565b610e9d565b61026b610f10565b61026b610f16565b610291610f22565b610291610fde565b6102916104473660046117be565b611060565b61026b6110e4565b6103076110ea565b6103076110f9565b61029161047236600461178e565b611108565b61030761114c565b600b5481565b60095481565b426104a360065460085461115b90919063ffffffff16565b106104c95760405162461bcd60e51b81526004016104c09061195c565b60405180910390fd5b426104e160075460095461115b90919063ffffffff16565b116104fe5760405162461bcd60e51b81526004016104c090611a8e565b6004546001600160a01b031633146105285760405162461bcd60e51b81526004016104c090611b06565b600e54610533610dff565b81111561054557610542610dff565b90505b600454600054610562916001600160a01b03918216911683611193565b50565b6003546001600160a01b031633148061058857506002546001600160a01b031633145b8061059d57506001546001600160a01b031633145b6105b95760405162461bcd60e51b81526004016104c090611b26565b6105c46011836111ee565b6105d5576105d3601183611203565b505b6001600160a01b03909116600090815260106020526040902055565b6002546001600160a01b031633148061061457506003546001600160a01b031633145b6106305760405162461bcd60e51b81526004016104c090611a6e565b600655565b60075481565b60085481565b6003546001600160a01b031633148061066457506002546001600160a01b031633145b8061067957506001546001600160a01b031633145b6106955760405162461bcd60e51b81526004016104c090611b26565b600580546001600160a01b0319166001600160a01b0392909216919091179055565b6002546001600160a01b03163314806106da57506003546001600160a01b031633145b806106ef57506001546001600160a01b031633145b61070b5760405162461bcd60e51b81526004016104c090611b26565b610713610dff565b81111561072557610722610dff565b90505b600054610562906001600160a01b03163383611193565b600d5481565b4261075a60065460085461115b90919063ffffffff16565b106107775760405162461bcd60e51b81526004016104c09061195c565b4261078f60075460095461115b90919063ffffffff16565b116107ac5760405162461bcd60e51b81526004016104c090611a8e565b6107b76011326111ee565b6107d35760405162461bcd60e51b81526004016104c09061199e565b60006108026107e0611218565b32600090815260106020526040902054600d546107fc91611278565b906112bd565b600054909150610562906001600160a01b03163283611193565b6002546001600160a01b031681565b60065481565b600f5481565b6002546001600160a01b031633148061085a57506003546001600160a01b031633145b8061086f57506001546001600160a01b031633145b61088b5760405162461bcd60e51b81526004016104c090611b26565b600080546001600160a01b0319166001600160a01b0392909216919091179055565b6003546001600160a01b03163314806108d057506002546001600160a01b031633145b806108e557506001546001600160a01b031633145b6109015760405162461bcd60e51b81526004016104c090611b26565b600480546001600160a01b0319166001600160a01b0392909216919091179055565b600c5481565b6002546001600160a01b031633148061094c57506003546001600160a01b031633145b6109685760405162461bcd60e51b81526004016104c090611a6e565b600380546001600160a01b0319166001600160a01b0392909216919091179055565b60106020526000908152604090205481565b6002546001600160a01b03163314806109bf57506003546001600160a01b031633145b6109db5760405162461bcd60e51b81526004016104c090611a6e565b600280546001600160a01b0319166001600160a01b0392909216919091179055565b610a086102ea610dff565b565b42610a2260065460085461115b90919063ffffffff16565b10610a3f5760405162461bcd60e51b81526004016104c09061195c565b42610a5760075460095461115b90919063ffffffff16565b11610a745760405162461bcd60e51b81526004016104c090611a8e565b6005546001600160a01b0316610a9c5760405162461bcd60e51b81526004016104c090611a43565b6002546001600160a01b0316331480610abf57506003546001600160a01b031633145b80610ad457506001546001600160a01b031633145b610af05760405162461bcd60e51b81526004016104c090611b26565b600f54610afb610dff565b811115610b0d57610b0a610dff565b90505b600554600054610562916001600160a01b03918216911683611193565b6005546001600160a01b031681565b6002546001600160a01b0316331480610b5c57506003546001600160a01b031633145b610b785760405162461bcd60e51b81526004016104c090611a6e565b600180546001600160a01b0319166001600160a01b0392909216919091179055565b600e5481565b6002546001600160a01b0316331480610bc357506003546001600160a01b031633145b80610bd857506001546001600160a01b031633145b610bf45760405162461bcd60e51b81526004016104c090611b26565b426008556000600f819055600e819055600d55565b6000546001600160a01b031681565b60606000610c2660116112ff565b67ffffffffffffffff811115610c4c57634e487b7160e01b600052604160045260246000fd5b604051908082528060200260200182016040528015610c75578160200160208202803683370190505b50905060005b610c8560116112ff565b811015610ce157610c97601182611312565b828281518110610cb757634e487b7160e01b600052603260045260246000fd5b6001600160a01b039092166020928302919091019091015280610cd981611cfc565b915050610c7b565b50905090565b6002546001600160a01b0316331480610d0a57506003546001600160a01b031633145b80610d1f57506001546001600160a01b031633145b610d3b5760405162461bcd60e51b81526004016104c090611b26565b42610d5360065460085461115b90919063ffffffff16565b10610d705760405162461bcd60e51b81526004016104c090611918565b42610d8860075460095461115b90919063ffffffff16565b10610da55760405162461bcd60e51b81526004016104c090611ba1565b42600981905550610dc66127106107fc600c54610dc0610dff565b90611278565b600f81905550610de06127106107fc600a54610dc0610dff565b600d81905550610dfa6127106107fc600b54610dc0610dff565b600e55565b600080546040516370a0823160e01b81526001600160a01b03909116906370a0823190610e30903090600401611805565b60206040518083038186803b158015610e4857600080fd5b505afa158015610e5c573d6000803e3d6000fd5b505050506040513d601f19601f82011682018060405250810190610e8091906117a6565b905090565b600054610562906001600160a01b031633308461131e565b6003546001600160a01b0316331480610ec057506002546001600160a01b031633145b80610ed557506001546001600160a01b031633145b610ef15760405162461bcd60e51b81526004016104c090611b26565b610efc6011826111ee565b1561056257610f0c601182611345565b5050565b61271081565b6000610e8060116112ff565b42610f3a60065460085461115b90919063ffffffff16565b10610f575760405162461bcd60e51b81526004016104c09061195c565b42610f6f60075460095461115b90919063ffffffff16565b11610f8c5760405162461bcd60e51b81526004016104c090611a8e565b6005546001600160a01b0316610fb45760405162461bcd60e51b81526004016104c090611a43565b6005546001600160a01b03163314610af05760405162461bcd60e51b81526004016104c090611b7e565b6000546040516370a0823160e01b8152610a08916001600160a01b0316906370a0823190611010903390600401611805565b60206040518083038186803b15801561102857600080fd5b505afa15801561103c573d6000803e3d6000fd5b505050506040513d601f19601f8201168201806040525081019061040191906117a6565b6002546001600160a01b031633148061108357506003546001600160a01b031633145b61109f5760405162461bcd60e51b81526004016104c090611a6e565b6127106110b6826110b0868661115b565b9061115b565b146110d35760405162461bcd60e51b81526004016104c090611b54565b600a92909255600c91909155600b55565b600a5481565b6001546001600160a01b031681565b6003546001600160a01b031681565b6002546001600160a01b031633148061112b57506003546001600160a01b031633145b6111475760405162461bcd60e51b81526004016104c090611a6e565b600755565b6004546001600160a01b031681565b6000806111688385611c62565b90508381101561118a5760405162461bcd60e51b81526004016104c0906119c6565b90505b92915050565b6111e98363a9059cbb60e01b84846040516024016111b292919061183d565b60408051601f198184030181529190526020810180516001600160e01b03166001600160e01b03199093169290921790915261135a565b505050565b600061118a836001600160a01b0384166113e9565b600061118a836001600160a01b038416611401565b6000805b61122660116112ff565b811015611274576112606010600061123f601185611312565b6001600160a01b03168152602081019190915260400160002054839061115b565b91508061126c81611cfc565b91505061121c565b5090565b6000826112875750600061118d565b60006112938385611c9a565b9050826112a08583611c7a565b1461118a5760405162461bcd60e51b81526004016104c090611ac5565b600061118a83836040518060400160405280601a81526020017f536166654d6174683a206469766973696f6e206279207a65726f00000000000081525061144b565b600061130a82611484565b90505b919050565b600061118a8383611488565b61133f846323b872dd60e01b8585856040516024016111b293929190611819565b50505050565b600061118a836001600160a01b0384166114e1565b60006113af826040518060400160405280602081526020017f5361666545524332303a206c6f772d6c6576656c2063616c6c206661696c6564815250856001600160a01b03166115fe9092919063ffffffff16565b8051909150156111e957808060200190518101906113cd919061176e565b6111e95760405162461bcd60e51b81526004016104c090611c0f565b60009081526001919091016020526040902054151590565b600061140d83836113e9565b6114435750815460018181018455600084815260208082209093018490558454848252828601909352604090209190915561118d565b50600061118d565b6000818361146c5760405162461bcd60e51b81526004016104c091906118a3565b5060006114798486611c7a565b9150505b9392505050565b5490565b815460009082106114ab5760405162461bcd60e51b81526004016104c0906118d6565b8260000182815481106114ce57634e487b7160e01b600052603260045260246000fd5b9060005260206000200154905092915050565b600081815260018301602052604081205480156115f4576000611505600183611cb9565b855490915060009061151990600190611cb9565b9050600086600001828154811061154057634e487b7160e01b600052603260045260246000fd5b906000526020600020015490508087600001848154811061157157634e487b7160e01b600052603260045260246000fd5b600091825260209091200155611588836001611c62565b600082815260018901602052604090205586548790806115b857634e487b7160e01b600052603160045260246000fd5b6001900381819060005260206000200160009055905586600101600087815260200190815260200160002060009055600194505050505061118d565b600091505061118d565b606061160d8484600085611615565b949350505050565b6060824710156116375760405162461bcd60e51b81526004016104c0906119fd565b611640856116d5565b61165c5760405162461bcd60e51b81526004016104c090611bd8565b600080866001600160a01b0316858760405161167891906117e9565b60006040518083038185875af1925050503d80600081146116b5576040519150601f19603f3d011682016040523d82523d6000602084013e6116ba565b606091505b50915091506116ca8282866116db565b979650505050505050565b3b151590565b606083156116ea57508161147d565b8251156116fa5782518084602001fd5b8160405162461bcd60e51b81526004016104c091906118a3565b80356001600160a01b038116811461130d57600080fd5b60006020828403121561173c578081fd5b61118a82611714565b60008060408385031215611757578081fd5b61176083611714565b946020939093013593505050565b60006020828403121561177f578081fd5b8151801515811461118a578182fd5b60006020828403121561179f578081fd5b5035919050565b6000602082840312156117b7578081fd5b5051919050565b6000806000606084860312156117d2578081fd5b505081359360208301359350604090920135919050565b600082516117fb818460208701611cd0565b9190910192915050565b6001600160a01b0391909116815260200190565b6001600160a01b039384168152919092166020820152604081019190915260600190565b6001600160a01b03929092168252602082015260400190565b6020808252825182820181905260009190848201906040850190845b818110156118975783516001600160a01b031683529284019291840191600101611872565b50909695505050505050565b60006020825282518060208401526118c2816040850160208701611cd0565b601f01601f19169190910160400192915050565b60208082526022908201527f456e756d657261626c655365743a20696e646578206f7574206f6620626f756e604082015261647360f01b606082015260800190565b60208082526024908201527f21617661696c61626c6520746f20756e6c6f636b20746f207769746864617277604082015263081e595d60e21b606082015260800190565b60208082526022908201527f21617661696c61626c6520746f20776974686461727720726577617264732079604082015261195d60f21b606082015260800190565b6020808252600e908201526d10b2bc34b9ba1031b932b0ba37b960911b604082015260600190565b6020808252601b908201527f536166654d6174683a206164646974696f6e206f766572666c6f770000000000604082015260600190565b60208082526026908201527f416464726573733a20696e73756666696369656e742062616c616e636520666f6040820152651c8818d85b1b60d21b606082015260800190565b602080825260119082015270085d985b1a590819195d881dd85b1b195d607a1b604082015260600190565b60208082526006908201526510b0b236b4b760d11b604082015260600190565b60208082526017908201527f6578706972656420776974686472617720706572696f64000000000000000000604082015260600190565b60208082526021908201527f536166654d6174683a206d756c7469706c69636174696f6e206f766572666c6f6040820152607760f81b606082015260800190565b602080825260069082015265085d985d5b1d60d21b604082015260600190565b60208082526014908201527310b0b236b4b71037b91031b7b73a3937b63632b960611b604082015260600190565b60208082526010908201526f2176616c69642066656520726174657360801b604082015260600190565b60208082526009908201526821646576207465616d60b81b604082015260600190565b6020808252601a908201527f616c726561647920696e20776974686472617720706572696f64000000000000604082015260600190565b6020808252601d908201527f416464726573733a2063616c6c20746f206e6f6e2d636f6e7472616374000000604082015260600190565b6020808252602a908201527f5361666545524332303a204552433230206f7065726174696f6e20646964206e6040820152691bdd081cdd58d8d9595960b21b606082015260800190565b90815260200190565b60008219821115611c7557611c75611d17565b500190565b600082611c9557634e487b7160e01b81526012600452602481fd5b500490565b6000816000190483118215151615611cb457611cb4611d17565b500290565b600082821015611ccb57611ccb611d17565b500390565b60005b83811015611ceb578181015183820152602001611cd3565b8381111561133f5750506000910152565b6000600019821415611d1057611d10611d17565b5060010190565b634e487b7160e01b600052601160045260246000fdfea26469706673582212208fb8922124c513c1462220fd5b3ce8b2fe06ea44327f8f982fb6942ca5b898d164736f6c63430008010033",
  "linkReferences": {},
  "deployedLinkReferences": {}
}