{
  "_format": "hh-sol-artifact-1",
  "contractName": "Controller",
  "sourceName": "contracts/Controller.sol",
  "abi": [
    {
      "inputs": [
        {
          "internalType": "address",
          "name": "_ptm",
          "type": "address"
        },
        {
          "internalType": "address",
          "name": "_vault",
          "type": "address"
        }
      ],
      "stateMutability": "nonpayable",
      "type": "constructor"
    },
    {
      "inputs": [],
      "name": "FEE_DENOMINATOR",
      "outputs": [
        {
          "internalType": "uint256",
          "name": "",
          "type": "uint256"
        }
      ],
      "stateMutability": "view",
      "type": "function"
    },
    {
      "inputs": [],
      "name": "admin",
      "outputs": [
        {
          "internalType": "address",
          "name": "",
          "type": "address"
        }
      ],
      "stateMutability": "view",
      "type": "function"
    },
    {
      "inputs": [],
      "name": "backend",
      "outputs": [
        {
          "internalType": "address",
          "name": "",
          "type": "address"
        }
      ],
      "stateMutability": "view",
      "type": "function"
    },
    {
      "inputs": [
        {
          "internalType": "address",
          "name": "_user",
          "type": "address"
        }
      ],
      "name": "balanceOf",
      "outputs": [
        {
          "internalType": "uint256",
          "name": "",
          "type": "uint256"
        }
      ],
      "stateMutability": "view",
      "type": "function"
    },
    {
      "inputs": [
        {
          "internalType": "address",
          "name": "_user",
          "type": "address"
        }
      ],
      "name": "balanceOfFiat",
      "outputs": [
        {
          "internalType": "uint256",
          "name": "",
          "type": "uint256"
        }
      ],
      "stateMutability": "view",
      "type": "function"
    },
    {
      "inputs": [],
      "name": "busd",
      "outputs": [
        {
          "internalType": "address",
          "name": "",
          "type": "address"
        }
      ],
      "stateMutability": "view",
      "type": "function"
    },
    {
      "inputs": [
        {
          "internalType": "address",
          "name": "_to",
          "type": "address"
        },
        {
          "internalType": "uint256",
          "name": "_amount",
          "type": "uint256"
        }
      ],
      "name": "depositWallet",
      "outputs": [],
      "stateMutability": "nonpayable",
      "type": "function"
    },
    {
      "inputs": [
        {
          "internalType": "bool",
          "name": "_flag",
          "type": "bool"
        }
      ],
      "name": "disableRouter",
      "outputs": [],
      "stateMutability": "nonpayable",
      "type": "function"
    },
    {
      "inputs": [],
      "name": "disabledRouter",
      "outputs": [
        {
          "internalType": "bool",
          "name": "",
          "type": "bool"
        }
      ],
      "stateMutability": "view",
      "type": "function"
    },
    {
      "inputs": [],
      "name": "enableTestnet",
      "outputs": [],
      "stateMutability": "nonpayable",
      "type": "function"
    },
    {
      "inputs": [],
      "name": "fiatWithdrawFee",
      "outputs": [
        {
          "internalType": "uint256",
          "name": "",
          "type": "uint256"
        }
      ],
      "stateMutability": "view",
      "type": "function"
    },
    {
      "inputs": [],
      "name": "governance",
      "outputs": [
        {
          "internalType": "address",
          "name": "",
          "type": "address"
        }
      ],
      "stateMutability": "view",
      "type": "function"
    },
    {
      "inputs": [],
      "name": "ptm",
      "outputs": [
        {
          "internalType": "contract IERC20",
          "name": "",
          "type": "address"
        }
      ],
      "stateMutability": "view",
      "type": "function"
    },
    {
      "inputs": [],
      "name": "ptmPrice",
      "outputs": [
        {
          "internalType": "uint256",
          "name": "_price",
          "type": "uint256"
        }
      ],
      "stateMutability": "view",
      "type": "function"
    },
    {
      "inputs": [],
      "name": "ptmWithdrawFee",
      "outputs": [
        {
          "internalType": "uint256",
          "name": "",
          "type": "uint256"
        }
      ],
      "stateMutability": "view",
      "type": "function"
    },
    {
      "inputs": [],
      "name": "rewardPool",
      "outputs": [
        {
          "internalType": "contract RewardPool",
          "name": "",
          "type": "address"
        }
      ],
      "stateMutability": "view",
      "type": "function"
    },
    {
      "inputs": [
        {
          "internalType": "address",
          "name": "_admin",
          "type": "address"
        }
      ],
      "name": "setAdmin",
      "outputs": [],
      "stateMutability": "nonpayable",
      "type": "function"
    },
    {
      "inputs": [
        {
          "internalType": "address",
          "name": "_backend",
          "type": "address"
        }
      ],
      "name": "setBackend",
      "outputs": [],
      "stateMutability": "nonpayable",
      "type": "function"
    },
    {
      "inputs": [
        {
          "internalType": "uint256",
          "name": "_fee",
          "type": "uint256"
        }
      ],
      "name": "setFiatWithdrawFee",
      "outputs": [],
      "stateMutability": "nonpayable",
      "type": "function"
    },
    {
      "inputs": [
        {
          "internalType": "address",
          "name": "_governance",
          "type": "address"
        }
      ],
      "name": "setGovernace",
      "outputs": [],
      "stateMutability": "nonpayable",
      "type": "function"
    },
    {
      "inputs": [
        {
          "internalType": "address",
          "name": "_ptm",
          "type": "address"
        }
      ],
      "name": "setPTM",
      "outputs": [],
      "stateMutability": "nonpayable",
      "type": "function"
    },
    {
      "inputs": [
        {
          "internalType": "uint256",
          "name": "_fee",
          "type": "uint256"
        }
      ],
      "name": "setPtmWithdrawFee",
      "outputs": [],
      "stateMutability": "nonpayable",
      "type": "function"
    },
    {
      "inputs": [
        {
          "internalType": "uint256",
          "name": "_price",
          "type": "uint256"
        }
      ],
      "name": "setStaticPtmPrice",
      "outputs": [],
      "stateMutability": "nonpayable",
      "type": "function"
    },
    {
      "inputs": [
        {
          "internalType": "address",
          "name": "_vault",
          "type": "address"
        }
      ],
      "name": "setVault",
      "outputs": [],
      "stateMutability": "nonpayable",
      "type": "function"
    },
    {
      "inputs": [],
      "name": "startDistributeRewards",
      "outputs": [],
      "stateMutability": "nonpayable",
      "type": "function"
    },
    {
      "inputs": [],
      "name": "staticPtmPrice",
      "outputs": [
        {
          "internalType": "uint256",
          "name": "",
          "type": "uint256"
        }
      ],
      "stateMutability": "view",
      "type": "function"
    },
    {
      "inputs": [],
      "name": "stopDistributeRewards",
      "outputs": [],
      "stateMutability": "nonpayable",
      "type": "function"
    },
    {
      "inputs": [],
      "name": "systemPool",
      "outputs": [
        {
          "internalType": "contract SystemPool",
          "name": "",
          "type": "address"
        }
      ],
      "stateMutability": "view",
      "type": "function"
    },
    {
      "inputs": [
        {
          "internalType": "uint256",
          "name": "_amount",
          "type": "uint256"
        },
        {
          "internalType": "uint256",
          "name": "_percentage",
          "type": "uint256"
        }
      ],
      "name": "takeTranactionFee",
      "outputs": [],
      "stateMutability": "nonpayable",
      "type": "function"
    },
    {
      "inputs": [],
      "name": "uniswapRouter",
      "outputs": [
        {
          "internalType": "address",
          "name": "",
          "type": "address"
        }
      ],
      "stateMutability": "view",
      "type": "function"
    },
    {
      "inputs": [
        {
          "internalType": "address",
          "name": "_from",
          "type": "address"
        },
        {
          "internalType": "address",
          "name": "_to",
          "type": "address"
        }
      ],
      "name": "updateWallet",
      "outputs": [],
      "stateMutability": "nonpayable",
      "type": "function"
    },
    {
      "inputs": [
        {
          "internalType": "address",
          "name": "_to",
          "type": "address"
        },
        {
          "internalType": "uint256",
          "name": "_balance",
          "type": "uint256"
        }
      ],
      "name": "updateWalletBalance",
      "outputs": [],
      "stateMutability": "nonpayable",
      "type": "function"
    },
    {
      "inputs": [],
      "name": "userCount",
      "outputs": [
        {
          "internalType": "uint256",
          "name": "",
          "type": "uint256"
        }
      ],
      "stateMutability": "view",
      "type": "function"
    },
    {
      "inputs": [],
      "name": "userList",
      "outputs": [
        {
          "internalType": "address[]",
          "name": "",
          "type": "address[]"
        }
      ],
      "stateMutability": "view",
      "type": "function"
    },
    {
      "inputs": [],
      "name": "vault",
      "outputs": [
        {
          "internalType": "address",
          "name": "",
          "type": "address"
        }
      ],
      "stateMutability": "view",
      "type": "function"
    },
    {
      "inputs": [],
      "name": "wbnb",
      "outputs": [
        {
          "internalType": "address",
          "name": "",
          "type": "address"
        }
      ],
      "stateMutability": "view",
      "type": "function"
    },
    {
      "inputs": [
        {
          "internalType": "uint256",
          "name": "_amount",
          "type": "uint256"
        }
      ],
      "name": "withdraw",
      "outputs": [],
      "stateMutability": "nonpayable",
      "type": "function"
    },
    {
      "inputs": [
        {
          "internalType": "uint256",
          "name": "_amount",
          "type": "uint256"
        }
      ],
      "name": "withdrawFiat",
      "outputs": [],
      "stateMutability": "nonpayable",
      "type": "function"
    }
  ],
  "bytecode": "0x6080604052600080546001600160a01b031990811673e9e7cea3dedca5984780bafc599bd69add087d561790915560018054821673bb4cdb9cbd36b01bd1cbaebf2de08d9173bc095c1790556002805460ff60a01b1992167305ff2b0db69458a0750badebc4f9e13add608c7f17919091169055670de0b6b3a7640000600355610bb8600e556107d0600f553480156200009857600080fd5b506040516200535738038062005357833981016040819052620000bb91620002be565b600480546001600160a01b038085166001600160a01b03199283161790925560088054821633908117909155600980548316821790556005805493851693909216929092179055604051839190620001139062000285565b6200012092919062000309565b604051809103906000f0801580156200013d573d6000803e3d6000fd5b50600660006101000a8154816001600160a01b0302191690836001600160a01b031602179055508133604051620001749062000293565b6200018192919062000309565b604051809103906000f0801580156200019e573d6000803e3d6000fd5b50600780546001600160a01b0319166001600160a01b039283161790819055604051636817031b60e01b8152911690636817031b90620001e3908490600401620002f5565b600060405180830381600087803b158015620001fe57600080fd5b505af115801562000213573d6000803e3d6000fd5b5050600754604051630fa9d60160e11b81526001600160a01b039091169250631f53ac02915062000249903390600401620002f5565b600060405180830381600087803b1580156200026457600080fd5b505af115801562000279573d6000803e3d6000fd5b50505050505062000323565b610bd680620024bc83390190565b6122c5806200309283390190565b80516001600160a01b0381168114620002b957600080fd5b919050565b60008060408385031215620002d1578182fd5b620002dc83620002a1565b9150620002ec60208401620002a1565b90509250929050565b6001600160a01b0391909116815260200190565b6001600160a01b0392831681529116602082015260400190565b61218980620003336000396000f3fe608060405234801561001057600080fd5b50600436106102325760003560e01c806366666aa911610130578063acb0cf35116100b8578063e1c8c05a1161007c578063e1c8c05a14610421578063e57f8bd914610436578063eba233f614610449578063f851a44014610451578063fbfa77cf1461045957610232565b8063acb0cf35146103e3578063ad36712e146103eb578063d1820d94146103f3578063d73792a914610406578063da7fc24f1461040e57610232565b8063735de9f7116100ff578063735de9f7146103a5578063851e3ca5146103ad5780638861e646146103c05780638d72647e146103d3578063981275a2146103db57610232565b806366666aa9146103645780636817031b1461036c578063704b6c021461037f57806370a082311461039257610232565b80633ca5b234116101be57806359a7d9851161018257806359a7d985146103105780635aa6e675146103235780635f30040b1461032b57806363c5bb021461033e578063664a61f21461035157610232565b80633ca5b234146102c757806340acc862146102cf5780634812c021146102d75780634a6bb4a5146102ea57806352d442fa146102fd57610232565b806316f446ec1161020557806316f446ec146102895780631e48e7bb146102915780632e1a7d4d146102a457806336a6b1ab146102b75780633c0ad3f6146102bf57610232565b806307973ccf14610237578063099e4133146102555780630cc4c8961461026a5780630e0f785f14610274575b600080fd5b61023f610461565b60405161024c9190612095565b60405180910390f35b61025d610473565b60405161024c9190611e62565b610272610482565b005b61027c610514565b60405161024c9190611e8f565b6102726105e3565b61027261029f366004611dce565b610709565b6102726102b2366004611dce565b61074d565b61023f610b46565b61023f610b4c565b61025d610b52565b61025d610b61565b6102726102e5366004611cc6565b610b70565b6102726102f8366004611c94565b610bcf565b61023f61030b366004611c7a565b610c7f565b61027261031e366004611dce565b610c9e565b61025d610ce2565b610272610339366004611dae565b610cf1565b61027261034c366004611dfe565b610d4e565b61027261035f366004611c7a565b610f3c565b61025d611056565b61027261037a366004611c7a565b611065565b61027261038d366004611c7a565b6110eb565b61023f6103a0366004611c7a565b6111d3565b61025d611211565b6102726103bb366004611c7a565b611220565b6102726103ce366004611cc6565b611281565b61025d6112e6565b61023f6112f5565b61023f6114af565b61025d6114b5565b610272610401366004611dce565b6114c4565b61023f611508565b61027261041c366004611c7a565b61150e565b61042961156f565b60405161024c9190611ea2565b610272610444366004611dce565b61157f565b6102726117ad565b61025d611851565b61025d611860565b600061046d600c61186f565b90505b90565b600a546001600160a01b031681565b6008546001600160a01b03163314806104a557506009546001600160a01b031633145b6104ca5760405162461bcd60e51b81526004016104c190611fed565b60405180910390fd5b600080546001600160a01b0319908116738301f2213c0eed49a7e28ae4c3e91722919b8b47179091556001805490911673094616f0bdfb0b526bd735bf66eca0ad254ca81f179055565b60606000610522600c61186f565b67ffffffffffffffff81111561054857634e487b7160e01b600052604160045260246000fd5b604051908082528060200260200182016040528015610571578160200160208202803683370190505b50905060005b610581600c61186f565b8110156105dd57610593600c8261187a565b8282815181106105b357634e487b7160e01b600052603260045260246000fd5b6001600160a01b0390921660209283029190910190910152806105d58161210c565b915050610577565b50905090565b6008546001600160a01b031633148061060657506009546001600160a01b031633145b8061061b5750600a546001600160a01b031633145b6106375760405162461bcd60e51b81526004016104c190611f63565b600760009054906101000a90046001600160a01b03166001600160a01b031663b31dbd346040518163ffffffff1660e01b8152600401600060405180830381600087803b15801561068757600080fd5b505af115801561069b573d6000803e3d6000fd5b50505050600560009054906101000a90046001600160a01b03166001600160a01b0316636f4a2cd06040518163ffffffff1660e01b8152600401600060405180830381600087803b1580156106ef57600080fd5b505af1158015610703573d6000803e3d6000fd5b50505050565b6008546001600160a01b031633148061072c57506009546001600160a01b031633145b6107485760405162461bcd60e51b81526004016104c190611fed565b600f55565b610758600c3361188d565b6107745760405162461bcd60e51b81526004016104c19061200d565b600081116107945760405162461bcd60e51b81526004016104c190611fc5565b336000908152600b6020526040902080548211156107b157805491505b60006107e06127106107da6107d3600f546127106118a290919063ffffffff16565b86906118e4565b90611929565b90506107ff6107ed6112f5565b6107da83670de0b6b3a76400006118e4565b9050600660009054906101000a90046001600160a01b03166001600160a01b031663b69ef8a86040518163ffffffff1660e01b815260040160206040518083038186803b15801561084f57600080fd5b505afa158015610863573d6000803e3d6000fd5b505050506040513d601f19601f820116820180604052508101906108879190611de6565b81111561091757600660009054906101000a90046001600160a01b03166001600160a01b031663b69ef8a86040518163ffffffff1660e01b815260040160206040518083038186803b1580156108dc57600080fd5b505afa1580156108f0573d6000803e3d6000fd5b505050506040513d601f19601f820116820180604052508101906109149190611de6565b90505b60065460405163a9059cbb60e01b81526001600160a01b039091169063a9059cbb906109499033908590600401611e76565b600060405180830381600087803b15801561096357600080fd5b505af1158015610977573d6000803e3d6000fd5b5050505060006109986127106107da600f54876118e490919063ffffffff16565b90506109a56107ed6112f5565b9050600660009054906101000a90046001600160a01b03166001600160a01b031663b69ef8a86040518163ffffffff1660e01b815260040160206040518083038186803b1580156109f557600080fd5b505afa158015610a09573d6000803e3d6000fd5b505050506040513d601f19601f82011682018060405250810190610a2d9190611de6565b811115610abd57600660009054906101000a90046001600160a01b03166001600160a01b031663b69ef8a86040518163ffffffff1660e01b815260040160206040518083038186803b158015610a8257600080fd5b505afa158015610a96573d6000803e3d6000fd5b505050506040513d601f19601f82011682018060405250810190610aba9190611de6565b90505b60065460075460405163a9059cbb60e01b81526001600160a01b039283169263a9059cbb92610af3929116908590600401611e76565b600060405180830381600087803b158015610b0d57600080fd5b505af1158015610b21573d6000803e3d6000fd5b50508454610b3292509050856118a2565b835550504360048201554260039091015550565b600f5481565b60035481565b6000546001600160a01b031681565b6006546001600160a01b031681565b600a546001600160a01b03163314610b9a5760405162461bcd60e51b81526004016104c190612073565b6001600160a01b0382166000908152600b60205260409020818155436002820155426001820155610bca8361196b565b505050565b600a546001600160a01b03163314610bf95760405162461bcd60e51b81526004016104c190612073565b610c04600c8361188d565b610c205760405162461bcd60e51b81526004016104c19061200d565b6001600160a01b038083166000908152600b6020526040808220928416825290208154815560028083015490820155600180830154908201556004808301549082015560038083015490820155610c768361196b565b6107038461198a565b6001600160a01b0381166000908152600b60205260409020545b919050565b6008546001600160a01b0316331480610cc157506009546001600160a01b031633145b610cdd5760405162461bcd60e51b81526004016104c190611fed565b600e55565b6008546001600160a01b031681565b6008546001600160a01b0316331480610d1457506009546001600160a01b031633145b610d305760405162461bcd60e51b81526004016104c190611fed565b60028054911515600160a01b0260ff60a01b19909216919091179055565b600a546001600160a01b03163314610d785760405162461bcd60e51b81526004016104c190612073565b60008211610d985760405162461bcd60e51b81526004016104c190611fc5565b6000610daa6127106107da85856118e4565b9050610db76107ed6112f5565b9050600660009054906101000a90046001600160a01b03166001600160a01b031663b69ef8a86040518163ffffffff1660e01b815260040160206040518083038186803b158015610e0757600080fd5b505afa158015610e1b573d6000803e3d6000fd5b505050506040513d601f19601f82011682018060405250810190610e3f9190611de6565b811115610ecf57600660009054906101000a90046001600160a01b03166001600160a01b031663b69ef8a86040518163ffffffff1660e01b815260040160206040518083038186803b158015610e9457600080fd5b505afa158015610ea8573d6000803e3d6000fd5b505050506040513d601f19601f82011682018060405250810190610ecc9190611de6565b90505b60065460075460405163a9059cbb60e01b81526001600160a01b039283169263a9059cbb92610f05929116908590600401611e76565b600060405180830381600087803b158015610f1f57600080fd5b505af1158015610f33573d6000803e3d6000fd5b50505050505050565b6008546001600160a01b0316331480610f5f57506009546001600160a01b031633145b610f7b5760405162461bcd60e51b81526004016104c190611fed565b600480546001600160a01b0319166001600160a01b0383811691909117825560075460405163332530f960e11b815291169163664a61f291610fbf91859101611e62565b600060405180830381600087803b158015610fd957600080fd5b505af1158015610fed573d6000803e3d6000fd5b505060065460405163332530f960e11b81526001600160a01b03909116925063664a61f29150611021908490600401611e62565b600060405180830381600087803b15801561103b57600080fd5b505af115801561104f573d6000803e3d6000fd5b5050505050565b6007546001600160a01b031681565b6008546001600160a01b031633148061108857506009546001600160a01b031633145b6110a45760405162461bcd60e51b81526004016104c190611fed565b600580546001600160a01b0319166001600160a01b0383811691909117909155600754604051636817031b60e01b8152911690636817031b90611021908490600401611e62565b6008546001600160a01b031633148061110e57506009546001600160a01b031633145b61112a5760405162461bcd60e51b81526004016104c190611fed565b600980546001600160a01b0319166001600160a01b0383811691909117909155600754604051633825b60160e11b815291169063704b6c0290611171908490600401611e62565b600060405180830381600087803b15801561118b57600080fd5b505af115801561119f573d6000803e3d6000fd5b5050600654604051633825b60160e11b81526001600160a01b03909116925063704b6c029150611021908490600401611e62565b600061120b6111e06112f5565b6001600160a01b0384166000908152600b60205260409020546107da90670de0b6b3a76400006118e4565b92915050565b6002546001600160a01b031681565b6008546001600160a01b031633148061124357506009546001600160a01b031633145b61125f5760405162461bcd60e51b81526004016104c190611fed565b600880546001600160a01b0319166001600160a01b0392909216919091179055565b600a546001600160a01b031633146112ab5760405162461bcd60e51b81526004016104c190612073565b6001600160a01b0382166000908152600b6020526040902080546112cf90836119c6565b8155436002820155426001820155610bca8361196b565b6001546001600160a01b031681565b600254600090600160a01b900460ff161515600114156113185750600354610470565b6040805160038082526080820190925260009160208201606080368337505060045482519293506001600160a01b03169183915060009061136957634e487b7160e01b600052603260045260246000fd5b6001600160a01b03928316602091820292909201015260018054835192169183919081106113a757634e487b7160e01b600052603260045260246000fd5b6001600160a01b0392831660209182029290920101526000548251911690829060029081106113e657634e487b7160e01b600052603260045260246000fd5b6001600160a01b03928316602091820292909201015260025460405163d06ca61f60e01b815291169063d06ca61f9061142d90670de0b6b3a7640000908590600401611ead565b60006040518083038186803b15801561144557600080fd5b505afa158015611459573d6000803e3d6000fd5b505050506040513d6000823e601f3d908101601f191682016040526114819190810190611cef565b6002815181106114a157634e487b7160e01b600052603260045260246000fd5b602002602001015191505090565b600e5481565b6004546001600160a01b031681565b6008546001600160a01b03163314806114e757506009546001600160a01b031633145b6115035760405162461bcd60e51b81526004016104c190611fed565b600355565b61271081565b6008546001600160a01b031633148061153157506009546001600160a01b031633145b61154d5760405162461bcd60e51b81526004016104c190611fed565b600a80546001600160a01b0319166001600160a01b0392909216919091179055565b600254600160a01b900460ff1681565b61158a600c3361188d565b6115a65760405162461bcd60e51b81526004016104c19061200d565b600081116115c65760405162461bcd60e51b81526004016104c190611fc5565b336000908152600b6020526040902080548211156115e357805491505b60006116006127106107da600e54866118e490919063ffffffff16565b905061160d6107ed6112f5565b9050600660009054906101000a90046001600160a01b03166001600160a01b031663b69ef8a86040518163ffffffff1660e01b815260040160206040518083038186803b15801561165d57600080fd5b505afa158015611671573d6000803e3d6000fd5b505050506040513d601f19601f820116820180604052508101906116959190611de6565b81111561172557600660009054906101000a90046001600160a01b03166001600160a01b031663b69ef8a86040518163ffffffff1660e01b815260040160206040518083038186803b1580156116ea57600080fd5b505afa1580156116fe573d6000803e3d6000fd5b505050506040513d601f19601f820116820180604052508101906117229190611de6565b90505b60065460075460405163a9059cbb60e01b81526001600160a01b039283169263a9059cbb9261175b929116908590600401611e76565b600060405180830381600087803b15801561177557600080fd5b505af1158015611789573d6000803e3d6000fd5b5050835461179a92509050846118a2565b8255504360048201554260039091015550565b6008546001600160a01b03163314806117d057506009546001600160a01b031633145b806117e55750600a546001600160a01b031633145b6118015760405162461bcd60e51b81526004016104c190611f63565b600760009054906101000a90046001600160a01b03166001600160a01b031663a425632f6040518163ffffffff1660e01b8152600401600060405180830381600087803b1580156106ef57600080fd5b6009546001600160a01b031681565b6005546001600160a01b031681565b600061120b826119f5565b600061188683836119f9565b9392505050565b6000611886836001600160a01b038416611a52565b600061188683836040518060400160405280601e81526020017f536166654d6174683a207375627472616374696f6e206f766572666c6f770000815250611a6a565b6000826118f35750600061120b565b60006118ff83856120d6565b90508261190c85836120b6565b146118865760405162461bcd60e51b81526004016104c190612032565b600061188683836040518060400160405280601a81526020017f536166654d6174683a206469766973696f6e206279207a65726f000000000000815250611aa4565b611976600c8261188d565b61198757611985600c82611ad2565b505b50565b611995600c8261188d565b1515600114156119ac576119aa600c82611ae7565b505b6001600160a01b03166000908152600b6020526040812055565b6000806119d3838561209e565b9050838110156118865760405162461bcd60e51b81526004016104c190611f8e565b5490565b81546000908210611a1c5760405162461bcd60e51b81526004016104c190611f21565b826000018281548110611a3f57634e487b7160e01b600052603260045260246000fd5b9060005260206000200154905092915050565b60009081526001919091016020526040902054151590565b60008184841115611a8e5760405162461bcd60e51b81526004016104c19190611ece565b506000611a9b84866120f5565b95945050505050565b60008183611ac55760405162461bcd60e51b81526004016104c19190611ece565b506000611a9b84866120b6565b6000611886836001600160a01b038416611afc565b6000611886836001600160a01b038416611b46565b6000611b088383611a52565b611b3e5750815460018181018455600084815260208082209093018490558454848252828601909352604090209190915561120b565b50600061120b565b60008181526001830160205260408120548015611c59576000611b6a6001836120f5565b8554909150600090611b7e906001906120f5565b90506000866000018281548110611ba557634e487b7160e01b600052603260045260246000fd5b9060005260206000200154905080876000018481548110611bd657634e487b7160e01b600052603260045260246000fd5b600091825260209091200155611bed83600161209e565b60008281526001890160205260409020558654879080611c1d57634e487b7160e01b600052603160045260246000fd5b6001900381819060005260206000200160009055905586600101600087815260200190815260200160002060009055600194505050505061120b565b600091505061120b565b80356001600160a01b0381168114610c9957600080fd5b600060208284031215611c8b578081fd5b61188682611c63565b60008060408385031215611ca6578081fd5b611caf83611c63565b9150611cbd60208401611c63565b90509250929050565b60008060408385031215611cd8578182fd5b611ce183611c63565b946020939093013593505050565b60006020808385031215611d01578182fd5b825167ffffffffffffffff80821115611d18578384fd5b818501915085601f830112611d2b578384fd5b815181811115611d3d57611d3d61213d565b838102604051601f19603f83011681018181108582111715611d6157611d6161213d565b604052828152858101935084860182860187018a1015611d7f578788fd5b8795505b83861015611da1578051855260019590950194938601938601611d83565b5098975050505050505050565b600060208284031215611dbf578081fd5b81358015158114611886578182fd5b600060208284031215611ddf578081fd5b5035919050565b600060208284031215611df7578081fd5b5051919050565b60008060408385031215611e10578182fd5b50508035926020909101359150565b6000815180845260208085019450808401835b83811015611e575781516001600160a01b031687529582019590820190600101611e32565b509495945050505050565b6001600160a01b0391909116815260200190565b6001600160a01b03929092168252602082015260400190565b6000602082526118866020830184611e1f565b901515815260200190565b600083825260406020830152611ec66040830184611e1f565b949350505050565b6000602080835283518082850152825b81811015611efa57858101830151858201604001528201611ede565b81811115611f0b5783604083870101525b50601f01601f1916929092016040019392505050565b60208082526022908201527f456e756d657261626c655365743a20696e646578206f7574206f6620626f756e604082015261647360f01b606082015260800190565b6020808252601190820152700858591b5a5b881bdc88189858dad95b99607a1b604082015260600190565b6020808252601b908201527f536166654d6174683a206164646974696f6e206f766572666c6f770000000000604082015260600190565b6020808252600e908201526d1a5b9d985b1a5908185b5bdd5b9d60921b604082015260600190565b60208082526006908201526510b0b236b4b760d11b604082015260600190565b6020808252600b908201526a10b2bc34b9ba103ab9b2b960a91b604082015260600190565b60208082526021908201527f536166654d6174683a206d756c7469706c69636174696f6e206f766572666c6f6040820152607760f81b606082015260800190565b60208082526008908201526708589858dad95b9960c21b604082015260600190565b90815260200190565b600082198211156120b1576120b1612127565b500190565b6000826120d157634e487b7160e01b81526012600452602481fd5b500490565b60008160001904831182151516156120f0576120f0612127565b500290565b60008282101561210757612107612127565b500390565b600060001982141561212057612120612127565b5060010190565b634e487b7160e01b600052601160045260246000fd5b634e487b7160e01b600052604160045260246000fdfea26469706673582212203788e5117cb32b5302aa516a41822c8f0c930a1843b14ca7006ff63af37f88aa64736f6c63430008010033608060405234801561001057600080fd5b50604051610bd6380380610bd683398101604081905261002f91610097565b600180546001600160a01b03199081163317909155600380546001600160a01b0393841690831681179091556002805483169091179055600080549390921692169190911790556100c9565b80516001600160a01b038116811461009257600080fd5b919050565b600080604083850312156100a9578182fd5b6100b28361007b565b91506100c06020840161007b565b90509250929050565b610afe806100d86000396000f3fe608060405234801561001057600080fd5b50600436106100ea5760003560e01c8063a9059cbb1161008c578063b6b55f2511610066578063b6b55f25146101a6578063de5f6268146101b9578063f77c4791146101c1578063f851a440146101c9576100ea565b8063a9059cbb14610176578063ad36712e14610189578063b69ef8a814610191576100ea565b8063704b6c02116100c8578063704b6c0214610135578063851e3ca514610148578063853828b61461015b57806392eefe9b14610163576100ea565b80632e1a7d4d146100ef5780635aa6e67514610104578063664a61f214610122575b600080fd5b6101026100fd3660046108a9565b6101d1565b005b61010c610262565b60405161011991906108f5565b60405180910390f35b610102610130366004610846565b610271565b610102610143366004610846565b6102e7565b610102610156366004610846565b61035d565b6101026103d3565b610102610171366004610846565b6103e0565b610102610184366004610860565b610456565b61010c6104b5565b6101996104c4565b6040516101199190610a93565b6101026101b43660046108a9565b61054a565b610102610562565b61010c6105e4565b61010c6105f3565b6002546001600160a01b03163314806101f457506003546001600160a01b031633145b8061020957506001546001600160a01b031633145b61022e5760405162461bcd60e51b8152600401610225906109e4565b60405180910390fd5b6102366104c4565b811115610248576102456104c4565b90505b60005461025f906001600160a01b03163383610602565b50565b6002546001600160a01b031681565b6002546001600160a01b031633148061029457506003546001600160a01b031633145b806102a957506001546001600160a01b031633145b6102c55760405162461bcd60e51b8152600401610225906109e4565b600080546001600160a01b0319166001600160a01b0392909216919091179055565b6002546001600160a01b031633148061030a57506003546001600160a01b031633145b8061031f57506001546001600160a01b031633145b61033b5760405162461bcd60e51b8152600401610225906109e4565b600380546001600160a01b0319166001600160a01b0392909216919091179055565b6002546001600160a01b031633148061038057506003546001600160a01b031633145b8061039557506001546001600160a01b031633145b6103b15760405162461bcd60e51b8152600401610225906109e4565b600280546001600160a01b0319166001600160a01b0392909216919091179055565b6103de6100fd6104c4565b565b6002546001600160a01b031633148061040357506003546001600160a01b031633145b8061041857506001546001600160a01b031633145b6104345760405162461bcd60e51b8152600401610225906109e4565b600180546001600160a01b0319166001600160a01b0392909216919091179055565b6001546001600160a01b031633146104805760405162461bcd60e51b815260040161022590610979565b6104886104c4565b81111561049a576104976104c4565b90505b6000546104b1906001600160a01b03168383610602565b5050565b6000546001600160a01b031681565b600080546040516370a0823160e01b81526001600160a01b03909116906370a08231906104f59030906004016108f5565b60206040518083038186803b15801561050d57600080fd5b505afa158015610521573d6000803e3d6000fd5b505050506040513d601f19601f8201168201806040525081019061054591906108c1565b905090565b60005461025f906001600160a01b031633308461065d565b6000546040516370a0823160e01b81526103de916001600160a01b0316906370a08231906105949033906004016108f5565b60206040518083038186803b1580156105ac57600080fd5b505afa1580156105c0573d6000803e3d6000fd5b505050506040513d601f19601f820116820180604052508101906101b491906108c1565b6001546001600160a01b031681565b6003546001600160a01b031681565b6106588363a9059cbb60e01b848460405160240161062192919061092d565b60408051601f198184030181529190526020810180516001600160e01b03166001600160e01b031990931692909217909152610684565b505050565b61067e846323b872dd60e01b85858560405160240161062193929190610909565b50505050565b60006106d9826040518060400160405280602081526020017f5361666545524332303a206c6f772d6c6576656c2063616c6c206661696c6564815250856001600160a01b03166107139092919063ffffffff16565b80519091501561065857808060200190518101906106f79190610889565b6106585760405162461bcd60e51b815260040161022590610a49565b6060610722848460008561072c565b90505b9392505050565b60608247101561074e5760405162461bcd60e51b81526004016102259061099e565b610757856107ec565b6107735760405162461bcd60e51b815260040161022590610a12565b600080866001600160a01b0316858760405161078f91906108d9565b60006040518083038185875af1925050503d80600081146107cc576040519150601f19603f3d011682016040523d82523d6000602084013e6107d1565b606091505b50915091506107e18282866107f6565b979650505050505050565b803b15155b919050565b60608315610805575081610725565b8251156108155782518084602001fd5b8160405162461bcd60e51b81526004016102259190610946565b80356001600160a01b03811681146107f157600080fd5b600060208284031215610857578081fd5b6107258261082f565b60008060408385031215610872578081fd5b61087b8361082f565b946020939093013593505050565b60006020828403121561089a578081fd5b81518015158114610725578182fd5b6000602082840312156108ba578081fd5b5035919050565b6000602082840312156108d2578081fd5b5051919050565b600082516108eb818460208701610a9c565b9190910192915050565b6001600160a01b0391909116815260200190565b6001600160a01b039384168152919092166020820152604081019190915260600190565b6001600160a01b03929092168252602082015260400190565b6000602082528251806020840152610965816040850160208701610a9c565b601f01601f19169190910160400192915050565b6020808252600b908201526a10b1b7b73a3937b63632b960a91b604082015260600190565b60208082526026908201527f416464726573733a20696e73756666696369656e742062616c616e636520666f6040820152651c8818d85b1b60d21b606082015260800190565b60208082526014908201527310b0b236b4b71037b91031b7b73a3937b63632b960611b604082015260600190565b6020808252601d908201527f416464726573733a2063616c6c20746f206e6f6e2d636f6e7472616374000000604082015260600190565b6020808252602a908201527f5361666545524332303a204552433230206f7065726174696f6e20646964206e6040820152691bdd081cdd58d8d9595960b21b606082015260800190565b90815260200190565b60005b83811015610ab7578181015183820152602001610a9f565b8381111561067e575050600091015256fea26469706673582212203bd758247d7487abdb68f0acb57670488e4a8c5525cfa2abe0fdb18643f3041e64736f6c63430008010033608060405262278d0060075562278d00600855610bb8600b55611388600c556107d0600d553480156200003157600080fd5b50604051620022c5380380620022c58339810160408190526200005491620000c2565b600180546001600160a01b03199081163317909155600380546001600160a01b03938416908316811790915560028054831690911790556000805493909216921691909117905542600955620000f9565b80516001600160a01b0381168114620000bd57600080fd5b919050565b60008060408385031215620000d5578182fd5b620000e083620000a5565b9150620000f060208401620000a5565b90509250929050565b6121bc80620001096000396000f3fe608060405234801561001057600080fd5b50600436106102955760003560e01c8063851e3ca511610167578063bd6018bb116100ce578063e538b28011610087578063e538b280146104c7578063e88958dc146104da578063f77c4791146104e2578063f851a440146104ea578063fb75817d146104f2578063fbfa77cf1461050557610295565b8063bd6018bb14610481578063c3e0cd6214610494578063d73792a9146104a7578063d82faa48146104af578063dcb0f858146104b7578063de5f6268146104bf57610295565b8063a425632f11610120578063a425632f14610439578063ad36712e14610441578063b103929b14610449578063b31dbd341461045e578063b69ef8a814610466578063b6b55f251461046e57610295565b8063851e3ca5146103f3578063853828b6146104065780638d3561311461040e5780638ea5220f1461041657806392eefe9b1461041e5780639994673d1461043157610295565b8063417745e91161020b5780636817031b116101c45780636817031b1461037e5780636827e76414610391578063704b6c0214610399578063718fb612146103ac57806371f4029a146103bf5780637da5790b146103d257610295565b8063417745e91461034357806354e481221461034b5780635aa6e675146103535780635ccbdcc01461035b5780635cfdd4f514610363578063664a61f21461036b57610295565b806312eb4f9a1161025d57806312eb4f9a146102f05780631d2d7507146102f85780631f53ac02146103005780632e1a7d4d1461031357806331dac8701461032657806340acc8621461032e57610295565b806301ac145b1461029a578063079cff0a146102b8578063091dffca146102c05780630af01b0f146102ca57806310c9e0ca146102dd575b600080fd5b6102a261050d565b6040516102af91906120a4565b60405180910390f35b6102a2610513565b6102c8610519565b005b6102c86102d8366004611b66565b61060a565b6102c86102eb366004611baf565b610696565b6102a26106ef565b6102a26106f5565b6102c861030e366004611b4c565b6106fb565b6102c8610321366004611baf565b610771565b6102c86107f9565b61033661084f565b6040516102af9190611c26565b6102a261085e565b6102c8610864565b61033661098f565b6102a261099e565b6102a26109a4565b6102c8610379366004611b4c565b6109aa565b6102c861038c366004611b4c565b610a20565b6102a2610a96565b6102c86103a7366004611b4c565b610a9c565b6102a26103ba366004611b4c565b610b12565b6102c86103cd366004611b4c565b610b34565b6103e56103e0366004611b4c565b610baa565b6040516102af9291906120ad565b6102c8610401366004611b4c565b610bc3565b6102c8610c39565b6102c8610c46565b610336610d78565b6102c861042c366004611b4c565b610d87565b6102a2610dfd565b6102c8610e03565b610336610f2d565b610451610f3c565b6040516102af9190611c77565b6102c861100b565b6102a2611133565b6102c861047c366004611baf565b6111b9565b6102c861048f366004611b4c565b6111d1565b6102a26104a2366004611b4c565b611244565b6102a261125f565b6102a2611265565b6102c8611271565b6102c861132d565b6102c86104d5366004611bdf565b6113af565b6102a2611448565b61033661144e565b61033661145d565b6102c8610500366004611baf565b61146c565b6103366114c5565b600c5481565b600a5481565b426105316007546009546114d490919063ffffffff16565b106105575760405162461bcd60e51b815260040161054e90611d7d565b60405180910390fd5b4261056f600854600a546114d490919063ffffffff16565b1161058c5760405162461bcd60e51b815260040161054e90611eb1565b6004546001600160a01b031633146105b65760405162461bcd60e51b815260040161054e90611f29565b600f546105c1611133565b8111156105d3576105d0611133565b90505b6004546000546105f0916001600160a01b0391821691168361150c565b80600f60008282546106029190612112565b909155505050565b6003546001600160a01b031633148061062d57506002546001600160a01b031633145b8061064257506001546001600160a01b031633145b61065e5760405162461bcd60e51b815260040161054e90611f49565b610669601283611567565b61067a5761067860128361157c565b505b6001600160a01b03909116600090815260116020526040902055565b6002546001600160a01b03163314806106b957506003546001600160a01b031633145b806106ce57506001546001600160a01b031633145b6106ea5760405162461bcd60e51b815260040161054e90611f49565b600755565b60085481565b60095481565b6003546001600160a01b031633148061071e57506002546001600160a01b031633145b8061073357506001546001600160a01b031633145b61074f5760405162461bcd60e51b815260040161054e90611f49565b600580546001600160a01b0319166001600160a01b0392909216919091179055565b6002546001600160a01b031633148061079457506003546001600160a01b031633145b806107a957506001546001600160a01b031633145b6107c55760405162461bcd60e51b815260040161054e90611f49565b6107cd611133565b8111156107df576107dc611133565b90505b6000546107f6906001600160a01b0316338361150c565b50565b60005b6108066012611591565b8110156107f657600060118161081d60128561159c565b6001600160a01b031681526020810191909152604001600090812060010155508061084781612155565b9150506107fc565b6006546001600160a01b031681565b600e5481565b4261087c6007546009546114d490919063ffffffff16565b106108995760405162461bcd60e51b815260040161054e90611d7d565b426108b1600854600a546114d490919063ffffffff16565b116108ce5760405162461bcd60e51b815260040161054e90611eb1565b6108d9601232611567565b6108f55760405162461bcd60e51b815260040161054e90611dbf565b32600090815260116020526040902060010154806109255760405162461bcd60e51b815260040161054e90611de7565b61092d611133565b81111561093f5761093c611133565b90505b600054610956906001600160a01b0316328361150c565b80600e60008282546109689190612112565b90915550503260009081526011602052604081206001018054839290610602908490612112565b6002546001600160a01b031681565b60075481565b60105481565b6002546001600160a01b03163314806109cd57506003546001600160a01b031633145b806109e257506001546001600160a01b031633145b6109fe5760405162461bcd60e51b815260040161054e90611f49565b600080546001600160a01b0319166001600160a01b0392909216919091179055565b6003546001600160a01b0316331480610a4357506002546001600160a01b031633145b80610a5857506001546001600160a01b031633145b610a745760405162461bcd60e51b815260040161054e90611f49565b600480546001600160a01b0319166001600160a01b0392909216919091179055565b600d5481565b6002546001600160a01b0316331480610abf57506003546001600160a01b031633145b80610ad457506001546001600160a01b031633145b610af05760405162461bcd60e51b815260040161054e90611f49565b600380546001600160a01b0319166001600160a01b0392909216919091179055565b6001600160a01b0381166000908152601160205260409020600101545b919050565b6003546001600160a01b0316331480610b5757506002546001600160a01b031633145b80610b6c57506001546001600160a01b031633145b610b885760405162461bcd60e51b815260040161054e90611f49565b600680546001600160a01b0319166001600160a01b0392909216919091179055565b6011602052600090815260409020805460019091015482565b6002546001600160a01b0316331480610be657506003546001600160a01b031633145b80610bfb57506001546001600160a01b031633145b610c175760405162461bcd60e51b815260040161054e90611f49565b600280546001600160a01b0319166001600160a01b0392909216919091179055565b610c44610321611133565b565b42610c5e6007546009546114d490919063ffffffff16565b10610c7b5760405162461bcd60e51b815260040161054e90611d7d565b42610c93600854600a546114d490919063ffffffff16565b11610cb05760405162461bcd60e51b815260040161054e90611eb1565b6005546001600160a01b0316610cd85760405162461bcd60e51b815260040161054e90611e86565b6002546001600160a01b0316331480610cfb57506003546001600160a01b031633145b80610d1057506001546001600160a01b031633145b610d2c5760405162461bcd60e51b815260040161054e90611f49565b601054610d37611133565b811115610d4957610d46611133565b90505b600554600054610d66916001600160a01b0391821691168361150c565b80601060008282546106029190612112565b6005546001600160a01b031681565b6002546001600160a01b0316331480610daa57506003546001600160a01b031633145b80610dbf57506001546001600160a01b031633145b610ddb5760405162461bcd60e51b815260040161054e90611f49565b600180546001600160a01b0319166001600160a01b0392909216919091179055565b600f5481565b6002546001600160a01b0316331480610e2657506003546001600160a01b031633145b80610e3b57506001546001600160a01b031633145b610e575760405162461bcd60e51b815260040161054e90611f49565b6000600a5411610e795760405162461bcd60e51b815260040161054e90612032565b6000600e54600f54601054610e8e91906120bb565b610e9891906120bb565b9050610ea2611133565b811115610eb457610eb1611133565b90505b8015610f0a576006546001600160a01b031615610eed57600654600054610ee8916001600160a01b0391821691168361150c565b610f0a565b600354600054610f0a916001600160a01b0391821691168361150c565b610f126107f9565b50426009556000600a8190556010819055600f819055600e55565b6000546001600160a01b031681565b60606000610f4a6012611591565b67ffffffffffffffff811115610f7057634e487b7160e01b600052604160045260246000fd5b604051908082528060200260200182016040528015610f99578160200160208202803683370190505b50905060005b610fa96012611591565b81101561100557610fbb60128261159c565b828281518110610fdb57634e487b7160e01b600052603260045260246000fd5b6001600160a01b039092166020928302919091019091015280610ffd81612155565b915050610f9f565b50905090565b6002546001600160a01b031633148061102e57506003546001600160a01b031633145b8061104357506001546001600160a01b031633145b61105f5760405162461bcd60e51b815260040161054e90611f49565b426110776007546009546114d490919063ffffffff16565b106110945760405162461bcd60e51b815260040161054e90611d39565b426110ac600854600a546114d490919063ffffffff16565b106110c95760405162461bcd60e51b815260040161054e90611fc4565b42600a819055506110f06127106110ea600d546110e4611133565b906115a8565b906115ed565b60108190555061110a6127106110ea600b546110e4611133565b600e819055506111246127106110ea600c546110e4611133565b600f55600e54610c449061162f565b600080546040516370a0823160e01b81526001600160a01b03909116906370a0823190611164903090600401611c26565b60206040518083038186803b15801561117c57600080fd5b505afa158015611190573d6000803e3d6000fd5b505050506040513d601f19601f820116820180604052508101906111b49190611bc7565b905090565b6000546107f6906001600160a01b03163330846116df565b6003546001600160a01b03163314806111f457506002546001600160a01b031633145b8061120957506001546001600160a01b031633145b6112255760405162461bcd60e51b815260040161054e90611f49565b611230601282611567565b156107f657611240601282611706565b5050565b6001600160a01b031660009081526011602052604090205490565b61271081565b60006111b46012611591565b426112896007546009546114d490919063ffffffff16565b106112a65760405162461bcd60e51b815260040161054e90611d7d565b426112be600854600a546114d490919063ffffffff16565b116112db5760405162461bcd60e51b815260040161054e90611eb1565b6005546001600160a01b03166113035760405162461bcd60e51b815260040161054e90611e86565b6005546001600160a01b03163314610d2c5760405162461bcd60e51b815260040161054e90611fa1565b6000546040516370a0823160e01b8152610c44916001600160a01b0316906370a082319061135f903390600401611c26565b60206040518083038186803b15801561137757600080fd5b505afa15801561138b573d6000803e3d6000fd5b505050506040513d601f19601f8201168201806040525081019061047c9190611bc7565b6002546001600160a01b03163314806113d257506003546001600160a01b031633145b806113e757506001546001600160a01b031633145b6114035760405162461bcd60e51b815260040161054e90611f49565b61271061141a8261141486866114d4565b906114d4565b146114375760405162461bcd60e51b815260040161054e90611f77565b600b92909255600d91909155600c55565b600b5481565b6001546001600160a01b031681565b6003546001600160a01b031681565b6002546001600160a01b031633148061148f57506003546001600160a01b031633145b806114a457506001546001600160a01b031633145b6114c05760405162461bcd60e51b815260040161054e90611f49565b600855565b6004546001600160a01b031681565b6000806114e183856120bb565b9050838110156115035760405162461bcd60e51b815260040161054e90611e09565b90505b92915050565b6115628363a9059cbb60e01b848460405160240161152b929190611c5e565b60408051601f198184030181529190526020810180516001600160e01b03166001600160e01b03199093169290921790915261171b565b505050565b6000611503836001600160a01b0384166117aa565b6000611503836001600160a01b0384166117c2565b60006115068261180c565b60006115038383611810565b6000826115b757506000611506565b60006115c383856120f3565b9050826115d085836120d3565b146115035760405162461bcd60e51b815260040161054e90611ee8565b600061150383836040518060400160405280601a81526020017f536166654d6174683a206469766973696f6e206279207a65726f000000000000815250611869565b60006116396118a2565b90508061164657506107f6565b60005b6116536012611591565b81101561156257600060118161166a60128561159c565b6001600160a01b031681526020810191909152604001600020805490915061169257506116cd565b60006116af846110ea8460000154886115a890919063ffffffff16565b9050808260010160008282546116c591906120bb565b909155505050505b806116d781612155565b915050611649565b611700846323b872dd60e01b85858560405160240161152b93929190611c3a565b50505050565b6000611503836001600160a01b038416611902565b6000611770826040518060400160405280602081526020017f5361666545524332303a206c6f772d6c6576656c2063616c6c206661696c6564815250856001600160a01b0316611a1f9092919063ffffffff16565b805190915015611562578080602001905181019061178e9190611b8f565b6115625760405162461bcd60e51b815260040161054e9061205a565b60009081526001919091016020526040902054151590565b60006117ce83836117aa565b61180457508154600181810184556000848152602080822090930184905584548482528286019093526040902091909155611506565b506000611506565b5490565b815460009082106118335760405162461bcd60e51b815260040161054e90611cf7565b82600001828154811061185657634e487b7160e01b600052603260045260246000fd5b9060005260206000200154905092915050565b6000818361188a5760405162461bcd60e51b815260040161054e9190611cc4565b50600061189784866120d3565b9150505b9392505050565b6000805b6118b06012611591565b8110156118fe576118ea601160006118c960128561159c565b6001600160a01b0316815260208101919091526040016000205483906114d4565b9150806118f681612155565b9150506118a6565b5090565b60008181526001830160205260408120548015611a15576000611926600183612112565b855490915060009061193a90600190612112565b9050600086600001828154811061196157634e487b7160e01b600052603260045260246000fd5b906000526020600020015490508087600001848154811061199257634e487b7160e01b600052603260045260246000fd5b6000918252602090912001556119a98360016120bb565b600082815260018901602052604090205586548790806119d957634e487b7160e01b600052603160045260246000fd5b60019003818190600052602060002001600090559055866001016000878152602001908152602001600020600090556001945050505050611506565b6000915050611506565b6060611a2e8484600085611a36565b949350505050565b606082471015611a585760405162461bcd60e51b815260040161054e90611e40565b611a6185611af6565b611a7d5760405162461bcd60e51b815260040161054e90611ffb565b600080866001600160a01b03168587604051611a999190611c0a565b60006040518083038185875af1925050503d8060008114611ad6576040519150601f19603f3d011682016040523d82523d6000602084013e611adb565b606091505b5091509150611aeb828286611afc565b979650505050505050565b3b151590565b60608315611b0b57508161189b565b825115611b1b5782518084602001fd5b8160405162461bcd60e51b815260040161054e9190611cc4565b80356001600160a01b0381168114610b2f57600080fd5b600060208284031215611b5d578081fd5b61150382611b35565b60008060408385031215611b78578081fd5b611b8183611b35565b946020939093013593505050565b600060208284031215611ba0578081fd5b81518015158114611503578182fd5b600060208284031215611bc0578081fd5b5035919050565b600060208284031215611bd8578081fd5b5051919050565b600080600060608486031215611bf3578081fd5b505081359360208301359350604090920135919050565b60008251611c1c818460208701612129565b9190910192915050565b6001600160a01b0391909116815260200190565b6001600160a01b039384168152919092166020820152604081019190915260600190565b6001600160a01b03929092168252602082015260400190565b6020808252825182820181905260009190848201906040850190845b81811015611cb85783516001600160a01b031683529284019291840191600101611c93565b50909695505050505050565b6000602082528251806020840152611ce3816040850160208701612129565b601f01601f19169190910160400192915050565b60208082526022908201527f456e756d657261626c655365743a20696e646578206f7574206f6620626f756e604082015261647360f01b606082015260800190565b60208082526024908201527f21617661696c61626c6520746f20756e6c6f636b20746f207769746864617277604082015263081e595d60e21b606082015260800190565b60208082526022908201527f21617661696c61626c6520746f20776974686461727720726577617264732079604082015261195d60f21b606082015260800190565b6020808252600e908201526d10b2bc34b9ba1031b932b0ba37b960911b604082015260600190565b6020808252600890820152672162616c616e636560c01b604082015260600190565b6020808252601b908201527f536166654d6174683a206164646974696f6e206f766572666c6f770000000000604082015260600190565b60208082526026908201527f416464726573733a20696e73756666696369656e742062616c616e636520666f6040820152651c8818d85b1b60d21b606082015260800190565b602080825260119082015270085d985b1a590819195d881dd85b1b195d607a1b604082015260600190565b60208082526017908201527f6578706972656420776974686472617720706572696f64000000000000000000604082015260600190565b60208082526021908201527f536166654d6174683a206d756c7469706c69636174696f6e206f766572666c6f6040820152607760f81b606082015260800190565b602080825260069082015265085d985d5b1d60d21b604082015260600190565b60208082526014908201527310b0b236b4b71037b91031b7b73a3937b63632b960611b604082015260600190565b60208082526010908201526f2176616c69642066656520726174657360801b604082015260600190565b60208082526009908201526821646576207465616d60b81b604082015260600190565b6020808252601a908201527f616c726561647920696e20776974686472617720706572696f64000000000000604082015260600190565b6020808252601d908201527f416464726573733a2063616c6c20746f206e6f6e2d636f6e7472616374000000604082015260600190565b6020808252600e908201526d185b1c9958591e481b1bd8dad95960921b604082015260600190565b6020808252602a908201527f5361666545524332303a204552433230206f7065726174696f6e20646964206e6040820152691bdd081cdd58d8d9595960b21b606082015260800190565b90815260200190565b918252602082015260400190565b600082198211156120ce576120ce612170565b500190565b6000826120ee57634e487b7160e01b81526012600452602481fd5b500490565b600081600019048311821515161561210d5761210d612170565b500290565b60008282101561212457612124612170565b500390565b60005b8381101561214457818101518382015260200161212c565b838111156117005750506000910152565b600060001982141561216957612169612170565b5060010190565b634e487b7160e01b600052601160045260246000fdfea26469706673582212206054593edef8690cae03f382f750855e397fc8c4d431b507d911faa2bc673b5164736f6c63430008010033",
  "linkReferences": {},
  "deployedLinkReferences": {}
}