{
  "_format": "hh-sol-artifact-1",
  "contractName": "Controller",
  "sourceName": "contracts/Controller.sol",
  "abi": [
    {
      "inputs": [
        {
          "internalType": "address",
          "name": "_ptm",
          "type": "address"
        },
        {
          "internalType": "address",
          "name": "_vault",
          "type": "address"
        }
      ],
      "stateMutability": "nonpayable",
      "type": "constructor"
    },
    {
      "inputs": [],
      "name": "FEE_DENOMINATOR",
      "outputs": [
        {
          "internalType": "uint256",
          "name": "",
          "type": "uint256"
        }
      ],
      "stateMutability": "view",
      "type": "function"
    },
    {
      "inputs": [],
      "name": "admin",
      "outputs": [
        {
          "internalType": "address",
          "name": "",
          "type": "address"
        }
      ],
      "stateMutability": "view",
      "type": "function"
    },
    {
      "inputs": [],
      "name": "backend",
      "outputs": [
        {
          "internalType": "address",
          "name": "",
          "type": "address"
        }
      ],
      "stateMutability": "view",
      "type": "function"
    },
    {
      "inputs": [
        {
          "internalType": "address",
          "name": "_user",
          "type": "address"
        }
      ],
      "name": "balanceOf",
      "outputs": [
        {
          "internalType": "uint256",
          "name": "",
          "type": "uint256"
        }
      ],
      "stateMutability": "view",
      "type": "function"
    },
    {
      "inputs": [
        {
          "internalType": "address",
          "name": "_user",
          "type": "address"
        }
      ],
      "name": "balanceOfFiat",
      "outputs": [
        {
          "internalType": "uint256",
          "name": "",
          "type": "uint256"
        }
      ],
      "stateMutability": "view",
      "type": "function"
    },
    {
      "inputs": [],
      "name": "busd",
      "outputs": [
        {
          "internalType": "address",
          "name": "",
          "type": "address"
        }
      ],
      "stateMutability": "view",
      "type": "function"
    },
    {
      "inputs": [
        {
          "internalType": "address",
          "name": "_to",
          "type": "address"
        },
        {
          "internalType": "uint256",
          "name": "_amount",
          "type": "uint256"
        }
      ],
      "name": "depositWallet",
      "outputs": [],
      "stateMutability": "nonpayable",
      "type": "function"
    },
    {
      "inputs": [
        {
          "internalType": "bool",
          "name": "_flag",
          "type": "bool"
        }
      ],
      "name": "disableRouter",
      "outputs": [],
      "stateMutability": "nonpayable",
      "type": "function"
    },
    {
      "inputs": [],
      "name": "disabledRouter",
      "outputs": [
        {
          "internalType": "bool",
          "name": "",
          "type": "bool"
        }
      ],
      "stateMutability": "view",
      "type": "function"
    },
    {
      "inputs": [],
      "name": "enableTestnet",
      "outputs": [],
      "stateMutability": "nonpayable",
      "type": "function"
    },
    {
      "inputs": [],
      "name": "fiatWithdrawFee",
      "outputs": [
        {
          "internalType": "uint256",
          "name": "",
          "type": "uint256"
        }
      ],
      "stateMutability": "view",
      "type": "function"
    },
    {
      "inputs": [],
      "name": "governance",
      "outputs": [
        {
          "internalType": "address",
          "name": "",
          "type": "address"
        }
      ],
      "stateMutability": "view",
      "type": "function"
    },
    {
      "inputs": [],
      "name": "ptm",
      "outputs": [
        {
          "internalType": "contract IERC20",
          "name": "",
          "type": "address"
        }
      ],
      "stateMutability": "view",
      "type": "function"
    },
    {
      "inputs": [],
      "name": "ptmPrice",
      "outputs": [
        {
          "internalType": "uint256",
          "name": "_price",
          "type": "uint256"
        }
      ],
      "stateMutability": "view",
      "type": "function"
    },
    {
      "inputs": [],
      "name": "ptmWithdrawFee",
      "outputs": [
        {
          "internalType": "uint256",
          "name": "",
          "type": "uint256"
        }
      ],
      "stateMutability": "view",
      "type": "function"
    },
    {
      "inputs": [],
      "name": "rewardPool",
      "outputs": [
        {
          "internalType": "contract RewardPool",
          "name": "",
          "type": "address"
        }
      ],
      "stateMutability": "view",
      "type": "function"
    },
    {
      "inputs": [
        {
          "internalType": "address",
          "name": "_admin",
          "type": "address"
        }
      ],
      "name": "setAdmin",
      "outputs": [],
      "stateMutability": "nonpayable",
      "type": "function"
    },
    {
      "inputs": [
        {
          "internalType": "address",
          "name": "_backend",
          "type": "address"
        }
      ],
      "name": "setBackend",
      "outputs": [],
      "stateMutability": "nonpayable",
      "type": "function"
    },
    {
      "inputs": [
        {
          "internalType": "address",
          "name": "_governance",
          "type": "address"
        }
      ],
      "name": "setGovernace",
      "outputs": [],
      "stateMutability": "nonpayable",
      "type": "function"
    },
    {
      "inputs": [
        {
          "internalType": "address",
          "name": "_ptm",
          "type": "address"
        }
      ],
      "name": "setPTM",
      "outputs": [],
      "stateMutability": "nonpayable",
      "type": "function"
    },
    {
      "inputs": [
        {
          "internalType": "uint256",
          "name": "_price",
          "type": "uint256"
        }
      ],
      "name": "setStaticPtmPrice",
      "outputs": [],
      "stateMutability": "nonpayable",
      "type": "function"
    },
    {
      "inputs": [
        {
          "internalType": "address",
          "name": "_vault",
          "type": "address"
        }
      ],
      "name": "setVault",
      "outputs": [],
      "stateMutability": "nonpayable",
      "type": "function"
    },
    {
      "inputs": [],
      "name": "startDistributeRewards",
      "outputs": [],
      "stateMutability": "nonpayable",
      "type": "function"
    },
    {
      "inputs": [],
      "name": "staticPtmPrice",
      "outputs": [
        {
          "internalType": "uint256",
          "name": "",
          "type": "uint256"
        }
      ],
      "stateMutability": "view",
      "type": "function"
    },
    {
      "inputs": [],
      "name": "stopDistributeRewards",
      "outputs": [],
      "stateMutability": "nonpayable",
      "type": "function"
    },
    {
      "inputs": [],
      "name": "systemPool",
      "outputs": [
        {
          "internalType": "contract SystemPool",
          "name": "",
          "type": "address"
        }
      ],
      "stateMutability": "view",
      "type": "function"
    },
    {
      "inputs": [
        {
          "internalType": "uint256",
          "name": "_amount",
          "type": "uint256"
        },
        {
          "internalType": "uint256",
          "name": "_percentage",
          "type": "uint256"
        }
      ],
      "name": "takeTranactionFee",
      "outputs": [],
      "stateMutability": "nonpayable",
      "type": "function"
    },
    {
      "inputs": [],
      "name": "uniswapRouter",
      "outputs": [
        {
          "internalType": "address",
          "name": "",
          "type": "address"
        }
      ],
      "stateMutability": "view",
      "type": "function"
    },
    {
      "inputs": [
        {
          "internalType": "address",
          "name": "_from",
          "type": "address"
        },
        {
          "internalType": "address",
          "name": "_to",
          "type": "address"
        }
      ],
      "name": "updateWallet",
      "outputs": [],
      "stateMutability": "nonpayable",
      "type": "function"
    },
    {
      "inputs": [
        {
          "internalType": "address",
          "name": "_to",
          "type": "address"
        },
        {
          "internalType": "uint256",
          "name": "_balance",
          "type": "uint256"
        }
      ],
      "name": "updateWalletBalance",
      "outputs": [],
      "stateMutability": "nonpayable",
      "type": "function"
    },
    {
      "inputs": [],
      "name": "userCount",
      "outputs": [
        {
          "internalType": "uint256",
          "name": "",
          "type": "uint256"
        }
      ],
      "stateMutability": "view",
      "type": "function"
    },
    {
      "inputs": [],
      "name": "userList",
      "outputs": [
        {
          "internalType": "address[]",
          "name": "",
          "type": "address[]"
        }
      ],
      "stateMutability": "view",
      "type": "function"
    },
    {
      "inputs": [
        {
          "internalType": "address",
          "name": "_user",
          "type": "address"
        }
      ],
      "name": "userWallet",
      "outputs": [
        {
          "internalType": "uint256",
          "name": "balance",
          "type": "uint256"
        },
        {
          "internalType": "uint256",
          "name": "lastDepositBlock",
          "type": "uint256"
        },
        {
          "internalType": "uint256",
          "name": "lastDepositTime",
          "type": "uint256"
        },
        {
          "internalType": "uint256",
          "name": "lastWithdrawBlock",
          "type": "uint256"
        },
        {
          "internalType": "uint256",
          "name": "lastWithdrawTime",
          "type": "uint256"
        }
      ],
      "stateMutability": "view",
      "type": "function"
    },
    {
      "inputs": [],
      "name": "vault",
      "outputs": [
        {
          "internalType": "address",
          "name": "",
          "type": "address"
        }
      ],
      "stateMutability": "view",
      "type": "function"
    },
    {
      "inputs": [],
      "name": "wbnb",
      "outputs": [
        {
          "internalType": "address",
          "name": "",
          "type": "address"
        }
      ],
      "stateMutability": "view",
      "type": "function"
    },
    {
      "inputs": [
        {
          "internalType": "uint256",
          "name": "_amount",
          "type": "uint256"
        }
      ],
      "name": "withdraw",
      "outputs": [],
      "stateMutability": "nonpayable",
      "type": "function"
    },
    {
      "inputs": [
        {
          "internalType": "uint256",
          "name": "_amount",
          "type": "uint256"
        }
      ],
      "name": "withdrawFiat",
      "outputs": [],
      "stateMutability": "nonpayable",
      "type": "function"
    }
  ],
  "bytecode": "0x6080604052600080546001600160a01b031990811673e9e7cea3dedca5984780bafc599bd69add087d561790915560018054821673bb4cdb9cbd36b01bd1cbaebf2de08d9173bc095c1790556002805460ff60a01b1992167305ff2b0db69458a0750badebc4f9e13add608c7f17919091169055670de0b6b3a7640000600355610bb8600e556107d0600f553480156200009857600080fd5b506040516200514338038062005143833981016040819052620000bb91620002be565b600480546001600160a01b038085166001600160a01b03199283161790925560088054821633908117909155600980548316821790556005805493851693909216929092179055604051839190620001139062000285565b6200012092919062000309565b604051809103906000f0801580156200013d573d6000803e3d6000fd5b50600660006101000a8154816001600160a01b0302191690836001600160a01b031602179055508133604051620001749062000293565b6200018192919062000309565b604051809103906000f0801580156200019e573d6000803e3d6000fd5b50600780546001600160a01b0319166001600160a01b039283161790819055604051636817031b60e01b8152911690636817031b90620001e3908490600401620002f5565b600060405180830381600087803b158015620001fe57600080fd5b505af115801562000213573d6000803e3d6000fd5b5050600754604051630fa9d60160e11b81526001600160a01b039091169250631f53ac02915062000249903390600401620002f5565b600060405180830381600087803b1580156200026457600080fd5b505af115801562000279573d6000803e3d6000fd5b50505050505062000323565b610bd6806200248283390190565b6120eb806200305883390190565b80516001600160a01b0381168114620002b957600080fd5b919050565b60008060408385031215620002d1578182fd5b620002dc83620002a1565b9150620002ec60208401620002a1565b90509250929050565b6001600160a01b0391909116815260200190565b6001600160a01b0392831681529116602082015260400190565b61214f80620003336000396000f3fe608060405234801561001057600080fd5b50600436106102275760003560e01c80636817031b11610130578063ad36712e116100b8578063e57f8bd91161007c578063e57f8bd914610405578063eba233f614610418578063f851a44014610420578063fbfa77cf14610428578063fc9dbc691461043057610227565b8063ad36712e146103ba578063d1820d94146103c2578063d73792a9146103d5578063da7fc24f146103dd578063e1c8c05a146103f057610227565b8063851e3ca5116100ff578063851e3ca51461037c5780638861e6461461038f5780638d72647e146103a2578063981275a2146103aa578063acb0cf35146103b257610227565b80636817031b1461033b578063704b6c021461034e57806370a0823114610361578063735de9f71461037457610227565b806340acc862116101b35780635aa6e675116101825780635aa6e675146102f25780635f30040b146102fa57806363c5bb021461030d578063664a61f21461032057806366666aa91461033357610227565b806340acc862146102b15780634812c021146102b95780634a6bb4a5146102cc57806352d442fa146102df57610227565b806316f446ec116101fa57806316f446ec1461027e5780632e1a7d4d1461028657806336a6b1ab146102995780633c0ad3f6146102a15780633ca5b234146102a957610227565b806307973ccf1461022c578063099e41331461024a5780630cc4c8961461025f5780630e0f785f14610269575b600080fd5b610234610454565b6040516102419190612038565b60405180910390f35b610252610466565b6040516102419190611e05565b610267610475565b005b610271610507565b6040516102419190611e32565b6102676105d6565b610267610294366004611d71565b6106fc565b610234610af5565b610234610afb565b610252610b01565b610252610b10565b6102676102c7366004611c69565b610b1f565b6102676102da366004611c37565b610b7e565b6102346102ed366004611c1d565b610c2e565b610252610c4d565b610267610308366004611d51565b610c5c565b61026761031b366004611da1565b610cb9565b61026761032e366004611c1d565b610ea7565b610252610fc1565b610267610349366004611c1d565b610fd0565b61026761035c366004611c1d565b611056565b61023461036f366004611c1d565b61113e565b61025261117c565b61026761038a366004611c1d565b61118b565b61026761039d366004611c69565b6111ec565b610252611251565b610234611260565b61023461141a565b610252611420565b6102676103d0366004611d71565b61142f565b610234611473565b6102676103eb366004611c1d565b611479565b6103f86114da565b6040516102419190611e45565b610267610413366004611d71565b6114ea565b610267611718565b6102526117bc565b6102526117cb565b61044361043e366004611c1d565b6117da565b604051610241959493929190612041565b6000610460600c611812565b90505b90565b600a546001600160a01b031681565b6008546001600160a01b031633148061049857506009546001600160a01b031633145b6104bd5760405162461bcd60e51b81526004016104b490611f90565b60405180910390fd5b600080546001600160a01b0319908116738301f2213c0eed49a7e28ae4c3e91722919b8b47179091556001805490911673094616f0bdfb0b526bd735bf66eca0ad254ca81f179055565b60606000610515600c611812565b67ffffffffffffffff81111561053b57634e487b7160e01b600052604160045260246000fd5b604051908082528060200260200182016040528015610564578160200160208202803683370190505b50905060005b610574600c611812565b8110156105d057610586600c8261181d565b8282815181106105a657634e487b7160e01b600052603260045260246000fd5b6001600160a01b0390921660209283029190910190910152806105c8816120d2565b91505061056a565b50905090565b6008546001600160a01b03163314806105f957506009546001600160a01b031633145b8061060e5750600a546001600160a01b031633145b61062a5760405162461bcd60e51b81526004016104b490611f06565b600760009054906101000a90046001600160a01b03166001600160a01b031663b31dbd346040518163ffffffff1660e01b8152600401600060405180830381600087803b15801561067a57600080fd5b505af115801561068e573d6000803e3d6000fd5b50505050600560009054906101000a90046001600160a01b03166001600160a01b0316636f4a2cd06040518163ffffffff1660e01b8152600401600060405180830381600087803b1580156106e257600080fd5b505af11580156106f6573d6000803e3d6000fd5b50505050565b610707600c33611830565b6107235760405162461bcd60e51b81526004016104b490611fb0565b600081116107435760405162461bcd60e51b81526004016104b490611f68565b336000908152600b60205260409020805482111561076057805491505b600061078f612710610789610782600f5461271061184590919063ffffffff16565b8690611887565b906118cc565b90506107ae61079c611260565b61078983670de0b6b3a7640000611887565b9050600660009054906101000a90046001600160a01b03166001600160a01b031663b69ef8a86040518163ffffffff1660e01b815260040160206040518083038186803b1580156107fe57600080fd5b505afa158015610812573d6000803e3d6000fd5b505050506040513d601f19601f820116820180604052508101906108369190611d89565b8111156108c657600660009054906101000a90046001600160a01b03166001600160a01b031663b69ef8a86040518163ffffffff1660e01b815260040160206040518083038186803b15801561088b57600080fd5b505afa15801561089f573d6000803e3d6000fd5b505050506040513d601f19601f820116820180604052508101906108c39190611d89565b90505b60065460405163a9059cbb60e01b81526001600160a01b039091169063a9059cbb906108f89033908590600401611e19565b600060405180830381600087803b15801561091257600080fd5b505af1158015610926573d6000803e3d6000fd5b505050506000610947612710610789600f548761188790919063ffffffff16565b905061095461079c611260565b9050600660009054906101000a90046001600160a01b03166001600160a01b031663b69ef8a86040518163ffffffff1660e01b815260040160206040518083038186803b1580156109a457600080fd5b505afa1580156109b8573d6000803e3d6000fd5b505050506040513d601f19601f820116820180604052508101906109dc9190611d89565b811115610a6c57600660009054906101000a90046001600160a01b03166001600160a01b031663b69ef8a86040518163ffffffff1660e01b815260040160206040518083038186803b158015610a3157600080fd5b505afa158015610a45573d6000803e3d6000fd5b505050506040513d601f19601f82011682018060405250810190610a699190611d89565b90505b60065460075460405163a9059cbb60e01b81526001600160a01b039283169263a9059cbb92610aa2929116908590600401611e19565b600060405180830381600087803b158015610abc57600080fd5b505af1158015610ad0573d6000803e3d6000fd5b50508454610ae19250905085611845565b835550504360048201554260039091015550565b600f5481565b60035481565b6000546001600160a01b031681565b6006546001600160a01b031681565b600a546001600160a01b03163314610b495760405162461bcd60e51b81526004016104b490612016565b6001600160a01b0382166000908152600b60205260409020818155436002820155426001820155610b798361190e565b505050565b600a546001600160a01b03163314610ba85760405162461bcd60e51b81526004016104b490612016565b610bb3600c83611830565b610bcf5760405162461bcd60e51b81526004016104b490611fb0565b6001600160a01b038083166000908152600b6020526040808220928416825290208154815560028083015490820155600180830154908201556004808301549082015560038083015490820155610c258361190e565b6106f68461192d565b6001600160a01b0381166000908152600b60205260409020545b919050565b6008546001600160a01b031681565b6008546001600160a01b0316331480610c7f57506009546001600160a01b031633145b610c9b5760405162461bcd60e51b81526004016104b490611f90565b60028054911515600160a01b0260ff60a01b19909216919091179055565b600a546001600160a01b03163314610ce35760405162461bcd60e51b81526004016104b490612016565b60008211610d035760405162461bcd60e51b81526004016104b490611f68565b6000610d156127106107898585611887565b9050610d2261079c611260565b9050600660009054906101000a90046001600160a01b03166001600160a01b031663b69ef8a86040518163ffffffff1660e01b815260040160206040518083038186803b158015610d7257600080fd5b505afa158015610d86573d6000803e3d6000fd5b505050506040513d601f19601f82011682018060405250810190610daa9190611d89565b811115610e3a57600660009054906101000a90046001600160a01b03166001600160a01b031663b69ef8a86040518163ffffffff1660e01b815260040160206040518083038186803b158015610dff57600080fd5b505afa158015610e13573d6000803e3d6000fd5b505050506040513d601f19601f82011682018060405250810190610e379190611d89565b90505b60065460075460405163a9059cbb60e01b81526001600160a01b039283169263a9059cbb92610e70929116908590600401611e19565b600060405180830381600087803b158015610e8a57600080fd5b505af1158015610e9e573d6000803e3d6000fd5b50505050505050565b6008546001600160a01b0316331480610eca57506009546001600160a01b031633145b610ee65760405162461bcd60e51b81526004016104b490611f90565b600480546001600160a01b0319166001600160a01b0383811691909117825560075460405163332530f960e11b815291169163664a61f291610f2a91859101611e05565b600060405180830381600087803b158015610f4457600080fd5b505af1158015610f58573d6000803e3d6000fd5b505060065460405163332530f960e11b81526001600160a01b03909116925063664a61f29150610f8c908490600401611e05565b600060405180830381600087803b158015610fa657600080fd5b505af1158015610fba573d6000803e3d6000fd5b5050505050565b6007546001600160a01b031681565b6008546001600160a01b0316331480610ff357506009546001600160a01b031633145b61100f5760405162461bcd60e51b81526004016104b490611f90565b600580546001600160a01b0319166001600160a01b0383811691909117909155600754604051636817031b60e01b8152911690636817031b90610f8c908490600401611e05565b6008546001600160a01b031633148061107957506009546001600160a01b031633145b6110955760405162461bcd60e51b81526004016104b490611f90565b600980546001600160a01b0319166001600160a01b0383811691909117909155600754604051633825b60160e11b815291169063704b6c02906110dc908490600401611e05565b600060405180830381600087803b1580156110f657600080fd5b505af115801561110a573d6000803e3d6000fd5b5050600654604051633825b60160e11b81526001600160a01b03909116925063704b6c029150610f8c908490600401611e05565b600061117661114b611260565b6001600160a01b0384166000908152600b602052604090205461078990670de0b6b3a7640000611887565b92915050565b6002546001600160a01b031681565b6008546001600160a01b03163314806111ae57506009546001600160a01b031633145b6111ca5760405162461bcd60e51b81526004016104b490611f90565b600880546001600160a01b0319166001600160a01b0392909216919091179055565b600a546001600160a01b031633146112165760405162461bcd60e51b81526004016104b490612016565b6001600160a01b0382166000908152600b60205260409020805461123a9083611969565b8155436002820155426001820155610b798361190e565b6001546001600160a01b031681565b600254600090600160a01b900460ff161515600114156112835750600354610463565b6040805160038082526080820190925260009160208201606080368337505060045482519293506001600160a01b0316918391506000906112d457634e487b7160e01b600052603260045260246000fd5b6001600160a01b039283166020918202929092010152600180548351921691839190811061131257634e487b7160e01b600052603260045260246000fd5b6001600160a01b03928316602091820292909201015260005482519116908290600290811061135157634e487b7160e01b600052603260045260246000fd5b6001600160a01b03928316602091820292909201015260025460405163d06ca61f60e01b815291169063d06ca61f9061139890670de0b6b3a7640000908590600401611e50565b60006040518083038186803b1580156113b057600080fd5b505afa1580156113c4573d6000803e3d6000fd5b505050506040513d6000823e601f3d908101601f191682016040526113ec9190810190611c92565b60028151811061140c57634e487b7160e01b600052603260045260246000fd5b602002602001015191505090565b600e5481565b6004546001600160a01b031681565b6008546001600160a01b031633148061145257506009546001600160a01b031633145b61146e5760405162461bcd60e51b81526004016104b490611f90565b600355565b61271081565b6008546001600160a01b031633148061149c57506009546001600160a01b031633145b6114b85760405162461bcd60e51b81526004016104b490611f90565b600a80546001600160a01b0319166001600160a01b0392909216919091179055565b600254600160a01b900460ff1681565b6114f5600c33611830565b6115115760405162461bcd60e51b81526004016104b490611fb0565b600081116115315760405162461bcd60e51b81526004016104b490611f68565b336000908152600b60205260409020805482111561154e57805491505b600061156b612710610789600e548661188790919063ffffffff16565b905061157861079c611260565b9050600660009054906101000a90046001600160a01b03166001600160a01b031663b69ef8a86040518163ffffffff1660e01b815260040160206040518083038186803b1580156115c857600080fd5b505afa1580156115dc573d6000803e3d6000fd5b505050506040513d601f19601f820116820180604052508101906116009190611d89565b81111561169057600660009054906101000a90046001600160a01b03166001600160a01b031663b69ef8a86040518163ffffffff1660e01b815260040160206040518083038186803b15801561165557600080fd5b505afa158015611669573d6000803e3d6000fd5b505050506040513d601f19601f8201168201806040525081019061168d9190611d89565b90505b60065460075460405163a9059cbb60e01b81526001600160a01b039283169263a9059cbb926116c6929116908590600401611e19565b600060405180830381600087803b1580156116e057600080fd5b505af11580156116f4573d6000803e3d6000fd5b505083546117059250905084611845565b8255504360048201554260039091015550565b6008546001600160a01b031633148061173b57506009546001600160a01b031633145b806117505750600a546001600160a01b031633145b61176c5760405162461bcd60e51b81526004016104b490611f06565b600760009054906101000a90046001600160a01b03166001600160a01b031663a425632f6040518163ffffffff1660e01b8152600401600060405180830381600087803b1580156106e257600080fd5b6009546001600160a01b031681565b6005546001600160a01b031681565b6001600160a01b03166000908152600b6020526040902080546001820154600283015460038401546004909401549294909391929190565b600061117682611998565b6000611829838361199c565b9392505050565b6000611829836001600160a01b0384166119f5565b600061182983836040518060400160405280601e81526020017f536166654d6174683a207375627472616374696f6e206f766572666c6f770000815250611a0d565b60008261189657506000611176565b60006118a2838561209c565b9050826118af858361207c565b146118295760405162461bcd60e51b81526004016104b490611fd5565b600061182983836040518060400160405280601a81526020017f536166654d6174683a206469766973696f6e206279207a65726f000000000000815250611a47565b611919600c82611830565b61192a57611928600c82611a75565b505b50565b611938600c82611830565b15156001141561194f5761194d600c82611a8a565b505b6001600160a01b03166000908152600b6020526040812055565b6000806119768385612064565b9050838110156118295760405162461bcd60e51b81526004016104b490611f31565b5490565b815460009082106119bf5760405162461bcd60e51b81526004016104b490611ec4565b8260000182815481106119e257634e487b7160e01b600052603260045260246000fd5b9060005260206000200154905092915050565b60009081526001919091016020526040902054151590565b60008184841115611a315760405162461bcd60e51b81526004016104b49190611e71565b506000611a3e84866120bb565b95945050505050565b60008183611a685760405162461bcd60e51b81526004016104b49190611e71565b506000611a3e848661207c565b6000611829836001600160a01b038416611a9f565b6000611829836001600160a01b038416611ae9565b6000611aab83836119f5565b611ae157508154600181810184556000848152602080822090930184905584548482528286019093526040902091909155611176565b506000611176565b60008181526001830160205260408120548015611bfc576000611b0d6001836120bb565b8554909150600090611b21906001906120bb565b90506000866000018281548110611b4857634e487b7160e01b600052603260045260246000fd5b9060005260206000200154905080876000018481548110611b7957634e487b7160e01b600052603260045260246000fd5b600091825260209091200155611b90836001612064565b60008281526001890160205260409020558654879080611bc057634e487b7160e01b600052603160045260246000fd5b60019003818190600052602060002001600090559055866001016000878152602001908152602001600020600090556001945050505050611176565b6000915050611176565b80356001600160a01b0381168114610c4857600080fd5b600060208284031215611c2e578081fd5b61182982611c06565b60008060408385031215611c49578081fd5b611c5283611c06565b9150611c6060208401611c06565b90509250929050565b60008060408385031215611c7b578182fd5b611c8483611c06565b946020939093013593505050565b60006020808385031215611ca4578182fd5b825167ffffffffffffffff80821115611cbb578384fd5b818501915085601f830112611cce578384fd5b815181811115611ce057611ce0612103565b838102604051601f19603f83011681018181108582111715611d0457611d04612103565b604052828152858101935084860182860187018a1015611d22578788fd5b8795505b83861015611d44578051855260019590950194938601938601611d26565b5098975050505050505050565b600060208284031215611d62578081fd5b81358015158114611829578182fd5b600060208284031215611d82578081fd5b5035919050565b600060208284031215611d9a578081fd5b5051919050565b60008060408385031215611db3578182fd5b50508035926020909101359150565b6000815180845260208085019450808401835b83811015611dfa5781516001600160a01b031687529582019590820190600101611dd5565b509495945050505050565b6001600160a01b0391909116815260200190565b6001600160a01b03929092168252602082015260400190565b6000602082526118296020830184611dc2565b901515815260200190565b600083825260406020830152611e696040830184611dc2565b949350505050565b6000602080835283518082850152825b81811015611e9d57858101830151858201604001528201611e81565b81811115611eae5783604083870101525b50601f01601f1916929092016040019392505050565b60208082526022908201527f456e756d657261626c655365743a20696e646578206f7574206f6620626f756e604082015261647360f01b606082015260800190565b6020808252601190820152700858591b5a5b881bdc88189858dad95b99607a1b604082015260600190565b6020808252601b908201527f536166654d6174683a206164646974696f6e206f766572666c6f770000000000604082015260600190565b6020808252600e908201526d1a5b9d985b1a5908185b5bdd5b9d60921b604082015260600190565b60208082526006908201526510b0b236b4b760d11b604082015260600190565b6020808252600b908201526a10b2bc34b9ba103ab9b2b960a91b604082015260600190565b60208082526021908201527f536166654d6174683a206d756c7469706c69636174696f6e206f766572666c6f6040820152607760f81b606082015260800190565b60208082526008908201526708589858dad95b9960c21b604082015260600190565b90815260200190565b948552602085019390935260408401919091526060830152608082015260a00190565b60008219821115612077576120776120ed565b500190565b60008261209757634e487b7160e01b81526012600452602481fd5b500490565b60008160001904831182151516156120b6576120b66120ed565b500290565b6000828210156120cd576120cd6120ed565b500390565b60006000198214156120e6576120e66120ed565b5060010190565b634e487b7160e01b600052601160045260246000fd5b634e487b7160e01b600052604160045260246000fdfea26469706673582212201f4a09186339f92f40c3c6346140d19a5e895257b5c0f38d22442c8b9945ea7564736f6c63430008010033608060405234801561001057600080fd5b50604051610bd6380380610bd683398101604081905261002f91610097565b600180546001600160a01b03199081163317909155600380546001600160a01b0393841690831681179091556002805483169091179055600080549390921692169190911790556100c9565b80516001600160a01b038116811461009257600080fd5b919050565b600080604083850312156100a9578182fd5b6100b28361007b565b91506100c06020840161007b565b90509250929050565b610afe806100d86000396000f3fe608060405234801561001057600080fd5b50600436106100ea5760003560e01c8063a9059cbb1161008c578063b6b55f2511610066578063b6b55f25146101a6578063de5f6268146101b9578063f77c4791146101c1578063f851a440146101c9576100ea565b8063a9059cbb14610176578063ad36712e14610189578063b69ef8a814610191576100ea565b8063704b6c02116100c8578063704b6c0214610135578063851e3ca514610148578063853828b61461015b57806392eefe9b14610163576100ea565b80632e1a7d4d146100ef5780635aa6e67514610104578063664a61f214610122575b600080fd5b6101026100fd3660046108a9565b6101d1565b005b61010c610262565b60405161011991906108f5565b60405180910390f35b610102610130366004610846565b610271565b610102610143366004610846565b6102e7565b610102610156366004610846565b61035d565b6101026103d3565b610102610171366004610846565b6103e0565b610102610184366004610860565b610456565b61010c6104b5565b6101996104c4565b6040516101199190610a93565b6101026101b43660046108a9565b61054a565b610102610562565b61010c6105e4565b61010c6105f3565b6002546001600160a01b03163314806101f457506003546001600160a01b031633145b8061020957506001546001600160a01b031633145b61022e5760405162461bcd60e51b8152600401610225906109e4565b60405180910390fd5b6102366104c4565b811115610248576102456104c4565b90505b60005461025f906001600160a01b03163383610602565b50565b6002546001600160a01b031681565b6002546001600160a01b031633148061029457506003546001600160a01b031633145b806102a957506001546001600160a01b031633145b6102c55760405162461bcd60e51b8152600401610225906109e4565b600080546001600160a01b0319166001600160a01b0392909216919091179055565b6002546001600160a01b031633148061030a57506003546001600160a01b031633145b8061031f57506001546001600160a01b031633145b61033b5760405162461bcd60e51b8152600401610225906109e4565b600380546001600160a01b0319166001600160a01b0392909216919091179055565b6002546001600160a01b031633148061038057506003546001600160a01b031633145b8061039557506001546001600160a01b031633145b6103b15760405162461bcd60e51b8152600401610225906109e4565b600280546001600160a01b0319166001600160a01b0392909216919091179055565b6103de6100fd6104c4565b565b6002546001600160a01b031633148061040357506003546001600160a01b031633145b8061041857506001546001600160a01b031633145b6104345760405162461bcd60e51b8152600401610225906109e4565b600180546001600160a01b0319166001600160a01b0392909216919091179055565b6001546001600160a01b031633146104805760405162461bcd60e51b815260040161022590610979565b6104886104c4565b81111561049a576104976104c4565b90505b6000546104b1906001600160a01b03168383610602565b5050565b6000546001600160a01b031681565b600080546040516370a0823160e01b81526001600160a01b03909116906370a08231906104f59030906004016108f5565b60206040518083038186803b15801561050d57600080fd5b505afa158015610521573d6000803e3d6000fd5b505050506040513d601f19601f8201168201806040525081019061054591906108c1565b905090565b60005461025f906001600160a01b031633308461065d565b6000546040516370a0823160e01b81526103de916001600160a01b0316906370a08231906105949033906004016108f5565b60206040518083038186803b1580156105ac57600080fd5b505afa1580156105c0573d6000803e3d6000fd5b505050506040513d601f19601f820116820180604052508101906101b491906108c1565b6001546001600160a01b031681565b6003546001600160a01b031681565b6106588363a9059cbb60e01b848460405160240161062192919061092d565b60408051601f198184030181529190526020810180516001600160e01b03166001600160e01b031990931692909217909152610684565b505050565b61067e846323b872dd60e01b85858560405160240161062193929190610909565b50505050565b60006106d9826040518060400160405280602081526020017f5361666545524332303a206c6f772d6c6576656c2063616c6c206661696c6564815250856001600160a01b03166107139092919063ffffffff16565b80519091501561065857808060200190518101906106f79190610889565b6106585760405162461bcd60e51b815260040161022590610a49565b6060610722848460008561072c565b90505b9392505050565b60608247101561074e5760405162461bcd60e51b81526004016102259061099e565b610757856107ec565b6107735760405162461bcd60e51b815260040161022590610a12565b600080866001600160a01b0316858760405161078f91906108d9565b60006040518083038185875af1925050503d80600081146107cc576040519150601f19603f3d011682016040523d82523d6000602084013e6107d1565b606091505b50915091506107e18282866107f6565b979650505050505050565b803b15155b919050565b60608315610805575081610725565b8251156108155782518084602001fd5b8160405162461bcd60e51b81526004016102259190610946565b80356001600160a01b03811681146107f157600080fd5b600060208284031215610857578081fd5b6107258261082f565b60008060408385031215610872578081fd5b61087b8361082f565b946020939093013593505050565b60006020828403121561089a578081fd5b81518015158114610725578182fd5b6000602082840312156108ba578081fd5b5035919050565b6000602082840312156108d2578081fd5b5051919050565b600082516108eb818460208701610a9c565b9190910192915050565b6001600160a01b0391909116815260200190565b6001600160a01b039384168152919092166020820152604081019190915260600190565b6001600160a01b03929092168252602082015260400190565b6000602082528251806020840152610965816040850160208701610a9c565b601f01601f19169190910160400192915050565b6020808252600b908201526a10b1b7b73a3937b63632b960a91b604082015260600190565b60208082526026908201527f416464726573733a20696e73756666696369656e742062616c616e636520666f6040820152651c8818d85b1b60d21b606082015260800190565b60208082526014908201527310b0b236b4b71037b91031b7b73a3937b63632b960611b604082015260600190565b6020808252601d908201527f416464726573733a2063616c6c20746f206e6f6e2d636f6e7472616374000000604082015260600190565b6020808252602a908201527f5361666545524332303a204552433230206f7065726174696f6e20646964206e6040820152691bdd081cdd58d8d9595960b21b606082015260800190565b90815260200190565b60005b83811015610ab7578181015183820152602001610a9f565b8381111561067e575050600091015256fea2646970667358221220f564fae103f085c3983abbbcf12101df5787ebc8ab3d87f2d8b4c29bb1a4eceb64736f6c63430008010033608060405262278d0060065562278d00600755610bb8600a55611388600b556107d0600c553480156200003157600080fd5b50604051620020eb380380620020eb8339810160408190526200005491620000c2565b600180546001600160a01b03199081163317909155600380546001600160a01b03938416908316811790915560028054831690911790556000805493909216921691909117905542600855620000f9565b80516001600160a01b0381168114620000bd57600080fd5b919050565b60008060408385031215620000d5578182fd5b620000e083620000a5565b9150620000f060208401620000a5565b90509250929050565b611fe280620001096000396000f3fe608060405234801561001057600080fd5b50600436106102745760003560e01c80638d35613111610151578063c3e0cd62116100c3578063e538b28011610087578063e538b28014610483578063e88958dc14610496578063f77c47911461049e578063f851a440146104a6578063fb75817d146104ae578063fbfa77cf146104c157610274565b8063c3e0cd6214610450578063d73792a914610463578063d82faa481461046b578063dcb0f85814610473578063de5f62681461047b57610274565b8063ad36712e11610115578063ad36712e146103fd578063b103929b14610405578063b31dbd341461041a578063b69ef8a814610422578063b6b55f251461042a578063bd6018bb1461043d57610274565b80638d356131146103ca5780638ea5220f146103d257806392eefe9b146103da5780639994673d146103ed578063a425632f146103f557610274565b80635aa6e675116101ea5780636827e764116101ae5780636827e76414610360578063704b6c0214610368578063718fb6121461037b5780637da5790b1461038e578063851e3ca5146103af578063853828b6146103c257610274565b80635aa6e675146103155780635ccbdcc01461032a5780635cfdd4f514610332578063664a61f21461033a5780636817031b1461034d57610274565b806312eb4f9a1161023c57806312eb4f9a146102cf5780631d2d7507146102d75780631f53ac02146102df5780632e1a7d4d146102f2578063417745e91461030557806354e481221461030d57610274565b806301ac145b14610279578063079cff0a14610297578063091dffca1461029f5780630af01b0f146102a957806310c9e0ca146102bc575b600080fd5b6102816104c9565b60405161028e9190611eca565b60405180910390f35b6102816104cf565b6102a76104d5565b005b6102a76102b73660046119b4565b6105c6565b6102a76102ca3660046119fd565b610652565b6102816106ab565b6102816106b1565b6102a76102ed36600461199a565b6106b7565b6102a76103003660046119fd565b61072d565b6102816107b5565b6102a76107bb565b61031d6108e6565b60405161028e9190611a74565b6102816108f5565b6102816108fb565b6102a761034836600461199a565b610901565b6102a761035b36600461199a565b610977565b6102816109ed565b6102a761037636600461199a565b6109f3565b61028161038936600461199a565b610a69565b6103a161039c36600461199a565b610a8b565b60405161028e929190611ed3565b6102a76103bd36600461199a565b610aa4565b6102a7610b1a565b6102a7610b27565b61031d610c59565b6102a76103e836600461199a565b610c68565b610281610cde565b6102a7610ce4565b61031d610d86565b61040d610d95565b60405161028e9190611ac5565b6102a7610e64565b610281610f8c565b6102a76104383660046119fd565b611012565b6102a761044b36600461199a565b61102a565b61028161045e36600461199a565b61109d565b6102816110b8565b6102816110be565b6102a76110ca565b6102a7611186565b6102a7610491366004611a2d565b611208565b6102816112a1565b61031d6112a7565b61031d6112b6565b6102a76104bc3660046119fd565b6112c5565b61031d61131e565b600b5481565b60095481565b426104ed60065460085461132d90919063ffffffff16565b106105135760405162461bcd60e51b815260040161050a90611bcb565b60405180910390fd5b4261052b60075460095461132d90919063ffffffff16565b116105485760405162461bcd60e51b815260040161050a90611cff565b6004546001600160a01b031633146105725760405162461bcd60e51b815260040161050a90611d77565b600e5461057d610f8c565b81111561058f5761058c610f8c565b90505b6004546000546105ac916001600160a01b03918216911683611365565b80600e60008282546105be9190611f38565b909155505050565b6003546001600160a01b03163314806105e957506002546001600160a01b031633145b806105fe57506001546001600160a01b031633145b61061a5760405162461bcd60e51b815260040161050a90611d97565b6106256011836113c0565b610636576106346011836113d5565b505b6001600160a01b03909116600090815260106020526040902055565b6002546001600160a01b031633148061067557506003546001600160a01b031633145b8061068a57506001546001600160a01b031633145b6106a65760405162461bcd60e51b815260040161050a90611d97565b600655565b60075481565b60085481565b6003546001600160a01b03163314806106da57506002546001600160a01b031633145b806106ef57506001546001600160a01b031633145b61070b5760405162461bcd60e51b815260040161050a90611d97565b600580546001600160a01b0319166001600160a01b0392909216919091179055565b6002546001600160a01b031633148061075057506003546001600160a01b031633145b8061076557506001546001600160a01b031633145b6107815760405162461bcd60e51b815260040161050a90611d97565b610789610f8c565b81111561079b57610798610f8c565b90505b6000546107b2906001600160a01b03163383611365565b50565b600d5481565b426107d360065460085461132d90919063ffffffff16565b106107f05760405162461bcd60e51b815260040161050a90611bcb565b4261080860075460095461132d90919063ffffffff16565b116108255760405162461bcd60e51b815260040161050a90611cff565b6108306011326113c0565b61084c5760405162461bcd60e51b815260040161050a90611c0d565b326000908152601060205260409020600101548061087c5760405162461bcd60e51b815260040161050a90611c35565b610884610f8c565b81111561089657610893610f8c565b90505b6000546108ad906001600160a01b03163283611365565b80600d60008282546108bf9190611f38565b909155505032600090815260106020526040812060010180548392906105be908490611f38565b6002546001600160a01b031681565b60065481565b600f5481565b6002546001600160a01b031633148061092457506003546001600160a01b031633145b8061093957506001546001600160a01b031633145b6109555760405162461bcd60e51b815260040161050a90611d97565b600080546001600160a01b0319166001600160a01b0392909216919091179055565b6003546001600160a01b031633148061099a57506002546001600160a01b031633145b806109af57506001546001600160a01b031633145b6109cb5760405162461bcd60e51b815260040161050a90611d97565b600480546001600160a01b0319166001600160a01b0392909216919091179055565b600c5481565b6002546001600160a01b0316331480610a1657506003546001600160a01b031633145b80610a2b57506001546001600160a01b031633145b610a475760405162461bcd60e51b815260040161050a90611d97565b600380546001600160a01b0319166001600160a01b0392909216919091179055565b6001600160a01b0381166000908152601060205260409020600101545b919050565b6010602052600090815260409020805460019091015482565b6002546001600160a01b0316331480610ac757506003546001600160a01b031633145b80610adc57506001546001600160a01b031633145b610af85760405162461bcd60e51b815260040161050a90611d97565b600280546001600160a01b0319166001600160a01b0392909216919091179055565b610b25610300610f8c565b565b42610b3f60065460085461132d90919063ffffffff16565b10610b5c5760405162461bcd60e51b815260040161050a90611bcb565b42610b7460075460095461132d90919063ffffffff16565b11610b915760405162461bcd60e51b815260040161050a90611cff565b6005546001600160a01b0316610bb95760405162461bcd60e51b815260040161050a90611cd4565b6002546001600160a01b0316331480610bdc57506003546001600160a01b031633145b80610bf157506001546001600160a01b031633145b610c0d5760405162461bcd60e51b815260040161050a90611d97565b600f54610c18610f8c565b811115610c2a57610c27610f8c565b90505b600554600054610c47916001600160a01b03918216911683611365565b80600f60008282546105be9190611f38565b6005546001600160a01b031681565b6002546001600160a01b0316331480610c8b57506003546001600160a01b031633145b80610ca057506001546001600160a01b031633145b610cbc5760405162461bcd60e51b815260040161050a90611d97565b600180546001600160a01b0319166001600160a01b0392909216919091179055565b600e5481565b6002546001600160a01b0316331480610d0757506003546001600160a01b031633145b80610d1c57506001546001600160a01b031633145b610d385760405162461bcd60e51b815260040161050a90611d97565b426008556000600f819055600e819055600d819055610d55610f8c565b1115610b2557600354610b25906001600160a01b0316610d73610f8c565b6000546001600160a01b03169190611365565b6000546001600160a01b031681565b60606000610da360116113ea565b67ffffffffffffffff811115610dc957634e487b7160e01b600052604160045260246000fd5b604051908082528060200260200182016040528015610df2578160200160208202803683370190505b50905060005b610e0260116113ea565b811015610e5e57610e146011826113f5565b828281518110610e3457634e487b7160e01b600052603260045260246000fd5b6001600160a01b039092166020928302919091019091015280610e5681611f7b565b915050610df8565b50905090565b6002546001600160a01b0316331480610e8757506003546001600160a01b031633145b80610e9c57506001546001600160a01b031633145b610eb85760405162461bcd60e51b815260040161050a90611d97565b42610ed060065460085461132d90919063ffffffff16565b10610eed5760405162461bcd60e51b815260040161050a90611b87565b42610f0560075460095461132d90919063ffffffff16565b10610f225760405162461bcd60e51b815260040161050a90611e12565b42600981905550610f49612710610f43600c54610f3d610f8c565b90611401565b90611446565b600f81905550610f63612710610f43600a54610f3d610f8c565b600d81905550610f7d612710610f43600b54610f3d610f8c565b600e55600d54610b2590611488565b600080546040516370a0823160e01b81526001600160a01b03909116906370a0823190610fbd903090600401611a74565b60206040518083038186803b158015610fd557600080fd5b505afa158015610fe9573d6000803e3d6000fd5b505050506040513d601f19601f8201168201806040525081019061100d9190611a15565b905090565b6000546107b2906001600160a01b031633308461152d565b6003546001600160a01b031633148061104d57506002546001600160a01b031633145b8061106257506001546001600160a01b031633145b61107e5760405162461bcd60e51b815260040161050a90611d97565b6110896011826113c0565b156107b257611099601182611554565b5050565b6001600160a01b031660009081526010602052604090205490565b61271081565b600061100d60116113ea565b426110e260065460085461132d90919063ffffffff16565b106110ff5760405162461bcd60e51b815260040161050a90611bcb565b4261111760075460095461132d90919063ffffffff16565b116111345760405162461bcd60e51b815260040161050a90611cff565b6005546001600160a01b031661115c5760405162461bcd60e51b815260040161050a90611cd4565b6005546001600160a01b03163314610c0d5760405162461bcd60e51b815260040161050a90611def565b6000546040516370a0823160e01b8152610b25916001600160a01b0316906370a08231906111b8903390600401611a74565b60206040518083038186803b1580156111d057600080fd5b505afa1580156111e4573d6000803e3d6000fd5b505050506040513d601f19601f820116820180604052508101906104389190611a15565b6002546001600160a01b031633148061122b57506003546001600160a01b031633145b8061124057506001546001600160a01b031633145b61125c5760405162461bcd60e51b815260040161050a90611d97565b6127106112738261126d868661132d565b9061132d565b146112905760405162461bcd60e51b815260040161050a90611dc5565b600a92909255600c91909155600b55565b600a5481565b6001546001600160a01b031681565b6003546001600160a01b031681565b6002546001600160a01b03163314806112e857506003546001600160a01b031633145b806112fd57506001546001600160a01b031633145b6113195760405162461bcd60e51b815260040161050a90611d97565b600755565b6004546001600160a01b031681565b60008061133a8385611ee1565b90508381101561135c5760405162461bcd60e51b815260040161050a90611c57565b90505b92915050565b6113bb8363a9059cbb60e01b8484604051602401611384929190611aac565b60408051601f198184030181529190526020810180516001600160e01b03166001600160e01b031990931692909217909152611569565b505050565b600061135c836001600160a01b0384166115f8565b600061135c836001600160a01b038416611610565b600061135f8261165a565b600061135c838361165e565b6000826114105750600061135f565b600061141c8385611f19565b9050826114298583611ef9565b1461135c5760405162461bcd60e51b815260040161050a90611d36565b600061135c83836040518060400160405280601a81526020017f536166654d6174683a206469766973696f6e206279207a65726f0000000000008152506116b7565b60006114926116f0565b905060005b6114a160116113ea565b8110156113bb5760006010816114b86011856113f5565b6001600160a01b03168152602081019190915260400160002080549091506114e0575061151b565b60006114fd84610f4384600001548861140190919063ffffffff16565b9050808260010160008282546115139190611ee1565b909155505050505b8061152581611f7b565b915050611497565b61154e846323b872dd60e01b85858560405160240161138493929190611a88565b50505050565b600061135c836001600160a01b038416611750565b60006115be826040518060400160405280602081526020017f5361666545524332303a206c6f772d6c6576656c2063616c6c206661696c6564815250856001600160a01b031661186d9092919063ffffffff16565b8051909150156113bb57808060200190518101906115dc91906119dd565b6113bb5760405162461bcd60e51b815260040161050a90611e80565b60009081526001919091016020526040902054151590565b600061161c83836115f8565b6116525750815460018181018455600084815260208082209093018490558454848252828601909352604090209190915561135f565b50600061135f565b5490565b815460009082106116815760405162461bcd60e51b815260040161050a90611b45565b8260000182815481106116a457634e487b7160e01b600052603260045260246000fd5b9060005260206000200154905092915050565b600081836116d85760405162461bcd60e51b815260040161050a9190611b12565b5060006116e58486611ef9565b9150505b9392505050565b6000805b6116fe60116113ea565b81101561174c57611738601060006117176011856113f5565b6001600160a01b03168152602081019190915260400160002054839061132d565b91508061174481611f7b565b9150506116f4565b5090565b60008181526001830160205260408120548015611863576000611774600183611f38565b855490915060009061178890600190611f38565b905060008660000182815481106117af57634e487b7160e01b600052603260045260246000fd5b90600052602060002001549050808760000184815481106117e057634e487b7160e01b600052603260045260246000fd5b6000918252602090912001556117f7836001611ee1565b6000828152600189016020526040902055865487908061182757634e487b7160e01b600052603160045260246000fd5b6001900381819060005260206000200160009055905586600101600087815260200190815260200160002060009055600194505050505061135f565b600091505061135f565b606061187c8484600085611884565b949350505050565b6060824710156118a65760405162461bcd60e51b815260040161050a90611c8e565b6118af85611944565b6118cb5760405162461bcd60e51b815260040161050a90611e49565b600080866001600160a01b031685876040516118e79190611a58565b60006040518083038185875af1925050503d8060008114611924576040519150601f19603f3d011682016040523d82523d6000602084013e611929565b606091505b509150915061193982828661194a565b979650505050505050565b3b151590565b606083156119595750816116e9565b8251156119695782518084602001fd5b8160405162461bcd60e51b815260040161050a9190611b12565b80356001600160a01b0381168114610a8657600080fd5b6000602082840312156119ab578081fd5b61135c82611983565b600080604083850312156119c6578081fd5b6119cf83611983565b946020939093013593505050565b6000602082840312156119ee578081fd5b8151801515811461135c578182fd5b600060208284031215611a0e578081fd5b5035919050565b600060208284031215611a26578081fd5b5051919050565b600080600060608486031215611a41578081fd5b505081359360208301359350604090920135919050565b60008251611a6a818460208701611f4f565b9190910192915050565b6001600160a01b0391909116815260200190565b6001600160a01b039384168152919092166020820152604081019190915260600190565b6001600160a01b03929092168252602082015260400190565b6020808252825182820181905260009190848201906040850190845b81811015611b065783516001600160a01b031683529284019291840191600101611ae1565b50909695505050505050565b6000602082528251806020840152611b31816040850160208701611f4f565b601f01601f19169190910160400192915050565b60208082526022908201527f456e756d657261626c655365743a20696e646578206f7574206f6620626f756e604082015261647360f01b606082015260800190565b60208082526024908201527f21617661696c61626c6520746f20756e6c6f636b20746f207769746864617277604082015263081e595d60e21b606082015260800190565b60208082526022908201527f21617661696c61626c6520746f20776974686461727720726577617264732079604082015261195d60f21b606082015260800190565b6020808252600e908201526d10b2bc34b9ba1031b932b0ba37b960911b604082015260600190565b6020808252600890820152672162616c616e636560c01b604082015260600190565b6020808252601b908201527f536166654d6174683a206164646974696f6e206f766572666c6f770000000000604082015260600190565b60208082526026908201527f416464726573733a20696e73756666696369656e742062616c616e636520666f6040820152651c8818d85b1b60d21b606082015260800190565b602080825260119082015270085d985b1a590819195d881dd85b1b195d607a1b604082015260600190565b60208082526017908201527f6578706972656420776974686472617720706572696f64000000000000000000604082015260600190565b60208082526021908201527f536166654d6174683a206d756c7469706c69636174696f6e206f766572666c6f6040820152607760f81b606082015260800190565b602080825260069082015265085d985d5b1d60d21b604082015260600190565b60208082526014908201527310b0b236b4b71037b91031b7b73a3937b63632b960611b604082015260600190565b60208082526010908201526f2176616c69642066656520726174657360801b604082015260600190565b60208082526009908201526821646576207465616d60b81b604082015260600190565b6020808252601a908201527f616c726561647920696e20776974686472617720706572696f64000000000000604082015260600190565b6020808252601d908201527f416464726573733a2063616c6c20746f206e6f6e2d636f6e7472616374000000604082015260600190565b6020808252602a908201527f5361666545524332303a204552433230206f7065726174696f6e20646964206e6040820152691bdd081cdd58d8d9595960b21b606082015260800190565b90815260200190565b918252602082015260400190565b60008219821115611ef457611ef4611f96565b500190565b600082611f1457634e487b7160e01b81526012600452602481fd5b500490565b6000816000190483118215151615611f3357611f33611f96565b500290565b600082821015611f4a57611f4a611f96565b500390565b60005b83811015611f6a578181015183820152602001611f52565b8381111561154e5750506000910152565b6000600019821415611f8f57611f8f611f96565b5060010190565b634e487b7160e01b600052601160045260246000fdfea2646970667358221220f6383b223ccec4ab9781df5ea6e62ae67345fb78da681074e28ed5a97b23c6a264736f6c63430008010033",
  "linkReferences": {},
  "deployedLinkReferences": {}
}