{
  "_format": "hh-sol-artifact-1",
  "contractName": "RewardPool",
  "sourceName": "contracts/Controller.sol",
  "abi": [
    {
      "inputs": [
        {
          "internalType": "address",
          "name": "_ptm",
          "type": "address"
        },
        {
          "internalType": "address",
          "name": "_admin",
          "type": "address"
        }
      ],
      "stateMutability": "nonpayable",
      "type": "constructor"
    },
    {
      "inputs": [],
      "name": "FEE_DENOMINATOR",
      "outputs": [
        {
          "internalType": "uint256",
          "name": "",
          "type": "uint256"
        }
      ],
      "stateMutability": "view",
      "type": "function"
    },
    {
      "inputs": [
        {
          "internalType": "address",
          "name": "_creator",
          "type": "address"
        },
        {
          "internalType": "uint256",
          "name": "_power",
          "type": "uint256"
        }
      ],
      "name": "addOrUpdateCreator",
      "outputs": [],
      "stateMutability": "nonpayable",
      "type": "function"
    },
    {
      "inputs": [],
      "name": "admin",
      "outputs": [
        {
          "internalType": "address",
          "name": "",
          "type": "address"
        }
      ],
      "stateMutability": "view",
      "type": "function"
    },
    {
      "inputs": [],
      "name": "balance",
      "outputs": [
        {
          "internalType": "uint256",
          "name": "",
          "type": "uint256"
        }
      ],
      "stateMutability": "view",
      "type": "function"
    },
    {
      "inputs": [],
      "name": "balanceOfCreator",
      "outputs": [
        {
          "internalType": "uint256",
          "name": "",
          "type": "uint256"
        }
      ],
      "stateMutability": "view",
      "type": "function"
    },
    {
      "inputs": [],
      "name": "balanceOfDev",
      "outputs": [
        {
          "internalType": "uint256",
          "name": "",
          "type": "uint256"
        }
      ],
      "stateMutability": "view",
      "type": "function"
    },
    {
      "inputs": [],
      "name": "balanceOfVault",
      "outputs": [
        {
          "internalType": "uint256",
          "name": "",
          "type": "uint256"
        }
      ],
      "stateMutability": "view",
      "type": "function"
    },
    {
      "inputs": [],
      "name": "controller",
      "outputs": [
        {
          "internalType": "address",
          "name": "",
          "type": "address"
        }
      ],
      "stateMutability": "view",
      "type": "function"
    },
    {
      "inputs": [],
      "name": "creatorCount",
      "outputs": [
        {
          "internalType": "uint256",
          "name": "",
          "type": "uint256"
        }
      ],
      "stateMutability": "view",
      "type": "function"
    },
    {
      "inputs": [],
      "name": "creatorFee",
      "outputs": [
        {
          "internalType": "uint256",
          "name": "",
          "type": "uint256"
        }
      ],
      "stateMutability": "view",
      "type": "function"
    },
    {
      "inputs": [
        {
          "internalType": "address",
          "name": "",
          "type": "address"
        }
      ],
      "name": "creatorInfos",
      "outputs": [
        {
          "internalType": "uint256",
          "name": "power",
          "type": "uint256"
        },
        {
          "internalType": "uint256",
          "name": "balance",
          "type": "uint256"
        }
      ],
      "stateMutability": "view",
      "type": "function"
    },
    {
      "inputs": [],
      "name": "creatorList",
      "outputs": [
        {
          "internalType": "address[]",
          "name": "",
          "type": "address[]"
        }
      ],
      "stateMutability": "view",
      "type": "function"
    },
    {
      "inputs": [
        {
          "internalType": "uint256",
          "name": "_amount",
          "type": "uint256"
        }
      ],
      "name": "deposit",
      "outputs": [],
      "stateMutability": "nonpayable",
      "type": "function"
    },
    {
      "inputs": [],
      "name": "depositAll",
      "outputs": [],
      "stateMutability": "nonpayable",
      "type": "function"
    },
    {
      "inputs": [],
      "name": "devFee",
      "outputs": [
        {
          "internalType": "uint256",
          "name": "",
          "type": "uint256"
        }
      ],
      "stateMutability": "view",
      "type": "function"
    },
    {
      "inputs": [],
      "name": "devWallet",
      "outputs": [
        {
          "internalType": "address",
          "name": "",
          "type": "address"
        }
      ],
      "stateMutability": "view",
      "type": "function"
    },
    {
      "inputs": [],
      "name": "governance",
      "outputs": [
        {
          "internalType": "address",
          "name": "",
          "type": "address"
        }
      ],
      "stateMutability": "view",
      "type": "function"
    },
    {
      "inputs": [],
      "name": "lastRewardedTime",
      "outputs": [
        {
          "internalType": "uint256",
          "name": "",
          "type": "uint256"
        }
      ],
      "stateMutability": "view",
      "type": "function"
    },
    {
      "inputs": [],
      "name": "lockWithdraw",
      "outputs": [],
      "stateMutability": "nonpayable",
      "type": "function"
    },
    {
      "inputs": [
        {
          "internalType": "address",
          "name": "_creator",
          "type": "address"
        }
      ],
      "name": "powerOfCreator",
      "outputs": [
        {
          "internalType": "uint256",
          "name": "",
          "type": "uint256"
        }
      ],
      "stateMutability": "view",
      "type": "function"
    },
    {
      "inputs": [],
      "name": "ptm",
      "outputs": [
        {
          "internalType": "contract IERC20",
          "name": "",
          "type": "address"
        }
      ],
      "stateMutability": "view",
      "type": "function"
    },
    {
      "inputs": [
        {
          "internalType": "address",
          "name": "_creator",
          "type": "address"
        }
      ],
      "name": "removeCreator",
      "outputs": [],
      "stateMutability": "nonpayable",
      "type": "function"
    },
    {
      "inputs": [],
      "name": "resetCreatorsReward",
      "outputs": [],
      "stateMutability": "nonpayable",
      "type": "function"
    },
    {
      "inputs": [],
      "name": "rewardLockPeriod",
      "outputs": [
        {
          "internalType": "uint256",
          "name": "",
          "type": "uint256"
        }
      ],
      "stateMutability": "view",
      "type": "function"
    },
    {
      "inputs": [
        {
          "internalType": "address",
          "name": "_creator",
          "type": "address"
        }
      ],
      "name": "rewardOfCreator",
      "outputs": [
        {
          "internalType": "uint256",
          "name": "",
          "type": "uint256"
        }
      ],
      "stateMutability": "view",
      "type": "function"
    },
    {
      "inputs": [
        {
          "internalType": "address",
          "name": "_admin",
          "type": "address"
        }
      ],
      "name": "setAdmin",
      "outputs": [],
      "stateMutability": "nonpayable",
      "type": "function"
    },
    {
      "inputs": [
        {
          "internalType": "address",
          "name": "_controller",
          "type": "address"
        }
      ],
      "name": "setController",
      "outputs": [],
      "stateMutability": "nonpayable",
      "type": "function"
    },
    {
      "inputs": [
        {
          "internalType": "address",
          "name": "_wallet",
          "type": "address"
        }
      ],
      "name": "setDevWallet",
      "outputs": [],
      "stateMutability": "nonpayable",
      "type": "function"
    },
    {
      "inputs": [
        {
          "internalType": "uint256",
          "name": "_creatorFee",
          "type": "uint256"
        },
        {
          "internalType": "uint256",
          "name": "_vaultFee",
          "type": "uint256"
        },
        {
          "internalType": "uint256",
          "name": "_devFee",
          "type": "uint256"
        }
      ],
      "name": "setFeeRates",
      "outputs": [],
      "stateMutability": "nonpayable",
      "type": "function"
    },
    {
      "inputs": [
        {
          "internalType": "address",
          "name": "_governance",
          "type": "address"
        }
      ],
      "name": "setGovernace",
      "outputs": [],
      "stateMutability": "nonpayable",
      "type": "function"
    },
    {
      "inputs": [
        {
          "internalType": "address",
          "name": "_ptm",
          "type": "address"
        }
      ],
      "name": "setPTM",
      "outputs": [],
      "stateMutability": "nonpayable",
      "type": "function"
    },
    {
      "inputs": [
        {
          "internalType": "uint256",
          "name": "_period",
          "type": "uint256"
        }
      ],
      "name": "setRewardLockPeriod",
      "outputs": [],
      "stateMutability": "nonpayable",
      "type": "function"
    },
    {
      "inputs": [
        {
          "internalType": "address",
          "name": "_systemPool",
          "type": "address"
        }
      ],
      "name": "setSystemPool",
      "outputs": [],
      "stateMutability": "nonpayable",
      "type": "function"
    },
    {
      "inputs": [
        {
          "internalType": "address",
          "name": "_vault",
          "type": "address"
        }
      ],
      "name": "setVault",
      "outputs": [],
      "stateMutability": "nonpayable",
      "type": "function"
    },
    {
      "inputs": [
        {
          "internalType": "uint256",
          "name": "_period",
          "type": "uint256"
        }
      ],
      "name": "setWithdrawPeriod",
      "outputs": [],
      "stateMutability": "nonpayable",
      "type": "function"
    },
    {
      "inputs": [],
      "name": "systemPool",
      "outputs": [
        {
          "internalType": "address",
          "name": "",
          "type": "address"
        }
      ],
      "stateMutability": "view",
      "type": "function"
    },
    {
      "inputs": [],
      "name": "transferToDev",
      "outputs": [],
      "stateMutability": "nonpayable",
      "type": "function"
    },
    {
      "inputs": [],
      "name": "unlockWithdraw",
      "outputs": [],
      "stateMutability": "nonpayable",
      "type": "function"
    },
    {
      "inputs": [],
      "name": "vault",
      "outputs": [
        {
          "internalType": "address",
          "name": "",
          "type": "address"
        }
      ],
      "stateMutability": "view",
      "type": "function"
    },
    {
      "inputs": [],
      "name": "vaultFee",
      "outputs": [
        {
          "internalType": "uint256",
          "name": "",
          "type": "uint256"
        }
      ],
      "stateMutability": "view",
      "type": "function"
    },
    {
      "inputs": [
        {
          "internalType": "uint256",
          "name": "_amount",
          "type": "uint256"
        }
      ],
      "name": "withdraw",
      "outputs": [],
      "stateMutability": "nonpayable",
      "type": "function"
    },
    {
      "inputs": [],
      "name": "withdrawAll",
      "outputs": [],
      "stateMutability": "nonpayable",
      "type": "function"
    },
    {
      "inputs": [],
      "name": "withdrawFromCreator",
      "outputs": [],
      "stateMutability": "nonpayable",
      "type": "function"
    },
    {
      "inputs": [],
      "name": "withdrawFromDev",
      "outputs": [],
      "stateMutability": "nonpayable",
      "type": "function"
    },
    {
      "inputs": [],
      "name": "withdrawFromVault",
      "outputs": [],
      "stateMutability": "nonpayable",
      "type": "function"
    },
    {
      "inputs": [],
      "name": "withdrawPeriod",
      "outputs": [
        {
          "internalType": "uint256",
          "name": "",
          "type": "uint256"
        }
      ],
      "stateMutability": "view",
      "type": "function"
    },
    {
      "inputs": [],
      "name": "withdrawStartTime",
      "outputs": [
        {
          "internalType": "uint256",
          "name": "",
          "type": "uint256"
        }
      ],
      "stateMutability": "view",
      "type": "function"
    }
  ],
  "bytecode": "0x608060405262278d0060075562278d00600855610bb8600b55611388600c556107d0600d553480156200003157600080fd5b50604051620022c5380380620022c58339810160408190526200005491620000c2565b600180546001600160a01b03199081163317909155600380546001600160a01b03938416908316811790915560028054831690911790556000805493909216921691909117905542600955620000f9565b80516001600160a01b0381168114620000bd57600080fd5b919050565b60008060408385031215620000d5578182fd5b620000e083620000a5565b9150620000f060208401620000a5565b90509250929050565b6121bc80620001096000396000f3fe608060405234801561001057600080fd5b50600436106102955760003560e01c8063851e3ca511610167578063bd6018bb116100ce578063e538b28011610087578063e538b280146104c7578063e88958dc146104da578063f77c4791146104e2578063f851a440146104ea578063fb75817d146104f2578063fbfa77cf1461050557610295565b8063bd6018bb14610481578063c3e0cd6214610494578063d73792a9146104a7578063d82faa48146104af578063dcb0f858146104b7578063de5f6268146104bf57610295565b8063a425632f11610120578063a425632f14610439578063ad36712e14610441578063b103929b14610449578063b31dbd341461045e578063b69ef8a814610466578063b6b55f251461046e57610295565b8063851e3ca5146103f3578063853828b6146104065780638d3561311461040e5780638ea5220f1461041657806392eefe9b1461041e5780639994673d1461043157610295565b8063417745e91161020b5780636817031b116101c45780636817031b1461037e5780636827e76414610391578063704b6c0214610399578063718fb612146103ac57806371f4029a146103bf5780637da5790b146103d257610295565b8063417745e91461034357806354e481221461034b5780635aa6e675146103535780635ccbdcc01461035b5780635cfdd4f514610363578063664a61f21461036b57610295565b806312eb4f9a1161025d57806312eb4f9a146102f05780631d2d7507146102f85780631f53ac02146103005780632e1a7d4d1461031357806331dac8701461032657806340acc8621461032e57610295565b806301ac145b1461029a578063079cff0a146102b8578063091dffca146102c05780630af01b0f146102ca57806310c9e0ca146102dd575b600080fd5b6102a261050d565b6040516102af91906120a4565b60405180910390f35b6102a2610513565b6102c8610519565b005b6102c86102d8366004611b66565b61060a565b6102c86102eb366004611baf565b610696565b6102a26106ef565b6102a26106f5565b6102c861030e366004611b4c565b6106fb565b6102c8610321366004611baf565b610771565b6102c86107f9565b61033661084f565b6040516102af9190611c26565b6102a261085e565b6102c8610864565b61033661098f565b6102a261099e565b6102a26109a4565b6102c8610379366004611b4c565b6109aa565b6102c861038c366004611b4c565b610a20565b6102a2610a96565b6102c86103a7366004611b4c565b610a9c565b6102a26103ba366004611b4c565b610b12565b6102c86103cd366004611b4c565b610b34565b6103e56103e0366004611b4c565b610baa565b6040516102af9291906120ad565b6102c8610401366004611b4c565b610bc3565b6102c8610c39565b6102c8610c46565b610336610d78565b6102c861042c366004611b4c565b610d87565b6102a2610dfd565b6102c8610e03565b610336610f2d565b610451610f3c565b6040516102af9190611c77565b6102c861100b565b6102a2611133565b6102c861047c366004611baf565b6111b9565b6102c861048f366004611b4c565b6111d1565b6102a26104a2366004611b4c565b611244565b6102a261125f565b6102a2611265565b6102c8611271565b6102c861132d565b6102c86104d5366004611bdf565b6113af565b6102a2611448565b61033661144e565b61033661145d565b6102c8610500366004611baf565b61146c565b6103366114c5565b600c5481565b600a5481565b426105316007546009546114d490919063ffffffff16565b106105575760405162461bcd60e51b815260040161054e90611d7d565b60405180910390fd5b4261056f600854600a546114d490919063ffffffff16565b1161058c5760405162461bcd60e51b815260040161054e90611eb1565b6004546001600160a01b031633146105b65760405162461bcd60e51b815260040161054e90611f29565b600f546105c1611133565b8111156105d3576105d0611133565b90505b6004546000546105f0916001600160a01b0391821691168361150c565b80600f60008282546106029190612112565b909155505050565b6003546001600160a01b031633148061062d57506002546001600160a01b031633145b8061064257506001546001600160a01b031633145b61065e5760405162461bcd60e51b815260040161054e90611f49565b610669601283611567565b61067a5761067860128361157c565b505b6001600160a01b03909116600090815260116020526040902055565b6002546001600160a01b03163314806106b957506003546001600160a01b031633145b806106ce57506001546001600160a01b031633145b6106ea5760405162461bcd60e51b815260040161054e90611f49565b600755565b60085481565b60095481565b6003546001600160a01b031633148061071e57506002546001600160a01b031633145b8061073357506001546001600160a01b031633145b61074f5760405162461bcd60e51b815260040161054e90611f49565b600580546001600160a01b0319166001600160a01b0392909216919091179055565b6002546001600160a01b031633148061079457506003546001600160a01b031633145b806107a957506001546001600160a01b031633145b6107c55760405162461bcd60e51b815260040161054e90611f49565b6107cd611133565b8111156107df576107dc611133565b90505b6000546107f6906001600160a01b0316338361150c565b50565b60005b6108066012611591565b8110156107f657600060118161081d60128561159c565b6001600160a01b031681526020810191909152604001600090812060010155508061084781612155565b9150506107fc565b6006546001600160a01b031681565b600e5481565b4261087c6007546009546114d490919063ffffffff16565b106108995760405162461bcd60e51b815260040161054e90611d7d565b426108b1600854600a546114d490919063ffffffff16565b116108ce5760405162461bcd60e51b815260040161054e90611eb1565b6108d9601232611567565b6108f55760405162461bcd60e51b815260040161054e90611dbf565b32600090815260116020526040902060010154806109255760405162461bcd60e51b815260040161054e90611de7565b61092d611133565b81111561093f5761093c611133565b90505b600054610956906001600160a01b0316328361150c565b80600e60008282546109689190612112565b90915550503260009081526011602052604081206001018054839290610602908490612112565b6002546001600160a01b031681565b60075481565b60105481565b6002546001600160a01b03163314806109cd57506003546001600160a01b031633145b806109e257506001546001600160a01b031633145b6109fe5760405162461bcd60e51b815260040161054e90611f49565b600080546001600160a01b0319166001600160a01b0392909216919091179055565b6003546001600160a01b0316331480610a4357506002546001600160a01b031633145b80610a5857506001546001600160a01b031633145b610a745760405162461bcd60e51b815260040161054e90611f49565b600480546001600160a01b0319166001600160a01b0392909216919091179055565b600d5481565b6002546001600160a01b0316331480610abf57506003546001600160a01b031633145b80610ad457506001546001600160a01b031633145b610af05760405162461bcd60e51b815260040161054e90611f49565b600380546001600160a01b0319166001600160a01b0392909216919091179055565b6001600160a01b0381166000908152601160205260409020600101545b919050565b6003546001600160a01b0316331480610b5757506002546001600160a01b031633145b80610b6c57506001546001600160a01b031633145b610b885760405162461bcd60e51b815260040161054e90611f49565b600680546001600160a01b0319166001600160a01b0392909216919091179055565b6011602052600090815260409020805460019091015482565b6002546001600160a01b0316331480610be657506003546001600160a01b031633145b80610bfb57506001546001600160a01b031633145b610c175760405162461bcd60e51b815260040161054e90611f49565b600280546001600160a01b0319166001600160a01b0392909216919091179055565b610c44610321611133565b565b42610c5e6007546009546114d490919063ffffffff16565b10610c7b5760405162461bcd60e51b815260040161054e90611d7d565b42610c93600854600a546114d490919063ffffffff16565b11610cb05760405162461bcd60e51b815260040161054e90611eb1565b6005546001600160a01b0316610cd85760405162461bcd60e51b815260040161054e90611e86565b6002546001600160a01b0316331480610cfb57506003546001600160a01b031633145b80610d1057506001546001600160a01b031633145b610d2c5760405162461bcd60e51b815260040161054e90611f49565b601054610d37611133565b811115610d4957610d46611133565b90505b600554600054610d66916001600160a01b0391821691168361150c565b80601060008282546106029190612112565b6005546001600160a01b031681565b6002546001600160a01b0316331480610daa57506003546001600160a01b031633145b80610dbf57506001546001600160a01b031633145b610ddb5760405162461bcd60e51b815260040161054e90611f49565b600180546001600160a01b0319166001600160a01b0392909216919091179055565b600f5481565b6002546001600160a01b0316331480610e2657506003546001600160a01b031633145b80610e3b57506001546001600160a01b031633145b610e575760405162461bcd60e51b815260040161054e90611f49565b6000600a5411610e795760405162461bcd60e51b815260040161054e90612032565b6000600e54600f54601054610e8e91906120bb565b610e9891906120bb565b9050610ea2611133565b811115610eb457610eb1611133565b90505b8015610f0a576006546001600160a01b031615610eed57600654600054610ee8916001600160a01b0391821691168361150c565b610f0a565b600354600054610f0a916001600160a01b0391821691168361150c565b610f126107f9565b50426009556000600a8190556010819055600f819055600e55565b6000546001600160a01b031681565b60606000610f4a6012611591565b67ffffffffffffffff811115610f7057634e487b7160e01b600052604160045260246000fd5b604051908082528060200260200182016040528015610f99578160200160208202803683370190505b50905060005b610fa96012611591565b81101561100557610fbb60128261159c565b828281518110610fdb57634e487b7160e01b600052603260045260246000fd5b6001600160a01b039092166020928302919091019091015280610ffd81612155565b915050610f9f565b50905090565b6002546001600160a01b031633148061102e57506003546001600160a01b031633145b8061104357506001546001600160a01b031633145b61105f5760405162461bcd60e51b815260040161054e90611f49565b426110776007546009546114d490919063ffffffff16565b106110945760405162461bcd60e51b815260040161054e90611d39565b426110ac600854600a546114d490919063ffffffff16565b106110c95760405162461bcd60e51b815260040161054e90611fc4565b42600a819055506110f06127106110ea600d546110e4611133565b906115a8565b906115ed565b60108190555061110a6127106110ea600b546110e4611133565b600e819055506111246127106110ea600c546110e4611133565b600f55600e54610c449061162f565b600080546040516370a0823160e01b81526001600160a01b03909116906370a0823190611164903090600401611c26565b60206040518083038186803b15801561117c57600080fd5b505afa158015611190573d6000803e3d6000fd5b505050506040513d601f19601f820116820180604052508101906111b49190611bc7565b905090565b6000546107f6906001600160a01b03163330846116df565b6003546001600160a01b03163314806111f457506002546001600160a01b031633145b8061120957506001546001600160a01b031633145b6112255760405162461bcd60e51b815260040161054e90611f49565b611230601282611567565b156107f657611240601282611706565b5050565b6001600160a01b031660009081526011602052604090205490565b61271081565b60006111b46012611591565b426112896007546009546114d490919063ffffffff16565b106112a65760405162461bcd60e51b815260040161054e90611d7d565b426112be600854600a546114d490919063ffffffff16565b116112db5760405162461bcd60e51b815260040161054e90611eb1565b6005546001600160a01b03166113035760405162461bcd60e51b815260040161054e90611e86565b6005546001600160a01b03163314610d2c5760405162461bcd60e51b815260040161054e90611fa1565b6000546040516370a0823160e01b8152610c44916001600160a01b0316906370a082319061135f903390600401611c26565b60206040518083038186803b15801561137757600080fd5b505afa15801561138b573d6000803e3d6000fd5b505050506040513d601f19601f8201168201806040525081019061047c9190611bc7565b6002546001600160a01b03163314806113d257506003546001600160a01b031633145b806113e757506001546001600160a01b031633145b6114035760405162461bcd60e51b815260040161054e90611f49565b61271061141a8261141486866114d4565b906114d4565b146114375760405162461bcd60e51b815260040161054e90611f77565b600b92909255600d91909155600c55565b600b5481565b6001546001600160a01b031681565b6003546001600160a01b031681565b6002546001600160a01b031633148061148f57506003546001600160a01b031633145b806114a457506001546001600160a01b031633145b6114c05760405162461bcd60e51b815260040161054e90611f49565b600855565b6004546001600160a01b031681565b6000806114e183856120bb565b9050838110156115035760405162461bcd60e51b815260040161054e90611e09565b90505b92915050565b6115628363a9059cbb60e01b848460405160240161152b929190611c5e565b60408051601f198184030181529190526020810180516001600160e01b03166001600160e01b03199093169290921790915261171b565b505050565b6000611503836001600160a01b0384166117aa565b6000611503836001600160a01b0384166117c2565b60006115068261180c565b60006115038383611810565b6000826115b757506000611506565b60006115c383856120f3565b9050826115d085836120d3565b146115035760405162461bcd60e51b815260040161054e90611ee8565b600061150383836040518060400160405280601a81526020017f536166654d6174683a206469766973696f6e206279207a65726f000000000000815250611869565b60006116396118a2565b90508061164657506107f6565b60005b6116536012611591565b81101561156257600060118161166a60128561159c565b6001600160a01b031681526020810191909152604001600020805490915061169257506116cd565b60006116af846110ea8460000154886115a890919063ffffffff16565b9050808260010160008282546116c591906120bb565b909155505050505b806116d781612155565b915050611649565b611700846323b872dd60e01b85858560405160240161152b93929190611c3a565b50505050565b6000611503836001600160a01b038416611902565b6000611770826040518060400160405280602081526020017f5361666545524332303a206c6f772d6c6576656c2063616c6c206661696c6564815250856001600160a01b0316611a1f9092919063ffffffff16565b805190915015611562578080602001905181019061178e9190611b8f565b6115625760405162461bcd60e51b815260040161054e9061205a565b60009081526001919091016020526040902054151590565b60006117ce83836117aa565b61180457508154600181810184556000848152602080822090930184905584548482528286019093526040902091909155611506565b506000611506565b5490565b815460009082106118335760405162461bcd60e51b815260040161054e90611cf7565b82600001828154811061185657634e487b7160e01b600052603260045260246000fd5b9060005260206000200154905092915050565b6000818361188a5760405162461bcd60e51b815260040161054e9190611cc4565b50600061189784866120d3565b9150505b9392505050565b6000805b6118b06012611591565b8110156118fe576118ea601160006118c960128561159c565b6001600160a01b0316815260208101919091526040016000205483906114d4565b9150806118f681612155565b9150506118a6565b5090565b60008181526001830160205260408120548015611a15576000611926600183612112565b855490915060009061193a90600190612112565b9050600086600001828154811061196157634e487b7160e01b600052603260045260246000fd5b906000526020600020015490508087600001848154811061199257634e487b7160e01b600052603260045260246000fd5b6000918252602090912001556119a98360016120bb565b600082815260018901602052604090205586548790806119d957634e487b7160e01b600052603160045260246000fd5b60019003818190600052602060002001600090559055866001016000878152602001908152602001600020600090556001945050505050611506565b6000915050611506565b6060611a2e8484600085611a36565b949350505050565b606082471015611a585760405162461bcd60e51b815260040161054e90611e40565b611a6185611af6565b611a7d5760405162461bcd60e51b815260040161054e90611ffb565b600080866001600160a01b03168587604051611a999190611c0a565b60006040518083038185875af1925050503d8060008114611ad6576040519150601f19603f3d011682016040523d82523d6000602084013e611adb565b606091505b5091509150611aeb828286611afc565b979650505050505050565b3b151590565b60608315611b0b57508161189b565b825115611b1b5782518084602001fd5b8160405162461bcd60e51b815260040161054e9190611cc4565b80356001600160a01b0381168114610b2f57600080fd5b600060208284031215611b5d578081fd5b61150382611b35565b60008060408385031215611b78578081fd5b611b8183611b35565b946020939093013593505050565b600060208284031215611ba0578081fd5b81518015158114611503578182fd5b600060208284031215611bc0578081fd5b5035919050565b600060208284031215611bd8578081fd5b5051919050565b600080600060608486031215611bf3578081fd5b505081359360208301359350604090920135919050565b60008251611c1c818460208701612129565b9190910192915050565b6001600160a01b0391909116815260200190565b6001600160a01b039384168152919092166020820152604081019190915260600190565b6001600160a01b03929092168252602082015260400190565b6020808252825182820181905260009190848201906040850190845b81811015611cb85783516001600160a01b031683529284019291840191600101611c93565b50909695505050505050565b6000602082528251806020840152611ce3816040850160208701612129565b601f01601f19169190910160400192915050565b60208082526022908201527f456e756d657261626c655365743a20696e646578206f7574206f6620626f756e604082015261647360f01b606082015260800190565b60208082526024908201527f21617661696c61626c6520746f20756e6c6f636b20746f207769746864617277604082015263081e595d60e21b606082015260800190565b60208082526022908201527f21617661696c61626c6520746f20776974686461727720726577617264732079604082015261195d60f21b606082015260800190565b6020808252600e908201526d10b2bc34b9ba1031b932b0ba37b960911b604082015260600190565b6020808252600890820152672162616c616e636560c01b604082015260600190565b6020808252601b908201527f536166654d6174683a206164646974696f6e206f766572666c6f770000000000604082015260600190565b60208082526026908201527f416464726573733a20696e73756666696369656e742062616c616e636520666f6040820152651c8818d85b1b60d21b606082015260800190565b602080825260119082015270085d985b1a590819195d881dd85b1b195d607a1b604082015260600190565b60208082526017908201527f6578706972656420776974686472617720706572696f64000000000000000000604082015260600190565b60208082526021908201527f536166654d6174683a206d756c7469706c69636174696f6e206f766572666c6f6040820152607760f81b606082015260800190565b602080825260069082015265085d985d5b1d60d21b604082015260600190565b60208082526014908201527310b0b236b4b71037b91031b7b73a3937b63632b960611b604082015260600190565b60208082526010908201526f2176616c69642066656520726174657360801b604082015260600190565b60208082526009908201526821646576207465616d60b81b604082015260600190565b6020808252601a908201527f616c726561647920696e20776974686472617720706572696f64000000000000604082015260600190565b6020808252601d908201527f416464726573733a2063616c6c20746f206e6f6e2d636f6e7472616374000000604082015260600190565b6020808252600e908201526d185b1c9958591e481b1bd8dad95960921b604082015260600190565b6020808252602a908201527f5361666545524332303a204552433230206f7065726174696f6e20646964206e6040820152691bdd081cdd58d8d9595960b21b606082015260800190565b90815260200190565b918252602082015260400190565b600082198211156120ce576120ce612170565b500190565b6000826120ee57634e487b7160e01b81526012600452602481fd5b500490565b600081600019048311821515161561210d5761210d612170565b500290565b60008282101561212457612124612170565b500390565b60005b8381101561214457818101518382015260200161212c565b838111156117005750506000910152565b600060001982141561216957612169612170565b5060010190565b634e487b7160e01b600052601160045260246000fdfea26469706673582212206054593edef8690cae03f382f750855e397fc8c4d431b507d911faa2bc673b5164736f6c63430008010033",
  "linkReferences": {},
  "deployedLinkReferences": {}
}