{
  "_format": "hh-sol-artifact-1",
  "contractName": "RewardPool",
  "sourceName": "contracts/Controller.sol",
  "abi": [
    {
      "inputs": [
        {
          "internalType": "address",
          "name": "_ptm",
          "type": "address"
        },
        {
          "internalType": "address",
          "name": "_admin",
          "type": "address"
        }
      ],
      "stateMutability": "nonpayable",
      "type": "constructor"
    },
    {
      "inputs": [],
      "name": "FEE_DENOMINATOR",
      "outputs": [
        {
          "internalType": "uint256",
          "name": "",
          "type": "uint256"
        }
      ],
      "stateMutability": "view",
      "type": "function"
    },
    {
      "inputs": [
        {
          "internalType": "address",
          "name": "_creator",
          "type": "address"
        },
        {
          "internalType": "uint256",
          "name": "_power",
          "type": "uint256"
        }
      ],
      "name": "addOrUpdateCreator",
      "outputs": [],
      "stateMutability": "nonpayable",
      "type": "function"
    },
    {
      "inputs": [],
      "name": "admin",
      "outputs": [
        {
          "internalType": "address",
          "name": "",
          "type": "address"
        }
      ],
      "stateMutability": "view",
      "type": "function"
    },
    {
      "inputs": [],
      "name": "balance",
      "outputs": [
        {
          "internalType": "uint256",
          "name": "",
          "type": "uint256"
        }
      ],
      "stateMutability": "view",
      "type": "function"
    },
    {
      "inputs": [],
      "name": "balanceOfCreator",
      "outputs": [
        {
          "internalType": "uint256",
          "name": "",
          "type": "uint256"
        }
      ],
      "stateMutability": "view",
      "type": "function"
    },
    {
      "inputs": [],
      "name": "balanceOfDev",
      "outputs": [
        {
          "internalType": "uint256",
          "name": "",
          "type": "uint256"
        }
      ],
      "stateMutability": "view",
      "type": "function"
    },
    {
      "inputs": [],
      "name": "balanceOfVault",
      "outputs": [
        {
          "internalType": "uint256",
          "name": "",
          "type": "uint256"
        }
      ],
      "stateMutability": "view",
      "type": "function"
    },
    {
      "inputs": [],
      "name": "controller",
      "outputs": [
        {
          "internalType": "address",
          "name": "",
          "type": "address"
        }
      ],
      "stateMutability": "view",
      "type": "function"
    },
    {
      "inputs": [],
      "name": "creatorCount",
      "outputs": [
        {
          "internalType": "uint256",
          "name": "",
          "type": "uint256"
        }
      ],
      "stateMutability": "view",
      "type": "function"
    },
    {
      "inputs": [],
      "name": "creatorFee",
      "outputs": [
        {
          "internalType": "uint256",
          "name": "",
          "type": "uint256"
        }
      ],
      "stateMutability": "view",
      "type": "function"
    },
    {
      "inputs": [
        {
          "internalType": "address",
          "name": "",
          "type": "address"
        }
      ],
      "name": "creatorInfos",
      "outputs": [
        {
          "internalType": "uint256",
          "name": "power",
          "type": "uint256"
        },
        {
          "internalType": "uint256",
          "name": "balance",
          "type": "uint256"
        }
      ],
      "stateMutability": "view",
      "type": "function"
    },
    {
      "inputs": [],
      "name": "creatorList",
      "outputs": [
        {
          "internalType": "address[]",
          "name": "",
          "type": "address[]"
        }
      ],
      "stateMutability": "view",
      "type": "function"
    },
    {
      "inputs": [
        {
          "internalType": "uint256",
          "name": "_amount",
          "type": "uint256"
        }
      ],
      "name": "deposit",
      "outputs": [],
      "stateMutability": "nonpayable",
      "type": "function"
    },
    {
      "inputs": [],
      "name": "depositAll",
      "outputs": [],
      "stateMutability": "nonpayable",
      "type": "function"
    },
    {
      "inputs": [],
      "name": "devFee",
      "outputs": [
        {
          "internalType": "uint256",
          "name": "",
          "type": "uint256"
        }
      ],
      "stateMutability": "view",
      "type": "function"
    },
    {
      "inputs": [],
      "name": "devWallet",
      "outputs": [
        {
          "internalType": "address",
          "name": "",
          "type": "address"
        }
      ],
      "stateMutability": "view",
      "type": "function"
    },
    {
      "inputs": [],
      "name": "governance",
      "outputs": [
        {
          "internalType": "address",
          "name": "",
          "type": "address"
        }
      ],
      "stateMutability": "view",
      "type": "function"
    },
    {
      "inputs": [],
      "name": "lastRewardedTime",
      "outputs": [
        {
          "internalType": "uint256",
          "name": "",
          "type": "uint256"
        }
      ],
      "stateMutability": "view",
      "type": "function"
    },
    {
      "inputs": [],
      "name": "lockWithdraw",
      "outputs": [],
      "stateMutability": "nonpayable",
      "type": "function"
    },
    {
      "inputs": [
        {
          "internalType": "address",
          "name": "_creator",
          "type": "address"
        }
      ],
      "name": "powerOfCreator",
      "outputs": [
        {
          "internalType": "uint256",
          "name": "",
          "type": "uint256"
        }
      ],
      "stateMutability": "view",
      "type": "function"
    },
    {
      "inputs": [],
      "name": "ptm",
      "outputs": [
        {
          "internalType": "contract IERC20",
          "name": "",
          "type": "address"
        }
      ],
      "stateMutability": "view",
      "type": "function"
    },
    {
      "inputs": [
        {
          "internalType": "address",
          "name": "_creator",
          "type": "address"
        }
      ],
      "name": "removeCreator",
      "outputs": [],
      "stateMutability": "nonpayable",
      "type": "function"
    },
    {
      "inputs": [],
      "name": "rewardLockPeriod",
      "outputs": [
        {
          "internalType": "uint256",
          "name": "",
          "type": "uint256"
        }
      ],
      "stateMutability": "view",
      "type": "function"
    },
    {
      "inputs": [
        {
          "internalType": "address",
          "name": "_creator",
          "type": "address"
        }
      ],
      "name": "rewardOfCreator",
      "outputs": [
        {
          "internalType": "uint256",
          "name": "",
          "type": "uint256"
        }
      ],
      "stateMutability": "view",
      "type": "function"
    },
    {
      "inputs": [
        {
          "internalType": "address",
          "name": "_admin",
          "type": "address"
        }
      ],
      "name": "setAdmin",
      "outputs": [],
      "stateMutability": "nonpayable",
      "type": "function"
    },
    {
      "inputs": [
        {
          "internalType": "address",
          "name": "_controller",
          "type": "address"
        }
      ],
      "name": "setController",
      "outputs": [],
      "stateMutability": "nonpayable",
      "type": "function"
    },
    {
      "inputs": [
        {
          "internalType": "address",
          "name": "_wallet",
          "type": "address"
        }
      ],
      "name": "setDevWallet",
      "outputs": [],
      "stateMutability": "nonpayable",
      "type": "function"
    },
    {
      "inputs": [
        {
          "internalType": "uint256",
          "name": "_creatorFee",
          "type": "uint256"
        },
        {
          "internalType": "uint256",
          "name": "_vaultFee",
          "type": "uint256"
        },
        {
          "internalType": "uint256",
          "name": "_devFee",
          "type": "uint256"
        }
      ],
      "name": "setFeeRates",
      "outputs": [],
      "stateMutability": "nonpayable",
      "type": "function"
    },
    {
      "inputs": [
        {
          "internalType": "address",
          "name": "_governance",
          "type": "address"
        }
      ],
      "name": "setGovernace",
      "outputs": [],
      "stateMutability": "nonpayable",
      "type": "function"
    },
    {
      "inputs": [
        {
          "internalType": "address",
          "name": "_ptm",
          "type": "address"
        }
      ],
      "name": "setPTM",
      "outputs": [],
      "stateMutability": "nonpayable",
      "type": "function"
    },
    {
      "inputs": [
        {
          "internalType": "uint256",
          "name": "_period",
          "type": "uint256"
        }
      ],
      "name": "setRewardLockPeriod",
      "outputs": [],
      "stateMutability": "nonpayable",
      "type": "function"
    },
    {
      "inputs": [
        {
          "internalType": "address",
          "name": "_vault",
          "type": "address"
        }
      ],
      "name": "setVault",
      "outputs": [],
      "stateMutability": "nonpayable",
      "type": "function"
    },
    {
      "inputs": [
        {
          "internalType": "uint256",
          "name": "_period",
          "type": "uint256"
        }
      ],
      "name": "setWithdrawPeriod",
      "outputs": [],
      "stateMutability": "nonpayable",
      "type": "function"
    },
    {
      "inputs": [],
      "name": "transferToDev",
      "outputs": [],
      "stateMutability": "nonpayable",
      "type": "function"
    },
    {
      "inputs": [],
      "name": "unlockWithdraw",
      "outputs": [],
      "stateMutability": "nonpayable",
      "type": "function"
    },
    {
      "inputs": [],
      "name": "vault",
      "outputs": [
        {
          "internalType": "address",
          "name": "",
          "type": "address"
        }
      ],
      "stateMutability": "view",
      "type": "function"
    },
    {
      "inputs": [],
      "name": "vaultFee",
      "outputs": [
        {
          "internalType": "uint256",
          "name": "",
          "type": "uint256"
        }
      ],
      "stateMutability": "view",
      "type": "function"
    },
    {
      "inputs": [
        {
          "internalType": "uint256",
          "name": "_amount",
          "type": "uint256"
        }
      ],
      "name": "withdraw",
      "outputs": [],
      "stateMutability": "nonpayable",
      "type": "function"
    },
    {
      "inputs": [],
      "name": "withdrawAll",
      "outputs": [],
      "stateMutability": "nonpayable",
      "type": "function"
    },
    {
      "inputs": [],
      "name": "withdrawFromCreator",
      "outputs": [],
      "stateMutability": "nonpayable",
      "type": "function"
    },
    {
      "inputs": [],
      "name": "withdrawFromDev",
      "outputs": [],
      "stateMutability": "nonpayable",
      "type": "function"
    },
    {
      "inputs": [],
      "name": "withdrawFromVault",
      "outputs": [],
      "stateMutability": "nonpayable",
      "type": "function"
    },
    {
      "inputs": [],
      "name": "withdrawPeriod",
      "outputs": [
        {
          "internalType": "uint256",
          "name": "",
          "type": "uint256"
        }
      ],
      "stateMutability": "view",
      "type": "function"
    },
    {
      "inputs": [],
      "name": "withdrawStartTime",
      "outputs": [
        {
          "internalType": "uint256",
          "name": "",
          "type": "uint256"
        }
      ],
      "stateMutability": "view",
      "type": "function"
    }
  ],
  "bytecode": "0x608060405262278d0060065562278d00600755610bb8600a55611388600b556107d0600c553480156200003157600080fd5b50604051620020eb380380620020eb8339810160408190526200005491620000c2565b600180546001600160a01b03199081163317909155600380546001600160a01b03938416908316811790915560028054831690911790556000805493909216921691909117905542600855620000f9565b80516001600160a01b0381168114620000bd57600080fd5b919050565b60008060408385031215620000d5578182fd5b620000e083620000a5565b9150620000f060208401620000a5565b90509250929050565b611fe280620001096000396000f3fe608060405234801561001057600080fd5b50600436106102745760003560e01c80638d35613111610151578063c3e0cd62116100c3578063e538b28011610087578063e538b28014610483578063e88958dc14610496578063f77c47911461049e578063f851a440146104a6578063fb75817d146104ae578063fbfa77cf146104c157610274565b8063c3e0cd6214610450578063d73792a914610463578063d82faa481461046b578063dcb0f85814610473578063de5f62681461047b57610274565b8063ad36712e11610115578063ad36712e146103fd578063b103929b14610405578063b31dbd341461041a578063b69ef8a814610422578063b6b55f251461042a578063bd6018bb1461043d57610274565b80638d356131146103ca5780638ea5220f146103d257806392eefe9b146103da5780639994673d146103ed578063a425632f146103f557610274565b80635aa6e675116101ea5780636827e764116101ae5780636827e76414610360578063704b6c0214610368578063718fb6121461037b5780637da5790b1461038e578063851e3ca5146103af578063853828b6146103c257610274565b80635aa6e675146103155780635ccbdcc01461032a5780635cfdd4f514610332578063664a61f21461033a5780636817031b1461034d57610274565b806312eb4f9a1161023c57806312eb4f9a146102cf5780631d2d7507146102d75780631f53ac02146102df5780632e1a7d4d146102f2578063417745e91461030557806354e481221461030d57610274565b806301ac145b14610279578063079cff0a14610297578063091dffca1461029f5780630af01b0f146102a957806310c9e0ca146102bc575b600080fd5b6102816104c9565b60405161028e9190611eca565b60405180910390f35b6102816104cf565b6102a76104d5565b005b6102a76102b73660046119b4565b6105c6565b6102a76102ca3660046119fd565b610652565b6102816106ab565b6102816106b1565b6102a76102ed36600461199a565b6106b7565b6102a76103003660046119fd565b61072d565b6102816107b5565b6102a76107bb565b61031d6108e6565b60405161028e9190611a74565b6102816108f5565b6102816108fb565b6102a761034836600461199a565b610901565b6102a761035b36600461199a565b610977565b6102816109ed565b6102a761037636600461199a565b6109f3565b61028161038936600461199a565b610a69565b6103a161039c36600461199a565b610a8b565b60405161028e929190611ed3565b6102a76103bd36600461199a565b610aa4565b6102a7610b1a565b6102a7610b27565b61031d610c59565b6102a76103e836600461199a565b610c68565b610281610cde565b6102a7610ce4565b61031d610d86565b61040d610d95565b60405161028e9190611ac5565b6102a7610e64565b610281610f8c565b6102a76104383660046119fd565b611012565b6102a761044b36600461199a565b61102a565b61028161045e36600461199a565b61109d565b6102816110b8565b6102816110be565b6102a76110ca565b6102a7611186565b6102a7610491366004611a2d565b611208565b6102816112a1565b61031d6112a7565b61031d6112b6565b6102a76104bc3660046119fd565b6112c5565b61031d61131e565b600b5481565b60095481565b426104ed60065460085461132d90919063ffffffff16565b106105135760405162461bcd60e51b815260040161050a90611bcb565b60405180910390fd5b4261052b60075460095461132d90919063ffffffff16565b116105485760405162461bcd60e51b815260040161050a90611cff565b6004546001600160a01b031633146105725760405162461bcd60e51b815260040161050a90611d77565b600e5461057d610f8c565b81111561058f5761058c610f8c565b90505b6004546000546105ac916001600160a01b03918216911683611365565b80600e60008282546105be9190611f38565b909155505050565b6003546001600160a01b03163314806105e957506002546001600160a01b031633145b806105fe57506001546001600160a01b031633145b61061a5760405162461bcd60e51b815260040161050a90611d97565b6106256011836113c0565b610636576106346011836113d5565b505b6001600160a01b03909116600090815260106020526040902055565b6002546001600160a01b031633148061067557506003546001600160a01b031633145b8061068a57506001546001600160a01b031633145b6106a65760405162461bcd60e51b815260040161050a90611d97565b600655565b60075481565b60085481565b6003546001600160a01b03163314806106da57506002546001600160a01b031633145b806106ef57506001546001600160a01b031633145b61070b5760405162461bcd60e51b815260040161050a90611d97565b600580546001600160a01b0319166001600160a01b0392909216919091179055565b6002546001600160a01b031633148061075057506003546001600160a01b031633145b8061076557506001546001600160a01b031633145b6107815760405162461bcd60e51b815260040161050a90611d97565b610789610f8c565b81111561079b57610798610f8c565b90505b6000546107b2906001600160a01b03163383611365565b50565b600d5481565b426107d360065460085461132d90919063ffffffff16565b106107f05760405162461bcd60e51b815260040161050a90611bcb565b4261080860075460095461132d90919063ffffffff16565b116108255760405162461bcd60e51b815260040161050a90611cff565b6108306011326113c0565b61084c5760405162461bcd60e51b815260040161050a90611c0d565b326000908152601060205260409020600101548061087c5760405162461bcd60e51b815260040161050a90611c35565b610884610f8c565b81111561089657610893610f8c565b90505b6000546108ad906001600160a01b03163283611365565b80600d60008282546108bf9190611f38565b909155505032600090815260106020526040812060010180548392906105be908490611f38565b6002546001600160a01b031681565b60065481565b600f5481565b6002546001600160a01b031633148061092457506003546001600160a01b031633145b8061093957506001546001600160a01b031633145b6109555760405162461bcd60e51b815260040161050a90611d97565b600080546001600160a01b0319166001600160a01b0392909216919091179055565b6003546001600160a01b031633148061099a57506002546001600160a01b031633145b806109af57506001546001600160a01b031633145b6109cb5760405162461bcd60e51b815260040161050a90611d97565b600480546001600160a01b0319166001600160a01b0392909216919091179055565b600c5481565b6002546001600160a01b0316331480610a1657506003546001600160a01b031633145b80610a2b57506001546001600160a01b031633145b610a475760405162461bcd60e51b815260040161050a90611d97565b600380546001600160a01b0319166001600160a01b0392909216919091179055565b6001600160a01b0381166000908152601060205260409020600101545b919050565b6010602052600090815260409020805460019091015482565b6002546001600160a01b0316331480610ac757506003546001600160a01b031633145b80610adc57506001546001600160a01b031633145b610af85760405162461bcd60e51b815260040161050a90611d97565b600280546001600160a01b0319166001600160a01b0392909216919091179055565b610b25610300610f8c565b565b42610b3f60065460085461132d90919063ffffffff16565b10610b5c5760405162461bcd60e51b815260040161050a90611bcb565b42610b7460075460095461132d90919063ffffffff16565b11610b915760405162461bcd60e51b815260040161050a90611cff565b6005546001600160a01b0316610bb95760405162461bcd60e51b815260040161050a90611cd4565b6002546001600160a01b0316331480610bdc57506003546001600160a01b031633145b80610bf157506001546001600160a01b031633145b610c0d5760405162461bcd60e51b815260040161050a90611d97565b600f54610c18610f8c565b811115610c2a57610c27610f8c565b90505b600554600054610c47916001600160a01b03918216911683611365565b80600f60008282546105be9190611f38565b6005546001600160a01b031681565b6002546001600160a01b0316331480610c8b57506003546001600160a01b031633145b80610ca057506001546001600160a01b031633145b610cbc5760405162461bcd60e51b815260040161050a90611d97565b600180546001600160a01b0319166001600160a01b0392909216919091179055565b600e5481565b6002546001600160a01b0316331480610d0757506003546001600160a01b031633145b80610d1c57506001546001600160a01b031633145b610d385760405162461bcd60e51b815260040161050a90611d97565b426008556000600f819055600e819055600d819055610d55610f8c565b1115610b2557600354610b25906001600160a01b0316610d73610f8c565b6000546001600160a01b03169190611365565b6000546001600160a01b031681565b60606000610da360116113ea565b67ffffffffffffffff811115610dc957634e487b7160e01b600052604160045260246000fd5b604051908082528060200260200182016040528015610df2578160200160208202803683370190505b50905060005b610e0260116113ea565b811015610e5e57610e146011826113f5565b828281518110610e3457634e487b7160e01b600052603260045260246000fd5b6001600160a01b039092166020928302919091019091015280610e5681611f7b565b915050610df8565b50905090565b6002546001600160a01b0316331480610e8757506003546001600160a01b031633145b80610e9c57506001546001600160a01b031633145b610eb85760405162461bcd60e51b815260040161050a90611d97565b42610ed060065460085461132d90919063ffffffff16565b10610eed5760405162461bcd60e51b815260040161050a90611b87565b42610f0560075460095461132d90919063ffffffff16565b10610f225760405162461bcd60e51b815260040161050a90611e12565b42600981905550610f49612710610f43600c54610f3d610f8c565b90611401565b90611446565b600f81905550610f63612710610f43600a54610f3d610f8c565b600d81905550610f7d612710610f43600b54610f3d610f8c565b600e55600d54610b2590611488565b600080546040516370a0823160e01b81526001600160a01b03909116906370a0823190610fbd903090600401611a74565b60206040518083038186803b158015610fd557600080fd5b505afa158015610fe9573d6000803e3d6000fd5b505050506040513d601f19601f8201168201806040525081019061100d9190611a15565b905090565b6000546107b2906001600160a01b031633308461152d565b6003546001600160a01b031633148061104d57506002546001600160a01b031633145b8061106257506001546001600160a01b031633145b61107e5760405162461bcd60e51b815260040161050a90611d97565b6110896011826113c0565b156107b257611099601182611554565b5050565b6001600160a01b031660009081526010602052604090205490565b61271081565b600061100d60116113ea565b426110e260065460085461132d90919063ffffffff16565b106110ff5760405162461bcd60e51b815260040161050a90611bcb565b4261111760075460095461132d90919063ffffffff16565b116111345760405162461bcd60e51b815260040161050a90611cff565b6005546001600160a01b031661115c5760405162461bcd60e51b815260040161050a90611cd4565b6005546001600160a01b03163314610c0d5760405162461bcd60e51b815260040161050a90611def565b6000546040516370a0823160e01b8152610b25916001600160a01b0316906370a08231906111b8903390600401611a74565b60206040518083038186803b1580156111d057600080fd5b505afa1580156111e4573d6000803e3d6000fd5b505050506040513d601f19601f820116820180604052508101906104389190611a15565b6002546001600160a01b031633148061122b57506003546001600160a01b031633145b8061124057506001546001600160a01b031633145b61125c5760405162461bcd60e51b815260040161050a90611d97565b6127106112738261126d868661132d565b9061132d565b146112905760405162461bcd60e51b815260040161050a90611dc5565b600a92909255600c91909155600b55565b600a5481565b6001546001600160a01b031681565b6003546001600160a01b031681565b6002546001600160a01b03163314806112e857506003546001600160a01b031633145b806112fd57506001546001600160a01b031633145b6113195760405162461bcd60e51b815260040161050a90611d97565b600755565b6004546001600160a01b031681565b60008061133a8385611ee1565b90508381101561135c5760405162461bcd60e51b815260040161050a90611c57565b90505b92915050565b6113bb8363a9059cbb60e01b8484604051602401611384929190611aac565b60408051601f198184030181529190526020810180516001600160e01b03166001600160e01b031990931692909217909152611569565b505050565b600061135c836001600160a01b0384166115f8565b600061135c836001600160a01b038416611610565b600061135f8261165a565b600061135c838361165e565b6000826114105750600061135f565b600061141c8385611f19565b9050826114298583611ef9565b1461135c5760405162461bcd60e51b815260040161050a90611d36565b600061135c83836040518060400160405280601a81526020017f536166654d6174683a206469766973696f6e206279207a65726f0000000000008152506116b7565b60006114926116f0565b905060005b6114a160116113ea565b8110156113bb5760006010816114b86011856113f5565b6001600160a01b03168152602081019190915260400160002080549091506114e0575061151b565b60006114fd84610f4384600001548861140190919063ffffffff16565b9050808260010160008282546115139190611ee1565b909155505050505b8061152581611f7b565b915050611497565b61154e846323b872dd60e01b85858560405160240161138493929190611a88565b50505050565b600061135c836001600160a01b038416611750565b60006115be826040518060400160405280602081526020017f5361666545524332303a206c6f772d6c6576656c2063616c6c206661696c6564815250856001600160a01b031661186d9092919063ffffffff16565b8051909150156113bb57808060200190518101906115dc91906119dd565b6113bb5760405162461bcd60e51b815260040161050a90611e80565b60009081526001919091016020526040902054151590565b600061161c83836115f8565b6116525750815460018181018455600084815260208082209093018490558454848252828601909352604090209190915561135f565b50600061135f565b5490565b815460009082106116815760405162461bcd60e51b815260040161050a90611b45565b8260000182815481106116a457634e487b7160e01b600052603260045260246000fd5b9060005260206000200154905092915050565b600081836116d85760405162461bcd60e51b815260040161050a9190611b12565b5060006116e58486611ef9565b9150505b9392505050565b6000805b6116fe60116113ea565b81101561174c57611738601060006117176011856113f5565b6001600160a01b03168152602081019190915260400160002054839061132d565b91508061174481611f7b565b9150506116f4565b5090565b60008181526001830160205260408120548015611863576000611774600183611f38565b855490915060009061178890600190611f38565b905060008660000182815481106117af57634e487b7160e01b600052603260045260246000fd5b90600052602060002001549050808760000184815481106117e057634e487b7160e01b600052603260045260246000fd5b6000918252602090912001556117f7836001611ee1565b6000828152600189016020526040902055865487908061182757634e487b7160e01b600052603160045260246000fd5b6001900381819060005260206000200160009055905586600101600087815260200190815260200160002060009055600194505050505061135f565b600091505061135f565b606061187c8484600085611884565b949350505050565b6060824710156118a65760405162461bcd60e51b815260040161050a90611c8e565b6118af85611944565b6118cb5760405162461bcd60e51b815260040161050a90611e49565b600080866001600160a01b031685876040516118e79190611a58565b60006040518083038185875af1925050503d8060008114611924576040519150601f19603f3d011682016040523d82523d6000602084013e611929565b606091505b509150915061193982828661194a565b979650505050505050565b3b151590565b606083156119595750816116e9565b8251156119695782518084602001fd5b8160405162461bcd60e51b815260040161050a9190611b12565b80356001600160a01b0381168114610a8657600080fd5b6000602082840312156119ab578081fd5b61135c82611983565b600080604083850312156119c6578081fd5b6119cf83611983565b946020939093013593505050565b6000602082840312156119ee578081fd5b8151801515811461135c578182fd5b600060208284031215611a0e578081fd5b5035919050565b600060208284031215611a26578081fd5b5051919050565b600080600060608486031215611a41578081fd5b505081359360208301359350604090920135919050565b60008251611a6a818460208701611f4f565b9190910192915050565b6001600160a01b0391909116815260200190565b6001600160a01b039384168152919092166020820152604081019190915260600190565b6001600160a01b03929092168252602082015260400190565b6020808252825182820181905260009190848201906040850190845b81811015611b065783516001600160a01b031683529284019291840191600101611ae1565b50909695505050505050565b6000602082528251806020840152611b31816040850160208701611f4f565b601f01601f19169190910160400192915050565b60208082526022908201527f456e756d657261626c655365743a20696e646578206f7574206f6620626f756e604082015261647360f01b606082015260800190565b60208082526024908201527f21617661696c61626c6520746f20756e6c6f636b20746f207769746864617277604082015263081e595d60e21b606082015260800190565b60208082526022908201527f21617661696c61626c6520746f20776974686461727720726577617264732079604082015261195d60f21b606082015260800190565b6020808252600e908201526d10b2bc34b9ba1031b932b0ba37b960911b604082015260600190565b6020808252600890820152672162616c616e636560c01b604082015260600190565b6020808252601b908201527f536166654d6174683a206164646974696f6e206f766572666c6f770000000000604082015260600190565b60208082526026908201527f416464726573733a20696e73756666696369656e742062616c616e636520666f6040820152651c8818d85b1b60d21b606082015260800190565b602080825260119082015270085d985b1a590819195d881dd85b1b195d607a1b604082015260600190565b60208082526017908201527f6578706972656420776974686472617720706572696f64000000000000000000604082015260600190565b60208082526021908201527f536166654d6174683a206d756c7469706c69636174696f6e206f766572666c6f6040820152607760f81b606082015260800190565b602080825260069082015265085d985d5b1d60d21b604082015260600190565b60208082526014908201527310b0b236b4b71037b91031b7b73a3937b63632b960611b604082015260600190565b60208082526010908201526f2176616c69642066656520726174657360801b604082015260600190565b60208082526009908201526821646576207465616d60b81b604082015260600190565b6020808252601a908201527f616c726561647920696e20776974686472617720706572696f64000000000000604082015260600190565b6020808252601d908201527f416464726573733a2063616c6c20746f206e6f6e2d636f6e7472616374000000604082015260600190565b6020808252602a908201527f5361666545524332303a204552433230206f7065726174696f6e20646964206e6040820152691bdd081cdd58d8d9595960b21b606082015260800190565b90815260200190565b918252602082015260400190565b60008219821115611ef457611ef4611f96565b500190565b600082611f1457634e487b7160e01b81526012600452602481fd5b500490565b6000816000190483118215151615611f3357611f33611f96565b500290565b600082821015611f4a57611f4a611f96565b500390565b60005b83811015611f6a578181015183820152602001611f52565b8381111561154e5750506000910152565b6000600019821415611f8f57611f8f611f96565b5060010190565b634e487b7160e01b600052601160045260246000fdfea2646970667358221220f6383b223ccec4ab9781df5ea6e62ae67345fb78da681074e28ed5a97b23c6a264736f6c63430008010033",
  "linkReferences": {},
  "deployedLinkReferences": {}
}