{
  "_format": "hh-sol-artifact-1",
  "contractName": "RewardPool",
  "sourceName": "contracts/Controller.sol",
  "abi": [
    {
      "inputs": [
        {
          "internalType": "address",
          "name": "_ptm",
          "type": "address"
        },
        {
          "internalType": "address",
          "name": "_admin",
          "type": "address"
        }
      ],
      "stateMutability": "nonpayable",
      "type": "constructor"
    },
    {
      "inputs": [],
      "name": "FEE_DENOMINATOR",
      "outputs": [
        {
          "internalType": "uint256",
          "name": "",
          "type": "uint256"
        }
      ],
      "stateMutability": "view",
      "type": "function"
    },
    {
      "inputs": [
        {
          "internalType": "address",
          "name": "_creator",
          "type": "address"
        },
        {
          "internalType": "uint256",
          "name": "_power",
          "type": "uint256"
        }
      ],
      "name": "addOrUpdateCreator",
      "outputs": [],
      "stateMutability": "nonpayable",
      "type": "function"
    },
    {
      "inputs": [],
      "name": "admin",
      "outputs": [
        {
          "internalType": "address",
          "name": "",
          "type": "address"
        }
      ],
      "stateMutability": "view",
      "type": "function"
    },
    {
      "inputs": [],
      "name": "balance",
      "outputs": [
        {
          "internalType": "uint256",
          "name": "",
          "type": "uint256"
        }
      ],
      "stateMutability": "view",
      "type": "function"
    },
    {
      "inputs": [],
      "name": "balanceOfCreator",
      "outputs": [
        {
          "internalType": "uint256",
          "name": "",
          "type": "uint256"
        }
      ],
      "stateMutability": "view",
      "type": "function"
    },
    {
      "inputs": [],
      "name": "balanceOfDev",
      "outputs": [
        {
          "internalType": "uint256",
          "name": "",
          "type": "uint256"
        }
      ],
      "stateMutability": "view",
      "type": "function"
    },
    {
      "inputs": [],
      "name": "balanceOfVault",
      "outputs": [
        {
          "internalType": "uint256",
          "name": "",
          "type": "uint256"
        }
      ],
      "stateMutability": "view",
      "type": "function"
    },
    {
      "inputs": [],
      "name": "controller",
      "outputs": [
        {
          "internalType": "address",
          "name": "",
          "type": "address"
        }
      ],
      "stateMutability": "view",
      "type": "function"
    },
    {
      "inputs": [],
      "name": "creatorCount",
      "outputs": [
        {
          "internalType": "uint256",
          "name": "",
          "type": "uint256"
        }
      ],
      "stateMutability": "view",
      "type": "function"
    },
    {
      "inputs": [],
      "name": "creatorFee",
      "outputs": [
        {
          "internalType": "uint256",
          "name": "",
          "type": "uint256"
        }
      ],
      "stateMutability": "view",
      "type": "function"
    },
    {
      "inputs": [
        {
          "internalType": "address",
          "name": "",
          "type": "address"
        }
      ],
      "name": "creatorInfos",
      "outputs": [
        {
          "internalType": "uint256",
          "name": "power",
          "type": "uint256"
        },
        {
          "internalType": "uint256",
          "name": "balance",
          "type": "uint256"
        }
      ],
      "stateMutability": "view",
      "type": "function"
    },
    {
      "inputs": [],
      "name": "creatorList",
      "outputs": [
        {
          "internalType": "address[]",
          "name": "",
          "type": "address[]"
        }
      ],
      "stateMutability": "view",
      "type": "function"
    },
    {
      "inputs": [
        {
          "internalType": "uint256",
          "name": "_amount",
          "type": "uint256"
        }
      ],
      "name": "deposit",
      "outputs": [],
      "stateMutability": "nonpayable",
      "type": "function"
    },
    {
      "inputs": [],
      "name": "depositAll",
      "outputs": [],
      "stateMutability": "nonpayable",
      "type": "function"
    },
    {
      "inputs": [],
      "name": "devFee",
      "outputs": [
        {
          "internalType": "uint256",
          "name": "",
          "type": "uint256"
        }
      ],
      "stateMutability": "view",
      "type": "function"
    },
    {
      "inputs": [],
      "name": "devWallet",
      "outputs": [
        {
          "internalType": "address",
          "name": "",
          "type": "address"
        }
      ],
      "stateMutability": "view",
      "type": "function"
    },
    {
      "inputs": [],
      "name": "governance",
      "outputs": [
        {
          "internalType": "address",
          "name": "",
          "type": "address"
        }
      ],
      "stateMutability": "view",
      "type": "function"
    },
    {
      "inputs": [],
      "name": "lastRewardedTime",
      "outputs": [
        {
          "internalType": "uint256",
          "name": "",
          "type": "uint256"
        }
      ],
      "stateMutability": "view",
      "type": "function"
    },
    {
      "inputs": [],
      "name": "lockWithdraw",
      "outputs": [],
      "stateMutability": "nonpayable",
      "type": "function"
    },
    {
      "inputs": [
        {
          "internalType": "address",
          "name": "_creator",
          "type": "address"
        }
      ],
      "name": "powerOfCreator",
      "outputs": [
        {
          "internalType": "uint256",
          "name": "",
          "type": "uint256"
        }
      ],
      "stateMutability": "view",
      "type": "function"
    },
    {
      "inputs": [],
      "name": "ptm",
      "outputs": [
        {
          "internalType": "contract IERC20",
          "name": "",
          "type": "address"
        }
      ],
      "stateMutability": "view",
      "type": "function"
    },
    {
      "inputs": [
        {
          "internalType": "address",
          "name": "_creator",
          "type": "address"
        }
      ],
      "name": "removeCreator",
      "outputs": [],
      "stateMutability": "nonpayable",
      "type": "function"
    },
    {
      "inputs": [],
      "name": "resetCreatorsReward",
      "outputs": [],
      "stateMutability": "nonpayable",
      "type": "function"
    },
    {
      "inputs": [],
      "name": "rewardLockPeriod",
      "outputs": [
        {
          "internalType": "uint256",
          "name": "",
          "type": "uint256"
        }
      ],
      "stateMutability": "view",
      "type": "function"
    },
    {
      "inputs": [
        {
          "internalType": "address",
          "name": "_creator",
          "type": "address"
        }
      ],
      "name": "rewardOfCreator",
      "outputs": [
        {
          "internalType": "uint256",
          "name": "",
          "type": "uint256"
        }
      ],
      "stateMutability": "view",
      "type": "function"
    },
    {
      "inputs": [
        {
          "internalType": "address",
          "name": "_admin",
          "type": "address"
        }
      ],
      "name": "setAdmin",
      "outputs": [],
      "stateMutability": "nonpayable",
      "type": "function"
    },
    {
      "inputs": [
        {
          "internalType": "address",
          "name": "_controller",
          "type": "address"
        }
      ],
      "name": "setController",
      "outputs": [],
      "stateMutability": "nonpayable",
      "type": "function"
    },
    {
      "inputs": [
        {
          "internalType": "address",
          "name": "_wallet",
          "type": "address"
        }
      ],
      "name": "setDevWallet",
      "outputs": [],
      "stateMutability": "nonpayable",
      "type": "function"
    },
    {
      "inputs": [
        {
          "internalType": "uint256",
          "name": "_creatorFee",
          "type": "uint256"
        },
        {
          "internalType": "uint256",
          "name": "_vaultFee",
          "type": "uint256"
        },
        {
          "internalType": "uint256",
          "name": "_devFee",
          "type": "uint256"
        }
      ],
      "name": "setFeeRates",
      "outputs": [],
      "stateMutability": "nonpayable",
      "type": "function"
    },
    {
      "inputs": [
        {
          "internalType": "address",
          "name": "_governance",
          "type": "address"
        }
      ],
      "name": "setGovernace",
      "outputs": [],
      "stateMutability": "nonpayable",
      "type": "function"
    },
    {
      "inputs": [
        {
          "internalType": "address",
          "name": "_ptm",
          "type": "address"
        }
      ],
      "name": "setPTM",
      "outputs": [],
      "stateMutability": "nonpayable",
      "type": "function"
    },
    {
      "inputs": [
        {
          "internalType": "uint256",
          "name": "_period",
          "type": "uint256"
        }
      ],
      "name": "setRewardLockPeriod",
      "outputs": [],
      "stateMutability": "nonpayable",
      "type": "function"
    },
    {
      "inputs": [
        {
          "internalType": "address",
          "name": "_systemPool",
          "type": "address"
        }
      ],
      "name": "setSystemPool",
      "outputs": [],
      "stateMutability": "nonpayable",
      "type": "function"
    },
    {
      "inputs": [
        {
          "internalType": "address",
          "name": "_vault",
          "type": "address"
        }
      ],
      "name": "setVault",
      "outputs": [],
      "stateMutability": "nonpayable",
      "type": "function"
    },
    {
      "inputs": [
        {
          "internalType": "uint256",
          "name": "_period",
          "type": "uint256"
        }
      ],
      "name": "setWithdrawPeriod",
      "outputs": [],
      "stateMutability": "nonpayable",
      "type": "function"
    },
    {
      "inputs": [],
      "name": "systemPool",
      "outputs": [
        {
          "internalType": "address",
          "name": "",
          "type": "address"
        }
      ],
      "stateMutability": "view",
      "type": "function"
    },
    {
      "inputs": [],
      "name": "transferToDev",
      "outputs": [],
      "stateMutability": "nonpayable",
      "type": "function"
    },
    {
      "inputs": [],
      "name": "unlockWithdraw",
      "outputs": [],
      "stateMutability": "nonpayable",
      "type": "function"
    },
    {
      "inputs": [],
      "name": "vault",
      "outputs": [
        {
          "internalType": "address",
          "name": "",
          "type": "address"
        }
      ],
      "stateMutability": "view",
      "type": "function"
    },
    {
      "inputs": [],
      "name": "vaultFee",
      "outputs": [
        {
          "internalType": "uint256",
          "name": "",
          "type": "uint256"
        }
      ],
      "stateMutability": "view",
      "type": "function"
    },
    {
      "inputs": [
        {
          "internalType": "uint256",
          "name": "_amount",
          "type": "uint256"
        }
      ],
      "name": "withdraw",
      "outputs": [],
      "stateMutability": "nonpayable",
      "type": "function"
    },
    {
      "inputs": [],
      "name": "withdrawAll",
      "outputs": [],
      "stateMutability": "nonpayable",
      "type": "function"
    },
    {
      "inputs": [],
      "name": "withdrawFromCreator",
      "outputs": [],
      "stateMutability": "nonpayable",
      "type": "function"
    },
    {
      "inputs": [],
      "name": "withdrawFromDev",
      "outputs": [],
      "stateMutability": "nonpayable",
      "type": "function"
    },
    {
      "inputs": [],
      "name": "withdrawFromVault",
      "outputs": [],
      "stateMutability": "nonpayable",
      "type": "function"
    },
    {
      "inputs": [],
      "name": "withdrawPeriod",
      "outputs": [
        {
          "internalType": "uint256",
          "name": "",
          "type": "uint256"
        }
      ],
      "stateMutability": "view",
      "type": "function"
    },
    {
      "inputs": [],
      "name": "withdrawStartTime",
      "outputs": [
        {
          "internalType": "uint256",
          "name": "",
          "type": "uint256"
        }
      ],
      "stateMutability": "view",
      "type": "function"
    }
  ],
  "bytecode": "0x608060405262278d0060075562278d00600855610bb8600b55611388600c556107d0600d553480156200003157600080fd5b5060405162002270380380620022708339810160408190526200005491620000c2565b600180546001600160a01b03199081163317909155600380546001600160a01b03938416908316811790915560028054831690911790556000805493909216921691909117905542600955620000f9565b80516001600160a01b0381168114620000bd57600080fd5b919050565b60008060408385031215620000d5578182fd5b620000e083620000a5565b9150620000f060208401620000a5565b90509250929050565b61216780620001096000396000f3fe608060405234801561001057600080fd5b50600436106102955760003560e01c8063851e3ca511610167578063bd6018bb116100ce578063e538b28011610087578063e538b280146104c7578063e88958dc146104da578063f77c4791146104e2578063f851a440146104ea578063fb75817d146104f2578063fbfa77cf1461050557610295565b8063bd6018bb14610481578063c3e0cd6214610494578063d73792a9146104a7578063d82faa48146104af578063dcb0f858146104b7578063de5f6268146104bf57610295565b8063a425632f11610120578063a425632f14610439578063ad36712e14610441578063b103929b14610449578063b31dbd341461045e578063b69ef8a814610466578063b6b55f251461046e57610295565b8063851e3ca5146103f3578063853828b6146104065780638d3561311461040e5780638ea5220f1461041657806392eefe9b1461041e5780639994673d1461043157610295565b8063417745e91161020b5780636817031b116101c45780636817031b1461037e5780636827e76414610391578063704b6c0214610399578063718fb612146103ac57806371f4029a146103bf5780637da5790b146103d257610295565b8063417745e91461034357806354e481221461034b5780635aa6e675146103535780635ccbdcc01461035b5780635cfdd4f514610363578063664a61f21461036b57610295565b806312eb4f9a1161025d57806312eb4f9a146102f05780631d2d7507146102f85780631f53ac02146103005780632e1a7d4d1461031357806331dac8701461032657806340acc8621461032e57610295565b806301ac145b1461029a578063079cff0a146102b8578063091dffca146102c05780630af01b0f146102ca57806310c9e0ca146102dd575b600080fd5b6102a261050d565b6040516102af919061204f565b60405180910390f35b6102a2610513565b6102c8610519565b005b6102c86102d8366004611b39565b61060a565b6102c86102eb366004611b82565b610696565b6102a26106ef565b6102a26106f5565b6102c861030e366004611b1f565b6106fb565b6102c8610321366004611b82565b610771565b6102c86107f9565b61033661084f565b6040516102af9190611bf9565b6102a261085e565b6102c8610864565b61033661098f565b6102a261099e565b6102a26109a4565b6102c8610379366004611b1f565b6109aa565b6102c861038c366004611b1f565b610a20565b6102a2610a96565b6102c86103a7366004611b1f565b610a9c565b6102a26103ba366004611b1f565b610b12565b6102c86103cd366004611b1f565b610b34565b6103e56103e0366004611b1f565b610baa565b6040516102af929190612058565b6102c8610401366004611b1f565b610bc3565b6102c8610c39565b6102c8610c46565b610336610d78565b6102c861042c366004611b1f565b610d87565b6102a2610dfd565b6102c8610e03565b610336610f0b565b610451610f1a565b6040516102af9190611c4a565b6102c8610fe9565b6102a2611111565b6102c861047c366004611b82565b611197565b6102c861048f366004611b1f565b6111af565b6102a26104a2366004611b1f565b611222565b6102a261123d565b6102a2611243565b6102c861124f565b6102c861130b565b6102c86104d5366004611bb2565b61138d565b6102a2611426565b61033661142c565b61033661143b565b6102c8610500366004611b82565b61144a565b6103366114a3565b600c5481565b600a5481565b426105316007546009546114b290919063ffffffff16565b106105575760405162461bcd60e51b815260040161054e90611d50565b60405180910390fd5b4261056f600854600a546114b290919063ffffffff16565b1161058c5760405162461bcd60e51b815260040161054e90611e84565b6004546001600160a01b031633146105b65760405162461bcd60e51b815260040161054e90611efc565b600f546105c1611111565b8111156105d3576105d0611111565b90505b6004546000546105f0916001600160a01b039182169116836114ea565b80600f600082825461060291906120bd565b909155505050565b6003546001600160a01b031633148061062d57506002546001600160a01b031633145b8061064257506001546001600160a01b031633145b61065e5760405162461bcd60e51b815260040161054e90611f1c565b610669601283611545565b61067a5761067860128361155a565b505b6001600160a01b03909116600090815260116020526040902055565b6002546001600160a01b03163314806106b957506003546001600160a01b031633145b806106ce57506001546001600160a01b031633145b6106ea5760405162461bcd60e51b815260040161054e90611f1c565b600755565b60085481565b60095481565b6003546001600160a01b031633148061071e57506002546001600160a01b031633145b8061073357506001546001600160a01b031633145b61074f5760405162461bcd60e51b815260040161054e90611f1c565b600580546001600160a01b0319166001600160a01b0392909216919091179055565b6002546001600160a01b031633148061079457506003546001600160a01b031633145b806107a957506001546001600160a01b031633145b6107c55760405162461bcd60e51b815260040161054e90611f1c565b6107cd611111565b8111156107df576107dc611111565b90505b6000546107f6906001600160a01b031633836114ea565b50565b60005b610806601261156f565b8110156107f657600060118161081d60128561157a565b6001600160a01b031681526020810191909152604001600090812060010155508061084781612100565b9150506107fc565b6006546001600160a01b031681565b600e5481565b4261087c6007546009546114b290919063ffffffff16565b106108995760405162461bcd60e51b815260040161054e90611d50565b426108b1600854600a546114b290919063ffffffff16565b116108ce5760405162461bcd60e51b815260040161054e90611e84565b6108d9601232611545565b6108f55760405162461bcd60e51b815260040161054e90611d92565b32600090815260116020526040902060010154806109255760405162461bcd60e51b815260040161054e90611dba565b61092d611111565b81111561093f5761093c611111565b90505b600054610956906001600160a01b031632836114ea565b80600e600082825461096891906120bd565b909155505032600090815260116020526040812060010180548392906106029084906120bd565b6002546001600160a01b031681565b60075481565b60105481565b6002546001600160a01b03163314806109cd57506003546001600160a01b031633145b806109e257506001546001600160a01b031633145b6109fe5760405162461bcd60e51b815260040161054e90611f1c565b600080546001600160a01b0319166001600160a01b0392909216919091179055565b6003546001600160a01b0316331480610a4357506002546001600160a01b031633145b80610a5857506001546001600160a01b031633145b610a745760405162461bcd60e51b815260040161054e90611f1c565b600480546001600160a01b0319166001600160a01b0392909216919091179055565b600d5481565b6002546001600160a01b0316331480610abf57506003546001600160a01b031633145b80610ad457506001546001600160a01b031633145b610af05760405162461bcd60e51b815260040161054e90611f1c565b600380546001600160a01b0319166001600160a01b0392909216919091179055565b6001600160a01b0381166000908152601160205260409020600101545b919050565b6003546001600160a01b0316331480610b5757506002546001600160a01b031633145b80610b6c57506001546001600160a01b031633145b610b885760405162461bcd60e51b815260040161054e90611f1c565b600680546001600160a01b0319166001600160a01b0392909216919091179055565b6011602052600090815260409020805460019091015482565b6002546001600160a01b0316331480610be657506003546001600160a01b031633145b80610bfb57506001546001600160a01b031633145b610c175760405162461bcd60e51b815260040161054e90611f1c565b600280546001600160a01b0319166001600160a01b0392909216919091179055565b610c44610321611111565b565b42610c5e6007546009546114b290919063ffffffff16565b10610c7b5760405162461bcd60e51b815260040161054e90611d50565b42610c93600854600a546114b290919063ffffffff16565b11610cb05760405162461bcd60e51b815260040161054e90611e84565b6005546001600160a01b0316610cd85760405162461bcd60e51b815260040161054e90611e59565b6002546001600160a01b0316331480610cfb57506003546001600160a01b031633145b80610d1057506001546001600160a01b031633145b610d2c5760405162461bcd60e51b815260040161054e90611f1c565b601054610d37611111565b811115610d4957610d46611111565b90505b600554600054610d66916001600160a01b039182169116836114ea565b806010600082825461060291906120bd565b6005546001600160a01b031681565b6002546001600160a01b0316331480610daa57506003546001600160a01b031633145b80610dbf57506001546001600160a01b031633145b610ddb5760405162461bcd60e51b815260040161054e90611f1c565b600180546001600160a01b0319166001600160a01b0392909216919091179055565b600f5481565b6002546001600160a01b0316331480610e2657506003546001600160a01b031633145b80610e3b57506001546001600160a01b031633145b610e575760405162461bcd60e51b815260040161054e90611f1c565b6000600e54600f54601054610e6c9190612066565b610e769190612066565b9050610e80611111565b811115610e9257610e8f611111565b90505b8015610ee8576006546001600160a01b031615610ecb57600654600054610ec6916001600160a01b039182169116836114ea565b610ee8565b600354600054610ee8916001600160a01b039182169116836114ea565b610ef06107f9565b50426009556000600a8190556010819055600f819055600e55565b6000546001600160a01b031681565b60606000610f28601261156f565b67ffffffffffffffff811115610f4e57634e487b7160e01b600052604160045260246000fd5b604051908082528060200260200182016040528015610f77578160200160208202803683370190505b50905060005b610f87601261156f565b811015610fe357610f9960128261157a565b828281518110610fb957634e487b7160e01b600052603260045260246000fd5b6001600160a01b039092166020928302919091019091015280610fdb81612100565b915050610f7d565b50905090565b6002546001600160a01b031633148061100c57506003546001600160a01b031633145b8061102157506001546001600160a01b031633145b61103d5760405162461bcd60e51b815260040161054e90611f1c565b426110556007546009546114b290919063ffffffff16565b106110725760405162461bcd60e51b815260040161054e90611d0c565b4261108a600854600a546114b290919063ffffffff16565b106110a75760405162461bcd60e51b815260040161054e90611f97565b42600a819055506110ce6127106110c8600d546110c2611111565b90611586565b906115cb565b6010819055506110e86127106110c8600b546110c2611111565b600e819055506111026127106110c8600c546110c2611111565b600f55600e54610c449061160d565b600080546040516370a0823160e01b81526001600160a01b03909116906370a0823190611142903090600401611bf9565b60206040518083038186803b15801561115a57600080fd5b505afa15801561116e573d6000803e3d6000fd5b505050506040513d601f19601f820116820180604052508101906111929190611b9a565b905090565b6000546107f6906001600160a01b03163330846116b2565b6003546001600160a01b03163314806111d257506002546001600160a01b031633145b806111e757506001546001600160a01b031633145b6112035760405162461bcd60e51b815260040161054e90611f1c565b61120e601282611545565b156107f65761121e6012826116d9565b5050565b6001600160a01b031660009081526011602052604090205490565b61271081565b6000611192601261156f565b426112676007546009546114b290919063ffffffff16565b106112845760405162461bcd60e51b815260040161054e90611d50565b4261129c600854600a546114b290919063ffffffff16565b116112b95760405162461bcd60e51b815260040161054e90611e84565b6005546001600160a01b03166112e15760405162461bcd60e51b815260040161054e90611e59565b6005546001600160a01b03163314610d2c5760405162461bcd60e51b815260040161054e90611f74565b6000546040516370a0823160e01b8152610c44916001600160a01b0316906370a082319061133d903390600401611bf9565b60206040518083038186803b15801561135557600080fd5b505afa158015611369573d6000803e3d6000fd5b505050506040513d601f19601f8201168201806040525081019061047c9190611b9a565b6002546001600160a01b03163314806113b057506003546001600160a01b031633145b806113c557506001546001600160a01b031633145b6113e15760405162461bcd60e51b815260040161054e90611f1c565b6127106113f8826113f286866114b2565b906114b2565b146114155760405162461bcd60e51b815260040161054e90611f4a565b600b92909255600d91909155600c55565b600b5481565b6001546001600160a01b031681565b6003546001600160a01b031681565b6002546001600160a01b031633148061146d57506003546001600160a01b031633145b8061148257506001546001600160a01b031633145b61149e5760405162461bcd60e51b815260040161054e90611f1c565b600855565b6004546001600160a01b031681565b6000806114bf8385612066565b9050838110156114e15760405162461bcd60e51b815260040161054e90611ddc565b90505b92915050565b6115408363a9059cbb60e01b8484604051602401611509929190611c31565b60408051601f198184030181529190526020810180516001600160e01b03166001600160e01b0319909316929092179091526116ee565b505050565b60006114e1836001600160a01b03841661177d565b60006114e1836001600160a01b038416611795565b60006114e4826117df565b60006114e183836117e3565b600082611595575060006114e4565b60006115a1838561209e565b9050826115ae858361207e565b146114e15760405162461bcd60e51b815260040161054e90611ebb565b60006114e183836040518060400160405280601a81526020017f536166654d6174683a206469766973696f6e206279207a65726f00000000000081525061183c565b6000611617611875565b905060005b611626601261156f565b81101561154057600060118161163d60128561157a565b6001600160a01b031681526020810191909152604001600020805490915061166557506116a0565b6000611682846110c884600001548861158690919063ffffffff16565b9050808260010160008282546116989190612066565b909155505050505b806116aa81612100565b91505061161c565b6116d3846323b872dd60e01b85858560405160240161150993929190611c0d565b50505050565b60006114e1836001600160a01b0384166118d5565b6000611743826040518060400160405280602081526020017f5361666545524332303a206c6f772d6c6576656c2063616c6c206661696c6564815250856001600160a01b03166119f29092919063ffffffff16565b80519091501561154057808060200190518101906117619190611b62565b6115405760405162461bcd60e51b815260040161054e90612005565b60009081526001919091016020526040902054151590565b60006117a1838361177d565b6117d7575081546001818101845560008481526020808220909301849055845484825282860190935260409020919091556114e4565b5060006114e4565b5490565b815460009082106118065760405162461bcd60e51b815260040161054e90611cca565b82600001828154811061182957634e487b7160e01b600052603260045260246000fd5b9060005260206000200154905092915050565b6000818361185d5760405162461bcd60e51b815260040161054e9190611c97565b50600061186a848661207e565b9150505b9392505050565b6000805b611883601261156f565b8110156118d1576118bd6011600061189c60128561157a565b6001600160a01b0316815260208101919091526040016000205483906114b2565b9150806118c981612100565b915050611879565b5090565b600081815260018301602052604081205480156119e85760006118f96001836120bd565b855490915060009061190d906001906120bd565b9050600086600001828154811061193457634e487b7160e01b600052603260045260246000fd5b906000526020600020015490508087600001848154811061196557634e487b7160e01b600052603260045260246000fd5b60009182526020909120015561197c836001612066565b600082815260018901602052604090205586548790806119ac57634e487b7160e01b600052603160045260246000fd5b600190038181906000526020600020016000905590558660010160008781526020019081526020016000206000905560019450505050506114e4565b60009150506114e4565b6060611a018484600085611a09565b949350505050565b606082471015611a2b5760405162461bcd60e51b815260040161054e90611e13565b611a3485611ac9565b611a505760405162461bcd60e51b815260040161054e90611fce565b600080866001600160a01b03168587604051611a6c9190611bdd565b60006040518083038185875af1925050503d8060008114611aa9576040519150601f19603f3d011682016040523d82523d6000602084013e611aae565b606091505b5091509150611abe828286611acf565b979650505050505050565b3b151590565b60608315611ade57508161186e565b825115611aee5782518084602001fd5b8160405162461bcd60e51b815260040161054e9190611c97565b80356001600160a01b0381168114610b2f57600080fd5b600060208284031215611b30578081fd5b6114e182611b08565b60008060408385031215611b4b578081fd5b611b5483611b08565b946020939093013593505050565b600060208284031215611b73578081fd5b815180151581146114e1578182fd5b600060208284031215611b93578081fd5b5035919050565b600060208284031215611bab578081fd5b5051919050565b600080600060608486031215611bc6578081fd5b505081359360208301359350604090920135919050565b60008251611bef8184602087016120d4565b9190910192915050565b6001600160a01b0391909116815260200190565b6001600160a01b039384168152919092166020820152604081019190915260600190565b6001600160a01b03929092168252602082015260400190565b6020808252825182820181905260009190848201906040850190845b81811015611c8b5783516001600160a01b031683529284019291840191600101611c66565b50909695505050505050565b6000602082528251806020840152611cb68160408501602087016120d4565b601f01601f19169190910160400192915050565b60208082526022908201527f456e756d657261626c655365743a20696e646578206f7574206f6620626f756e604082015261647360f01b606082015260800190565b60208082526024908201527f21617661696c61626c6520746f20756e6c6f636b20746f207769746864617277604082015263081e595d60e21b606082015260800190565b60208082526022908201527f21617661696c61626c6520746f20776974686461727720726577617264732079604082015261195d60f21b606082015260800190565b6020808252600e908201526d10b2bc34b9ba1031b932b0ba37b960911b604082015260600190565b6020808252600890820152672162616c616e636560c01b604082015260600190565b6020808252601b908201527f536166654d6174683a206164646974696f6e206f766572666c6f770000000000604082015260600190565b60208082526026908201527f416464726573733a20696e73756666696369656e742062616c616e636520666f6040820152651c8818d85b1b60d21b606082015260800190565b602080825260119082015270085d985b1a590819195d881dd85b1b195d607a1b604082015260600190565b60208082526017908201527f6578706972656420776974686472617720706572696f64000000000000000000604082015260600190565b60208082526021908201527f536166654d6174683a206d756c7469706c69636174696f6e206f766572666c6f6040820152607760f81b606082015260800190565b602080825260069082015265085d985d5b1d60d21b604082015260600190565b60208082526014908201527310b0b236b4b71037b91031b7b73a3937b63632b960611b604082015260600190565b60208082526010908201526f2176616c69642066656520726174657360801b604082015260600190565b60208082526009908201526821646576207465616d60b81b604082015260600190565b6020808252601a908201527f616c726561647920696e20776974686472617720706572696f64000000000000604082015260600190565b6020808252601d908201527f416464726573733a2063616c6c20746f206e6f6e2d636f6e7472616374000000604082015260600190565b6020808252602a908201527f5361666545524332303a204552433230206f7065726174696f6e20646964206e6040820152691bdd081cdd58d8d9595960b21b606082015260800190565b90815260200190565b918252602082015260400190565b600082198211156120795761207961211b565b500190565b60008261209957634e487b7160e01b81526012600452602481fd5b500490565b60008160001904831182151516156120b8576120b861211b565b500290565b6000828210156120cf576120cf61211b565b500390565b60005b838110156120ef5781810151838201526020016120d7565b838111156116d35750506000910152565b60006000198214156121145761211461211b565b5060010190565b634e487b7160e01b600052601160045260246000fdfea264697066735822122089783578d25f795fb0fb2d6fdd0c16684339f3db9b0d22c2da531eabc077b54464736f6c63430008010033",
  "linkReferences": {},
  "deployedLinkReferences": {}
}