{
  "_format": "hh-sol-artifact-1",
  "contractName": "RewardPool",
  "sourceName": "contracts/Controller.sol",
  "abi": [
    {
      "inputs": [
        {
          "internalType": "address",
          "name": "_ptm",
          "type": "address"
        },
        {
          "internalType": "address",
          "name": "_admin",
          "type": "address"
        }
      ],
      "stateMutability": "nonpayable",
      "type": "constructor"
    },
    {
      "inputs": [],
      "name": "FEE_DENOMINATOR",
      "outputs": [
        {
          "internalType": "uint256",
          "name": "",
          "type": "uint256"
        }
      ],
      "stateMutability": "view",
      "type": "function"
    },
    {
      "inputs": [
        {
          "internalType": "address",
          "name": "_creator",
          "type": "address"
        },
        {
          "internalType": "uint256",
          "name": "_power",
          "type": "uint256"
        }
      ],
      "name": "addOrUpdateCreator",
      "outputs": [],
      "stateMutability": "nonpayable",
      "type": "function"
    },
    {
      "inputs": [],
      "name": "admin",
      "outputs": [
        {
          "internalType": "address",
          "name": "",
          "type": "address"
        }
      ],
      "stateMutability": "view",
      "type": "function"
    },
    {
      "inputs": [],
      "name": "balance",
      "outputs": [
        {
          "internalType": "uint256",
          "name": "",
          "type": "uint256"
        }
      ],
      "stateMutability": "view",
      "type": "function"
    },
    {
      "inputs": [],
      "name": "balanceOfCreator",
      "outputs": [
        {
          "internalType": "uint256",
          "name": "",
          "type": "uint256"
        }
      ],
      "stateMutability": "view",
      "type": "function"
    },
    {
      "inputs": [],
      "name": "balanceOfDev",
      "outputs": [
        {
          "internalType": "uint256",
          "name": "",
          "type": "uint256"
        }
      ],
      "stateMutability": "view",
      "type": "function"
    },
    {
      "inputs": [],
      "name": "balanceOfVault",
      "outputs": [
        {
          "internalType": "uint256",
          "name": "",
          "type": "uint256"
        }
      ],
      "stateMutability": "view",
      "type": "function"
    },
    {
      "inputs": [],
      "name": "controller",
      "outputs": [
        {
          "internalType": "address",
          "name": "",
          "type": "address"
        }
      ],
      "stateMutability": "view",
      "type": "function"
    },
    {
      "inputs": [],
      "name": "creatorCount",
      "outputs": [
        {
          "internalType": "uint256",
          "name": "",
          "type": "uint256"
        }
      ],
      "stateMutability": "view",
      "type": "function"
    },
    {
      "inputs": [],
      "name": "creatorFee",
      "outputs": [
        {
          "internalType": "uint256",
          "name": "",
          "type": "uint256"
        }
      ],
      "stateMutability": "view",
      "type": "function"
    },
    {
      "inputs": [
        {
          "internalType": "address",
          "name": "",
          "type": "address"
        }
      ],
      "name": "creatorInfos",
      "outputs": [
        {
          "internalType": "uint256",
          "name": "power",
          "type": "uint256"
        },
        {
          "internalType": "uint256",
          "name": "balance",
          "type": "uint256"
        }
      ],
      "stateMutability": "view",
      "type": "function"
    },
    {
      "inputs": [],
      "name": "creatorList",
      "outputs": [
        {
          "internalType": "address[]",
          "name": "",
          "type": "address[]"
        }
      ],
      "stateMutability": "view",
      "type": "function"
    },
    {
      "inputs": [
        {
          "internalType": "uint256",
          "name": "_amount",
          "type": "uint256"
        }
      ],
      "name": "deposit",
      "outputs": [],
      "stateMutability": "nonpayable",
      "type": "function"
    },
    {
      "inputs": [],
      "name": "depositAll",
      "outputs": [],
      "stateMutability": "nonpayable",
      "type": "function"
    },
    {
      "inputs": [],
      "name": "devFee",
      "outputs": [
        {
          "internalType": "uint256",
          "name": "",
          "type": "uint256"
        }
      ],
      "stateMutability": "view",
      "type": "function"
    },
    {
      "inputs": [],
      "name": "devWallet",
      "outputs": [
        {
          "internalType": "address",
          "name": "",
          "type": "address"
        }
      ],
      "stateMutability": "view",
      "type": "function"
    },
    {
      "inputs": [],
      "name": "governance",
      "outputs": [
        {
          "internalType": "address",
          "name": "",
          "type": "address"
        }
      ],
      "stateMutability": "view",
      "type": "function"
    },
    {
      "inputs": [],
      "name": "lastRewardedTime",
      "outputs": [
        {
          "internalType": "uint256",
          "name": "",
          "type": "uint256"
        }
      ],
      "stateMutability": "view",
      "type": "function"
    },
    {
      "inputs": [],
      "name": "lockWithdraw",
      "outputs": [],
      "stateMutability": "nonpayable",
      "type": "function"
    },
    {
      "inputs": [
        {
          "internalType": "address",
          "name": "_creator",
          "type": "address"
        }
      ],
      "name": "powerOfCreator",
      "outputs": [
        {
          "internalType": "uint256",
          "name": "",
          "type": "uint256"
        }
      ],
      "stateMutability": "view",
      "type": "function"
    },
    {
      "inputs": [],
      "name": "ptm",
      "outputs": [
        {
          "internalType": "contract IERC20",
          "name": "",
          "type": "address"
        }
      ],
      "stateMutability": "view",
      "type": "function"
    },
    {
      "inputs": [
        {
          "internalType": "address",
          "name": "_creator",
          "type": "address"
        }
      ],
      "name": "removeCreator",
      "outputs": [],
      "stateMutability": "nonpayable",
      "type": "function"
    },
    {
      "inputs": [],
      "name": "resetCreatorsReward",
      "outputs": [],
      "stateMutability": "nonpayable",
      "type": "function"
    },
    {
      "inputs": [],
      "name": "rewardLockPeriod",
      "outputs": [
        {
          "internalType": "uint256",
          "name": "",
          "type": "uint256"
        }
      ],
      "stateMutability": "view",
      "type": "function"
    },
    {
      "inputs": [
        {
          "internalType": "address",
          "name": "_creator",
          "type": "address"
        }
      ],
      "name": "rewardOfCreator",
      "outputs": [
        {
          "internalType": "uint256",
          "name": "",
          "type": "uint256"
        }
      ],
      "stateMutability": "view",
      "type": "function"
    },
    {
      "inputs": [
        {
          "internalType": "address",
          "name": "_admin",
          "type": "address"
        }
      ],
      "name": "setAdmin",
      "outputs": [],
      "stateMutability": "nonpayable",
      "type": "function"
    },
    {
      "inputs": [
        {
          "internalType": "address",
          "name": "_controller",
          "type": "address"
        }
      ],
      "name": "setController",
      "outputs": [],
      "stateMutability": "nonpayable",
      "type": "function"
    },
    {
      "inputs": [
        {
          "internalType": "address",
          "name": "_wallet",
          "type": "address"
        }
      ],
      "name": "setDevWallet",
      "outputs": [],
      "stateMutability": "nonpayable",
      "type": "function"
    },
    {
      "inputs": [
        {
          "internalType": "uint256",
          "name": "_creatorFee",
          "type": "uint256"
        },
        {
          "internalType": "uint256",
          "name": "_vaultFee",
          "type": "uint256"
        },
        {
          "internalType": "uint256",
          "name": "_devFee",
          "type": "uint256"
        }
      ],
      "name": "setFeeRates",
      "outputs": [],
      "stateMutability": "nonpayable",
      "type": "function"
    },
    {
      "inputs": [
        {
          "internalType": "address",
          "name": "_governance",
          "type": "address"
        }
      ],
      "name": "setGovernace",
      "outputs": [],
      "stateMutability": "nonpayable",
      "type": "function"
    },
    {
      "inputs": [
        {
          "internalType": "address",
          "name": "_ptm",
          "type": "address"
        }
      ],
      "name": "setPTM",
      "outputs": [],
      "stateMutability": "nonpayable",
      "type": "function"
    },
    {
      "inputs": [
        {
          "internalType": "uint256",
          "name": "_period",
          "type": "uint256"
        }
      ],
      "name": "setRewardLockPeriod",
      "outputs": [],
      "stateMutability": "nonpayable",
      "type": "function"
    },
    {
      "inputs": [
        {
          "internalType": "address",
          "name": "_vault",
          "type": "address"
        }
      ],
      "name": "setVault",
      "outputs": [],
      "stateMutability": "nonpayable",
      "type": "function"
    },
    {
      "inputs": [
        {
          "internalType": "uint256",
          "name": "_period",
          "type": "uint256"
        }
      ],
      "name": "setWithdrawPeriod",
      "outputs": [],
      "stateMutability": "nonpayable",
      "type": "function"
    },
    {
      "inputs": [],
      "name": "transferToDev",
      "outputs": [],
      "stateMutability": "nonpayable",
      "type": "function"
    },
    {
      "inputs": [],
      "name": "unlockWithdraw",
      "outputs": [],
      "stateMutability": "nonpayable",
      "type": "function"
    },
    {
      "inputs": [],
      "name": "vault",
      "outputs": [
        {
          "internalType": "address",
          "name": "",
          "type": "address"
        }
      ],
      "stateMutability": "view",
      "type": "function"
    },
    {
      "inputs": [],
      "name": "vaultFee",
      "outputs": [
        {
          "internalType": "uint256",
          "name": "",
          "type": "uint256"
        }
      ],
      "stateMutability": "view",
      "type": "function"
    },
    {
      "inputs": [
        {
          "internalType": "uint256",
          "name": "_amount",
          "type": "uint256"
        }
      ],
      "name": "withdraw",
      "outputs": [],
      "stateMutability": "nonpayable",
      "type": "function"
    },
    {
      "inputs": [],
      "name": "withdrawAll",
      "outputs": [],
      "stateMutability": "nonpayable",
      "type": "function"
    },
    {
      "inputs": [],
      "name": "withdrawFromCreator",
      "outputs": [],
      "stateMutability": "nonpayable",
      "type": "function"
    },
    {
      "inputs": [],
      "name": "withdrawFromDev",
      "outputs": [],
      "stateMutability": "nonpayable",
      "type": "function"
    },
    {
      "inputs": [],
      "name": "withdrawFromVault",
      "outputs": [],
      "stateMutability": "nonpayable",
      "type": "function"
    },
    {
      "inputs": [],
      "name": "withdrawPeriod",
      "outputs": [
        {
          "internalType": "uint256",
          "name": "",
          "type": "uint256"
        }
      ],
      "stateMutability": "view",
      "type": "function"
    },
    {
      "inputs": [],
      "name": "withdrawStartTime",
      "outputs": [
        {
          "internalType": "uint256",
          "name": "",
          "type": "uint256"
        }
      ],
      "stateMutability": "view",
      "type": "function"
    }
  ],
  "bytecode": "0x608060405262278d0060065562278d00600755610bb8600a55611388600b556107d0600c553480156200003157600080fd5b5060405162002161380380620021618339810160408190526200005491620000c2565b600180546001600160a01b03199081163317909155600380546001600160a01b03938416908316811790915560028054831690911790556000805493909216921691909117905542600855620000f9565b80516001600160a01b0381168114620000bd57600080fd5b919050565b60008060408385031215620000d5578182fd5b620000e083620000a5565b9150620000f060208401620000a5565b90509250929050565b61205880620001096000396000f3fe608060405234801561001057600080fd5b506004361061027f5760003560e01c8063853828b61161015c578063bd6018bb116100ce578063e538b28011610087578063e538b28014610496578063e88958dc146104a9578063f77c4791146104b1578063f851a440146104b9578063fb75817d146104c1578063fbfa77cf146104d45761027f565b8063bd6018bb14610450578063c3e0cd6214610463578063d73792a914610476578063d82faa481461047e578063dcb0f85814610486578063de5f62681461048e5761027f565b8063a425632f11610120578063a425632f14610408578063ad36712e14610410578063b103929b14610418578063b31dbd341461042d578063b69ef8a814610435578063b6b55f251461043d5761027f565b8063853828b6146103d55780638d356131146103dd5780638ea5220f146103e557806392eefe9b146103ed5780639994673d146104005761027f565b806354e48122116101f55780636817031b116101b95780636817031b146103605780636827e76414610373578063704b6c021461037b578063718fb6121461038e5780637da5790b146103a1578063851e3ca5146103c25761027f565b806354e48122146103205780635aa6e675146103285780635ccbdcc01461033d5780635cfdd4f514610345578063664a61f21461034d5761027f565b806312eb4f9a1161024757806312eb4f9a146102da5780631d2d7507146102e25780631f53ac02146102ea5780632e1a7d4d146102fd57806331dac87014610310578063417745e9146103185761027f565b806301ac145b14610284578063079cff0a146102a2578063091dffca146102aa5780630af01b0f146102b457806310c9e0ca146102c7575b600080fd5b61028c6104dc565b6040516102999190611f40565b60405180910390f35b61028c6104e2565b6102b26104e8565b005b6102b26102c2366004611a2a565b6105d9565b6102b26102d5366004611a73565b610665565b61028c6106be565b61028c6106c4565b6102b26102f8366004611a10565b6106ca565b6102b261030b366004611a73565b610740565b6102b26107c8565b61028c61081e565b6102b2610824565b61033061094f565b6040516102999190611aea565b61028c61095e565b61028c610964565b6102b261035b366004611a10565b61096a565b6102b261036e366004611a10565b6109e0565b61028c610a56565b6102b2610389366004611a10565b610a5c565b61028c61039c366004611a10565b610ad2565b6103b46103af366004611a10565b610af4565b604051610299929190611f49565b6102b26103d0366004611a10565b610b0d565b6102b2610b83565b6102b2610b90565b610330610cc2565b6102b26103fb366004611a10565b610cd1565b61028c610d47565b6102b2610d4d565b610330610dfc565b610420610e0b565b6040516102999190611b3b565b6102b2610eda565b61028c611002565b6102b261044b366004611a73565b611088565b6102b261045e366004611a10565b6110a0565b61028c610471366004611a10565b611113565b61028c61112e565b61028c611134565b6102b2611140565b6102b26111fc565b6102b26104a4366004611aa3565b61127e565b61028c611317565b61033061131d565b61033061132c565b6102b26104cf366004611a73565b61133b565b610330611394565b600b5481565b60095481565b426105006006546008546113a390919063ffffffff16565b106105265760405162461bcd60e51b815260040161051d90611c41565b60405180910390fd5b4261053e6007546009546113a390919063ffffffff16565b1161055b5760405162461bcd60e51b815260040161051d90611d75565b6004546001600160a01b031633146105855760405162461bcd60e51b815260040161051d90611ded565b600e54610590611002565b8111156105a25761059f611002565b90505b6004546000546105bf916001600160a01b039182169116836113db565b80600e60008282546105d19190611fae565b909155505050565b6003546001600160a01b03163314806105fc57506002546001600160a01b031633145b8061061157506001546001600160a01b031633145b61062d5760405162461bcd60e51b815260040161051d90611e0d565b610638601183611436565b6106495761064760118361144b565b505b6001600160a01b03909116600090815260106020526040902055565b6002546001600160a01b031633148061068857506003546001600160a01b031633145b8061069d57506001546001600160a01b031633145b6106b95760405162461bcd60e51b815260040161051d90611e0d565b600655565b60075481565b60085481565b6003546001600160a01b03163314806106ed57506002546001600160a01b031633145b8061070257506001546001600160a01b031633145b61071e5760405162461bcd60e51b815260040161051d90611e0d565b600580546001600160a01b0319166001600160a01b0392909216919091179055565b6002546001600160a01b031633148061076357506003546001600160a01b031633145b8061077857506001546001600160a01b031633145b6107945760405162461bcd60e51b815260040161051d90611e0d565b61079c611002565b8111156107ae576107ab611002565b90505b6000546107c5906001600160a01b031633836113db565b50565b60005b6107d56011611460565b8110156107c55760006010816107ec60118561146b565b6001600160a01b031681526020810191909152604001600090812060010155508061081681611ff1565b9150506107cb565b600d5481565b4261083c6006546008546113a390919063ffffffff16565b106108595760405162461bcd60e51b815260040161051d90611c41565b426108716007546009546113a390919063ffffffff16565b1161088e5760405162461bcd60e51b815260040161051d90611d75565b610899601132611436565b6108b55760405162461bcd60e51b815260040161051d90611c83565b32600090815260106020526040902060010154806108e55760405162461bcd60e51b815260040161051d90611cab565b6108ed611002565b8111156108ff576108fc611002565b90505b600054610916906001600160a01b031632836113db565b80600d60008282546109289190611fae565b909155505032600090815260106020526040812060010180548392906105d1908490611fae565b6002546001600160a01b031681565b60065481565b600f5481565b6002546001600160a01b031633148061098d57506003546001600160a01b031633145b806109a257506001546001600160a01b031633145b6109be5760405162461bcd60e51b815260040161051d90611e0d565b600080546001600160a01b0319166001600160a01b0392909216919091179055565b6003546001600160a01b0316331480610a0357506002546001600160a01b031633145b80610a1857506001546001600160a01b031633145b610a345760405162461bcd60e51b815260040161051d90611e0d565b600480546001600160a01b0319166001600160a01b0392909216919091179055565b600c5481565b6002546001600160a01b0316331480610a7f57506003546001600160a01b031633145b80610a9457506001546001600160a01b031633145b610ab05760405162461bcd60e51b815260040161051d90611e0d565b600380546001600160a01b0319166001600160a01b0392909216919091179055565b6001600160a01b0381166000908152601060205260409020600101545b919050565b6010602052600090815260409020805460019091015482565b6002546001600160a01b0316331480610b3057506003546001600160a01b031633145b80610b4557506001546001600160a01b031633145b610b615760405162461bcd60e51b815260040161051d90611e0d565b600280546001600160a01b0319166001600160a01b0392909216919091179055565b610b8e61030b611002565b565b42610ba86006546008546113a390919063ffffffff16565b10610bc55760405162461bcd60e51b815260040161051d90611c41565b42610bdd6007546009546113a390919063ffffffff16565b11610bfa5760405162461bcd60e51b815260040161051d90611d75565b6005546001600160a01b0316610c225760405162461bcd60e51b815260040161051d90611d4a565b6002546001600160a01b0316331480610c4557506003546001600160a01b031633145b80610c5a57506001546001600160a01b031633145b610c765760405162461bcd60e51b815260040161051d90611e0d565b600f54610c81611002565b811115610c9357610c90611002565b90505b600554600054610cb0916001600160a01b039182169116836113db565b80600f60008282546105d19190611fae565b6005546001600160a01b031681565b6002546001600160a01b0316331480610cf457506003546001600160a01b031633145b80610d0957506001546001600160a01b031633145b610d255760405162461bcd60e51b815260040161051d90611e0d565b600180546001600160a01b0319166001600160a01b0392909216919091179055565b600e5481565b6002546001600160a01b0316331480610d7057506003546001600160a01b031633145b80610d8557506001546001600160a01b031633145b610da15760405162461bcd60e51b815260040161051d90611e0d565b4260085560006009819055600f819055600e819055600d819055610dc3611002565b1115610df457600354610df4906001600160a01b0316610de1611002565b6000546001600160a01b031691906113db565b610b8e6107c8565b6000546001600160a01b031681565b60606000610e196011611460565b67ffffffffffffffff811115610e3f57634e487b7160e01b600052604160045260246000fd5b604051908082528060200260200182016040528015610e68578160200160208202803683370190505b50905060005b610e786011611460565b811015610ed457610e8a60118261146b565b828281518110610eaa57634e487b7160e01b600052603260045260246000fd5b6001600160a01b039092166020928302919091019091015280610ecc81611ff1565b915050610e6e565b50905090565b6002546001600160a01b0316331480610efd57506003546001600160a01b031633145b80610f1257506001546001600160a01b031633145b610f2e5760405162461bcd60e51b815260040161051d90611e0d565b42610f466006546008546113a390919063ffffffff16565b10610f635760405162461bcd60e51b815260040161051d90611bfd565b42610f7b6007546009546113a390919063ffffffff16565b10610f985760405162461bcd60e51b815260040161051d90611e88565b42600981905550610fbf612710610fb9600c54610fb3611002565b90611477565b906114bc565b600f81905550610fd9612710610fb9600a54610fb3611002565b600d81905550610ff3612710610fb9600b54610fb3611002565b600e55600d54610b8e906114fe565b600080546040516370a0823160e01b81526001600160a01b03909116906370a0823190611033903090600401611aea565b60206040518083038186803b15801561104b57600080fd5b505afa15801561105f573d6000803e3d6000fd5b505050506040513d601f19601f820116820180604052508101906110839190611a8b565b905090565b6000546107c5906001600160a01b03163330846115a3565b6003546001600160a01b03163314806110c357506002546001600160a01b031633145b806110d857506001546001600160a01b031633145b6110f45760405162461bcd60e51b815260040161051d90611e0d565b6110ff601182611436565b156107c55761110f6011826115ca565b5050565b6001600160a01b031660009081526010602052604090205490565b61271081565b60006110836011611460565b426111586006546008546113a390919063ffffffff16565b106111755760405162461bcd60e51b815260040161051d90611c41565b4261118d6007546009546113a390919063ffffffff16565b116111aa5760405162461bcd60e51b815260040161051d90611d75565b6005546001600160a01b03166111d25760405162461bcd60e51b815260040161051d90611d4a565b6005546001600160a01b03163314610c765760405162461bcd60e51b815260040161051d90611e65565b6000546040516370a0823160e01b8152610b8e916001600160a01b0316906370a082319061122e903390600401611aea565b60206040518083038186803b15801561124657600080fd5b505afa15801561125a573d6000803e3d6000fd5b505050506040513d601f19601f8201168201806040525081019061044b9190611a8b565b6002546001600160a01b03163314806112a157506003546001600160a01b031633145b806112b657506001546001600160a01b031633145b6112d25760405162461bcd60e51b815260040161051d90611e0d565b6127106112e9826112e386866113a3565b906113a3565b146113065760405162461bcd60e51b815260040161051d90611e3b565b600a92909255600c91909155600b55565b600a5481565b6001546001600160a01b031681565b6003546001600160a01b031681565b6002546001600160a01b031633148061135e57506003546001600160a01b031633145b8061137357506001546001600160a01b031633145b61138f5760405162461bcd60e51b815260040161051d90611e0d565b600755565b6004546001600160a01b031681565b6000806113b08385611f57565b9050838110156113d25760405162461bcd60e51b815260040161051d90611ccd565b90505b92915050565b6114318363a9059cbb60e01b84846040516024016113fa929190611b22565b60408051601f198184030181529190526020810180516001600160e01b03166001600160e01b0319909316929092179091526115df565b505050565b60006113d2836001600160a01b03841661166e565b60006113d2836001600160a01b038416611686565b60006113d5826116d0565b60006113d283836116d4565b600082611486575060006113d5565b60006114928385611f8f565b90508261149f8583611f6f565b146113d25760405162461bcd60e51b815260040161051d90611dac565b60006113d283836040518060400160405280601a81526020017f536166654d6174683a206469766973696f6e206279207a65726f00000000000081525061172d565b6000611508611766565b905060005b6115176011611460565b81101561143157600060108161152e60118561146b565b6001600160a01b03168152602081019190915260400160002080549091506115565750611591565b600061157384610fb984600001548861147790919063ffffffff16565b9050808260010160008282546115899190611f57565b909155505050505b8061159b81611ff1565b91505061150d565b6115c4846323b872dd60e01b8585856040516024016113fa93929190611afe565b50505050565b60006113d2836001600160a01b0384166117c6565b6000611634826040518060400160405280602081526020017f5361666545524332303a206c6f772d6c6576656c2063616c6c206661696c6564815250856001600160a01b03166118e39092919063ffffffff16565b80519091501561143157808060200190518101906116529190611a53565b6114315760405162461bcd60e51b815260040161051d90611ef6565b60009081526001919091016020526040902054151590565b6000611692838361166e565b6116c8575081546001818101845560008481526020808220909301849055845484825282860190935260409020919091556113d5565b5060006113d5565b5490565b815460009082106116f75760405162461bcd60e51b815260040161051d90611bbb565b82600001828154811061171a57634e487b7160e01b600052603260045260246000fd5b9060005260206000200154905092915050565b6000818361174e5760405162461bcd60e51b815260040161051d9190611b88565b50600061175b8486611f6f565b9150505b9392505050565b6000805b6117746011611460565b8110156117c2576117ae6010600061178d60118561146b565b6001600160a01b0316815260208101919091526040016000205483906113a3565b9150806117ba81611ff1565b91505061176a565b5090565b600081815260018301602052604081205480156118d95760006117ea600183611fae565b85549091506000906117fe90600190611fae565b9050600086600001828154811061182557634e487b7160e01b600052603260045260246000fd5b906000526020600020015490508087600001848154811061185657634e487b7160e01b600052603260045260246000fd5b60009182526020909120015561186d836001611f57565b6000828152600189016020526040902055865487908061189d57634e487b7160e01b600052603160045260246000fd5b600190038181906000526020600020016000905590558660010160008781526020019081526020016000206000905560019450505050506113d5565b60009150506113d5565b60606118f284846000856118fa565b949350505050565b60608247101561191c5760405162461bcd60e51b815260040161051d90611d04565b611925856119ba565b6119415760405162461bcd60e51b815260040161051d90611ebf565b600080866001600160a01b0316858760405161195d9190611ace565b60006040518083038185875af1925050503d806000811461199a576040519150601f19603f3d011682016040523d82523d6000602084013e61199f565b606091505b50915091506119af8282866119c0565b979650505050505050565b3b151590565b606083156119cf57508161175f565b8251156119df5782518084602001fd5b8160405162461bcd60e51b815260040161051d9190611b88565b80356001600160a01b0381168114610aef57600080fd5b600060208284031215611a21578081fd5b6113d2826119f9565b60008060408385031215611a3c578081fd5b611a45836119f9565b946020939093013593505050565b600060208284031215611a64578081fd5b815180151581146113d2578182fd5b600060208284031215611a84578081fd5b5035919050565b600060208284031215611a9c578081fd5b5051919050565b600080600060608486031215611ab7578081fd5b505081359360208301359350604090920135919050565b60008251611ae0818460208701611fc5565b9190910192915050565b6001600160a01b0391909116815260200190565b6001600160a01b039384168152919092166020820152604081019190915260600190565b6001600160a01b03929092168252602082015260400190565b6020808252825182820181905260009190848201906040850190845b81811015611b7c5783516001600160a01b031683529284019291840191600101611b57565b50909695505050505050565b6000602082528251806020840152611ba7816040850160208701611fc5565b601f01601f19169190910160400192915050565b60208082526022908201527f456e756d657261626c655365743a20696e646578206f7574206f6620626f756e604082015261647360f01b606082015260800190565b60208082526024908201527f21617661696c61626c6520746f20756e6c6f636b20746f207769746864617277604082015263081e595d60e21b606082015260800190565b60208082526022908201527f21617661696c61626c6520746f20776974686461727720726577617264732079604082015261195d60f21b606082015260800190565b6020808252600e908201526d10b2bc34b9ba1031b932b0ba37b960911b604082015260600190565b6020808252600890820152672162616c616e636560c01b604082015260600190565b6020808252601b908201527f536166654d6174683a206164646974696f6e206f766572666c6f770000000000604082015260600190565b60208082526026908201527f416464726573733a20696e73756666696369656e742062616c616e636520666f6040820152651c8818d85b1b60d21b606082015260800190565b602080825260119082015270085d985b1a590819195d881dd85b1b195d607a1b604082015260600190565b60208082526017908201527f6578706972656420776974686472617720706572696f64000000000000000000604082015260600190565b60208082526021908201527f536166654d6174683a206d756c7469706c69636174696f6e206f766572666c6f6040820152607760f81b606082015260800190565b602080825260069082015265085d985d5b1d60d21b604082015260600190565b60208082526014908201527310b0b236b4b71037b91031b7b73a3937b63632b960611b604082015260600190565b60208082526010908201526f2176616c69642066656520726174657360801b604082015260600190565b60208082526009908201526821646576207465616d60b81b604082015260600190565b6020808252601a908201527f616c726561647920696e20776974686472617720706572696f64000000000000604082015260600190565b6020808252601d908201527f416464726573733a2063616c6c20746f206e6f6e2d636f6e7472616374000000604082015260600190565b6020808252602a908201527f5361666545524332303a204552433230206f7065726174696f6e20646964206e6040820152691bdd081cdd58d8d9595960b21b606082015260800190565b90815260200190565b918252602082015260400190565b60008219821115611f6a57611f6a61200c565b500190565b600082611f8a57634e487b7160e01b81526012600452602481fd5b500490565b6000816000190483118215151615611fa957611fa961200c565b500290565b600082821015611fc057611fc061200c565b500390565b60005b83811015611fe0578181015183820152602001611fc8565b838111156115c45750506000910152565b60006000198214156120055761200561200c565b5060010190565b634e487b7160e01b600052601160045260246000fdfea26469706673582212202e8e3ec6b42a348dc541ab394cf9ac8be18876c70bd663b1938629feab61e4a464736f6c63430008010033",
  "linkReferences": {},
  "deployedLinkReferences": {}
}