{
  "_format": "hh-sol-artifact-1",
  "contractName": "RewardPool",
  "sourceName": "contracts/Controller.sol",
  "abi": [
    {
      "inputs": [
        {
          "internalType": "address",
          "name": "_ptm",
          "type": "address"
        },
        {
          "internalType": "address",
          "name": "_admin",
          "type": "address"
        }
      ],
      "stateMutability": "nonpayable",
      "type": "constructor"
    },
    {
      "inputs": [],
      "name": "FEE_DENOMINATOR",
      "outputs": [
        {
          "internalType": "uint256",
          "name": "",
          "type": "uint256"
        }
      ],
      "stateMutability": "view",
      "type": "function"
    },
    {
      "inputs": [
        {
          "internalType": "address",
          "name": "_creator",
          "type": "address"
        },
        {
          "internalType": "uint256",
          "name": "_power",
          "type": "uint256"
        }
      ],
      "name": "addOrUpdateCreator",
      "outputs": [],
      "stateMutability": "nonpayable",
      "type": "function"
    },
    {
      "inputs": [],
      "name": "admin",
      "outputs": [
        {
          "internalType": "address",
          "name": "",
          "type": "address"
        }
      ],
      "stateMutability": "view",
      "type": "function"
    },
    {
      "inputs": [],
      "name": "balance",
      "outputs": [
        {
          "internalType": "uint256",
          "name": "",
          "type": "uint256"
        }
      ],
      "stateMutability": "view",
      "type": "function"
    },
    {
      "inputs": [],
      "name": "balanceOfCreator",
      "outputs": [
        {
          "internalType": "uint256",
          "name": "",
          "type": "uint256"
        }
      ],
      "stateMutability": "view",
      "type": "function"
    },
    {
      "inputs": [],
      "name": "balanceOfDev",
      "outputs": [
        {
          "internalType": "uint256",
          "name": "",
          "type": "uint256"
        }
      ],
      "stateMutability": "view",
      "type": "function"
    },
    {
      "inputs": [],
      "name": "balanceOfVault",
      "outputs": [
        {
          "internalType": "uint256",
          "name": "",
          "type": "uint256"
        }
      ],
      "stateMutability": "view",
      "type": "function"
    },
    {
      "inputs": [],
      "name": "controller",
      "outputs": [
        {
          "internalType": "address",
          "name": "",
          "type": "address"
        }
      ],
      "stateMutability": "view",
      "type": "function"
    },
    {
      "inputs": [],
      "name": "creatorCount",
      "outputs": [
        {
          "internalType": "uint256",
          "name": "",
          "type": "uint256"
        }
      ],
      "stateMutability": "view",
      "type": "function"
    },
    {
      "inputs": [],
      "name": "creatorFee",
      "outputs": [
        {
          "internalType": "uint256",
          "name": "",
          "type": "uint256"
        }
      ],
      "stateMutability": "view",
      "type": "function"
    },
    {
      "inputs": [
        {
          "internalType": "address",
          "name": "",
          "type": "address"
        }
      ],
      "name": "creatorInfos",
      "outputs": [
        {
          "internalType": "uint256",
          "name": "power",
          "type": "uint256"
        }
      ],
      "stateMutability": "view",
      "type": "function"
    },
    {
      "inputs": [],
      "name": "creatorList",
      "outputs": [
        {
          "internalType": "address[]",
          "name": "",
          "type": "address[]"
        }
      ],
      "stateMutability": "view",
      "type": "function"
    },
    {
      "inputs": [
        {
          "internalType": "uint256",
          "name": "_amount",
          "type": "uint256"
        }
      ],
      "name": "deposit",
      "outputs": [],
      "stateMutability": "nonpayable",
      "type": "function"
    },
    {
      "inputs": [],
      "name": "depositAll",
      "outputs": [],
      "stateMutability": "nonpayable",
      "type": "function"
    },
    {
      "inputs": [],
      "name": "devFee",
      "outputs": [
        {
          "internalType": "uint256",
          "name": "",
          "type": "uint256"
        }
      ],
      "stateMutability": "view",
      "type": "function"
    },
    {
      "inputs": [],
      "name": "devWallet",
      "outputs": [
        {
          "internalType": "address",
          "name": "",
          "type": "address"
        }
      ],
      "stateMutability": "view",
      "type": "function"
    },
    {
      "inputs": [],
      "name": "governance",
      "outputs": [
        {
          "internalType": "address",
          "name": "",
          "type": "address"
        }
      ],
      "stateMutability": "view",
      "type": "function"
    },
    {
      "inputs": [],
      "name": "lastRewardedTime",
      "outputs": [
        {
          "internalType": "uint256",
          "name": "",
          "type": "uint256"
        }
      ],
      "stateMutability": "view",
      "type": "function"
    },
    {
      "inputs": [],
      "name": "lockWithdraw",
      "outputs": [],
      "stateMutability": "nonpayable",
      "type": "function"
    },
    {
      "inputs": [],
      "name": "ptm",
      "outputs": [
        {
          "internalType": "contract IERC20",
          "name": "",
          "type": "address"
        }
      ],
      "stateMutability": "view",
      "type": "function"
    },
    {
      "inputs": [
        {
          "internalType": "address",
          "name": "_creator",
          "type": "address"
        }
      ],
      "name": "removeCreator",
      "outputs": [],
      "stateMutability": "nonpayable",
      "type": "function"
    },
    {
      "inputs": [],
      "name": "rewardLockPeriod",
      "outputs": [
        {
          "internalType": "uint256",
          "name": "",
          "type": "uint256"
        }
      ],
      "stateMutability": "view",
      "type": "function"
    },
    {
      "inputs": [
        {
          "internalType": "address",
          "name": "_admin",
          "type": "address"
        }
      ],
      "name": "setAdmin",
      "outputs": [],
      "stateMutability": "nonpayable",
      "type": "function"
    },
    {
      "inputs": [
        {
          "internalType": "address",
          "name": "_controller",
          "type": "address"
        }
      ],
      "name": "setController",
      "outputs": [],
      "stateMutability": "nonpayable",
      "type": "function"
    },
    {
      "inputs": [
        {
          "internalType": "address",
          "name": "_wallet",
          "type": "address"
        }
      ],
      "name": "setDevWallet",
      "outputs": [],
      "stateMutability": "nonpayable",
      "type": "function"
    },
    {
      "inputs": [
        {
          "internalType": "uint256",
          "name": "_creatorFee",
          "type": "uint256"
        },
        {
          "internalType": "uint256",
          "name": "_vaultFee",
          "type": "uint256"
        },
        {
          "internalType": "uint256",
          "name": "_devFee",
          "type": "uint256"
        }
      ],
      "name": "setFeeRates",
      "outputs": [],
      "stateMutability": "nonpayable",
      "type": "function"
    },
    {
      "inputs": [
        {
          "internalType": "address",
          "name": "_governance",
          "type": "address"
        }
      ],
      "name": "setGovernace",
      "outputs": [],
      "stateMutability": "nonpayable",
      "type": "function"
    },
    {
      "inputs": [
        {
          "internalType": "address",
          "name": "_ptm",
          "type": "address"
        }
      ],
      "name": "setPTM",
      "outputs": [],
      "stateMutability": "nonpayable",
      "type": "function"
    },
    {
      "inputs": [
        {
          "internalType": "uint256",
          "name": "_period",
          "type": "uint256"
        }
      ],
      "name": "setRewardLockPeriod",
      "outputs": [],
      "stateMutability": "nonpayable",
      "type": "function"
    },
    {
      "inputs": [
        {
          "internalType": "address",
          "name": "_vault",
          "type": "address"
        }
      ],
      "name": "setVault",
      "outputs": [],
      "stateMutability": "nonpayable",
      "type": "function"
    },
    {
      "inputs": [
        {
          "internalType": "uint256",
          "name": "_period",
          "type": "uint256"
        }
      ],
      "name": "setWithdrawPeriod",
      "outputs": [],
      "stateMutability": "nonpayable",
      "type": "function"
    },
    {
      "inputs": [],
      "name": "transferToDev",
      "outputs": [],
      "stateMutability": "nonpayable",
      "type": "function"
    },
    {
      "inputs": [],
      "name": "unlockWithdraw",
      "outputs": [],
      "stateMutability": "nonpayable",
      "type": "function"
    },
    {
      "inputs": [],
      "name": "vault",
      "outputs": [
        {
          "internalType": "address",
          "name": "",
          "type": "address"
        }
      ],
      "stateMutability": "view",
      "type": "function"
    },
    {
      "inputs": [],
      "name": "vaultFee",
      "outputs": [
        {
          "internalType": "uint256",
          "name": "",
          "type": "uint256"
        }
      ],
      "stateMutability": "view",
      "type": "function"
    },
    {
      "inputs": [
        {
          "internalType": "uint256",
          "name": "_amount",
          "type": "uint256"
        }
      ],
      "name": "withdraw",
      "outputs": [],
      "stateMutability": "nonpayable",
      "type": "function"
    },
    {
      "inputs": [],
      "name": "withdrawAll",
      "outputs": [],
      "stateMutability": "nonpayable",
      "type": "function"
    },
    {
      "inputs": [],
      "name": "withdrawFromCreator",
      "outputs": [],
      "stateMutability": "nonpayable",
      "type": "function"
    },
    {
      "inputs": [],
      "name": "withdrawFromDev",
      "outputs": [],
      "stateMutability": "nonpayable",
      "type": "function"
    },
    {
      "inputs": [],
      "name": "withdrawFromVault",
      "outputs": [],
      "stateMutability": "nonpayable",
      "type": "function"
    },
    {
      "inputs": [],
      "name": "withdrawPeriod",
      "outputs": [
        {
          "internalType": "uint256",
          "name": "",
          "type": "uint256"
        }
      ],
      "stateMutability": "view",
      "type": "function"
    },
    {
      "inputs": [],
      "name": "withdrawStartTime",
      "outputs": [
        {
          "internalType": "uint256",
          "name": "",
          "type": "uint256"
        }
      ],
      "stateMutability": "view",
      "type": "function"
    }
  ],
  "bytecode": "0x608060405262278d006006556203f480600755610bb8600a55611388600b556107d0600c553480156200003157600080fd5b5060405162001e6c38038062001e6c8339810160408190526200005491620000c2565b600180546001600160a01b03199081163317909155600380546001600160a01b03938416908316811790915560028054831690911790556000805493909216921691909117905542600855620000f9565b80516001600160a01b0381168114620000bd57600080fd5b919050565b60008060408385031215620000d5578182fd5b620000e083620000a5565b9150620000f060208401620000a5565b90509250929050565b611d6380620001096000396000f3fe608060405234801561001057600080fd5b506004361061025e5760003560e01c80638d35613111610146578063bd6018bb116100c3578063e538b28011610087578063e538b28014610439578063e88958dc1461044c578063f77c479114610454578063f851a4401461045c578063fb75817d14610464578063fbfa77cf146104775761025e565b8063bd6018bb14610406578063d73792a914610419578063d82faa4814610421578063dcb0f85814610429578063de5f6268146104315761025e565b8063ad36712e1161010a578063ad36712e146103c6578063b103929b146103ce578063b31dbd34146103e3578063b69ef8a8146103eb578063b6b55f25146103f35761025e565b80638d356131146103935780638ea5220f1461039b57806392eefe9b146103a35780639994673d146103b6578063a425632f146103be5761025e565b806354e48122116101df5780636817031b116101a35780636817031b146103375780636827e7641461034a578063704b6c02146103525780637da5790b14610365578063851e3ca514610378578063853828b61461038b5761025e565b806354e48122146102f75780635aa6e675146102ff5780635ccbdcc0146103145780635cfdd4f51461031c578063664a61f2146103245761025e565b806312eb4f9a1161022657806312eb4f9a146102b95780631d2d7507146102c15780631f53ac02146102c95780632e1a7d4d146102dc578063417745e9146102ef5761025e565b806301ac145b14610263578063079cff0a14610281578063091dffca146102895780630af01b0f1461029357806310c9e0ca146102a6575b600080fd5b61026b61047f565b6040516102789190611c59565b60405180910390f35b61026b610485565b61029161048b565b005b6102916102a1366004611745565b610565565b6102916102b436600461178e565b6105f1565b61026b610635565b61026b61063b565b6102916102d736600461172b565b610641565b6102916102ea36600461178e565b6106b7565b61026b61073c565b610291610742565b61030761081c565b6040516102789190611805565b61026b61082b565b61026b610831565b61029161033236600461172b565b610837565b61029161034536600461172b565b6108ad565b61026b610923565b61029161036036600461172b565b610929565b61026b61037336600461172b565b61098a565b61029161038636600461172b565b61099c565b6102916109fd565b610291610a0a565b610307610b2a565b6102916103b136600461172b565b610b39565b61026b610b9a565b610291610ba0565b610307610c09565b6103d6610c18565b6040516102789190611856565b610291610ce7565b61026b610dff565b61029161040136600461178e565b610e85565b61029161041436600461172b565b610e9d565b61026b610f10565b61026b610f16565b610291610f22565b610291610fde565b6102916104473660046117be565b611060565b61026b6110e4565b6103076110ea565b6103076110f9565b61029161047236600461178e565b611108565b61030761114c565b600b5481565b60095481565b426104a360065460085461115b90919063ffffffff16565b106104c95760405162461bcd60e51b81526004016104c09061195c565b60405180910390fd5b426104e160075460095461115b90919063ffffffff16565b116104fe5760405162461bcd60e51b81526004016104c090611a8e565b6004546001600160a01b031633146105285760405162461bcd60e51b81526004016104c090611b06565b600e54610533610dff565b81111561054557610542610dff565b90505b600454600054610562916001600160a01b03918216911683611193565b50565b6003546001600160a01b031633148061058857506002546001600160a01b031633145b8061059d57506001546001600160a01b031633145b6105b95760405162461bcd60e51b81526004016104c090611b26565b6105c46011836111ee565b6105d5576105d3601183611203565b505b6001600160a01b03909116600090815260106020526040902055565b6002546001600160a01b031633148061061457506003546001600160a01b031633145b6106305760405162461bcd60e51b81526004016104c090611a6e565b600655565b60075481565b60085481565b6003546001600160a01b031633148061066457506002546001600160a01b031633145b8061067957506001546001600160a01b031633145b6106955760405162461bcd60e51b81526004016104c090611b26565b600580546001600160a01b0319166001600160a01b0392909216919091179055565b6002546001600160a01b03163314806106da57506003546001600160a01b031633145b806106ef57506001546001600160a01b031633145b61070b5760405162461bcd60e51b81526004016104c090611b26565b610713610dff565b81111561072557610722610dff565b90505b600054610562906001600160a01b03163383611193565b600d5481565b4261075a60065460085461115b90919063ffffffff16565b106107775760405162461bcd60e51b81526004016104c09061195c565b4261078f60075460095461115b90919063ffffffff16565b116107ac5760405162461bcd60e51b81526004016104c090611a8e565b6107b76011326111ee565b6107d35760405162461bcd60e51b81526004016104c09061199e565b60006108026107e0611218565b32600090815260106020526040902054600d546107fc91611278565b906112bd565b600054909150610562906001600160a01b03163283611193565b6002546001600160a01b031681565b60065481565b600f5481565b6002546001600160a01b031633148061085a57506003546001600160a01b031633145b8061086f57506001546001600160a01b031633145b61088b5760405162461bcd60e51b81526004016104c090611b26565b600080546001600160a01b0319166001600160a01b0392909216919091179055565b6003546001600160a01b03163314806108d057506002546001600160a01b031633145b806108e557506001546001600160a01b031633145b6109015760405162461bcd60e51b81526004016104c090611b26565b600480546001600160a01b0319166001600160a01b0392909216919091179055565b600c5481565b6002546001600160a01b031633148061094c57506003546001600160a01b031633145b6109685760405162461bcd60e51b81526004016104c090611a6e565b600380546001600160a01b0319166001600160a01b0392909216919091179055565b60106020526000908152604090205481565b6002546001600160a01b03163314806109bf57506003546001600160a01b031633145b6109db5760405162461bcd60e51b81526004016104c090611a6e565b600280546001600160a01b0319166001600160a01b0392909216919091179055565b610a086102ea610dff565b565b42610a2260065460085461115b90919063ffffffff16565b10610a3f5760405162461bcd60e51b81526004016104c09061195c565b42610a5760075460095461115b90919063ffffffff16565b11610a745760405162461bcd60e51b81526004016104c090611a8e565b6005546001600160a01b0316610a9c5760405162461bcd60e51b81526004016104c090611a43565b6002546001600160a01b0316331480610abf57506003546001600160a01b031633145b80610ad457506001546001600160a01b031633145b610af05760405162461bcd60e51b81526004016104c090611b26565b600f54610afb610dff565b811115610b0d57610b0a610dff565b90505b600554600054610562916001600160a01b03918216911683611193565b6005546001600160a01b031681565b6002546001600160a01b0316331480610b5c57506003546001600160a01b031633145b610b785760405162461bcd60e51b81526004016104c090611a6e565b600180546001600160a01b0319166001600160a01b0392909216919091179055565b600e5481565b6002546001600160a01b0316331480610bc357506003546001600160a01b031633145b80610bd857506001546001600160a01b031633145b610bf45760405162461bcd60e51b81526004016104c090611b26565b426008556000600f819055600e819055600d55565b6000546001600160a01b031681565b60606000610c2660116112ff565b67ffffffffffffffff811115610c4c57634e487b7160e01b600052604160045260246000fd5b604051908082528060200260200182016040528015610c75578160200160208202803683370190505b50905060005b610c8560116112ff565b811015610ce157610c97601182611312565b828281518110610cb757634e487b7160e01b600052603260045260246000fd5b6001600160a01b039092166020928302919091019091015280610cd981611cfc565b915050610c7b565b50905090565b6002546001600160a01b0316331480610d0a57506003546001600160a01b031633145b80610d1f57506001546001600160a01b031633145b610d3b5760405162461bcd60e51b81526004016104c090611b26565b42610d5360065460085461115b90919063ffffffff16565b10610d705760405162461bcd60e51b81526004016104c090611918565b42610d8860075460095461115b90919063ffffffff16565b10610da55760405162461bcd60e51b81526004016104c090611ba1565b42600981905550610dc66127106107fc600c54610dc0610dff565b90611278565b600f81905550610de06127106107fc600a54610dc0610dff565b600d81905550610dfa6127106107fc600b54610dc0610dff565b600e55565b600080546040516370a0823160e01b81526001600160a01b03909116906370a0823190610e30903090600401611805565b60206040518083038186803b158015610e4857600080fd5b505afa158015610e5c573d6000803e3d6000fd5b505050506040513d601f19601f82011682018060405250810190610e8091906117a6565b905090565b600054610562906001600160a01b031633308461131e565b6003546001600160a01b0316331480610ec057506002546001600160a01b031633145b80610ed557506001546001600160a01b031633145b610ef15760405162461bcd60e51b81526004016104c090611b26565b610efc6011826111ee565b1561056257610f0c601182611345565b5050565b61271081565b6000610e8060116112ff565b42610f3a60065460085461115b90919063ffffffff16565b10610f575760405162461bcd60e51b81526004016104c09061195c565b42610f6f60075460095461115b90919063ffffffff16565b11610f8c5760405162461bcd60e51b81526004016104c090611a8e565b6005546001600160a01b0316610fb45760405162461bcd60e51b81526004016104c090611a43565b6005546001600160a01b03163314610af05760405162461bcd60e51b81526004016104c090611b7e565b6000546040516370a0823160e01b8152610a08916001600160a01b0316906370a0823190611010903390600401611805565b60206040518083038186803b15801561102857600080fd5b505afa15801561103c573d6000803e3d6000fd5b505050506040513d601f19601f8201168201806040525081019061040191906117a6565b6002546001600160a01b031633148061108357506003546001600160a01b031633145b61109f5760405162461bcd60e51b81526004016104c090611a6e565b6127106110b6826110b0868661115b565b9061115b565b146110d35760405162461bcd60e51b81526004016104c090611b54565b600a92909255600c91909155600b55565b600a5481565b6001546001600160a01b031681565b6003546001600160a01b031681565b6002546001600160a01b031633148061112b57506003546001600160a01b031633145b6111475760405162461bcd60e51b81526004016104c090611a6e565b600755565b6004546001600160a01b031681565b6000806111688385611c62565b90508381101561118a5760405162461bcd60e51b81526004016104c0906119c6565b90505b92915050565b6111e98363a9059cbb60e01b84846040516024016111b292919061183d565b60408051601f198184030181529190526020810180516001600160e01b03166001600160e01b03199093169290921790915261135a565b505050565b600061118a836001600160a01b0384166113e9565b600061118a836001600160a01b038416611401565b6000805b61122660116112ff565b811015611274576112606010600061123f601185611312565b6001600160a01b03168152602081019190915260400160002054839061115b565b91508061126c81611cfc565b91505061121c565b5090565b6000826112875750600061118d565b60006112938385611c9a565b9050826112a08583611c7a565b1461118a5760405162461bcd60e51b81526004016104c090611ac5565b600061118a83836040518060400160405280601a81526020017f536166654d6174683a206469766973696f6e206279207a65726f00000000000081525061144b565b600061130a82611484565b90505b919050565b600061118a8383611488565b61133f846323b872dd60e01b8585856040516024016111b293929190611819565b50505050565b600061118a836001600160a01b0384166114e1565b60006113af826040518060400160405280602081526020017f5361666545524332303a206c6f772d6c6576656c2063616c6c206661696c6564815250856001600160a01b03166115fe9092919063ffffffff16565b8051909150156111e957808060200190518101906113cd919061176e565b6111e95760405162461bcd60e51b81526004016104c090611c0f565b60009081526001919091016020526040902054151590565b600061140d83836113e9565b6114435750815460018181018455600084815260208082209093018490558454848252828601909352604090209190915561118d565b50600061118d565b6000818361146c5760405162461bcd60e51b81526004016104c091906118a3565b5060006114798486611c7a565b9150505b9392505050565b5490565b815460009082106114ab5760405162461bcd60e51b81526004016104c0906118d6565b8260000182815481106114ce57634e487b7160e01b600052603260045260246000fd5b9060005260206000200154905092915050565b600081815260018301602052604081205480156115f4576000611505600183611cb9565b855490915060009061151990600190611cb9565b9050600086600001828154811061154057634e487b7160e01b600052603260045260246000fd5b906000526020600020015490508087600001848154811061157157634e487b7160e01b600052603260045260246000fd5b600091825260209091200155611588836001611c62565b600082815260018901602052604090205586548790806115b857634e487b7160e01b600052603160045260246000fd5b6001900381819060005260206000200160009055905586600101600087815260200190815260200160002060009055600194505050505061118d565b600091505061118d565b606061160d8484600085611615565b949350505050565b6060824710156116375760405162461bcd60e51b81526004016104c0906119fd565b611640856116d5565b61165c5760405162461bcd60e51b81526004016104c090611bd8565b600080866001600160a01b0316858760405161167891906117e9565b60006040518083038185875af1925050503d80600081146116b5576040519150601f19603f3d011682016040523d82523d6000602084013e6116ba565b606091505b50915091506116ca8282866116db565b979650505050505050565b3b151590565b606083156116ea57508161147d565b8251156116fa5782518084602001fd5b8160405162461bcd60e51b81526004016104c091906118a3565b80356001600160a01b038116811461130d57600080fd5b60006020828403121561173c578081fd5b61118a82611714565b60008060408385031215611757578081fd5b61176083611714565b946020939093013593505050565b60006020828403121561177f578081fd5b8151801515811461118a578182fd5b60006020828403121561179f578081fd5b5035919050565b6000602082840312156117b7578081fd5b5051919050565b6000806000606084860312156117d2578081fd5b505081359360208301359350604090920135919050565b600082516117fb818460208701611cd0565b9190910192915050565b6001600160a01b0391909116815260200190565b6001600160a01b039384168152919092166020820152604081019190915260600190565b6001600160a01b03929092168252602082015260400190565b6020808252825182820181905260009190848201906040850190845b818110156118975783516001600160a01b031683529284019291840191600101611872565b50909695505050505050565b60006020825282518060208401526118c2816040850160208701611cd0565b601f01601f19169190910160400192915050565b60208082526022908201527f456e756d657261626c655365743a20696e646578206f7574206f6620626f756e604082015261647360f01b606082015260800190565b60208082526024908201527f21617661696c61626c6520746f20756e6c6f636b20746f207769746864617277604082015263081e595d60e21b606082015260800190565b60208082526022908201527f21617661696c61626c6520746f20776974686461727720726577617264732079604082015261195d60f21b606082015260800190565b6020808252600e908201526d10b2bc34b9ba1031b932b0ba37b960911b604082015260600190565b6020808252601b908201527f536166654d6174683a206164646974696f6e206f766572666c6f770000000000604082015260600190565b60208082526026908201527f416464726573733a20696e73756666696369656e742062616c616e636520666f6040820152651c8818d85b1b60d21b606082015260800190565b602080825260119082015270085d985b1a590819195d881dd85b1b195d607a1b604082015260600190565b60208082526006908201526510b0b236b4b760d11b604082015260600190565b60208082526017908201527f6578706972656420776974686472617720706572696f64000000000000000000604082015260600190565b60208082526021908201527f536166654d6174683a206d756c7469706c69636174696f6e206f766572666c6f6040820152607760f81b606082015260800190565b602080825260069082015265085d985d5b1d60d21b604082015260600190565b60208082526014908201527310b0b236b4b71037b91031b7b73a3937b63632b960611b604082015260600190565b60208082526010908201526f2176616c69642066656520726174657360801b604082015260600190565b60208082526009908201526821646576207465616d60b81b604082015260600190565b6020808252601a908201527f616c726561647920696e20776974686472617720706572696f64000000000000604082015260600190565b6020808252601d908201527f416464726573733a2063616c6c20746f206e6f6e2d636f6e7472616374000000604082015260600190565b6020808252602a908201527f5361666545524332303a204552433230206f7065726174696f6e20646964206e6040820152691bdd081cdd58d8d9595960b21b606082015260800190565b90815260200190565b60008219821115611c7557611c75611d17565b500190565b600082611c9557634e487b7160e01b81526012600452602481fd5b500490565b6000816000190483118215151615611cb457611cb4611d17565b500290565b600082821015611ccb57611ccb611d17565b500390565b60005b83811015611ceb578181015183820152602001611cd3565b8381111561133f5750506000910152565b6000600019821415611d1057611d10611d17565b5060010190565b634e487b7160e01b600052601160045260246000fdfea26469706673582212208fb8922124c513c1462220fd5b3ce8b2fe06ea44327f8f982fb6942ca5b898d164736f6c63430008010033",
  "linkReferences": {},
  "deployedLinkReferences": {}
}