{
  "_format": "hh-sol-artifact-1",
  "contractName": "SystemPool",
  "sourceName": "contracts/Controller.sol",
  "abi": [
    {
      "inputs": [
        {
          "internalType": "address",
          "name": "_ptm",
          "type": "address"
        },
        {
          "internalType": "address",
          "name": "_admin",
          "type": "address"
        }
      ],
      "stateMutability": "nonpayable",
      "type": "constructor"
    },
    {
      "inputs": [],
      "name": "admin",
      "outputs": [
        {
          "internalType": "address",
          "name": "",
          "type": "address"
        }
      ],
      "stateMutability": "view",
      "type": "function"
    },
    {
      "inputs": [],
      "name": "balance",
      "outputs": [
        {
          "internalType": "uint256",
          "name": "",
          "type": "uint256"
        }
      ],
      "stateMutability": "view",
      "type": "function"
    },
    {
      "inputs": [],
      "name": "controller",
      "outputs": [
        {
          "internalType": "address",
          "name": "",
          "type": "address"
        }
      ],
      "stateMutability": "view",
      "type": "function"
    },
    {
      "inputs": [
        {
          "internalType": "uint256",
          "name": "_amount",
          "type": "uint256"
        }
      ],
      "name": "deposit",
      "outputs": [],
      "stateMutability": "nonpayable",
      "type": "function"
    },
    {
      "inputs": [],
      "name": "depositAll",
      "outputs": [],
      "stateMutability": "nonpayable",
      "type": "function"
    },
    {
      "inputs": [],
      "name": "governance",
      "outputs": [
        {
          "internalType": "address",
          "name": "",
          "type": "address"
        }
      ],
      "stateMutability": "view",
      "type": "function"
    },
    {
      "inputs": [],
      "name": "ptm",
      "outputs": [
        {
          "internalType": "contract IERC20",
          "name": "",
          "type": "address"
        }
      ],
      "stateMutability": "view",
      "type": "function"
    },
    {
      "inputs": [
        {
          "internalType": "address",
          "name": "_admin",
          "type": "address"
        }
      ],
      "name": "setAdmin",
      "outputs": [],
      "stateMutability": "nonpayable",
      "type": "function"
    },
    {
      "inputs": [
        {
          "internalType": "address",
          "name": "_controller",
          "type": "address"
        }
      ],
      "name": "setController",
      "outputs": [],
      "stateMutability": "nonpayable",
      "type": "function"
    },
    {
      "inputs": [
        {
          "internalType": "address",
          "name": "_governance",
          "type": "address"
        }
      ],
      "name": "setGovernace",
      "outputs": [],
      "stateMutability": "nonpayable",
      "type": "function"
    },
    {
      "inputs": [
        {
          "internalType": "address",
          "name": "_ptm",
          "type": "address"
        }
      ],
      "name": "setPTM",
      "outputs": [],
      "stateMutability": "nonpayable",
      "type": "function"
    },
    {
      "inputs": [
        {
          "internalType": "address",
          "name": "_to",
          "type": "address"
        },
        {
          "internalType": "uint256",
          "name": "_amount",
          "type": "uint256"
        }
      ],
      "name": "transfer",
      "outputs": [],
      "stateMutability": "nonpayable",
      "type": "function"
    },
    {
      "inputs": [
        {
          "internalType": "uint256",
          "name": "_amount",
          "type": "uint256"
        }
      ],
      "name": "withdraw",
      "outputs": [],
      "stateMutability": "nonpayable",
      "type": "function"
    },
    {
      "inputs": [],
      "name": "withdrawAll",
      "outputs": [],
      "stateMutability": "nonpayable",
      "type": "function"
    }
  ],
  "bytecode": "0x608060405234801561001057600080fd5b50604051610bd6380380610bd683398101604081905261002f91610097565b600180546001600160a01b03199081163317909155600380546001600160a01b0393841690831681179091556002805483169091179055600080549390921692169190911790556100c9565b80516001600160a01b038116811461009257600080fd5b919050565b600080604083850312156100a9578182fd5b6100b28361007b565b91506100c06020840161007b565b90509250929050565b610afe806100d86000396000f3fe608060405234801561001057600080fd5b50600436106100ea5760003560e01c8063a9059cbb1161008c578063b6b55f2511610066578063b6b55f25146101a6578063de5f6268146101b9578063f77c4791146101c1578063f851a440146101c9576100ea565b8063a9059cbb14610176578063ad36712e14610189578063b69ef8a814610191576100ea565b8063704b6c02116100c8578063704b6c0214610135578063851e3ca514610148578063853828b61461015b57806392eefe9b14610163576100ea565b80632e1a7d4d146100ef5780635aa6e67514610104578063664a61f214610122575b600080fd5b6101026100fd3660046108a9565b6101d1565b005b61010c610262565b60405161011991906108f5565b60405180910390f35b610102610130366004610846565b610271565b610102610143366004610846565b6102e7565b610102610156366004610846565b61035d565b6101026103d3565b610102610171366004610846565b6103e0565b610102610184366004610860565b610456565b61010c6104b5565b6101996104c4565b6040516101199190610a93565b6101026101b43660046108a9565b61054a565b610102610562565b61010c6105e4565b61010c6105f3565b6002546001600160a01b03163314806101f457506003546001600160a01b031633145b8061020957506001546001600160a01b031633145b61022e5760405162461bcd60e51b8152600401610225906109e4565b60405180910390fd5b6102366104c4565b811115610248576102456104c4565b90505b60005461025f906001600160a01b03163383610602565b50565b6002546001600160a01b031681565b6002546001600160a01b031633148061029457506003546001600160a01b031633145b806102a957506001546001600160a01b031633145b6102c55760405162461bcd60e51b8152600401610225906109e4565b600080546001600160a01b0319166001600160a01b0392909216919091179055565b6002546001600160a01b031633148061030a57506003546001600160a01b031633145b8061031f57506001546001600160a01b031633145b61033b5760405162461bcd60e51b8152600401610225906109e4565b600380546001600160a01b0319166001600160a01b0392909216919091179055565b6002546001600160a01b031633148061038057506003546001600160a01b031633145b8061039557506001546001600160a01b031633145b6103b15760405162461bcd60e51b8152600401610225906109e4565b600280546001600160a01b0319166001600160a01b0392909216919091179055565b6103de6100fd6104c4565b565b6002546001600160a01b031633148061040357506003546001600160a01b031633145b8061041857506001546001600160a01b031633145b6104345760405162461bcd60e51b8152600401610225906109e4565b600180546001600160a01b0319166001600160a01b0392909216919091179055565b6001546001600160a01b031633146104805760405162461bcd60e51b815260040161022590610979565b6104886104c4565b81111561049a576104976104c4565b90505b6000546104b1906001600160a01b03168383610602565b5050565b6000546001600160a01b031681565b600080546040516370a0823160e01b81526001600160a01b03909116906370a08231906104f59030906004016108f5565b60206040518083038186803b15801561050d57600080fd5b505afa158015610521573d6000803e3d6000fd5b505050506040513d601f19601f8201168201806040525081019061054591906108c1565b905090565b60005461025f906001600160a01b031633308461065d565b6000546040516370a0823160e01b81526103de916001600160a01b0316906370a08231906105949033906004016108f5565b60206040518083038186803b1580156105ac57600080fd5b505afa1580156105c0573d6000803e3d6000fd5b505050506040513d601f19601f820116820180604052508101906101b491906108c1565b6001546001600160a01b031681565b6003546001600160a01b031681565b6106588363a9059cbb60e01b848460405160240161062192919061092d565b60408051601f198184030181529190526020810180516001600160e01b03166001600160e01b031990931692909217909152610684565b505050565b61067e846323b872dd60e01b85858560405160240161062193929190610909565b50505050565b60006106d9826040518060400160405280602081526020017f5361666545524332303a206c6f772d6c6576656c2063616c6c206661696c6564815250856001600160a01b03166107139092919063ffffffff16565b80519091501561065857808060200190518101906106f79190610889565b6106585760405162461bcd60e51b815260040161022590610a49565b6060610722848460008561072c565b90505b9392505050565b60608247101561074e5760405162461bcd60e51b81526004016102259061099e565b610757856107ec565b6107735760405162461bcd60e51b815260040161022590610a12565b600080866001600160a01b0316858760405161078f91906108d9565b60006040518083038185875af1925050503d80600081146107cc576040519150601f19603f3d011682016040523d82523d6000602084013e6107d1565b606091505b50915091506107e18282866107f6565b979650505050505050565b803b15155b919050565b60608315610805575081610725565b8251156108155782518084602001fd5b8160405162461bcd60e51b81526004016102259190610946565b80356001600160a01b03811681146107f157600080fd5b600060208284031215610857578081fd5b6107258261082f565b60008060408385031215610872578081fd5b61087b8361082f565b946020939093013593505050565b60006020828403121561089a578081fd5b81518015158114610725578182fd5b6000602082840312156108ba578081fd5b5035919050565b6000602082840312156108d2578081fd5b5051919050565b600082516108eb818460208701610a9c565b9190910192915050565b6001600160a01b0391909116815260200190565b6001600160a01b039384168152919092166020820152604081019190915260600190565b6001600160a01b03929092168252602082015260400190565b6000602082528251806020840152610965816040850160208701610a9c565b601f01601f19169190910160400192915050565b6020808252600b908201526a10b1b7b73a3937b63632b960a91b604082015260600190565b60208082526026908201527f416464726573733a20696e73756666696369656e742062616c616e636520666f6040820152651c8818d85b1b60d21b606082015260800190565b60208082526014908201527310b0b236b4b71037b91031b7b73a3937b63632b960611b604082015260600190565b6020808252601d908201527f416464726573733a2063616c6c20746f206e6f6e2d636f6e7472616374000000604082015260600190565b6020808252602a908201527f5361666545524332303a204552433230206f7065726174696f6e20646964206e6040820152691bdd081cdd58d8d9595960b21b606082015260800190565b90815260200190565b60005b83811015610ab7578181015183820152602001610a9f565b8381111561067e575050600091015256fea26469706673582212203bd758247d7487abdb68f0acb57670488e4a8c5525cfa2abe0fdb18643f3041e64736f6c63430008010033",
  "linkReferences": {},
  "deployedLinkReferences": {}
}