{
  "_format": "hh-sol-artifact-1",
  "contractName": "SystemPool",
  "sourceName": "contracts/Controller.sol",
  "abi": [
    {
      "inputs": [
        {
          "internalType": "address",
          "name": "_ptm",
          "type": "address"
        },
        {
          "internalType": "address",
          "name": "_admin",
          "type": "address"
        }
      ],
      "stateMutability": "nonpayable",
      "type": "constructor"
    },
    {
      "inputs": [],
      "name": "admin",
      "outputs": [
        {
          "internalType": "address",
          "name": "",
          "type": "address"
        }
      ],
      "stateMutability": "view",
      "type": "function"
    },
    {
      "inputs": [],
      "name": "balance",
      "outputs": [
        {
          "internalType": "uint256",
          "name": "",
          "type": "uint256"
        }
      ],
      "stateMutability": "view",
      "type": "function"
    },
    {
      "inputs": [],
      "name": "controller",
      "outputs": [
        {
          "internalType": "address",
          "name": "",
          "type": "address"
        }
      ],
      "stateMutability": "view",
      "type": "function"
    },
    {
      "inputs": [
        {
          "internalType": "uint256",
          "name": "_amount",
          "type": "uint256"
        }
      ],
      "name": "deposit",
      "outputs": [],
      "stateMutability": "nonpayable",
      "type": "function"
    },
    {
      "inputs": [],
      "name": "depositAll",
      "outputs": [],
      "stateMutability": "nonpayable",
      "type": "function"
    },
    {
      "inputs": [],
      "name": "governance",
      "outputs": [
        {
          "internalType": "address",
          "name": "",
          "type": "address"
        }
      ],
      "stateMutability": "view",
      "type": "function"
    },
    {
      "inputs": [],
      "name": "ptm",
      "outputs": [
        {
          "internalType": "contract IERC20",
          "name": "",
          "type": "address"
        }
      ],
      "stateMutability": "view",
      "type": "function"
    },
    {
      "inputs": [
        {
          "internalType": "address",
          "name": "_admin",
          "type": "address"
        }
      ],
      "name": "setAdmin",
      "outputs": [],
      "stateMutability": "nonpayable",
      "type": "function"
    },
    {
      "inputs": [
        {
          "internalType": "address",
          "name": "_controller",
          "type": "address"
        }
      ],
      "name": "setController",
      "outputs": [],
      "stateMutability": "nonpayable",
      "type": "function"
    },
    {
      "inputs": [
        {
          "internalType": "address",
          "name": "_governance",
          "type": "address"
        }
      ],
      "name": "setGovernace",
      "outputs": [],
      "stateMutability": "nonpayable",
      "type": "function"
    },
    {
      "inputs": [
        {
          "internalType": "address",
          "name": "_ptm",
          "type": "address"
        }
      ],
      "name": "setPTM",
      "outputs": [],
      "stateMutability": "nonpayable",
      "type": "function"
    },
    {
      "inputs": [
        {
          "internalType": "address",
          "name": "_to",
          "type": "address"
        },
        {
          "internalType": "uint256",
          "name": "_amount",
          "type": "uint256"
        }
      ],
      "name": "transfer",
      "outputs": [],
      "stateMutability": "nonpayable",
      "type": "function"
    },
    {
      "inputs": [
        {
          "internalType": "uint256",
          "name": "_amount",
          "type": "uint256"
        }
      ],
      "name": "withdraw",
      "outputs": [],
      "stateMutability": "nonpayable",
      "type": "function"
    },
    {
      "inputs": [],
      "name": "withdrawAll",
      "outputs": [],
      "stateMutability": "nonpayable",
      "type": "function"
    }
  ],
  "bytecode": "0x608060405234801561001057600080fd5b50604051610bb7380380610bb783398101604081905261002f91610097565b600180546001600160a01b03199081163317909155600380546001600160a01b0393841690831681179091556002805483169091179055600080549390921692169190911790556100c9565b80516001600160a01b038116811461009257600080fd5b919050565b600080604083850312156100a9578182fd5b6100b28361007b565b91506100c06020840161007b565b90509250929050565b610adf806100d86000396000f3fe608060405234801561001057600080fd5b50600436106100ea5760003560e01c8063a9059cbb1161008c578063b6b55f2511610066578063b6b55f25146101a6578063de5f6268146101b9578063f77c4791146101c1578063f851a440146101c9576100ea565b8063a9059cbb14610176578063ad36712e14610189578063b69ef8a814610191576100ea565b8063704b6c02116100c8578063704b6c0214610135578063851e3ca514610148578063853828b61461015b57806392eefe9b14610163576100ea565b80632e1a7d4d146100ef5780635aa6e67514610104578063664a61f214610122575b600080fd5b6101026100fd36600461086a565b6101d1565b005b61010c610262565b60405161011991906108b6565b60405180910390f35b610102610130366004610807565b610271565b610102610143366004610807565b6102e7565b610102610156366004610807565b610348565b6101026103a9565b610102610171366004610807565b6103b6565b610102610184366004610821565b610417565b61010c610476565b610199610485565b6040516101199190610a74565b6101026101b436600461086a565b61050b565b610102610523565b61010c6105a5565b61010c6105b4565b6002546001600160a01b03163314806101f457506003546001600160a01b031633145b8061020957506001546001600160a01b031633145b61022e5760405162461bcd60e51b8152600401610225906109c5565b60405180910390fd5b610236610485565b81111561024857610245610485565b90505b60005461025f906001600160a01b031633836105c3565b50565b6002546001600160a01b031681565b6002546001600160a01b031633148061029457506003546001600160a01b031633145b806102a957506001546001600160a01b031633145b6102c55760405162461bcd60e51b8152600401610225906109c5565b600080546001600160a01b0319166001600160a01b0392909216919091179055565b6002546001600160a01b031633148061030a57506003546001600160a01b031633145b6103265760405162461bcd60e51b8152600401610225906109a5565b600380546001600160a01b0319166001600160a01b0392909216919091179055565b6002546001600160a01b031633148061036b57506003546001600160a01b031633145b6103875760405162461bcd60e51b8152600401610225906109a5565b600280546001600160a01b0319166001600160a01b0392909216919091179055565b6103b46100fd610485565b565b6002546001600160a01b03163314806103d957506003546001600160a01b031633145b6103f55760405162461bcd60e51b8152600401610225906109a5565b600180546001600160a01b0319166001600160a01b0392909216919091179055565b6001546001600160a01b031633146104415760405162461bcd60e51b81526004016102259061093a565b610449610485565b81111561045b57610458610485565b90505b600054610472906001600160a01b031683836105c3565b5050565b6000546001600160a01b031681565b600080546040516370a0823160e01b81526001600160a01b03909116906370a08231906104b69030906004016108b6565b60206040518083038186803b1580156104ce57600080fd5b505afa1580156104e2573d6000803e3d6000fd5b505050506040513d601f19601f820116820180604052508101906105069190610882565b905090565b60005461025f906001600160a01b031633308461061e565b6000546040516370a0823160e01b81526103b4916001600160a01b0316906370a08231906105559033906004016108b6565b60206040518083038186803b15801561056d57600080fd5b505afa158015610581573d6000803e3d6000fd5b505050506040513d601f19601f820116820180604052508101906101b49190610882565b6001546001600160a01b031681565b6003546001600160a01b031681565b6106198363a9059cbb60e01b84846040516024016105e29291906108ee565b60408051601f198184030181529190526020810180516001600160e01b03166001600160e01b031990931692909217909152610645565b505050565b61063f846323b872dd60e01b8585856040516024016105e2939291906108ca565b50505050565b600061069a826040518060400160405280602081526020017f5361666545524332303a206c6f772d6c6576656c2063616c6c206661696c6564815250856001600160a01b03166106d49092919063ffffffff16565b80519091501561061957808060200190518101906106b8919061084a565b6106195760405162461bcd60e51b815260040161022590610a2a565b60606106e384846000856106ed565b90505b9392505050565b60608247101561070f5760405162461bcd60e51b81526004016102259061095f565b610718856107ad565b6107345760405162461bcd60e51b8152600401610225906109f3565b600080866001600160a01b03168587604051610750919061089a565b60006040518083038185875af1925050503d806000811461078d576040519150601f19603f3d011682016040523d82523d6000602084013e610792565b606091505b50915091506107a28282866107b7565b979650505050505050565b803b15155b919050565b606083156107c65750816106e6565b8251156107d65782518084602001fd5b8160405162461bcd60e51b81526004016102259190610907565b80356001600160a01b03811681146107b257600080fd5b600060208284031215610818578081fd5b6106e6826107f0565b60008060408385031215610833578081fd5b61083c836107f0565b946020939093013593505050565b60006020828403121561085b578081fd5b815180151581146106e6578182fd5b60006020828403121561087b578081fd5b5035919050565b600060208284031215610893578081fd5b5051919050565b600082516108ac818460208701610a7d565b9190910192915050565b6001600160a01b0391909116815260200190565b6001600160a01b039384168152919092166020820152604081019190915260600190565b6001600160a01b03929092168252602082015260400190565b6000602082528251806020840152610926816040850160208701610a7d565b601f01601f19169190910160400192915050565b6020808252600b908201526a10b1b7b73a3937b63632b960a91b604082015260600190565b60208082526026908201527f416464726573733a20696e73756666696369656e742062616c616e636520666f6040820152651c8818d85b1b60d21b606082015260800190565b60208082526006908201526510b0b236b4b760d11b604082015260600190565b60208082526014908201527310b0b236b4b71037b91031b7b73a3937b63632b960611b604082015260600190565b6020808252601d908201527f416464726573733a2063616c6c20746f206e6f6e2d636f6e7472616374000000604082015260600190565b6020808252602a908201527f5361666545524332303a204552433230206f7065726174696f6e20646964206e6040820152691bdd081cdd58d8d9595960b21b606082015260800190565b90815260200190565b60005b83811015610a98578181015183820152602001610a80565b8381111561063f575050600091015256fea2646970667358221220f6c78eb8bf70e7388d7ea07f24c5b1de233c3b0806a1908c365dddb4cde6c87364736f6c63430008010033",
  "linkReferences": {},
  "deployedLinkReferences": {}
}