{
  "_format": "hh-sol-artifact-1",
  "contractName": "PTM",
  "sourceName": "contracts/PTM.sol",
  "abi": [
    {
      "inputs": [
        {
          "internalType": "address",
          "name": "_governance",
          "type": "address"
        }
      ],
      "stateMutability": "nonpayable",
      "type": "constructor"
    },
    {
      "anonymous": false,
      "inputs": [
        {
          "indexed": true,
          "internalType": "address",
          "name": "owner",
          "type": "address"
        },
        {
          "indexed": true,
          "internalType": "address",
          "name": "spender",
          "type": "address"
        },
        {
          "indexed": false,
          "internalType": "uint256",
          "name": "value",
          "type": "uint256"
        }
      ],
      "name": "Approval",
      "type": "event"
    },
    {
      "anonymous": false,
      "inputs": [
        {
          "indexed": true,
          "internalType": "address",
          "name": "from",
          "type": "address"
        },
        {
          "indexed": true,
          "internalType": "address",
          "name": "to",
          "type": "address"
        },
        {
          "indexed": false,
          "internalType": "uint256",
          "name": "value",
          "type": "uint256"
        }
      ],
      "name": "Transfer",
      "type": "event"
    },
    {
      "inputs": [
        {
          "internalType": "address",
          "name": "owner",
          "type": "address"
        },
        {
          "internalType": "address",
          "name": "spender",
          "type": "address"
        }
      ],
      "name": "allowance",
      "outputs": [
        {
          "internalType": "uint256",
          "name": "",
          "type": "uint256"
        }
      ],
      "stateMutability": "view",
      "type": "function"
    },
    {
      "inputs": [
        {
          "internalType": "address",
          "name": "spender",
          "type": "address"
        },
        {
          "internalType": "uint256",
          "name": "amount",
          "type": "uint256"
        }
      ],
      "name": "approve",
      "outputs": [
        {
          "internalType": "bool",
          "name": "",
          "type": "bool"
        }
      ],
      "stateMutability": "nonpayable",
      "type": "function"
    },
    {
      "inputs": [
        {
          "internalType": "address",
          "name": "account",
          "type": "address"
        }
      ],
      "name": "balanceOf",
      "outputs": [
        {
          "internalType": "uint256",
          "name": "",
          "type": "uint256"
        }
      ],
      "stateMutability": "view",
      "type": "function"
    },
    {
      "inputs": [],
      "name": "decimals",
      "outputs": [
        {
          "internalType": "uint8",
          "name": "",
          "type": "uint8"
        }
      ],
      "stateMutability": "view",
      "type": "function"
    },
    {
      "inputs": [
        {
          "internalType": "address",
          "name": "spender",
          "type": "address"
        },
        {
          "internalType": "uint256",
          "name": "subtractedValue",
          "type": "uint256"
        }
      ],
      "name": "decreaseAllowance",
      "outputs": [
        {
          "internalType": "bool",
          "name": "",
          "type": "bool"
        }
      ],
      "stateMutability": "nonpayable",
      "type": "function"
    },
    {
      "inputs": [],
      "name": "deployer",
      "outputs": [
        {
          "internalType": "address",
          "name": "",
          "type": "address"
        }
      ],
      "stateMutability": "view",
      "type": "function"
    },
    {
      "inputs": [],
      "name": "governance",
      "outputs": [
        {
          "internalType": "address",
          "name": "",
          "type": "address"
        }
      ],
      "stateMutability": "view",
      "type": "function"
    },
    {
      "inputs": [
        {
          "internalType": "address",
          "name": "spender",
          "type": "address"
        },
        {
          "internalType": "uint256",
          "name": "addedValue",
          "type": "uint256"
        }
      ],
      "name": "increaseAllowance",
      "outputs": [
        {
          "internalType": "bool",
          "name": "",
          "type": "bool"
        }
      ],
      "stateMutability": "nonpayable",
      "type": "function"
    },
    {
      "inputs": [],
      "name": "initialSupply",
      "outputs": [
        {
          "internalType": "uint256",
          "name": "",
          "type": "uint256"
        }
      ],
      "stateMutability": "view",
      "type": "function"
    },
    {
      "inputs": [
        {
          "internalType": "address",
          "name": "_to",
          "type": "address"
        },
        {
          "internalType": "uint256",
          "name": "_amount",
          "type": "uint256"
        }
      ],
      "name": "mint",
      "outputs": [],
      "stateMutability": "nonpayable",
      "type": "function"
    },
    {
      "inputs": [],
      "name": "name",
      "outputs": [
        {
          "internalType": "string",
          "name": "",
          "type": "string"
        }
      ],
      "stateMutability": "view",
      "type": "function"
    },
    {
      "inputs": [
        {
          "internalType": "address",
          "name": "_governance",
          "type": "address"
        }
      ],
      "name": "setGovernance",
      "outputs": [],
      "stateMutability": "nonpayable",
      "type": "function"
    },
    {
      "inputs": [],
      "name": "symbol",
      "outputs": [
        {
          "internalType": "string",
          "name": "",
          "type": "string"
        }
      ],
      "stateMutability": "view",
      "type": "function"
    },
    {
      "inputs": [],
      "name": "totalSupply",
      "outputs": [
        {
          "internalType": "uint256",
          "name": "",
          "type": "uint256"
        }
      ],
      "stateMutability": "view",
      "type": "function"
    },
    {
      "inputs": [
        {
          "internalType": "address",
          "name": "recipient",
          "type": "address"
        },
        {
          "internalType": "uint256",
          "name": "amount",
          "type": "uint256"
        }
      ],
      "name": "transfer",
      "outputs": [
        {
          "internalType": "bool",
          "name": "",
          "type": "bool"
        }
      ],
      "stateMutability": "nonpayable",
      "type": "function"
    },
    {
      "inputs": [
        {
          "internalType": "address",
          "name": "sender",
          "type": "address"
        },
        {
          "internalType": "address",
          "name": "recipient",
          "type": "address"
        },
        {
          "internalType": "uint256",
          "name": "amount",
          "type": "uint256"
        }
      ],
      "name": "transferFrom",
      "outputs": [
        {
          "internalType": "bool",
          "name": "",
          "type": "bool"
        }
      ],
      "stateMutability": "nonpayable",
      "type": "function"
    }
  ],
  "bytecode": "0x60806040526305f5e1006007553480156200001957600080fd5b50604051620012ad380380620012ad8339810160408190526200003c9162000350565b6040518060400160405280600f81526020016e2837ba32b73a34b0b6902a37b5b2b760891b8152506040518060400160405280600381526020016250544d60e81b815250816003908051906020019062000098929190620002aa565b508051620000ae906004906020840190620002aa565b505060058054601260ff1990911617610100600160a81b0319166101006001600160a01b038581168202929092179283905560068054336001600160a01b0319909116179055600754620001279450920416906200012190670de0b6b3a76400006200012e602090811b620005a317901c565b6200018e565b50620004e2565b6000826200013f5750600062000188565b60006200014d83856200046d565b9050826200015c85836200044c565b14620001855760405162461bcd60e51b81526004016200017c90620003b0565b60405180910390fd5b90505b92915050565b6001600160a01b038216620001b75760405162461bcd60e51b81526004016200017c90620003f1565b620001c56000838362000271565b620001e1816002546200027660201b620005ef1790919060201c565b6002556001600160a01b0382166000908152602081815260409091205462000214918390620005ef62000276821b17901c565b6001600160a01b0383166000818152602081905260408082209390935591519091907fddf252ad1be2c89b69c2b068fc378daa952ba7f163c4a11628f55a4df523b3ef906200026590859062000428565b60405180910390a35050565b505050565b60008062000285838562000431565b905083811015620001855760405162461bcd60e51b81526004016200017c9062000379565b828054620002b8906200048f565b90600052602060002090601f016020900481019282620002dc576000855562000327565b82601f10620002f757805160ff191683800117855562000327565b8280016001018555821562000327579182015b82811115620003275782518255916020019190600101906200030a565b506200033592915062000339565b5090565b5b808211156200033557600081556001016200033a565b60006020828403121562000362578081fd5b81516001600160a01b038116811462000185578182fd5b6020808252601b908201527f536166654d6174683a206164646974696f6e206f766572666c6f770000000000604082015260600190565b60208082526021908201527f536166654d6174683a206d756c7469706c69636174696f6e206f766572666c6f6040820152607760f81b606082015260800190565b6020808252601f908201527f45524332303a206d696e7420746f20746865207a65726f206164647265737300604082015260600190565b90815260200190565b60008219821115620004475762000447620004cc565b500190565b6000826200046857634e487b7160e01b81526012600452602481fd5b500490565b60008160001904831182151516156200048a576200048a620004cc565b500290565b600281046001821680620004a457607f821691505b60208210811415620004c657634e487b7160e01b600052602260045260246000fd5b50919050565b634e487b7160e01b600052601160045260246000fd5b610dbb80620004f26000396000f3fe608060405234801561001057600080fd5b50600436106101005760003560e01c80635aa6e67511610097578063a9059cbb11610066578063a9059cbb146101f3578063ab033ea914610206578063d5f3948814610219578063dd62ed3e1461022157610100565b80635aa6e675146101b057806370a08231146101c557806395d89b41146101d8578063a457c2d7146101e057610100565b8063313ce567116100d3578063313ce5671461016b578063378dc3dc14610180578063395093511461018857806340c10f191461019b57610100565b806306fdde0314610105578063095ea7b31461012357806318160ddd1461014357806323b872dd14610158575b600080fd5b61010d610234565b60405161011a91906109d0565b60405180910390f35b610136610131366004610988565b6102c6565b60405161011a91906109c5565b61014b6102e4565b60405161011a9190610c3c565b61013661016636600461094d565b6102ea565b610173610371565b60405161011a9190610c45565b61014b610376565b610136610196366004610988565b61037c565b6101ae6101a9366004610988565b6103ca565b005b6101b8610410565b60405161011a91906109b1565b61014b6101d3366004610901565b610424565b61010d610443565b6101366101ee366004610988565b610452565b610136610201366004610988565b6104ba565b6101ae610214366004610901565b6104ce565b6101b8610569565b61014b61022f36600461091b565b610578565b60606003805461024390610cc1565b80601f016020809104026020016040519081016040528092919081815260200182805461026f90610cc1565b80156102bc5780601f10610291576101008083540402835291602001916102bc565b820191906000526020600020905b81548152906001019060200180831161029f57829003601f168201915b5050505050905090565b60006102da6102d361061e565b8484610622565b5060015b92915050565b60025490565b60006102f78484846106d6565b6103678461030361061e565b61036285604051806060016040528060288152602001610d39602891396001600160a01b038a1660009081526001602052604081209061034161061e565b6001600160a01b0316815260208101919091526040016000205491906107eb565b610622565b5060019392505050565b601290565b60075481565b60006102da61038961061e565b84610362856001600061039a61061e565b6001600160a01b03908116825260208083019390935260409182016000908120918c1681529252902054906105ef565b60055461010090046001600160a01b031633146104025760405162461bcd60e51b81526004016103f990610a66565b60405180910390fd5b61040c8282610825565b5050565b60055461010090046001600160a01b031681565b6001600160a01b0381166000908152602081905260409020545b919050565b60606004805461024390610cc1565b60006102da61045f61061e565b8461036285604051806060016040528060258152602001610d61602591396001600061048961061e565b6001600160a01b03908116825260208083019390935260409182016000908120918d168152925290205491906107eb565b60006102da6104c761061e565b84846106d6565b60055461010090046001600160a01b031633146104fd5760405162461bcd60e51b81526004016103f990610a66565b60055461010090046001600160a01b031633148061052557506006546001600160a01b031633145b6105415760405162461bcd60e51b81526004016103f990610bce565b600580546001600160a01b0390921661010002610100600160a81b0319909216919091179055565b6006546001600160a01b031681565b6001600160a01b03918216600090815260016020908152604080832093909416825291909152205490565b6000826105b2575060006102de565b60006105be8385610c8b565b9050826105cb8583610c6b565b146105e85760405162461bcd60e51b81526004016103f990610b04565b9392505050565b6000806105fc8385610c53565b9050838110156105e85760405162461bcd60e51b81526004016103f990610acd565b3390565b6001600160a01b0383166106485760405162461bcd60e51b81526004016103f990610b8a565b6001600160a01b03821661066e5760405162461bcd60e51b81526004016103f990610a8b565b6001600160a01b0380841660008181526001602090815260408083209487168084529490915290819020849055517f8c5be1e5ebec7d5bd14f71427d1e84f3dd0314c0f7b2291e5b200ac8c7c3b925906106c9908590610c3c565b60405180910390a3505050565b6001600160a01b0383166106fc5760405162461bcd60e51b81526004016103f990610b45565b6001600160a01b0382166107225760405162461bcd60e51b81526004016103f990610a23565b61072d8383836108e5565b61076a81604051806060016040528060268152602001610d13602691396001600160a01b03861660009081526020819052604090205491906107eb565b6001600160a01b03808516600090815260208190526040808220939093559084168152205461079990826105ef565b6001600160a01b0380841660008181526020819052604090819020939093559151908516907fddf252ad1be2c89b69c2b068fc378daa952ba7f163c4a11628f55a4df523b3ef906106c9908590610c3c565b6000818484111561080f5760405162461bcd60e51b81526004016103f991906109d0565b50600061081c8486610caa565b95945050505050565b6001600160a01b03821661084b5760405162461bcd60e51b81526004016103f990610c05565b610857600083836108e5565b60025461086490826105ef565b6002556001600160a01b03821660009081526020819052604090205461088a90826105ef565b6001600160a01b0383166000818152602081905260408082209390935591519091907fddf252ad1be2c89b69c2b068fc378daa952ba7f163c4a11628f55a4df523b3ef906108d9908590610c3c565b60405180910390a35050565b505050565b80356001600160a01b038116811461043e57600080fd5b600060208284031215610912578081fd5b6105e8826108ea565b6000806040838503121561092d578081fd5b610936836108ea565b9150610944602084016108ea565b90509250929050565b600080600060608486031215610961578081fd5b61096a846108ea565b9250610978602085016108ea565b9150604084013590509250925092565b6000806040838503121561099a578182fd5b6109a3836108ea565b946020939093013593505050565b6001600160a01b0391909116815260200190565b901515815260200190565b6000602080835283518082850152825b818110156109fc578581018301518582016040015282016109e0565b81811115610a0d5783604083870101525b50601f01601f1916929092016040019392505050565b60208082526023908201527f45524332303a207472616e7366657220746f20746865207a65726f206164647260408201526265737360e81b606082015260800190565b6020808252600b908201526a21676f7665726e616e636560a81b604082015260600190565b60208082526022908201527f45524332303a20617070726f766520746f20746865207a65726f206164647265604082015261737360f01b606082015260800190565b6020808252601b908201527f536166654d6174683a206164646974696f6e206f766572666c6f770000000000604082015260600190565b60208082526021908201527f536166654d6174683a206d756c7469706c69636174696f6e206f766572666c6f6040820152607760f81b606082015260800190565b60208082526025908201527f45524332303a207472616e736665722066726f6d20746865207a65726f206164604082015264647265737360d81b606082015260800190565b60208082526024908201527f45524332303a20617070726f76652066726f6d20746865207a65726f206164646040820152637265737360e01b606082015260800190565b60208082526017908201527f21676f7665726e616e6365206f72206465706c6f796572000000000000000000604082015260600190565b6020808252601f908201527f45524332303a206d696e7420746f20746865207a65726f206164647265737300604082015260600190565b90815260200190565b60ff91909116815260200190565b60008219821115610c6657610c66610cfc565b500190565b600082610c8657634e487b7160e01b81526012600452602481fd5b500490565b6000816000190483118215151615610ca557610ca5610cfc565b500290565b600082821015610cbc57610cbc610cfc565b500390565b600281046001821680610cd557607f821691505b60208210811415610cf657634e487b7160e01b600052602260045260246000fd5b50919050565b634e487b7160e01b600052601160045260246000fdfe45524332303a207472616e7366657220616d6f756e7420657863656564732062616c616e636545524332303a207472616e7366657220616d6f756e74206578636565647320616c6c6f77616e636545524332303a2064656372656173656420616c6c6f77616e63652062656c6f77207a65726fa2646970667358221220f005816aa2e9ee6d8b3826503a62b57a6333221edfbab141da32414d96fe17ab64736f6c63430008010033",
  "linkReferences": {},
  "deployedLinkReferences": {}
}