{
  "_format": "hh-sol-artifact-1",
  "contractName": "VaultNode",
  "sourceName": "contracts/VaultNode.sol",
  "abi": [
    {
      "inputs": [
        {
          "internalType": "address",
          "name": "_factory",
          "type": "address"
        },
        {
          "internalType": "address",
          "name": "_owner",
          "type": "address"
        },
        {
          "internalType": "address",
          "name": "_token",
          "type": "address"
        }
      ],
      "stateMutability": "nonpayable",
      "type": "constructor"
    },
    {
      "anonymous": false,
      "inputs": [
        {
          "indexed": false,
          "internalType": "uint256",
          "name": "_amount",
          "type": "uint256"
        },
        {
          "indexed": false,
          "internalType": "uint256",
          "name": "_balance",
          "type": "uint256"
        }
      ],
      "name": "Stake",
      "type": "event"
    },
    {
      "anonymous": false,
      "inputs": [
        {
          "indexed": false,
          "internalType": "uint256",
          "name": "_amount",
          "type": "uint256"
        },
        {
          "indexed": false,
          "internalType": "uint256",
          "name": "_balance",
          "type": "uint256"
        }
      ],
      "name": "Withdraw",
      "type": "event"
    },
    {
      "inputs": [],
      "name": "active",
      "outputs": [
        {
          "internalType": "bool",
          "name": "",
          "type": "bool"
        }
      ],
      "stateMutability": "view",
      "type": "function"
    },
    {
      "inputs": [],
      "name": "balance",
      "outputs": [
        {
          "internalType": "uint256",
          "name": "",
          "type": "uint256"
        }
      ],
      "stateMutability": "view",
      "type": "function"
    },
    {
      "inputs": [],
      "name": "capacity",
      "outputs": [
        {
          "internalType": "uint256",
          "name": "",
          "type": "uint256"
        }
      ],
      "stateMutability": "view",
      "type": "function"
    },
    {
      "inputs": [],
      "name": "factory",
      "outputs": [
        {
          "internalType": "address",
          "name": "",
          "type": "address"
        }
      ],
      "stateMutability": "view",
      "type": "function"
    },
    {
      "inputs": [],
      "name": "lastBlock",
      "outputs": [
        {
          "internalType": "uint256",
          "name": "",
          "type": "uint256"
        }
      ],
      "stateMutability": "view",
      "type": "function"
    },
    {
      "inputs": [],
      "name": "lastUpdated",
      "outputs": [
        {
          "internalType": "uint256",
          "name": "",
          "type": "uint256"
        }
      ],
      "stateMutability": "view",
      "type": "function"
    },
    {
      "inputs": [],
      "name": "owner",
      "outputs": [
        {
          "internalType": "address",
          "name": "",
          "type": "address"
        }
      ],
      "stateMutability": "view",
      "type": "function"
    },
    {
      "inputs": [
        {
          "internalType": "bool",
          "name": "_active",
          "type": "bool"
        }
      ],
      "name": "setActive",
      "outputs": [],
      "stateMutability": "nonpayable",
      "type": "function"
    },
    {
      "inputs": [
        {
          "internalType": "uint256",
          "name": "_capacity",
          "type": "uint256"
        }
      ],
      "name": "setCapacity",
      "outputs": [],
      "stateMutability": "nonpayable",
      "type": "function"
    },
    {
      "inputs": [
        {
          "internalType": "uint256",
          "name": "_amount",
          "type": "uint256"
        }
      ],
      "name": "stake",
      "outputs": [],
      "stateMutability": "nonpayable",
      "type": "function"
    },
    {
      "inputs": [],
      "name": "staked",
      "outputs": [
        {
          "internalType": "uint256",
          "name": "",
          "type": "uint256"
        }
      ],
      "stateMutability": "view",
      "type": "function"
    },
    {
      "inputs": [],
      "name": "token",
      "outputs": [
        {
          "internalType": "address",
          "name": "",
          "type": "address"
        }
      ],
      "stateMutability": "view",
      "type": "function"
    },
    {
      "inputs": [
        {
          "internalType": "uint256",
          "name": "_amount",
          "type": "uint256"
        }
      ],
      "name": "withdraw",
      "outputs": [],
      "stateMutability": "nonpayable",
      "type": "function"
    },
    {
      "inputs": [],
      "name": "withdrawAll",
      "outputs": [],
      "stateMutability": "nonpayable",
      "type": "function"
    }
  ],
  "bytecode": "0x60806040526000805460ff19166001908117825569021e19e0c9bab2400000905560055534801561002f57600080fd5b50604051610ff2380380610ff283398101604081905261004e916100ac565b600280546001600160a01b039485166001600160a01b0319918216179091556003805493851693821693909317909255600480549190931691161790556100ee565b80516001600160a01b03811681146100a757600080fd5b919050565b6000806000606084860312156100c0578283fd5b6100c984610090565b92506100d760208501610090565b91506100e560408501610090565b90509250925092565b610ef5806100fd6000396000f3fe608060405234801561001057600080fd5b50600436106100ea5760003560e01c806391915ef81161008c578063b69ef8a811610066578063b69ef8a81461019d578063c45a0155146101a5578063d0b06f5d146101ad578063fc0c546a146101b5576100ea565b806391915ef814610164578063a694fc3a14610177578063acec338a1461018a576100ea565b80635cfc1a51116100c85780635cfc1a5114610137578063806b984f1461013f578063853828b6146101475780638da5cb5b1461014f576100ea565b806302fb0c5e146100ef5780630b76619b1461010d5780632e1a7d4d14610122575b600080fd5b6100f76101bd565b6040516101049190610bcf565b60405180910390f35b6101156101c6565b6040516101049190610de7565b610135610130366004610b18565b6101cc565b005b61011561040c565b610115610412565b610135610418565b610157610425565b6040516101049190610b64565b610135610172366004610b18565b610434565b610135610185366004610b18565b610463565b610135610198366004610ae0565b610613565b610115610650565b6101576106d7565b6101156106e6565b6101576106ec565b60005460ff1681565b60055481565b6003546001600160a01b031632146101ff5760405162461bcd60e51b81526004016101f690610dc4565b60405180910390fd5b6000610209610650565b90506000600554831161021d57600061022b565b60055461022b9084906106fb565b9050801561029e5760025460035460405163636114c760e01b81526001600160a01b039283169263636114c79261026b9291169030908690600401610b92565b600060405180830381600087803b15801561028557600080fd5b505af1158015610299573d6000803e3d6000fd5b505050505b6102a883826106fb565b9250828210156102b6578192505b6003546004546102d3916001600160a01b03918216911685610746565b6005546102e090846106fb565b6005819055426006554360075560015411156103cc576000610300610650565b6005541161031057600554610318565b610318610650565b600254600454919250610339916001600160a01b03908116911660006107a1565b600254600454610356916001600160a01b039182169116836107a1565b6000805460ff19169055600254600354604051630262a55360e21b81526001600160a01b039283169263098a954c926103989291169030908690600401610b92565b600060405180830381600087803b1580156103b257600080fd5b505af11580156103c6573d6000803e3d6000fd5b50505050505b7f56ca301a9219608c91e7bcee90e083c19671d2cdcc96752c7af291cee5f9c8c8836005546040516103ff929190610df0565b60405180910390a1505050565b60015481565b60075481565b6104236005546101cc565b565b6003546001600160a01b031681565b6002546001600160a01b0316331461045e5760405162461bcd60e51b81526004016101f690610c8a565b600155565b600061046d610650565b60025460045491925061048e916001600160a01b0390811691163085610864565b6000610498610650565b90506104a481836106fb565b925060006104be600260015461088b90919063ffffffff16565b6005546104cb90866108d0565b116104d75760006104f8565b6104f86001546104f2866005546108d090919063ffffffff16565b906106fb565b905080156105b857600154600555600254600454610524916001600160a01b03918216911660006107a1565b600254600454610541916001600160a01b039182169116836107a1565b6000805460ff19169055600254600354604051636710837b60e01b81526001600160a01b0392831692636710837b92610581929116908590600401610bb6565b600060405180830381600087803b15801561059b57600080fd5b505af11580156105af573d6000803e3d6000fd5b505050506105c9565b6005546105c590856108d0565b6005555b42600655436007556005546040517fc9ec05ea5037818736839e1365dc3d9a74a735c447af0697da66633b7a9d0fab9161060591879190610df0565b60405180910390a150505050565b6002546001600160a01b0316331461063d5760405162461bcd60e51b81526004016101f690610c8a565b6000805460ff1916911515919091179055565b600480546040516370a0823160e01b81526000926001600160a01b03909216916370a082319161068291309101610b64565b60206040518083038186803b15801561069a57600080fd5b505afa1580156106ae573d6000803e3d6000fd5b505050506040513d601f19601f820116820180604052508101906106d29190610b30565b905090565b6002546001600160a01b031681565b60065481565b6004546001600160a01b031681565b600061073d83836040518060400160405280601e81526020017f536166654d6174683a207375627472616374696f6e206f766572666c6f7700008152506108ff565b90505b92915050565b61079c8363a9059cbb60e01b8484604051602401610765929190610bb6565b60408051601f198184030181529190526020810180516001600160e01b03166001600160e01b03199093169290921790915261093b565b505050565b8015806108295750604051636eb1769f60e11b81526001600160a01b0384169063dd62ed3e906107d79030908690600401610b78565b60206040518083038186803b1580156107ef57600080fd5b505afa158015610803573d6000803e3d6000fd5b505050506040513d601f19601f820116820180604052508101906108279190610b30565b155b6108455760405162461bcd60e51b81526004016101f690610d6e565b61079c8363095ea7b360e01b8484604051602401610765929190610bb6565b610885846323b872dd60e01b85858560405160240161076593929190610b92565b50505050565b60008261089a57506000610740565b60006108a68385610e36565b9050826108b38583610e16565b1461073d5760405162461bcd60e51b81526004016101f690610cac565b6000806108dd8385610dfe565b90508381101561073d5760405162461bcd60e51b81526004016101f690610c0d565b600081848411156109235760405162461bcd60e51b81526004016101f69190610bda565b5060006109308486610e55565b9150505b9392505050565b6000610990826040518060400160405280602081526020017f5361666545524332303a206c6f772d6c6576656c2063616c6c206661696c6564815250856001600160a01b03166109ca9092919063ffffffff16565b80519091501561079c57808060200190518101906109ae9190610afc565b61079c5760405162461bcd60e51b81526004016101f690610d24565b60606109d984846000856109e1565b949350505050565b606082471015610a035760405162461bcd60e51b81526004016101f690610c44565b610a0c85610aa1565b610a285760405162461bcd60e51b81526004016101f690610ced565b600080866001600160a01b03168587604051610a449190610b48565b60006040518083038185875af1925050503d8060008114610a81576040519150601f19603f3d011682016040523d82523d6000602084013e610a86565b606091505b5091509150610a96828286610aa7565b979650505050505050565b3b151590565b60608315610ab6575081610934565b825115610ac65782518084602001fd5b8160405162461bcd60e51b81526004016101f69190610bda565b600060208284031215610af1578081fd5b813561073d81610eae565b600060208284031215610b0d578081fd5b815161073d81610eae565b600060208284031215610b29578081fd5b5035919050565b600060208284031215610b41578081fd5b5051919050565b60008251610b5a818460208701610e6c565b9190910192915050565b6001600160a01b0391909116815260200190565b6001600160a01b0392831681529116602082015260400190565b6001600160a01b039384168152919092166020820152604081019190915260600190565b6001600160a01b03929092168252602082015260400190565b901515815260200190565b6000602082528251806020840152610bf9816040850160208701610e6c565b601f01601f19169190910160400192915050565b6020808252601b908201527f536166654d6174683a206164646974696f6e206f766572666c6f770000000000604082015260600190565b60208082526026908201527f416464726573733a20696e73756666696369656e742062616c616e636520666f6040820152651c8818d85b1b60d21b606082015260800190565b60208082526008908201526721666163746f727960c01b604082015260600190565b60208082526021908201527f536166654d6174683a206d756c7469706c69636174696f6e206f766572666c6f6040820152607760f81b606082015260800190565b6020808252601d908201527f416464726573733a2063616c6c20746f206e6f6e2d636f6e7472616374000000604082015260600190565b6020808252602a908201527f5361666545524332303a204552433230206f7065726174696f6e20646964206e6040820152691bdd081cdd58d8d9595960b21b606082015260800190565b60208082526036908201527f5361666545524332303a20617070726f76652066726f6d206e6f6e2d7a65726f60408201527520746f206e6f6e2d7a65726f20616c6c6f77616e636560501b606082015260800190565b6020808252600990820152683737ba1037bbb732b960b91b604082015260600190565b90815260200190565b918252602082015260400190565b60008219821115610e1157610e11610e98565b500190565b600082610e3157634e487b7160e01b81526012600452602481fd5b500490565b6000816000190483118215151615610e5057610e50610e98565b500290565b600082821015610e6757610e67610e98565b500390565b60005b83811015610e87578181015183820152602001610e6f565b838111156108855750506000910152565b634e487b7160e01b600052601160045260246000fd5b8015158114610ebc57600080fd5b5056fea26469706673582212201440a760a4ade03c6a113588343107263bcee041f93bc8f737ed6aa83b37768464736f6c63430008010033",
  "linkReferences": {},
  "deployedLinkReferences": {}
}