{
  "_format": "hh-sol-artifact-1",
  "contractName": "Vault",
  "sourceName": "contracts/Vault.sol",
  "abi": [
    {
      "inputs": [
        {
          "internalType": "address",
          "name": "_ptm",
          "type": "address"
        }
      ],
      "stateMutability": "nonpayable",
      "type": "constructor"
    },
    {
      "inputs": [],
      "name": "admin",
      "outputs": [
        {
          "internalType": "address",
          "name": "",
          "type": "address"
        }
      ],
      "stateMutability": "view",
      "type": "function"
    },
    {
      "inputs": [],
      "name": "balance",
      "outputs": [
        {
          "internalType": "uint256",
          "name": "",
          "type": "uint256"
        }
      ],
      "stateMutability": "view",
      "type": "function"
    },
    {
      "inputs": [
        {
          "internalType": "address",
          "name": "_user",
          "type": "address"
        }
      ],
      "name": "balanceOf",
      "outputs": [
        {
          "internalType": "uint256",
          "name": "",
          "type": "uint256"
        }
      ],
      "stateMutability": "view",
      "type": "function"
    },
    {
      "inputs": [],
      "name": "claim",
      "outputs": [],
      "stateMutability": "nonpayable",
      "type": "function"
    },
    {
      "inputs": [
        {
          "internalType": "uint256",
          "name": "_amount",
          "type": "uint256"
        }
      ],
      "name": "claimSome",
      "outputs": [],
      "stateMutability": "nonpayable",
      "type": "function"
    },
    {
      "inputs": [],
      "name": "controller",
      "outputs": [
        {
          "internalType": "address",
          "name": "",
          "type": "address"
        }
      ],
      "stateMutability": "view",
      "type": "function"
    },
    {
      "inputs": [
        {
          "internalType": "address",
          "name": "_user",
          "type": "address"
        }
      ],
      "name": "countNodes",
      "outputs": [
        {
          "internalType": "uint256",
          "name": "",
          "type": "uint256"
        }
      ],
      "stateMutability": "view",
      "type": "function"
    },
    {
      "inputs": [],
      "name": "countNodesAll",
      "outputs": [
        {
          "internalType": "uint256",
          "name": "",
          "type": "uint256"
        }
      ],
      "stateMutability": "view",
      "type": "function"
    },
    {
      "inputs": [],
      "name": "countSharedUsers",
      "outputs": [
        {
          "internalType": "uint256",
          "name": "",
          "type": "uint256"
        }
      ],
      "stateMutability": "view",
      "type": "function"
    },
    {
      "inputs": [
        {
          "internalType": "address",
          "name": "_user",
          "type": "address"
        },
        {
          "internalType": "uint256",
          "name": "_amount",
          "type": "uint256"
        }
      ],
      "name": "createNode",
      "outputs": [
        {
          "internalType": "address",
          "name": "",
          "type": "address"
        }
      ],
      "stateMutability": "nonpayable",
      "type": "function"
    },
    {
      "inputs": [],
      "name": "distributeRewards",
      "outputs": [],
      "stateMutability": "nonpayable",
      "type": "function"
    },
    {
      "inputs": [],
      "name": "governance",
      "outputs": [
        {
          "internalType": "address",
          "name": "",
          "type": "address"
        }
      ],
      "stateMutability": "view",
      "type": "function"
    },
    {
      "inputs": [
        {
          "internalType": "address",
          "name": "_user",
          "type": "address"
        },
        {
          "internalType": "address",
          "name": "_node",
          "type": "address"
        },
        {
          "internalType": "uint256",
          "name": "_amount",
          "type": "uint256"
        }
      ],
      "name": "mergeNode",
      "outputs": [],
      "stateMutability": "nonpayable",
      "type": "function"
    },
    {
      "inputs": [],
      "name": "minStakeAmount",
      "outputs": [
        {
          "internalType": "uint256",
          "name": "",
          "type": "uint256"
        }
      ],
      "stateMutability": "view",
      "type": "function"
    },
    {
      "inputs": [],
      "name": "nodeCapacity",
      "outputs": [
        {
          "internalType": "uint256",
          "name": "",
          "type": "uint256"
        }
      ],
      "stateMutability": "view",
      "type": "function"
    },
    {
      "inputs": [],
      "name": "nodeList",
      "outputs": [
        {
          "internalType": "address[]",
          "name": "",
          "type": "address[]"
        }
      ],
      "stateMutability": "view",
      "type": "function"
    },
    {
      "inputs": [],
      "name": "nodeListAll",
      "outputs": [
        {
          "internalType": "address[]",
          "name": "",
          "type": "address[]"
        }
      ],
      "stateMutability": "view",
      "type": "function"
    },
    {
      "inputs": [],
      "name": "ptm",
      "outputs": [
        {
          "internalType": "address",
          "name": "",
          "type": "address"
        }
      ],
      "stateMutability": "view",
      "type": "function"
    },
    {
      "inputs": [
        {
          "internalType": "address",
          "name": "_user",
          "type": "address"
        },
        {
          "internalType": "address",
          "name": "_node",
          "type": "address"
        },
        {
          "internalType": "uint256",
          "name": "_amount",
          "type": "uint256"
        }
      ],
      "name": "removeNode",
      "outputs": [],
      "stateMutability": "nonpayable",
      "type": "function"
    },
    {
      "inputs": [
        {
          "internalType": "address",
          "name": "_user",
          "type": "address"
        }
      ],
      "name": "rewardsOf",
      "outputs": [
        {
          "internalType": "uint256",
          "name": "",
          "type": "uint256"
        }
      ],
      "stateMutability": "view",
      "type": "function"
    },
    {
      "inputs": [
        {
          "internalType": "address",
          "name": "_admin",
          "type": "address"
        }
      ],
      "name": "setAdmin",
      "outputs": [],
      "stateMutability": "nonpayable",
      "type": "function"
    },
    {
      "inputs": [
        {
          "internalType": "address",
          "name": "_controller",
          "type": "address"
        }
      ],
      "name": "setController",
      "outputs": [],
      "stateMutability": "nonpayable",
      "type": "function"
    },
    {
      "inputs": [
        {
          "internalType": "address",
          "name": "_governance",
          "type": "address"
        }
      ],
      "name": "setGovernance",
      "outputs": [],
      "stateMutability": "nonpayable",
      "type": "function"
    },
    {
      "inputs": [
        {
          "internalType": "uint256",
          "name": "_amount",
          "type": "uint256"
        }
      ],
      "name": "setMinStakeAmount",
      "outputs": [],
      "stateMutability": "nonpayable",
      "type": "function"
    },
    {
      "inputs": [
        {
          "internalType": "uint256",
          "name": "_capacity",
          "type": "uint256"
        }
      ],
      "name": "setNodeCapacity",
      "outputs": [],
      "stateMutability": "nonpayable",
      "type": "function"
    },
    {
      "inputs": [
        {
          "internalType": "uint256",
          "name": "_period",
          "type": "uint256"
        }
      ],
      "name": "setStakeLockPeriod",
      "outputs": [],
      "stateMutability": "nonpayable",
      "type": "function"
    },
    {
      "inputs": [
        {
          "internalType": "uint256",
          "name": "_period",
          "type": "uint256"
        }
      ],
      "name": "setWithdrawLockPeriod",
      "outputs": [],
      "stateMutability": "nonpayable",
      "type": "function"
    },
    {
      "inputs": [],
      "name": "sharedBalance",
      "outputs": [
        {
          "internalType": "uint256",
          "name": "",
          "type": "uint256"
        }
      ],
      "stateMutability": "view",
      "type": "function"
    },
    {
      "inputs": [],
      "name": "sharedUsers",
      "outputs": [
        {
          "internalType": "address[]",
          "name": "",
          "type": "address[]"
        }
      ],
      "stateMutability": "view",
      "type": "function"
    },
    {
      "inputs": [
        {
          "internalType": "uint256",
          "name": "_amount",
          "type": "uint256"
        }
      ],
      "name": "stake",
      "outputs": [],
      "stateMutability": "nonpayable",
      "type": "function"
    },
    {
      "inputs": [],
      "name": "stakeAll",
      "outputs": [],
      "stateMutability": "nonpayable",
      "type": "function"
    },
    {
      "inputs": [],
      "name": "stakeLockPeriod",
      "outputs": [
        {
          "internalType": "uint256",
          "name": "",
          "type": "uint256"
        }
      ],
      "stateMutability": "view",
      "type": "function"
    },
    {
      "inputs": [],
      "name": "totalBalance",
      "outputs": [
        {
          "internalType": "uint256",
          "name": "",
          "type": "uint256"
        }
      ],
      "stateMutability": "view",
      "type": "function"
    },
    {
      "inputs": [],
      "name": "totalRewards",
      "outputs": [
        {
          "internalType": "uint256",
          "name": "",
          "type": "uint256"
        }
      ],
      "stateMutability": "view",
      "type": "function"
    },
    {
      "inputs": [],
      "name": "totalShares",
      "outputs": [
        {
          "internalType": "uint256",
          "name": "",
          "type": "uint256"
        }
      ],
      "stateMutability": "view",
      "type": "function"
    },
    {
      "inputs": [
        {
          "internalType": "uint256",
          "name": "_amount",
          "type": "uint256"
        }
      ],
      "name": "withdraw",
      "outputs": [],
      "stateMutability": "nonpayable",
      "type": "function"
    },
    {
      "inputs": [],
      "name": "withdrawAll",
      "outputs": [],
      "stateMutability": "nonpayable",
      "type": "function"
    },
    {
      "inputs": [],
      "name": "withdrawLockPeriod",
      "outputs": [
        {
          "internalType": "uint256",
          "name": "",
          "type": "uint256"
        }
      ],
      "stateMutability": "view",
      "type": "function"
    }
  ],
  "bytecode": "0x608060405269021e19e0c9bab2400000600055683635c9adc5dea0000060015562278d00600255620151806003556000600c553480156200003f57600080fd5b50604051620040493803806200404983398101604081905262000062916200009d565b600480546001600160a01b039092166001600160a01b03199283161790556005805482163390811790915560068054909216179055620000cd565b600060208284031215620000af578081fd5b81516001600160a01b0381168114620000c6578182fd5b9392505050565b613f6c80620000dd6000396000f3fe60806040523480156200001157600080fd5b5060043610620002685760003560e01c806370a08231116200014d578063b69ef8a811620000c9578063eb4af0451162000087578063eb4af04514620004b2578063f188768414620004c9578063f77c479114620004d3578063f851a44014620004dd578063fe9636d314620004e75762000268565b8063b69ef8a81462000473578063bc67f330146200047d578063bebe4da61462000494578063c1357e5c146200049e578063e97c877114620004a85762000268565b806392eefe9b116200011757806392eefe9b146200041a578063a694fc3a1462000431578063ab033ea91462000448578063ad36712e146200045f578063ad7a672f14620004695762000268565b806370a0823114620003d8578063853828b614620003ef5780638aa0c7bb14620003f95780638dcb406114620004105762000268565b8063479ba7ae11620001e95780636710837b11620001a75780636710837b146200037f5780636d7d34f314620003965780636f4a2cd014620003ad5780636f79b79914620003b7578063704b6c0214620003c15762000268565b8063479ba7ae1462000324578063499ab37e146200033b5780634e71d92d14620003455780635aa6e675146200034f578063636114c714620003685762000268565b80632e1a7d4d11620002375780632e1a7d4d14620002c95780632e3a969014620002e057806339db45f614620002f75780633a98ef3914620003105780633b49244b146200031a5762000268565b8063098a954c146200026d5780630e15561a1462000286578063238f9dfb14620002a85780632628490f14620002bf575b600080fd5b620002846200027e366004620028a5565b620004f1565b005b620002906200078d565b6040516200029f919062002e47565b60405180910390f35b62000284620002b93660046200293a565b620007ce565b620002906200082c565b62000284620002da3660046200293a565b62000832565b62000284620002f13660046200293a565b62000a13565b6200030162000a71565b6040516200029f919062002a18565b6200029062000b7b565b6200030162000b81565b620002906200033536600462002867565b62000c57565b6200029062000c79565b6200028462000c7f565b6200035962000c90565b6040516200029f91906200298a565b6200028462000379366004620028a5565b62000c9f565b6200035962000390366004620028ea565b62000e4e565b62000290620003a736600462002867565b62000fe3565b6200028462001031565b6200029062001346565b62000284620003d236600462002867565b62001359565b62000290620003e936600462002867565b620013d4565b6200028462001503565b620002846200040a3660046200293a565b62001512565b6200028462001570565b620002846200042b36600462002867565b620015fa565b62000284620004423660046200293a565b62001675565b620002846200045936600462002867565b62001974565b62000359620019ef565b62000290620019fe565b6200029062001a9c565b620002846200048e3660046200293a565b62001b24565b6200029062001ba5565b6200029062001bb3565b6200030162001bb9565b62000284620004c33660046200293a565b62001c8f565b6200029062001ced565b6200035962001cf3565b6200035962001d02565b6200029062001d11565b62000505826001600160a01b031662001d7b565b806200051b57506005546001600160a01b031633145b806200053157506007546001600160a01b031633145b620005595760405162461bcd60e51b8152600401620005509062002ceb565b60405180910390fd5b60006200056562001a9c565b90508115620005885760045462000588906001600160a01b031633308562001d81565b60006200059462001a9c565b9050620005a2818362001ddd565b6001600160a01b0386166000908152600860205260409020909350620005c9908562001e28565b50620005d760098562001e28565b506001600160a01b0385166000908152600860205260408120620005fb9062001e3f565b11156200072f576001600160a01b038516600090815260086020526040812062000626908262001e4c565b90508315620006c55760045462000649906001600160a01b031682600062001e5a565b60045462000662906001600160a01b0316828662001e5a565b60405163534a7e1d60e11b81526001600160a01b0382169063a694fc3a906200069090879060040162002e47565b600060405180830381600087803b158015620006ab57600080fd5b505af1158015620006c0573d6000803e3d6000fd5b505050505b60405163567619c560e11b81526001600160a01b0382169063acec338a90620006f49060019060040162002a67565b600060405180830381600087803b1580156200070f57600080fd5b505af115801562000724573d6000803e3d6000fd5b505050505062000786565b6001600160a01b0385166000908152600b60205260409020600281015462000758908562001f2a565b6002820155428155436001820155620007718662001f5e565b50600c5462000781908562001f2a565b600c55505b5050505050565b6000806200079a62001a9c565b90506000620007a862001d11565b9050808210620007c457620007be818362002eae565b620007c7565b60005b9250505090565b6006546001600160a01b0316331480620007f257506005546001600160a01b031633145b806200080857506007546001600160a01b031633145b620008275760405162461bcd60e51b8152600401620005509062002c25565b600055565b60035481565b60006200083f33620013d4565b116200085f5760405162461bcd60e51b8152600401620005509062002b57565b336000908152600f602052604090206002546003820154429162000884919062001f2a565b10620008a45760405162461bcd60e51b8152600401620005509062002cb4565b42620008c0600354836004015462001f2a90919063ffffffff16565b10620008e05760405162461bcd60e51b8152600401620005509062002ae9565b6000620008ed3362001f92565b336000908152600b602052604090209091506001600160a01b038216156200097757604051632e1a7d4d60e01b81526001600160a01b03831690632e1a7d4d906200093d90879060040162002e47565b600060405180830381600087803b1580156200095857600080fd5b505af11580156200096d573d6000803e3d6000fd5b5050505062000a07565b80600201548411156200098c57806002015493505b60006200099862001a9c565b905084811015620009a7578094505b600454620009c0906001600160a01b0316338762002120565b6002820154620009d1908662001ddd565b6002830155428255436001830155600c548511620009ff5784600c54620009f9919062002eae565b62000a02565b60005b600c55505b50504260049091015550565b6006546001600160a01b031633148062000a3757506005546001600160a01b031633145b8062000a4d57506007546001600160a01b031633145b62000a6c5760405162461bcd60e51b8152600401620005509062002c25565b600255565b3360009081526008602052604081206060919062000a8f9062001e3f565b67ffffffffffffffff81111562000ab657634e487b7160e01b600052604160045260246000fd5b60405190808252806020026020018201604052801562000ae0578160200160208202803683370190505b50905060005b33600090815260086020526040902062000b009062001e3f565b81101562000b755733600090815260086020526040812062000b23908362001e4c565b90508083838151811062000b4757634e487b7160e01b600052603260045260246000fd5b6001600160a01b0390921660209283029190910190910152508062000b6c8162002ef7565b91505062000ae6565b50905090565b600c5481565b6060600062000b91600d62001e3f565b67ffffffffffffffff81111562000bb857634e487b7160e01b600052604160045260246000fd5b60405190808252806020026020018201604052801562000be2578160200160208202803683370190505b50905060005b62000bf4600d62001e3f565b81101562000b755762000c09600d8262001e4c565b82828151811062000c2a57634e487b7160e01b600052603260045260246000fd5b6001600160a01b03909216602092830291909101909101528062000c4e8162002ef7565b91505062000be8565b6001600160a01b0381166000908152600f60205260409020600201545b919050565b60025481565b62000c8e6200048e3362000c57565b565b6005546001600160a01b031681565b62000cb3826001600160a01b031662001d7b565b8062000cc957506005546001600160a01b031633145b8062000cdf57506007546001600160a01b031633145b62000cfe5760405162461bcd60e51b8152600401620005509062002ceb565b6001600160a01b038316600090815260086020526040902062000d22908362001e28565b5062000d3060098362001e28565b506001600160a01b038316600090815260086020526040812062000d549062001e3f565b111562000e49576001600160a01b038316600090815260086020526040812062000d7f908262001e4c565b60405163567619c560e11b81529091506001600160a01b0382169063acec338a9062000db19060019060040162002a67565b600060405180830381600087803b15801562000dcc57600080fd5b505af115801562000de1573d6000803e3d6000fd5b5050604051632e1a7d4d60e01b81526001600160a01b0384169250632e1a7d4d915062000e1390859060040162002e47565b600060405180830381600087803b15801562000e2e57600080fd5b505af115801562000e43573d6000803e3d6000fd5b50505050505b505050565b60003362000e705760405162461bcd60e51b8152600401620005509062002d81565b6000821162000e935760405162461bcd60e51b8152600401620005509062002b80565b600454604051600091309186916001600160a01b03169062000eb59062002859565b62000ec393929190620029b8565b604051809103906000f08015801562000ee0573d6000803e3d6000fd5b509050600062000eef62001a9c565b60045490915062000f0c906001600160a01b031633308762001d81565b600062000f1862001a9c565b905062000f26818362001ddd565b60045490955062000f42906001600160a01b0316848762001e5a565b60405163534a7e1d60e11b81526001600160a01b0384169063a694fc3a9062000f7090889060040162002e47565b600060405180830381600087803b15801562000f8b57600080fd5b505af115801562000fa0573d6000803e3d6000fd5b5050506001600160a01b038716600090815260086020526040902062000fc891508462002142565b5062000fd660098462002142565b5091925050505b92915050565b60006001600160a01b0382166200100e5760405162461bcd60e51b8152600401620005509062002c45565b6001600160a01b038216600090815260086020526040902062000fdd9062001e3f565b6006546001600160a01b03163314806200105557506005546001600160a01b031633145b806200106b57506007546001600160a01b031633145b6200108a5760405162461bcd60e51b8152600401620005509062002c25565b600c54158015620010a45750620010a2600962001e3f565b155b15620010b05762000c8e565b600754604080516366666aa960e01b815290516000926001600160a01b0316916366666aa991600480830192602092919082900301818787803b158015620010f757600080fd5b505af11580156200110c573d6000803e3d6000fd5b505050506040513d601f19601f8201168201806040525081019062001132919062002886565b90506000816001600160a01b0316639994673d6040518163ffffffff1660e01b8152600401602060405180830381600087803b1580156200117257600080fd5b505af115801562001187573d6000803e3d6000fd5b505050506040513d601f19601f82011682018060405250810190620011ad919062002953565b905080156200134257600480546040516370a0823160e01b81526000926001600160a01b03909216916370a0823191620011ea913091016200298a565b60206040518083038186803b1580156200120357600080fd5b505afa15801562001218573d6000803e3d6000fd5b505050506040513d601f19601f820116820180604052508101906200123e919062002953565b9050826001600160a01b031663091dffca6040518163ffffffff1660e01b8152600401600060405180830381600087803b1580156200127c57600080fd5b505af115801562001291573d6000803e3d6000fd5b5050600480546040516370a0823160e01b8152600094506001600160a01b0390911692506370a0823191620012c9913091016200298a565b60206040518083038186803b158015620012e257600080fd5b505afa158015620012f7573d6000803e3d6000fd5b505050506040513d601f19601f820116820180604052508101906200131d919062002953565b90506200132b818362001ddd565b925082156200133f576200133f8362002159565b50505b5050565b600062001354600d62001e3f565b905090565b6006546001600160a01b03163314806200137d57506005546001600160a01b031633145b806200139357506007546001600160a01b031633145b620013b25760405162461bcd60e51b8152600401620005509062002c25565b600680546001600160a01b0319166001600160a01b0392909216919091179055565b600080620013e4600d846200235c565b156200140e5750506001600160a01b0381166000908152600b602052604090206002015462000c74565b60005b6001600160a01b0384166000908152600860205260409020620014349062001e3f565b811015620014fc576001600160a01b038416600090815260086020526040812062001460908362001e4c565b9050620014e3816001600160a01b031663b69ef8a86040518163ffffffff1660e01b815260040160206040518083038186803b158015620014a057600080fd5b505afa158015620014b5573d6000803e3d6000fd5b505050506040513d601f19601f82011682018060405250810190620014db919062002953565b849062001f2a565b9250508080620014f39062002ef7565b91505062001411565b5092915050565b62000c8e620002da33620013d4565b6006546001600160a01b03163314806200153657506005546001600160a01b031633145b806200154c57506007546001600160a01b031633145b6200156b5760405162461bcd60e51b8152600401620005509062002c25565b600355565b600480546040516370a0823160e01b815262000c8e926001600160a01b03909216916370a0823191620015a6913391016200298a565b60206040518083038186803b158015620015bf57600080fd5b505afa158015620015d4573d6000803e3d6000fd5b505050506040513d601f19601f8201168201806040525081019062000442919062002953565b6006546001600160a01b03163314806200161e57506005546001600160a01b031633145b806200163457506007546001600160a01b031633145b620016535760405162461bcd60e51b8152600401620005509062002c25565b600780546001600160a01b0319166001600160a01b0392909216919091179055565b6001548110156200169a5760405162461bcd60e51b8152600401620005509062002ba8565b6000620016a73362001f92565b336000908152600b602052604090209091506001600160a01b0382161562001792576000620016d562001a9c565b600454909150620016f2906001600160a01b031633308762001d81565b6000620016fe62001a9c565b90506200170c818362001ddd565b60045490955062001728906001600160a01b0316858762001e5a565b60405163534a7e1d60e11b81526001600160a01b0385169063a694fc3a906200175690889060040162002e47565b600060405180830381600087803b1580156200177157600080fd5b505af115801562001786573d6000803e3d6000fd5b5050505050506200193e565b6000546002820154620017a6908562001f2a565b10620018b857620017b8338462000e4e565b506000620017c63362001f92565b9050620017d262001a9c565b826002015411620017e8578160020154620017f2565b620017f262001a9c565b6004549094506200180e906001600160a01b0316828662001e5a565b60405163534a7e1d60e11b81526001600160a01b0382169063a694fc3a906200183c90879060040162002e47565b600060405180830381600087803b1580156200185757600080fd5b505af11580156200186c573d6000803e3d6000fd5b505050506200187b3362002373565b508160020154600c5410620018a4578160020154600c546200189e919062002eae565b620018a7565b60005b600c5550600060028201556200193e565b6000620018c462001a9c565b600454909150620018e1906001600160a01b031633308762001d81565b6000620018ed62001a9c565b9050620018fb818362001ddd565b60028401549095506200190f908662001f2a565b6002840155428355436001840155620019283362001f5e565b50600c5462001938908662001f2a565b600c5550505b336000908152600f6020526040902060038101546200195e574260038201555b60048101546200133f5742600482015550505050565b6006546001600160a01b03163314806200199857506005546001600160a01b031633145b80620019ae57506007546001600160a01b031633145b620019cd5760405162461bcd60e51b8152600401620005509062002c25565b600580546001600160a01b0319166001600160a01b0392909216919091179055565b6004546001600160a01b031681565b60008062001a0b62001a9c565b905060005b62001a1c600962001e3f565b81101562000b7557600062001a3360098362001e4c565b90506001600160a01b0381161562001a865762001a83816001600160a01b031663b69ef8a86040518163ffffffff1660e01b815260040160206040518083038186803b158015620014a057600080fd5b92505b508062001a938162002ef7565b91505062001a10565b600480546040516370a0823160e01b81526000926001600160a01b03909216916370a082319162001ad0913091016200298a565b60206040518083038186803b15801562001ae957600080fd5b505afa15801562001afe573d6000803e3d6000fd5b505050506040513d601f19601f8201168201806040525081019062001354919062002953565b336000908152600f602052604090206002810154156200134257818160020154101562001b5357806002015491505b8162001b5e62001a9c565b101562001b725762001b6f62001a9c565b91505b60045462001b8b906001600160a01b0316338462002120565b600281015462001b9c908362001ddd565b60028201555050565b600062001354600962001e3f565b60005481565b6060600062001bc9600962001e3f565b67ffffffffffffffff81111562001bf057634e487b7160e01b600052604160045260246000fd5b60405190808252806020026020018201604052801562001c1a578160200160208202803683370190505b50905060005b62001c2c600962001e3f565b81101562000b755762001c4160098262001e4c565b82828151811062001c6257634e487b7160e01b600052603260045260246000fd5b6001600160a01b03909216602092830291909101909101528062001c868162002ef7565b91505062001c20565b6006546001600160a01b031633148062001cb357506005546001600160a01b031633145b8062001cc957506007546001600160a01b031633145b62001ce85760405162461bcd60e51b8152600401620005509062002c25565b600155565b60015481565b6007546001600160a01b031681565b6006546001600160a01b031681565b600080805b62001d22600d62001e3f565b81101562000b755762001d64600b600062001d3f600d8562001e4c565b6001600160a01b03168152602081019190915260400160002060020154839062001f2a565b91508062001d728162002ef7565b91505062001d16565b3b151590565b6200133f846323b872dd60e01b85858560405160240162001da593929190620029db565b60408051601f198184030181529190526020810180516001600160e01b03166001600160e01b031990931692909217909152620023a8565b600062001e2183836040518060400160405280601e81526020017f536166654d6174683a207375627472616374696f6e206f766572666c6f7700008152506200243f565b9392505050565b600062001e21836001600160a01b0384166200247e565b600062000fdd82620025a7565b600062001e218383620025ab565b80158062001ee95750604051636eb1769f60e11b81526001600160a01b0384169063dd62ed3e9062001e9390309086906004016200299e565b60206040518083038186803b15801562001eac57600080fd5b505afa15801562001ec1573d6000803e3d6000fd5b505050506040513d601f19601f8201168201806040525081019062001ee7919062002953565b155b62001f085760405162461bcd60e51b8152600401620005509062002df1565b62000e498363095ea7b360e01b848460405160240162001da5929190620029ff565b60008062001f39838562002e50565b90508381101562001e215760405162461bcd60e51b8152600401620005509062002b20565b600062001f6d600d836200235c565b62001f8a5762001f7f600d8362002142565b506000905062000c74565b506001919050565b6000805b6001600160a01b038316600090815260086020526040902062001fb99062001e3f565b81101562002117576001600160a01b038316600090815260086020526040812062001fe5908362001e4c565b60005490915062001ff890600262002608565b816001600160a01b031663b69ef8a86040518163ffffffff1660e01b815260040160206040518083038186803b1580156200203257600080fd5b505afa15801562002047573d6000803e3d6000fd5b505050506040513d601f19601f820116820180604052508101906200206d919062002953565b108015620020f15750806001600160a01b03166302fb0c5e6040518163ffffffff1660e01b815260040160206040518083038186803b158015620020b057600080fd5b505afa158015620020c5573d6000803e3d6000fd5b505050506040513d601f19601f82011682018060405250810190620020eb919062002918565b15156001145b156200210157915062000c749050565b50806200210e8162002ef7565b91505062001f96565b50600092915050565b62000e498363a9059cbb60e01b848460405160240162001da5929190620029ff565b600062001e21836001600160a01b03841662002656565b600081116200217c5760405162461bcd60e51b8152600401620005509062002d4a565b6000620021a36200219b600162002194600962001e3f565b9062001f2a565b8390620026a5565b905060005b620021b4600962001e3f565b81101562002290576000620021cb60098362001e4c565b6001600160a01b0316638da5cb5b6040518163ffffffff1660e01b815260040160206040518083038186803b1580156200220457600080fd5b505afa15801562002219573d6000803e3d6000fd5b505050506040513d601f19601f820116820180604052508101906200223f919062002886565b6001600160a01b0381166000908152600f602052604090206002810154919250906200226c908562001f2a565b60028201554360018201554290555080620022878162002ef7565b915050620021a8565b5060005b620022a0600d62001e3f565b81101562000e49576000600b81620022ba600d8562001e4c565b6001600160a01b03168152602081019190915260400160009081209150600f81620022e7600d8662001e4c565b6001600160a01b03166001600160a01b0316815260200190815260200160002090506200234062002334600c546200232d8560020154886200260890919063ffffffff16565b90620026a5565b60028301549062001f2a565b6002909101555080620023538162002ef7565b91505062002294565b600062001e21836001600160a01b038416620026e9565b600062002382600d836200235c565b15620023a05762002395600d8362001e28565b506001905062000c74565b506000919050565b6000620023ff826040518060400160405280602081526020017f5361666545524332303a206c6f772d6c6576656c2063616c6c206661696c6564815250856001600160a01b0316620027019092919063ffffffff16565b80519091501562000e49578080602001905181019062002420919062002918565b62000e495760405162461bcd60e51b8152600401620005509062002da7565b60008184841115620024665760405162461bcd60e51b815260040162000550919062002a72565b50600062002475848662002eae565b95945050505050565b600081815260018301602052604081205480156200259c576000620024a560018362002eae565b8554909150600090620024bb9060019062002eae565b90506000866000018281548110620024e357634e487b7160e01b600052603260045260246000fd5b90600052602060002001549050808760000184815481106200251557634e487b7160e01b600052603260045260246000fd5b6000918252602090912001556200252e83600162002e50565b600082815260018901602052604090205586548790806200255f57634e487b7160e01b600052603160045260246000fd5b6001900381819060005260206000200160009055905586600101600087815260200190815260200160002060009055600194505050505062000fdd565b600091505062000fdd565b5490565b81546000908210620025d15760405162461bcd60e51b8152600401620005509062002aa7565b826000018281548110620025f557634e487b7160e01b600052603260045260246000fd5b9060005260206000200154905092915050565b600082620026195750600062000fdd565b600062002627838562002e8c565b90508262002636858362002e6b565b1462001e215760405162461bcd60e51b8152600401620005509062002c73565b6000620026648383620026e9565b6200269c5750815460018181018455600084815260208082209093018490558454848252828601909352604090209190915562000fdd565b50600062000fdd565b600062001e2183836040518060400160405280601a81526020017f536166654d6174683a206469766973696f6e206279207a65726f0000000000008152506200271a565b60009081526001919091016020526040902054151590565b60606200271284846000856200274d565b949350505050565b600081836200273e5760405162461bcd60e51b815260040162000550919062002a72565b50600062002475848662002e6b565b606082471015620027725760405162461bcd60e51b8152600401620005509062002bdf565b6200277d8562001d7b565b6200279c5760405162461bcd60e51b8152600401620005509062002d13565b600080866001600160a01b03168587604051620027ba91906200296c565b60006040518083038185875af1925050503d8060008114620027f9576040519150601f19603f3d011682016040523d82523d6000602084013e620027fe565b606091505b5091509150620028108282866200281b565b979650505050505050565b606083156200282c57508162001e21565b8251156200283d5782518084602001fd5b8160405162461bcd60e51b815260040162000550919062002a72565b610ff28062002f4583390190565b60006020828403121562002879578081fd5b813562001e218162002f2b565b60006020828403121562002898578081fd5b815162001e218162002f2b565b600080600060608486031215620028ba578182fd5b8335620028c78162002f2b565b92506020840135620028d98162002f2b565b929592945050506040919091013590565b60008060408385031215620028fd578182fd5b82356200290a8162002f2b565b946020939093013593505050565b6000602082840312156200292a578081fd5b8151801515811462001e21578182fd5b6000602082840312156200294c578081fd5b5035919050565b60006020828403121562002965578081fd5b5051919050565b600082516200298081846020870162002ec8565b9190910192915050565b6001600160a01b0391909116815260200190565b6001600160a01b0392831681529116602082015260400190565b6001600160a01b0393841681529183166020830152909116604082015260600190565b6001600160a01b039384168152919092166020820152604081019190915260600190565b6001600160a01b03929092168252602082015260400190565b6020808252825182820181905260009190848201906040850190845b8181101562002a5b5783516001600160a01b03168352928401929184019160010162002a34565b50909695505050505050565b901515815260200190565b600060208252825180602084015262002a9381604085016020870162002ec8565b601f01601f19169190910160400192915050565b60208082526022908201527f456e756d657261626c655365743a20696e646578206f7574206f6620626f756e604082015261647360f01b606082015260800190565b6020808252601f908201527f6e6f742061626c6520746f206e657874207769746864726177207374696c6c00604082015260600190565b6020808252601b908201527f536166654d6174683a206164646974696f6e206f766572666c6f770000000000604082015260600190565b6020808252600f908201526e696e76616c69642062616c616e636560881b604082015260600190565b6020808252600e908201526d1a5b9d985b1a5908185b5bdd5b9d60921b604082015260600190565b6020808252601b908201527f7374616b696e6720616d6f756e7420697320746f6f20736d616c6c0000000000604082015260600190565b60208082526026908201527f416464726573733a20696e73756666696369656e742062616c616e636520666f6040820152651c8818d85b1b60d21b606082015260800190565b60208082526006908201526510b0b236b4b760d11b604082015260600190565b602080825260149082015273696e76616c69642075736572206164647265737360601b604082015260600190565b60208082526021908201527f536166654d6174683a206d756c7469706c69636174696f6e206f766572666c6f6040820152607760f81b606082015260800190565b60208082526018908201527f6c6f636b656420746f207769746864726177207374696c6c0000000000000000604082015260600190565b6020808252600e908201526d10b737b2329037b91030b236b4b760911b604082015260600190565b6020808252601d908201527f416464726573733a2063616c6c20746f206e6f6e2d636f6e7472616374000000604082015260600190565b6020808252601b908201527f2176616c696420616d6f756e7420746f20646973747269627574650000000000604082015260600190565b6020808252600c908201526b34b73b30b634b2103ab9b2b960a11b604082015260600190565b6020808252602a908201527f5361666545524332303a204552433230206f7065726174696f6e20646964206e6040820152691bdd081cdd58d8d9595960b21b606082015260800190565b60208082526036908201527f5361666545524332303a20617070726f76652066726f6d206e6f6e2d7a65726f60408201527520746f206e6f6e2d7a65726f20616c6c6f77616e636560501b606082015260800190565b90815260200190565b6000821982111562002e665762002e6662002f15565b500190565b60008262002e8757634e487b7160e01b81526012600452602481fd5b500490565b600081600019048311821515161562002ea95762002ea962002f15565b500290565b60008282101562002ec35762002ec362002f15565b500390565b60005b8381101562002ee557818101518382015260200162002ecb565b838111156200133f5750506000910152565b600060001982141562002f0e5762002f0e62002f15565b5060010190565b634e487b7160e01b600052601160045260246000fd5b6001600160a01b038116811462002f4157600080fd5b5056fe60806040526000805460ff19166001908117825569021e19e0c9bab2400000905560055534801561002f57600080fd5b50604051610ff2380380610ff283398101604081905261004e916100ac565b600280546001600160a01b039485166001600160a01b0319918216179091556003805493851693821693909317909255600480549190931691161790556100ee565b80516001600160a01b03811681146100a757600080fd5b919050565b6000806000606084860312156100c0578283fd5b6100c984610090565b92506100d760208501610090565b91506100e560408501610090565b90509250925092565b610ef5806100fd6000396000f3fe608060405234801561001057600080fd5b50600436106100ea5760003560e01c806391915ef81161008c578063b69ef8a811610066578063b69ef8a81461019d578063c45a0155146101a5578063d0b06f5d146101ad578063fc0c546a146101b5576100ea565b806391915ef814610164578063a694fc3a14610177578063acec338a1461018a576100ea565b80635cfc1a51116100c85780635cfc1a5114610137578063806b984f1461013f578063853828b6146101475780638da5cb5b1461014f576100ea565b806302fb0c5e146100ef5780630b76619b1461010d5780632e1a7d4d14610122575b600080fd5b6100f76101bd565b6040516101049190610bcf565b60405180910390f35b6101156101c6565b6040516101049190610de7565b610135610130366004610b18565b6101cc565b005b61011561040c565b610115610412565b610135610418565b610157610425565b6040516101049190610b64565b610135610172366004610b18565b610434565b610135610185366004610b18565b610463565b610135610198366004610ae0565b610613565b610115610650565b6101576106d7565b6101156106e6565b6101576106ec565b60005460ff1681565b60055481565b6003546001600160a01b031632146101ff5760405162461bcd60e51b81526004016101f690610dc4565b60405180910390fd5b6000610209610650565b90506000600554831161021d57600061022b565b60055461022b9084906106fb565b9050801561029e5760025460035460405163636114c760e01b81526001600160a01b039283169263636114c79261026b9291169030908690600401610b92565b600060405180830381600087803b15801561028557600080fd5b505af1158015610299573d6000803e3d6000fd5b505050505b6102a883826106fb565b9250828210156102b6578192505b6003546004546102d3916001600160a01b03918216911685610746565b6005546102e090846106fb565b6005819055426006554360075560015411156103cc576000610300610650565b6005541161031057600554610318565b610318610650565b600254600454919250610339916001600160a01b03908116911660006107a1565b600254600454610356916001600160a01b039182169116836107a1565b6000805460ff19169055600254600354604051630262a55360e21b81526001600160a01b039283169263098a954c926103989291169030908690600401610b92565b600060405180830381600087803b1580156103b257600080fd5b505af11580156103c6573d6000803e3d6000fd5b50505050505b7f56ca301a9219608c91e7bcee90e083c19671d2cdcc96752c7af291cee5f9c8c8836005546040516103ff929190610df0565b60405180910390a1505050565b60015481565b60075481565b6104236005546101cc565b565b6003546001600160a01b031681565b6002546001600160a01b0316331461045e5760405162461bcd60e51b81526004016101f690610c8a565b600155565b600061046d610650565b60025460045491925061048e916001600160a01b0390811691163085610864565b6000610498610650565b90506104a481836106fb565b925060006104be600260015461088b90919063ffffffff16565b6005546104cb90866108d0565b116104d75760006104f8565b6104f86001546104f2866005546108d090919063ffffffff16565b906106fb565b905080156105b857600154600555600254600454610524916001600160a01b03918216911660006107a1565b600254600454610541916001600160a01b039182169116836107a1565b6000805460ff19169055600254600354604051636710837b60e01b81526001600160a01b0392831692636710837b92610581929116908590600401610bb6565b600060405180830381600087803b15801561059b57600080fd5b505af11580156105af573d6000803e3d6000fd5b505050506105c9565b6005546105c590856108d0565b6005555b42600655436007556005546040517fc9ec05ea5037818736839e1365dc3d9a74a735c447af0697da66633b7a9d0fab9161060591879190610df0565b60405180910390a150505050565b6002546001600160a01b0316331461063d5760405162461bcd60e51b81526004016101f690610c8a565b6000805460ff1916911515919091179055565b600480546040516370a0823160e01b81526000926001600160a01b03909216916370a082319161068291309101610b64565b60206040518083038186803b15801561069a57600080fd5b505afa1580156106ae573d6000803e3d6000fd5b505050506040513d601f19601f820116820180604052508101906106d29190610b30565b905090565b6002546001600160a01b031681565b60065481565b6004546001600160a01b031681565b600061073d83836040518060400160405280601e81526020017f536166654d6174683a207375627472616374696f6e206f766572666c6f7700008152506108ff565b90505b92915050565b61079c8363a9059cbb60e01b8484604051602401610765929190610bb6565b60408051601f198184030181529190526020810180516001600160e01b03166001600160e01b03199093169290921790915261093b565b505050565b8015806108295750604051636eb1769f60e11b81526001600160a01b0384169063dd62ed3e906107d79030908690600401610b78565b60206040518083038186803b1580156107ef57600080fd5b505afa158015610803573d6000803e3d6000fd5b505050506040513d601f19601f820116820180604052508101906108279190610b30565b155b6108455760405162461bcd60e51b81526004016101f690610d6e565b61079c8363095ea7b360e01b8484604051602401610765929190610bb6565b610885846323b872dd60e01b85858560405160240161076593929190610b92565b50505050565b60008261089a57506000610740565b60006108a68385610e36565b9050826108b38583610e16565b1461073d5760405162461bcd60e51b81526004016101f690610cac565b6000806108dd8385610dfe565b90508381101561073d5760405162461bcd60e51b81526004016101f690610c0d565b600081848411156109235760405162461bcd60e51b81526004016101f69190610bda565b5060006109308486610e55565b9150505b9392505050565b6000610990826040518060400160405280602081526020017f5361666545524332303a206c6f772d6c6576656c2063616c6c206661696c6564815250856001600160a01b03166109ca9092919063ffffffff16565b80519091501561079c57808060200190518101906109ae9190610afc565b61079c5760405162461bcd60e51b81526004016101f690610d24565b60606109d984846000856109e1565b949350505050565b606082471015610a035760405162461bcd60e51b81526004016101f690610c44565b610a0c85610aa1565b610a285760405162461bcd60e51b81526004016101f690610ced565b600080866001600160a01b03168587604051610a449190610b48565b60006040518083038185875af1925050503d8060008114610a81576040519150601f19603f3d011682016040523d82523d6000602084013e610a86565b606091505b5091509150610a96828286610aa7565b979650505050505050565b3b151590565b60608315610ab6575081610934565b825115610ac65782518084602001fd5b8160405162461bcd60e51b81526004016101f69190610bda565b600060208284031215610af1578081fd5b813561073d81610eae565b600060208284031215610b0d578081fd5b815161073d81610eae565b600060208284031215610b29578081fd5b5035919050565b600060208284031215610b41578081fd5b5051919050565b60008251610b5a818460208701610e6c565b9190910192915050565b6001600160a01b0391909116815260200190565b6001600160a01b0392831681529116602082015260400190565b6001600160a01b039384168152919092166020820152604081019190915260600190565b6001600160a01b03929092168252602082015260400190565b901515815260200190565b6000602082528251806020840152610bf9816040850160208701610e6c565b601f01601f19169190910160400192915050565b6020808252601b908201527f536166654d6174683a206164646974696f6e206f766572666c6f770000000000604082015260600190565b60208082526026908201527f416464726573733a20696e73756666696369656e742062616c616e636520666f6040820152651c8818d85b1b60d21b606082015260800190565b60208082526008908201526721666163746f727960c01b604082015260600190565b60208082526021908201527f536166654d6174683a206d756c7469706c69636174696f6e206f766572666c6f6040820152607760f81b606082015260800190565b6020808252601d908201527f416464726573733a2063616c6c20746f206e6f6e2d636f6e7472616374000000604082015260600190565b6020808252602a908201527f5361666545524332303a204552433230206f7065726174696f6e20646964206e6040820152691bdd081cdd58d8d9595960b21b606082015260800190565b60208082526036908201527f5361666545524332303a20617070726f76652066726f6d206e6f6e2d7a65726f60408201527520746f206e6f6e2d7a65726f20616c6c6f77616e636560501b606082015260800190565b6020808252600990820152683737ba1037bbb732b960b91b604082015260600190565b90815260200190565b918252602082015260400190565b60008219821115610e1157610e11610e98565b500190565b600082610e3157634e487b7160e01b81526012600452602481fd5b500490565b6000816000190483118215151615610e5057610e50610e98565b500290565b600082821015610e6757610e67610e98565b500390565b60005b83811015610e87578181015183820152602001610e6f565b838111156108855750506000910152565b634e487b7160e01b600052601160045260246000fd5b8015158114610ebc57600080fd5b5056fea26469706673582212201440a760a4ade03c6a113588343107263bcee041f93bc8f737ed6aa83b37768464736f6c63430008010033a26469706673582212209a190c543dba677ab0d620f1f0857c992c661cefeeb58f1e4e5df1249a8d2d7b64736f6c63430008010033",
  "linkReferences": {},
  "deployedLinkReferences": {}
}