{
  "_format": "hh-sol-artifact-1",
  "contractName": "Vault",
  "sourceName": "contracts/Vault.sol",
  "abi": [
    {
      "inputs": [
        {
          "internalType": "address",
          "name": "_ptm",
          "type": "address"
        }
      ],
      "stateMutability": "nonpayable",
      "type": "constructor"
    },
    {
      "inputs": [],
      "name": "admin",
      "outputs": [
        {
          "internalType": "address",
          "name": "",
          "type": "address"
        }
      ],
      "stateMutability": "view",
      "type": "function"
    },
    {
      "inputs": [],
      "name": "balance",
      "outputs": [
        {
          "internalType": "uint256",
          "name": "",
          "type": "uint256"
        }
      ],
      "stateMutability": "view",
      "type": "function"
    },
    {
      "inputs": [
        {
          "internalType": "address",
          "name": "_user",
          "type": "address"
        }
      ],
      "name": "balanceOf",
      "outputs": [
        {
          "internalType": "uint256",
          "name": "",
          "type": "uint256"
        }
      ],
      "stateMutability": "view",
      "type": "function"
    },
    {
      "inputs": [],
      "name": "claim",
      "outputs": [],
      "stateMutability": "nonpayable",
      "type": "function"
    },
    {
      "inputs": [
        {
          "internalType": "uint256",
          "name": "_amount",
          "type": "uint256"
        }
      ],
      "name": "claimSome",
      "outputs": [],
      "stateMutability": "nonpayable",
      "type": "function"
    },
    {
      "inputs": [],
      "name": "controller",
      "outputs": [
        {
          "internalType": "address",
          "name": "",
          "type": "address"
        }
      ],
      "stateMutability": "view",
      "type": "function"
    },
    {
      "inputs": [
        {
          "internalType": "address",
          "name": "_user",
          "type": "address"
        }
      ],
      "name": "countNodes",
      "outputs": [
        {
          "internalType": "uint256",
          "name": "",
          "type": "uint256"
        }
      ],
      "stateMutability": "view",
      "type": "function"
    },
    {
      "inputs": [],
      "name": "countNodesAll",
      "outputs": [
        {
          "internalType": "uint256",
          "name": "",
          "type": "uint256"
        }
      ],
      "stateMutability": "view",
      "type": "function"
    },
    {
      "inputs": [],
      "name": "countSharedUsers",
      "outputs": [
        {
          "internalType": "uint256",
          "name": "",
          "type": "uint256"
        }
      ],
      "stateMutability": "view",
      "type": "function"
    },
    {
      "inputs": [
        {
          "internalType": "address",
          "name": "_user",
          "type": "address"
        },
        {
          "internalType": "uint256",
          "name": "_amount",
          "type": "uint256"
        }
      ],
      "name": "createNode",
      "outputs": [
        {
          "internalType": "address",
          "name": "",
          "type": "address"
        }
      ],
      "stateMutability": "nonpayable",
      "type": "function"
    },
    {
      "inputs": [],
      "name": "distributeRewards",
      "outputs": [],
      "stateMutability": "nonpayable",
      "type": "function"
    },
    {
      "inputs": [],
      "name": "governance",
      "outputs": [
        {
          "internalType": "address",
          "name": "",
          "type": "address"
        }
      ],
      "stateMutability": "view",
      "type": "function"
    },
    {
      "inputs": [
        {
          "internalType": "address",
          "name": "_user",
          "type": "address"
        },
        {
          "internalType": "address",
          "name": "_node",
          "type": "address"
        },
        {
          "internalType": "uint256",
          "name": "_amount",
          "type": "uint256"
        }
      ],
      "name": "mergeNode",
      "outputs": [],
      "stateMutability": "nonpayable",
      "type": "function"
    },
    {
      "inputs": [],
      "name": "minStakeAmount",
      "outputs": [
        {
          "internalType": "uint256",
          "name": "",
          "type": "uint256"
        }
      ],
      "stateMutability": "view",
      "type": "function"
    },
    {
      "inputs": [],
      "name": "nodeCapacity",
      "outputs": [
        {
          "internalType": "uint256",
          "name": "",
          "type": "uint256"
        }
      ],
      "stateMutability": "view",
      "type": "function"
    },
    {
      "inputs": [],
      "name": "nodeList",
      "outputs": [
        {
          "internalType": "address[]",
          "name": "",
          "type": "address[]"
        }
      ],
      "stateMutability": "view",
      "type": "function"
    },
    {
      "inputs": [],
      "name": "nodeListAll",
      "outputs": [
        {
          "internalType": "address[]",
          "name": "",
          "type": "address[]"
        }
      ],
      "stateMutability": "view",
      "type": "function"
    },
    {
      "inputs": [],
      "name": "ptm",
      "outputs": [
        {
          "internalType": "address",
          "name": "",
          "type": "address"
        }
      ],
      "stateMutability": "view",
      "type": "function"
    },
    {
      "inputs": [
        {
          "internalType": "address",
          "name": "_user",
          "type": "address"
        },
        {
          "internalType": "address",
          "name": "_node",
          "type": "address"
        },
        {
          "internalType": "uint256",
          "name": "_amount",
          "type": "uint256"
        }
      ],
      "name": "removeNode",
      "outputs": [],
      "stateMutability": "nonpayable",
      "type": "function"
    },
    {
      "inputs": [
        {
          "internalType": "address",
          "name": "_user",
          "type": "address"
        }
      ],
      "name": "rewardsOf",
      "outputs": [
        {
          "internalType": "uint256",
          "name": "",
          "type": "uint256"
        }
      ],
      "stateMutability": "view",
      "type": "function"
    },
    {
      "inputs": [
        {
          "internalType": "address",
          "name": "_admin",
          "type": "address"
        }
      ],
      "name": "setAdmin",
      "outputs": [],
      "stateMutability": "nonpayable",
      "type": "function"
    },
    {
      "inputs": [
        {
          "internalType": "address",
          "name": "_controller",
          "type": "address"
        }
      ],
      "name": "setController",
      "outputs": [],
      "stateMutability": "nonpayable",
      "type": "function"
    },
    {
      "inputs": [
        {
          "internalType": "address",
          "name": "_governance",
          "type": "address"
        }
      ],
      "name": "setGovernance",
      "outputs": [],
      "stateMutability": "nonpayable",
      "type": "function"
    },
    {
      "inputs": [
        {
          "internalType": "uint256",
          "name": "_amount",
          "type": "uint256"
        }
      ],
      "name": "setMinStakeAmount",
      "outputs": [],
      "stateMutability": "nonpayable",
      "type": "function"
    },
    {
      "inputs": [
        {
          "internalType": "uint256",
          "name": "_capacity",
          "type": "uint256"
        }
      ],
      "name": "setNodeCapacity",
      "outputs": [],
      "stateMutability": "nonpayable",
      "type": "function"
    },
    {
      "inputs": [
        {
          "internalType": "uint256",
          "name": "_period",
          "type": "uint256"
        }
      ],
      "name": "setStakeLockPeriod",
      "outputs": [],
      "stateMutability": "nonpayable",
      "type": "function"
    },
    {
      "inputs": [
        {
          "internalType": "uint256",
          "name": "_period",
          "type": "uint256"
        }
      ],
      "name": "setWithdrawLockPeriod",
      "outputs": [],
      "stateMutability": "nonpayable",
      "type": "function"
    },
    {
      "inputs": [],
      "name": "sharedBalance",
      "outputs": [
        {
          "internalType": "uint256",
          "name": "",
          "type": "uint256"
        }
      ],
      "stateMutability": "view",
      "type": "function"
    },
    {
      "inputs": [],
      "name": "sharedUsers",
      "outputs": [
        {
          "internalType": "address[]",
          "name": "",
          "type": "address[]"
        }
      ],
      "stateMutability": "view",
      "type": "function"
    },
    {
      "inputs": [
        {
          "internalType": "uint256",
          "name": "_amount",
          "type": "uint256"
        }
      ],
      "name": "stake",
      "outputs": [],
      "stateMutability": "nonpayable",
      "type": "function"
    },
    {
      "inputs": [],
      "name": "stakeAll",
      "outputs": [],
      "stateMutability": "nonpayable",
      "type": "function"
    },
    {
      "inputs": [],
      "name": "stakeLockPeriod",
      "outputs": [
        {
          "internalType": "uint256",
          "name": "",
          "type": "uint256"
        }
      ],
      "stateMutability": "view",
      "type": "function"
    },
    {
      "inputs": [],
      "name": "totalBalance",
      "outputs": [
        {
          "internalType": "uint256",
          "name": "",
          "type": "uint256"
        }
      ],
      "stateMutability": "view",
      "type": "function"
    },
    {
      "inputs": [],
      "name": "totalRewards",
      "outputs": [
        {
          "internalType": "uint256",
          "name": "",
          "type": "uint256"
        }
      ],
      "stateMutability": "view",
      "type": "function"
    },
    {
      "inputs": [],
      "name": "totalShares",
      "outputs": [
        {
          "internalType": "uint256",
          "name": "",
          "type": "uint256"
        }
      ],
      "stateMutability": "view",
      "type": "function"
    },
    {
      "inputs": [
        {
          "internalType": "uint256",
          "name": "_amount",
          "type": "uint256"
        }
      ],
      "name": "withdraw",
      "outputs": [],
      "stateMutability": "nonpayable",
      "type": "function"
    },
    {
      "inputs": [],
      "name": "withdrawAll",
      "outputs": [],
      "stateMutability": "nonpayable",
      "type": "function"
    },
    {
      "inputs": [],
      "name": "withdrawLockPeriod",
      "outputs": [
        {
          "internalType": "uint256",
          "name": "",
          "type": "uint256"
        }
      ],
      "stateMutability": "view",
      "type": "function"
    }
  ],
  "bytecode": "0x608060405269021e19e0c9bab2400000600055683635c9adc5dea0000060015562278d00600255620151806003556000600c553480156200003f57600080fd5b5060405162003fe538038062003fe583398101604081905262000062916200009d565b600480546001600160a01b039092166001600160a01b03199283161790556005805482163390811790915560068054909216179055620000cd565b600060208284031215620000af578081fd5b81516001600160a01b0381168114620000c6578182fd5b9392505050565b613f0880620000dd6000396000f3fe60806040523480156200001157600080fd5b5060043610620002685760003560e01c806370a08231116200014d578063b69ef8a811620000c9578063eb4af0451162000087578063eb4af04514620004b2578063f188768414620004c9578063f77c479114620004d3578063f851a44014620004dd578063fe9636d314620004e75762000268565b8063b69ef8a81462000473578063bc67f330146200047d578063bebe4da61462000494578063c1357e5c146200049e578063e97c877114620004a85762000268565b806392eefe9b116200011757806392eefe9b146200041a578063a694fc3a1462000431578063ab033ea91462000448578063ad36712e146200045f578063ad7a672f14620004695762000268565b806370a0823114620003d8578063853828b614620003ef5780638aa0c7bb14620003f95780638dcb406114620004105762000268565b8063479ba7ae11620001e95780636710837b11620001a75780636710837b146200037f5780636d7d34f314620003965780636f4a2cd014620003ad5780636f79b79914620003b7578063704b6c0214620003c15762000268565b8063479ba7ae1462000324578063499ab37e146200033b5780634e71d92d14620003455780635aa6e675146200034f578063636114c714620003685762000268565b80632e1a7d4d11620002375780632e1a7d4d14620002c95780632e3a969014620002e057806339db45f614620002f75780633a98ef3914620003105780633b49244b146200031a5762000268565b8063098a954c146200026d5780630e15561a1462000286578063238f9dfb14620002a85780632628490f14620002bf575b600080fd5b620002846200027e36600462002841565b620004f1565b005b620002906200078d565b6040516200029f919062002de3565b60405180910390f35b62000284620002b9366004620028d6565b620007ce565b620002906200082c565b62000284620002da366004620028d6565b62000832565b62000284620002f1366004620028d6565b620009ed565b6200030162000a4b565b6040516200029f9190620029b4565b6200029062000b55565b6200030162000b5b565b620002906200033536600462002803565b62000c31565b6200029062000c53565b6200028462000c59565b6200035962000c6a565b6040516200029f919062002926565b620002846200037936600462002841565b62000c79565b620003596200039036600462002886565b62000e28565b62000290620003a736600462002803565b62000fbd565b620002846200100b565b62000290620012fa565b62000284620003d236600462002803565b6200130d565b62000290620003e936600462002803565b62001388565b62000284620014b7565b620002846200040a366004620028d6565b620014c6565b6200028462001524565b620002846200042b36600462002803565b620015ae565b6200028462000442366004620028d6565b62001629565b620002846200045936600462002803565b62001910565b620003596200198b565b620002906200199a565b6200029062001a38565b620002846200048e366004620028d6565b62001ac0565b6200029062001b41565b6200029062001b4f565b6200030162001b55565b62000284620004c3366004620028d6565b62001c2b565b6200029062001c89565b6200035962001c8f565b6200035962001c9e565b6200029062001cad565b62000505826001600160a01b031662001d17565b806200051b57506005546001600160a01b031633145b806200053157506007546001600160a01b031633145b620005595760405162461bcd60e51b8152600401620005509062002c87565b60405180910390fd5b60006200056562001a38565b90508115620005885760045462000588906001600160a01b031633308562001d1d565b60006200059462001a38565b9050620005a2818362001d79565b6001600160a01b0386166000908152600860205260409020909350620005c9908562001dc4565b50620005d760098562001dc4565b506001600160a01b0385166000908152600860205260408120620005fb9062001ddb565b11156200072f576001600160a01b038516600090815260086020526040812062000626908262001de8565b90508315620006c55760045462000649906001600160a01b031682600062001df6565b60045462000662906001600160a01b0316828662001df6565b60405163534a7e1d60e11b81526001600160a01b0382169063a694fc3a906200069090879060040162002de3565b600060405180830381600087803b158015620006ab57600080fd5b505af1158015620006c0573d6000803e3d6000fd5b505050505b60405163567619c560e11b81526001600160a01b0382169063acec338a90620006f49060019060040162002a03565b600060405180830381600087803b1580156200070f57600080fd5b505af115801562000724573d6000803e3d6000fd5b505050505062000786565b6001600160a01b0385166000908152600b60205260409020600281015462000758908562001ec6565b6002820155428155436001820155620007718662001efa565b50600c5462000781908562001ec6565b600c55505b5050505050565b6000806200079a62001a38565b90506000620007a862001cad565b9050808210620007c457620007be818362002e4a565b620007c7565b60005b9250505090565b6006546001600160a01b0316331480620007f257506005546001600160a01b031633145b806200080857506007546001600160a01b031633145b620008275760405162461bcd60e51b8152600401620005509062002bc1565b600055565b60035481565b60006200083f3362001388565b116200085f5760405162461bcd60e51b8152600401620005509062002af3565b336000908152600f602052604090206002546003820154429162000884919062001ec6565b10620008a45760405162461bcd60e51b8152600401620005509062002c50565b42620008c0600354836004015462001ec690919063ffffffff16565b10620008e05760405162461bcd60e51b8152600401620005509062002a85565b6000620008ed3362001f2e565b336000908152600b602052604090209091506001600160a01b038216156200097757604051632e1a7d4d60e01b81526001600160a01b03831690632e1a7d4d906200093d90879060040162002de3565b600060405180830381600087803b1580156200095857600080fd5b505af11580156200096d573d6000803e3d6000fd5b50505050620009e1565b80600201548411156200098c57806002015493505b60006200099862001a38565b905084811015620009a7578094505b600454620009c0906001600160a01b03163387620020bc565b6002820154620009d1908662001d79565b6002830155504281554360018201555b50504260049091015550565b6006546001600160a01b031633148062000a1157506005546001600160a01b031633145b8062000a2757506007546001600160a01b031633145b62000a465760405162461bcd60e51b8152600401620005509062002bc1565b600255565b3360009081526008602052604081206060919062000a699062001ddb565b67ffffffffffffffff81111562000a9057634e487b7160e01b600052604160045260246000fd5b60405190808252806020026020018201604052801562000aba578160200160208202803683370190505b50905060005b33600090815260086020526040902062000ada9062001ddb565b81101562000b4f5733600090815260086020526040812062000afd908362001de8565b90508083838151811062000b2157634e487b7160e01b600052603260045260246000fd5b6001600160a01b0390921660209283029190910190910152508062000b468162002e93565b91505062000ac0565b50905090565b600c5481565b6060600062000b6b600d62001ddb565b67ffffffffffffffff81111562000b9257634e487b7160e01b600052604160045260246000fd5b60405190808252806020026020018201604052801562000bbc578160200160208202803683370190505b50905060005b62000bce600d62001ddb565b81101562000b4f5762000be3600d8262001de8565b82828151811062000c0457634e487b7160e01b600052603260045260246000fd5b6001600160a01b03909216602092830291909101909101528062000c288162002e93565b91505062000bc2565b6001600160a01b0381166000908152600f60205260409020600201545b919050565b60025481565b62000c686200048e3362000c31565b565b6005546001600160a01b031681565b62000c8d826001600160a01b031662001d17565b8062000ca357506005546001600160a01b031633145b8062000cb957506007546001600160a01b031633145b62000cd85760405162461bcd60e51b8152600401620005509062002c87565b6001600160a01b038316600090815260086020526040902062000cfc908362001dc4565b5062000d0a60098362001dc4565b506001600160a01b038316600090815260086020526040812062000d2e9062001ddb565b111562000e23576001600160a01b038316600090815260086020526040812062000d59908262001de8565b60405163567619c560e11b81529091506001600160a01b0382169063acec338a9062000d8b9060019060040162002a03565b600060405180830381600087803b15801562000da657600080fd5b505af115801562000dbb573d6000803e3d6000fd5b5050604051632e1a7d4d60e01b81526001600160a01b0384169250632e1a7d4d915062000ded90859060040162002de3565b600060405180830381600087803b15801562000e0857600080fd5b505af115801562000e1d573d6000803e3d6000fd5b50505050505b505050565b60003362000e4a5760405162461bcd60e51b8152600401620005509062002d1d565b6000821162000e6d5760405162461bcd60e51b8152600401620005509062002b1c565b600454604051600091309186916001600160a01b03169062000e8f90620027f5565b62000e9d9392919062002954565b604051809103906000f08015801562000eba573d6000803e3d6000fd5b509050600062000ec962001a38565b60045490915062000ee6906001600160a01b031633308762001d1d565b600062000ef262001a38565b905062000f00818362001d79565b60045490955062000f1c906001600160a01b0316848762001df6565b60405163534a7e1d60e11b81526001600160a01b0384169063a694fc3a9062000f4a90889060040162002de3565b600060405180830381600087803b15801562000f6557600080fd5b505af115801562000f7a573d6000803e3d6000fd5b5050506001600160a01b038716600090815260086020526040902062000fa2915084620020de565b5062000fb0600984620020de565b5091925050505b92915050565b60006001600160a01b03821662000fe85760405162461bcd60e51b8152600401620005509062002be1565b6001600160a01b038216600090815260086020526040902062000fb79062001ddb565b6006546001600160a01b03163314806200102f57506005546001600160a01b031633145b806200104557506007546001600160a01b031633145b620010645760405162461bcd60e51b8152600401620005509062002bc1565b600754604080516366666aa960e01b815290516000926001600160a01b0316916366666aa991600480830192602092919082900301818787803b158015620010ab57600080fd5b505af1158015620010c0573d6000803e3d6000fd5b505050506040513d601f19601f82011682018060405250810190620010e6919062002822565b90506000816001600160a01b0316639994673d6040518163ffffffff1660e01b8152600401602060405180830381600087803b1580156200112657600080fd5b505af11580156200113b573d6000803e3d6000fd5b505050506040513d601f19601f82011682018060405250810190620011619190620028ef565b90508015620012f657600480546040516370a0823160e01b81526000926001600160a01b03909216916370a08231916200119e9130910162002926565b60206040518083038186803b158015620011b757600080fd5b505afa158015620011cc573d6000803e3d6000fd5b505050506040513d601f19601f82011682018060405250810190620011f29190620028ef565b9050826001600160a01b031663091dffca6040518163ffffffff1660e01b8152600401600060405180830381600087803b1580156200123057600080fd5b505af115801562001245573d6000803e3d6000fd5b5050600480546040516370a0823160e01b8152600094506001600160a01b0390911692506370a08231916200127d9130910162002926565b60206040518083038186803b1580156200129657600080fd5b505afa158015620012ab573d6000803e3d6000fd5b505050506040513d601f19601f82011682018060405250810190620012d19190620028ef565b9050620012df818362001d79565b92508215620012f357620012f383620020f5565b50505b5050565b600062001308600d62001ddb565b905090565b6006546001600160a01b03163314806200133157506005546001600160a01b031633145b806200134757506007546001600160a01b031633145b620013665760405162461bcd60e51b8152600401620005509062002bc1565b600680546001600160a01b0319166001600160a01b0392909216919091179055565b60008062001398600d84620022f8565b15620013c25750506001600160a01b0381166000908152600b602052604090206002015462000c4e565b60005b6001600160a01b0384166000908152600860205260409020620013e89062001ddb565b811015620014b0576001600160a01b038416600090815260086020526040812062001414908362001de8565b905062001497816001600160a01b031663b69ef8a86040518163ffffffff1660e01b815260040160206040518083038186803b1580156200145457600080fd5b505afa15801562001469573d6000803e3d6000fd5b505050506040513d601f19601f820116820180604052508101906200148f9190620028ef565b849062001ec6565b9250508080620014a79062002e93565b915050620013c5565b5092915050565b62000c68620002da3362001388565b6006546001600160a01b0316331480620014ea57506005546001600160a01b031633145b806200150057506007546001600160a01b031633145b6200151f5760405162461bcd60e51b8152600401620005509062002bc1565b600355565b600480546040516370a0823160e01b815262000c68926001600160a01b03909216916370a08231916200155a9133910162002926565b60206040518083038186803b1580156200157357600080fd5b505afa15801562001588573d6000803e3d6000fd5b505050506040513d601f19601f82011682018060405250810190620004429190620028ef565b6006546001600160a01b0316331480620015d257506005546001600160a01b031633145b80620015e857506007546001600160a01b031633145b620016075760405162461bcd60e51b8152600401620005509062002bc1565b600780546001600160a01b0319166001600160a01b0392909216919091179055565b6001548110156200164e5760405162461bcd60e51b8152600401620005509062002b44565b60006200165b3362001f2e565b336000908152600b602052604090209091506001600160a01b03821615620017465760006200168962001a38565b600454909150620016a6906001600160a01b031633308762001d1d565b6000620016b262001a38565b9050620016c0818362001d79565b600454909550620016dc906001600160a01b0316858762001df6565b60405163534a7e1d60e11b81526001600160a01b0385169063a694fc3a906200170a90889060040162002de3565b600060405180830381600087803b1580156200172557600080fd5b505af11580156200173a573d6000803e3d6000fd5b505050505050620018da565b60005460028201546200175a908562001ec6565b1062001854576200176c338462000e28565b5060006200177a3362001f2e565b90506200178662001a38565b8260020154116200179c578160020154620017a6565b620017a662001a38565b600454909450620017c2906001600160a01b0316828662001df6565b60405163534a7e1d60e11b81526001600160a01b0382169063a694fc3a90620017f090879060040162002de3565b600060405180830381600087803b1580156200180b57600080fd5b505af115801562001820573d6000803e3d6000fd5b505050506200182f336200230f565b506002820154600c54620018439162001d79565b600c555060006002820155620018da565b60006200186062001a38565b6004549091506200187d906001600160a01b031633308762001d1d565b60006200188962001a38565b905062001897818362001d79565b6002840154909550620018ab908662001ec6565b6002840155428355436001840155620018c43362001efa565b50600c54620018d4908662001ec6565b600c5550505b336000908152600f602052604090206003810154620018fa574260038201555b6004810154620012f35742600482015550505050565b6006546001600160a01b03163314806200193457506005546001600160a01b031633145b806200194a57506007546001600160a01b031633145b620019695760405162461bcd60e51b8152600401620005509062002bc1565b600580546001600160a01b0319166001600160a01b0392909216919091179055565b6004546001600160a01b031681565b600080620019a762001a38565b905060005b620019b8600962001ddb565b81101562000b4f576000620019cf60098362001de8565b90506001600160a01b0381161562001a225762001a1f816001600160a01b031663b69ef8a86040518163ffffffff1660e01b815260040160206040518083038186803b1580156200145457600080fd5b92505b508062001a2f8162002e93565b915050620019ac565b600480546040516370a0823160e01b81526000926001600160a01b03909216916370a082319162001a6c9130910162002926565b60206040518083038186803b15801562001a8557600080fd5b505afa15801562001a9a573d6000803e3d6000fd5b505050506040513d601f19601f82011682018060405250810190620013089190620028ef565b336000908152600f60205260409020600281015415620012f657818160020154101562001aef57806002015491505b8162001afa62001a38565b101562001b0e5762001b0b62001a38565b91505b60045462001b27906001600160a01b03163384620020bc565b600281015462001b38908362001d79565b60028201555050565b600062001308600962001ddb565b60005481565b6060600062001b65600962001ddb565b67ffffffffffffffff81111562001b8c57634e487b7160e01b600052604160045260246000fd5b60405190808252806020026020018201604052801562001bb6578160200160208202803683370190505b50905060005b62001bc8600962001ddb565b81101562000b4f5762001bdd60098262001de8565b82828151811062001bfe57634e487b7160e01b600052603260045260246000fd5b6001600160a01b03909216602092830291909101909101528062001c228162002e93565b91505062001bbc565b6006546001600160a01b031633148062001c4f57506005546001600160a01b031633145b8062001c6557506007546001600160a01b031633145b62001c845760405162461bcd60e51b8152600401620005509062002bc1565b600155565b60015481565b6007546001600160a01b031681565b6006546001600160a01b031681565b600080805b62001cbe600d62001ddb565b81101562000b4f5762001d00600b600062001cdb600d8562001de8565b6001600160a01b03168152602081019190915260400160002060020154839062001ec6565b91508062001d0e8162002e93565b91505062001cb2565b3b151590565b620012f3846323b872dd60e01b85858560405160240162001d419392919062002977565b60408051601f198184030181529190526020810180516001600160e01b03166001600160e01b03199093169290921790915262002344565b600062001dbd83836040518060400160405280601e81526020017f536166654d6174683a207375627472616374696f6e206f766572666c6f770000815250620023db565b9392505050565b600062001dbd836001600160a01b0384166200241a565b600062000fb78262002543565b600062001dbd838362002547565b80158062001e855750604051636eb1769f60e11b81526001600160a01b0384169063dd62ed3e9062001e2f90309086906004016200293a565b60206040518083038186803b15801562001e4857600080fd5b505afa15801562001e5d573d6000803e3d6000fd5b505050506040513d601f19601f8201168201806040525081019062001e839190620028ef565b155b62001ea45760405162461bcd60e51b8152600401620005509062002d8d565b62000e238363095ea7b360e01b848460405160240162001d419291906200299b565b60008062001ed5838562002dec565b90508381101562001dbd5760405162461bcd60e51b8152600401620005509062002abc565b600062001f09600d83620022f8565b62001f265762001f1b600d83620020de565b506000905062000c4e565b506001919050565b6000805b6001600160a01b038316600090815260086020526040902062001f559062001ddb565b811015620020b3576001600160a01b038316600090815260086020526040812062001f81908362001de8565b60005490915062001f94906002620025a4565b816001600160a01b031663b69ef8a86040518163ffffffff1660e01b815260040160206040518083038186803b15801562001fce57600080fd5b505afa15801562001fe3573d6000803e3d6000fd5b505050506040513d601f19601f82011682018060405250810190620020099190620028ef565b1080156200208d5750806001600160a01b03166302fb0c5e6040518163ffffffff1660e01b815260040160206040518083038186803b1580156200204c57600080fd5b505afa15801562002061573d6000803e3d6000fd5b505050506040513d601f19601f82011682018060405250810190620020879190620028b4565b15156001145b156200209d57915062000c4e9050565b5080620020aa8162002e93565b91505062001f32565b50600092915050565b62000e238363a9059cbb60e01b848460405160240162001d419291906200299b565b600062001dbd836001600160a01b038416620025f2565b60008111620021185760405162461bcd60e51b8152600401620005509062002ce6565b60006200213f62002137600162002130600962001ddb565b9062001ec6565b839062002641565b905060005b62002150600962001ddb565b8110156200222c5760006200216760098362001de8565b6001600160a01b0316638da5cb5b6040518163ffffffff1660e01b815260040160206040518083038186803b158015620021a057600080fd5b505afa158015620021b5573d6000803e3d6000fd5b505050506040513d601f19601f82011682018060405250810190620021db919062002822565b6001600160a01b0381166000908152600f6020526040902060028101549192509062002208908562001ec6565b60028201554360018201554290555080620022238162002e93565b91505062002144565b5060005b6200223c600d62001ddb565b81101562000e23576000600b8162002256600d8562001de8565b6001600160a01b03168152602081019190915260400160009081209150600f8162002283600d8662001de8565b6001600160a01b03166001600160a01b031681526020019081526020016000209050620022dc620022d0600c54620022c9856002015488620025a490919063ffffffff16565b9062002641565b60028301549062001ec6565b6002909101555080620022ef8162002e93565b91505062002230565b600062001dbd836001600160a01b03841662002685565b60006200231e600d83620022f8565b156200233c5762002331600d8362001dc4565b506001905062000c4e565b506000919050565b60006200239b826040518060400160405280602081526020017f5361666545524332303a206c6f772d6c6576656c2063616c6c206661696c6564815250856001600160a01b03166200269d9092919063ffffffff16565b80519091501562000e235780806020019051810190620023bc9190620028b4565b62000e235760405162461bcd60e51b8152600401620005509062002d43565b60008184841115620024025760405162461bcd60e51b815260040162000550919062002a0e565b50600062002411848662002e4a565b95945050505050565b60008181526001830160205260408120548015620025385760006200244160018362002e4a565b8554909150600090620024579060019062002e4a565b905060008660000182815481106200247f57634e487b7160e01b600052603260045260246000fd5b9060005260206000200154905080876000018481548110620024b157634e487b7160e01b600052603260045260246000fd5b600091825260209091200155620024ca83600162002dec565b60008281526001890160205260409020558654879080620024fb57634e487b7160e01b600052603160045260246000fd5b6001900381819060005260206000200160009055905586600101600087815260200190815260200160002060009055600194505050505062000fb7565b600091505062000fb7565b5490565b815460009082106200256d5760405162461bcd60e51b8152600401620005509062002a43565b8260000182815481106200259157634e487b7160e01b600052603260045260246000fd5b9060005260206000200154905092915050565b600082620025b55750600062000fb7565b6000620025c3838562002e28565b905082620025d2858362002e07565b1462001dbd5760405162461bcd60e51b8152600401620005509062002c0f565b600062002600838362002685565b620026385750815460018181018455600084815260208082209093018490558454848252828601909352604090209190915562000fb7565b50600062000fb7565b600062001dbd83836040518060400160405280601a81526020017f536166654d6174683a206469766973696f6e206279207a65726f000000000000815250620026b6565b60009081526001919091016020526040902054151590565b6060620026ae8484600085620026e9565b949350505050565b60008183620026da5760405162461bcd60e51b815260040162000550919062002a0e565b50600062002411848662002e07565b6060824710156200270e5760405162461bcd60e51b8152600401620005509062002b7b565b620027198562001d17565b620027385760405162461bcd60e51b8152600401620005509062002caf565b600080866001600160a01b0316858760405162002756919062002908565b60006040518083038185875af1925050503d806000811462002795576040519150601f19603f3d011682016040523d82523d6000602084013e6200279a565b606091505b5091509150620027ac828286620027b7565b979650505050505050565b60608315620027c857508162001dbd565b825115620027d95782518084602001fd5b8160405162461bcd60e51b815260040162000550919062002a0e565b610ff28062002ee183390190565b60006020828403121562002815578081fd5b813562001dbd8162002ec7565b60006020828403121562002834578081fd5b815162001dbd8162002ec7565b60008060006060848603121562002856578182fd5b8335620028638162002ec7565b92506020840135620028758162002ec7565b929592945050506040919091013590565b6000806040838503121562002899578182fd5b8235620028a68162002ec7565b946020939093013593505050565b600060208284031215620028c6578081fd5b8151801515811462001dbd578182fd5b600060208284031215620028e8578081fd5b5035919050565b60006020828403121562002901578081fd5b5051919050565b600082516200291c81846020870162002e64565b9190910192915050565b6001600160a01b0391909116815260200190565b6001600160a01b0392831681529116602082015260400190565b6001600160a01b0393841681529183166020830152909116604082015260600190565b6001600160a01b039384168152919092166020820152604081019190915260600190565b6001600160a01b03929092168252602082015260400190565b6020808252825182820181905260009190848201906040850190845b81811015620029f75783516001600160a01b031683529284019291840191600101620029d0565b50909695505050505050565b901515815260200190565b600060208252825180602084015262002a2f81604085016020870162002e64565b601f01601f19169190910160400192915050565b60208082526022908201527f456e756d657261626c655365743a20696e646578206f7574206f6620626f756e604082015261647360f01b606082015260800190565b6020808252601f908201527f6e6f742061626c6520746f206e657874207769746864726177207374696c6c00604082015260600190565b6020808252601b908201527f536166654d6174683a206164646974696f6e206f766572666c6f770000000000604082015260600190565b6020808252600f908201526e696e76616c69642062616c616e636560881b604082015260600190565b6020808252600e908201526d1a5b9d985b1a5908185b5bdd5b9d60921b604082015260600190565b6020808252601b908201527f7374616b696e6720616d6f756e7420697320746f6f20736d616c6c0000000000604082015260600190565b60208082526026908201527f416464726573733a20696e73756666696369656e742062616c616e636520666f6040820152651c8818d85b1b60d21b606082015260800190565b60208082526006908201526510b0b236b4b760d11b604082015260600190565b602080825260149082015273696e76616c69642075736572206164647265737360601b604082015260600190565b60208082526021908201527f536166654d6174683a206d756c7469706c69636174696f6e206f766572666c6f6040820152607760f81b606082015260800190565b60208082526018908201527f6c6f636b656420746f207769746864726177207374696c6c0000000000000000604082015260600190565b6020808252600e908201526d10b737b2329037b91030b236b4b760911b604082015260600190565b6020808252601d908201527f416464726573733a2063616c6c20746f206e6f6e2d636f6e7472616374000000604082015260600190565b6020808252601b908201527f2176616c696420616d6f756e7420746f20646973747269627574650000000000604082015260600190565b6020808252600c908201526b34b73b30b634b2103ab9b2b960a11b604082015260600190565b6020808252602a908201527f5361666545524332303a204552433230206f7065726174696f6e20646964206e6040820152691bdd081cdd58d8d9595960b21b606082015260800190565b60208082526036908201527f5361666545524332303a20617070726f76652066726f6d206e6f6e2d7a65726f60408201527520746f206e6f6e2d7a65726f20616c6c6f77616e636560501b606082015260800190565b90815260200190565b6000821982111562002e025762002e0262002eb1565b500190565b60008262002e2357634e487b7160e01b81526012600452602481fd5b500490565b600081600019048311821515161562002e455762002e4562002eb1565b500290565b60008282101562002e5f5762002e5f62002eb1565b500390565b60005b8381101562002e8157818101518382015260200162002e67565b83811115620012f35750506000910152565b600060001982141562002eaa5762002eaa62002eb1565b5060010190565b634e487b7160e01b600052601160045260246000fd5b6001600160a01b038116811462002edd57600080fd5b5056fe60806040526000805460ff19166001908117825569021e19e0c9bab2400000905560055534801561002f57600080fd5b50604051610ff2380380610ff283398101604081905261004e916100ac565b600280546001600160a01b039485166001600160a01b0319918216179091556003805493851693821693909317909255600480549190931691161790556100ee565b80516001600160a01b03811681146100a757600080fd5b919050565b6000806000606084860312156100c0578283fd5b6100c984610090565b92506100d760208501610090565b91506100e560408501610090565b90509250925092565b610ef5806100fd6000396000f3fe608060405234801561001057600080fd5b50600436106100ea5760003560e01c806391915ef81161008c578063b69ef8a811610066578063b69ef8a81461019d578063c45a0155146101a5578063d0b06f5d146101ad578063fc0c546a146101b5576100ea565b806391915ef814610164578063a694fc3a14610177578063acec338a1461018a576100ea565b80635cfc1a51116100c85780635cfc1a5114610137578063806b984f1461013f578063853828b6146101475780638da5cb5b1461014f576100ea565b806302fb0c5e146100ef5780630b76619b1461010d5780632e1a7d4d14610122575b600080fd5b6100f76101bd565b6040516101049190610bcf565b60405180910390f35b6101156101c6565b6040516101049190610de7565b610135610130366004610b18565b6101cc565b005b61011561040c565b610115610412565b610135610418565b610157610425565b6040516101049190610b64565b610135610172366004610b18565b610434565b610135610185366004610b18565b610463565b610135610198366004610ae0565b610613565b610115610650565b6101576106d7565b6101156106e6565b6101576106ec565b60005460ff1681565b60055481565b6003546001600160a01b031632146101ff5760405162461bcd60e51b81526004016101f690610dc4565b60405180910390fd5b6000610209610650565b90506000600554831161021d57600061022b565b60055461022b9084906106fb565b9050801561029e5760025460035460405163636114c760e01b81526001600160a01b039283169263636114c79261026b9291169030908690600401610b92565b600060405180830381600087803b15801561028557600080fd5b505af1158015610299573d6000803e3d6000fd5b505050505b6102a883826106fb565b9250828210156102b6578192505b6003546004546102d3916001600160a01b03918216911685610746565b6005546102e090846106fb565b6005819055426006554360075560015411156103cc576000610300610650565b6005541161031057600554610318565b610318610650565b600254600454919250610339916001600160a01b03908116911660006107a1565b600254600454610356916001600160a01b039182169116836107a1565b6000805460ff19169055600254600354604051630262a55360e21b81526001600160a01b039283169263098a954c926103989291169030908690600401610b92565b600060405180830381600087803b1580156103b257600080fd5b505af11580156103c6573d6000803e3d6000fd5b50505050505b7f56ca301a9219608c91e7bcee90e083c19671d2cdcc96752c7af291cee5f9c8c8836005546040516103ff929190610df0565b60405180910390a1505050565b60015481565b60075481565b6104236005546101cc565b565b6003546001600160a01b031681565b6002546001600160a01b0316331461045e5760405162461bcd60e51b81526004016101f690610c8a565b600155565b600061046d610650565b60025460045491925061048e916001600160a01b0390811691163085610864565b6000610498610650565b90506104a481836106fb565b925060006104be600260015461088b90919063ffffffff16565b6005546104cb90866108d0565b116104d75760006104f8565b6104f86001546104f2866005546108d090919063ffffffff16565b906106fb565b905080156105b857600154600555600254600454610524916001600160a01b03918216911660006107a1565b600254600454610541916001600160a01b039182169116836107a1565b6000805460ff19169055600254600354604051636710837b60e01b81526001600160a01b0392831692636710837b92610581929116908590600401610bb6565b600060405180830381600087803b15801561059b57600080fd5b505af11580156105af573d6000803e3d6000fd5b505050506105c9565b6005546105c590856108d0565b6005555b42600655436007556005546040517fc9ec05ea5037818736839e1365dc3d9a74a735c447af0697da66633b7a9d0fab9161060591879190610df0565b60405180910390a150505050565b6002546001600160a01b0316331461063d5760405162461bcd60e51b81526004016101f690610c8a565b6000805460ff1916911515919091179055565b600480546040516370a0823160e01b81526000926001600160a01b03909216916370a082319161068291309101610b64565b60206040518083038186803b15801561069a57600080fd5b505afa1580156106ae573d6000803e3d6000fd5b505050506040513d601f19601f820116820180604052508101906106d29190610b30565b905090565b6002546001600160a01b031681565b60065481565b6004546001600160a01b031681565b600061073d83836040518060400160405280601e81526020017f536166654d6174683a207375627472616374696f6e206f766572666c6f7700008152506108ff565b90505b92915050565b61079c8363a9059cbb60e01b8484604051602401610765929190610bb6565b60408051601f198184030181529190526020810180516001600160e01b03166001600160e01b03199093169290921790915261093b565b505050565b8015806108295750604051636eb1769f60e11b81526001600160a01b0384169063dd62ed3e906107d79030908690600401610b78565b60206040518083038186803b1580156107ef57600080fd5b505afa158015610803573d6000803e3d6000fd5b505050506040513d601f19601f820116820180604052508101906108279190610b30565b155b6108455760405162461bcd60e51b81526004016101f690610d6e565b61079c8363095ea7b360e01b8484604051602401610765929190610bb6565b610885846323b872dd60e01b85858560405160240161076593929190610b92565b50505050565b60008261089a57506000610740565b60006108a68385610e36565b9050826108b38583610e16565b1461073d5760405162461bcd60e51b81526004016101f690610cac565b6000806108dd8385610dfe565b90508381101561073d5760405162461bcd60e51b81526004016101f690610c0d565b600081848411156109235760405162461bcd60e51b81526004016101f69190610bda565b5060006109308486610e55565b9150505b9392505050565b6000610990826040518060400160405280602081526020017f5361666545524332303a206c6f772d6c6576656c2063616c6c206661696c6564815250856001600160a01b03166109ca9092919063ffffffff16565b80519091501561079c57808060200190518101906109ae9190610afc565b61079c5760405162461bcd60e51b81526004016101f690610d24565b60606109d984846000856109e1565b949350505050565b606082471015610a035760405162461bcd60e51b81526004016101f690610c44565b610a0c85610aa1565b610a285760405162461bcd60e51b81526004016101f690610ced565b600080866001600160a01b03168587604051610a449190610b48565b60006040518083038185875af1925050503d8060008114610a81576040519150601f19603f3d011682016040523d82523d6000602084013e610a86565b606091505b5091509150610a96828286610aa7565b979650505050505050565b3b151590565b60608315610ab6575081610934565b825115610ac65782518084602001fd5b8160405162461bcd60e51b81526004016101f69190610bda565b600060208284031215610af1578081fd5b813561073d81610eae565b600060208284031215610b0d578081fd5b815161073d81610eae565b600060208284031215610b29578081fd5b5035919050565b600060208284031215610b41578081fd5b5051919050565b60008251610b5a818460208701610e6c565b9190910192915050565b6001600160a01b0391909116815260200190565b6001600160a01b0392831681529116602082015260400190565b6001600160a01b039384168152919092166020820152604081019190915260600190565b6001600160a01b03929092168252602082015260400190565b901515815260200190565b6000602082528251806020840152610bf9816040850160208701610e6c565b601f01601f19169190910160400192915050565b6020808252601b908201527f536166654d6174683a206164646974696f6e206f766572666c6f770000000000604082015260600190565b60208082526026908201527f416464726573733a20696e73756666696369656e742062616c616e636520666f6040820152651c8818d85b1b60d21b606082015260800190565b60208082526008908201526721666163746f727960c01b604082015260600190565b60208082526021908201527f536166654d6174683a206d756c7469706c69636174696f6e206f766572666c6f6040820152607760f81b606082015260800190565b6020808252601d908201527f416464726573733a2063616c6c20746f206e6f6e2d636f6e7472616374000000604082015260600190565b6020808252602a908201527f5361666545524332303a204552433230206f7065726174696f6e20646964206e6040820152691bdd081cdd58d8d9595960b21b606082015260800190565b60208082526036908201527f5361666545524332303a20617070726f76652066726f6d206e6f6e2d7a65726f60408201527520746f206e6f6e2d7a65726f20616c6c6f77616e636560501b606082015260800190565b6020808252600990820152683737ba1037bbb732b960b91b604082015260600190565b90815260200190565b918252602082015260400190565b60008219821115610e1157610e11610e98565b500190565b600082610e3157634e487b7160e01b81526012600452602481fd5b500490565b6000816000190483118215151615610e5057610e50610e98565b500290565b600082821015610e6757610e67610e98565b500390565b60005b83811015610e87578181015183820152602001610e6f565b838111156108855750506000910152565b634e487b7160e01b600052601160045260246000fd5b8015158114610ebc57600080fd5b5056fea26469706673582212201440a760a4ade03c6a113588343107263bcee041f93bc8f737ed6aa83b37768464736f6c63430008010033a264697066735822122084b2ddb0b61cfd0bf010830dae872973e81fe66b6564925820f204af38e2b9ea64736f6c63430008010033",
  "linkReferences": {},
  "deployedLinkReferences": {}
}