{
  "_format": "hh-sol-artifact-1",
  "contractName": "Vault",
  "sourceName": "contracts/Vault.sol",
  "abi": [
    {
      "inputs": [
        {
          "internalType": "address",
          "name": "_ptm",
          "type": "address"
        }
      ],
      "stateMutability": "nonpayable",
      "type": "constructor"
    },
    {
      "inputs": [],
      "name": "balance",
      "outputs": [
        {
          "internalType": "uint256",
          "name": "",
          "type": "uint256"
        }
      ],
      "stateMutability": "view",
      "type": "function"
    },
    {
      "inputs": [
        {
          "internalType": "address",
          "name": "_user",
          "type": "address"
        }
      ],
      "name": "balanceOf",
      "outputs": [
        {
          "internalType": "uint256",
          "name": "",
          "type": "uint256"
        }
      ],
      "stateMutability": "view",
      "type": "function"
    },
    {
      "inputs": [],
      "name": "claim",
      "outputs": [],
      "stateMutability": "nonpayable",
      "type": "function"
    },
    {
      "inputs": [
        {
          "internalType": "uint256",
          "name": "_amount",
          "type": "uint256"
        }
      ],
      "name": "claimSome",
      "outputs": [],
      "stateMutability": "nonpayable",
      "type": "function"
    },
    {
      "inputs": [],
      "name": "controller",
      "outputs": [
        {
          "internalType": "address",
          "name": "",
          "type": "address"
        }
      ],
      "stateMutability": "view",
      "type": "function"
    },
    {
      "inputs": [
        {
          "internalType": "address",
          "name": "_user",
          "type": "address"
        }
      ],
      "name": "countNodes",
      "outputs": [
        {
          "internalType": "uint256",
          "name": "",
          "type": "uint256"
        }
      ],
      "stateMutability": "view",
      "type": "function"
    },
    {
      "inputs": [],
      "name": "countNodesAll",
      "outputs": [
        {
          "internalType": "uint256",
          "name": "",
          "type": "uint256"
        }
      ],
      "stateMutability": "view",
      "type": "function"
    },
    {
      "inputs": [
        {
          "internalType": "address",
          "name": "_user",
          "type": "address"
        },
        {
          "internalType": "uint256",
          "name": "_amount",
          "type": "uint256"
        }
      ],
      "name": "createNode",
      "outputs": [
        {
          "internalType": "address",
          "name": "",
          "type": "address"
        }
      ],
      "stateMutability": "nonpayable",
      "type": "function"
    },
    {
      "inputs": [],
      "name": "distributeRewards",
      "outputs": [],
      "stateMutability": "nonpayable",
      "type": "function"
    },
    {
      "inputs": [],
      "name": "governance",
      "outputs": [
        {
          "internalType": "address",
          "name": "",
          "type": "address"
        }
      ],
      "stateMutability": "view",
      "type": "function"
    },
    {
      "inputs": [
        {
          "internalType": "address",
          "name": "_user",
          "type": "address"
        },
        {
          "internalType": "address",
          "name": "_node",
          "type": "address"
        },
        {
          "internalType": "uint256",
          "name": "_amount",
          "type": "uint256"
        }
      ],
      "name": "mergeNode",
      "outputs": [],
      "stateMutability": "nonpayable",
      "type": "function"
    },
    {
      "inputs": [],
      "name": "minStakeAmount",
      "outputs": [
        {
          "internalType": "uint256",
          "name": "",
          "type": "uint256"
        }
      ],
      "stateMutability": "view",
      "type": "function"
    },
    {
      "inputs": [],
      "name": "nodeCapacity",
      "outputs": [
        {
          "internalType": "uint256",
          "name": "",
          "type": "uint256"
        }
      ],
      "stateMutability": "view",
      "type": "function"
    },
    {
      "inputs": [],
      "name": "nodeList",
      "outputs": [
        {
          "internalType": "address[]",
          "name": "",
          "type": "address[]"
        }
      ],
      "stateMutability": "view",
      "type": "function"
    },
    {
      "inputs": [],
      "name": "nodeListAll",
      "outputs": [
        {
          "internalType": "address[]",
          "name": "",
          "type": "address[]"
        }
      ],
      "stateMutability": "view",
      "type": "function"
    },
    {
      "inputs": [],
      "name": "ptm",
      "outputs": [
        {
          "internalType": "address",
          "name": "",
          "type": "address"
        }
      ],
      "stateMutability": "view",
      "type": "function"
    },
    {
      "inputs": [
        {
          "internalType": "address",
          "name": "_user",
          "type": "address"
        },
        {
          "internalType": "address",
          "name": "_node",
          "type": "address"
        },
        {
          "internalType": "uint256",
          "name": "_amount",
          "type": "uint256"
        }
      ],
      "name": "removeNode",
      "outputs": [],
      "stateMutability": "nonpayable",
      "type": "function"
    },
    {
      "inputs": [
        {
          "internalType": "address",
          "name": "_user",
          "type": "address"
        }
      ],
      "name": "rewardsOf",
      "outputs": [
        {
          "internalType": "uint256",
          "name": "",
          "type": "uint256"
        }
      ],
      "stateMutability": "view",
      "type": "function"
    },
    {
      "inputs": [
        {
          "internalType": "address",
          "name": "_controller",
          "type": "address"
        }
      ],
      "name": "setController",
      "outputs": [],
      "stateMutability": "nonpayable",
      "type": "function"
    },
    {
      "inputs": [
        {
          "internalType": "address",
          "name": "_governance",
          "type": "address"
        }
      ],
      "name": "setGovernance",
      "outputs": [],
      "stateMutability": "nonpayable",
      "type": "function"
    },
    {
      "inputs": [
        {
          "internalType": "uint256",
          "name": "_amount",
          "type": "uint256"
        }
      ],
      "name": "setMinStakeAmount",
      "outputs": [],
      "stateMutability": "nonpayable",
      "type": "function"
    },
    {
      "inputs": [
        {
          "internalType": "uint256",
          "name": "_capacity",
          "type": "uint256"
        }
      ],
      "name": "setNodeCapacity",
      "outputs": [],
      "stateMutability": "nonpayable",
      "type": "function"
    },
    {
      "inputs": [
        {
          "internalType": "uint256",
          "name": "_period",
          "type": "uint256"
        }
      ],
      "name": "setStakeLockPeriod",
      "outputs": [],
      "stateMutability": "nonpayable",
      "type": "function"
    },
    {
      "inputs": [
        {
          "internalType": "uint256",
          "name": "_period",
          "type": "uint256"
        }
      ],
      "name": "setWithdrawLockPeriod",
      "outputs": [],
      "stateMutability": "nonpayable",
      "type": "function"
    },
    {
      "inputs": [
        {
          "internalType": "uint256",
          "name": "_amount",
          "type": "uint256"
        }
      ],
      "name": "stake",
      "outputs": [],
      "stateMutability": "nonpayable",
      "type": "function"
    },
    {
      "inputs": [],
      "name": "stakeAll",
      "outputs": [],
      "stateMutability": "nonpayable",
      "type": "function"
    },
    {
      "inputs": [],
      "name": "stakeLockPeriod",
      "outputs": [
        {
          "internalType": "uint256",
          "name": "",
          "type": "uint256"
        }
      ],
      "stateMutability": "view",
      "type": "function"
    },
    {
      "inputs": [],
      "name": "totalBalance",
      "outputs": [
        {
          "internalType": "uint256",
          "name": "",
          "type": "uint256"
        }
      ],
      "stateMutability": "view",
      "type": "function"
    },
    {
      "inputs": [],
      "name": "totalShares",
      "outputs": [
        {
          "internalType": "uint256",
          "name": "",
          "type": "uint256"
        }
      ],
      "stateMutability": "view",
      "type": "function"
    },
    {
      "inputs": [
        {
          "internalType": "uint256",
          "name": "_amount",
          "type": "uint256"
        }
      ],
      "name": "withdraw",
      "outputs": [],
      "stateMutability": "nonpayable",
      "type": "function"
    },
    {
      "inputs": [],
      "name": "withdrawAll",
      "outputs": [],
      "stateMutability": "nonpayable",
      "type": "function"
    },
    {
      "inputs": [],
      "name": "withdrawLockPeriod",
      "outputs": [
        {
          "internalType": "uint256",
          "name": "",
          "type": "uint256"
        }
      ],
      "stateMutability": "view",
      "type": "function"
    }
  ],
  "bytecode": "0x608060405269021e19e0c9bab2400000600055683635c9adc5dea0000060015562278d00600255620151806003556000600b553480156200003f57600080fd5b5060405162003c8f38038062003c8f833981016040819052620000629162000091565b600480546001600160a01b039092166001600160a01b03199283161790556005805490911633179055620000c1565b600060208284031215620000a3578081fd5b81516001600160a01b0381168114620000ba578182fd5b9392505050565b613bbe80620000d16000396000f3fe60806040523480156200001157600080fd5b5060043610620002205760003560e01c8063853828b61162000129578063b69ef8a811620000b1578063e97c8771116200007b578063e97c8771146200042b578063eb4af0451462000435578063f1887684146200044c578063f77c479114620004565762000220565b8063b69ef8a814620003f6578063bc67f3301462000400578063bebe4da61462000417578063c1357e5c14620004215762000220565b8063a694fc3a11620000f3578063a694fc3a14620003b4578063ab033ea914620003cb578063ad36712e14620003e2578063ad7a672f14620003ec5762000220565b8063853828b614620003725780638aa0c7bb146200037c5780638dcb4061146200039357806392eefe9b146200039d5762000220565b8063499ab37e11620001ad5780636710837b11620001775780636710837b14620003235780636d7d34f3146200033a5780636f4a2cd0146200035157806370a08231146200035b5762000220565b8063499ab37e14620002df5780634e71d92d14620002e95780635aa6e67514620002f3578063636114c7146200030c5762000220565b80632e3a969011620001ef5780632e3a9690146200028e57806339db45f614620002a55780633a98ef3914620002be578063479ba7ae14620002c85762000220565b8063098a954c1462000225578063238f9dfb146200023e5780632628490f14620002555780632e1a7d4d1462000277575b600080fd5b6200023c62000236366004620024d2565b62000460565b005b6200023c6200024f36600462002567565b620006fc565b6200025f62000744565b6040516200026e919062002a99565b60405180910390f35b6200023c6200028836600462002567565b6200074a565b6200023c6200029f36600462002567565b62000905565b620002af6200094d565b6040516200026e919062002645565b6200025f62000a57565b6200025f620002d936600462002494565b62000a5d565b6200025f62000a7f565b6200023c62000a85565b620002fd62000a96565b6040516200026e9190620025b7565b6200023c6200031d366004620024d2565b62000aa5565b620002fd6200033436600462002517565b62000c54565b6200025f6200034b36600462002494565b62000de9565b6200023c62000e37565b6200025f6200036c36600462002494565b62001110565b6200023c6200123f565b6200023c6200038d36600462002567565b6200124e565b6200023c62001296565b6200023c620003ae36600462002494565b62001320565b6200023c620003c536600462002567565b6200136f565b6200023c620003dc36600462002494565b62001657565b620002fd620016a6565b6200025f620016b5565b6200025f62001753565b6200023c6200041136600462002567565b620017e0565b6200025f62001861565b6200025f6200186f565b620002af62001875565b6200023c6200044636600462002567565b6200194b565b6200025f62001993565b620002fd62001999565b62000474826001600160a01b0316620019a8565b806200048a57506005546001600160a01b031633145b80620004a057506006546001600160a01b031633145b620004c85760405162461bcd60e51b8152600401620004bf906200293d565b60405180910390fd5b6000620004d462001753565b90508115620004f757600454620004f7906001600160a01b0316333085620019ae565b60006200050362001753565b905062000511818362001a0a565b6001600160a01b038616600090815260076020526040902090935062000538908562001a55565b506200054660088562001a55565b506001600160a01b03851660009081526007602052604081206200056a9062001a6c565b11156200069e576001600160a01b038516600090815260076020526040812062000595908262001a79565b905083156200063457600454620005b8906001600160a01b031682600062001a87565b600454620005d1906001600160a01b0316828662001a87565b60405163534a7e1d60e11b81526001600160a01b0382169063a694fc3a90620005ff90879060040162002a99565b600060405180830381600087803b1580156200061a57600080fd5b505af11580156200062f573d6000803e3d6000fd5b505050505b60405163567619c560e11b81526001600160a01b0382169063acec338a90620006639060019060040162002694565b600060405180830381600087803b1580156200067e57600080fd5b505af115801562000693573d6000803e3d6000fd5b5050505050620006f5565b6001600160a01b0385166000908152600a602052604090206002810154620006c7908562001b57565b6002820155428155436001820155620006e08662001b8b565b50600b54620006f0908562001b57565b600b55505b5050505050565b6005546001600160a01b03163314806200072057506006546001600160a01b031633145b6200073f5760405162461bcd60e51b8152600401620004bf9062002877565b600055565b60035481565b6000620007573362001110565b11620007775760405162461bcd60e51b8152600401620004bf90620027a9565b336000908152600e60205260409020600254600382015442916200079c919062001b57565b10620007bc5760405162461bcd60e51b8152600401620004bf9062002906565b42620007d8600354836004015462001b5790919063ffffffff16565b10620007f85760405162461bcd60e51b8152600401620004bf906200273b565b6000620008053362001bbf565b336000908152600a602052604090209091506001600160a01b038216156200088f57604051632e1a7d4d60e01b81526001600160a01b03831690632e1a7d4d906200085590879060040162002a99565b600060405180830381600087803b1580156200087057600080fd5b505af115801562000885573d6000803e3d6000fd5b50505050620008f9565b8060020154841115620008a457806002015493505b6000620008b062001753565b905084811015620008bf578094505b600454620008d8906001600160a01b0316338762001d4d565b6002820154620008e9908662001a0a565b6002830155504281554360018201555b50504260049091015550565b6005546001600160a01b03163314806200092957506006546001600160a01b031633145b620009485760405162461bcd60e51b8152600401620004bf9062002877565b600255565b336000908152600760205260408120606091906200096b9062001a6c565b67ffffffffffffffff8111156200099257634e487b7160e01b600052604160045260246000fd5b604051908082528060200260200182016040528015620009bc578160200160208202803683370190505b50905060005b336000908152600760205260409020620009dc9062001a6c565b81101562000a5157336000908152600760205260408120620009ff908362001a79565b90508083838151811062000a2357634e487b7160e01b600052603260045260246000fd5b6001600160a01b0390921660209283029190910190910152508062000a488162002b49565b915050620009c2565b50905090565b600b5481565b6001600160a01b0381166000908152600e60205260409020600201545b919050565b60025481565b62000a94620004113362000a5d565b565b6005546001600160a01b031681565b62000ab9826001600160a01b0316620019a8565b8062000acf57506005546001600160a01b031633145b8062000ae557506006546001600160a01b031633145b62000b045760405162461bcd60e51b8152600401620004bf906200293d565b6001600160a01b038316600090815260076020526040902062000b28908362001a55565b5062000b3660088362001a55565b506001600160a01b038316600090815260076020526040812062000b5a9062001a6c565b111562000c4f576001600160a01b038316600090815260076020526040812062000b85908262001a79565b60405163567619c560e11b81529091506001600160a01b0382169063acec338a9062000bb79060019060040162002694565b600060405180830381600087803b15801562000bd257600080fd5b505af115801562000be7573d6000803e3d6000fd5b5050604051632e1a7d4d60e01b81526001600160a01b0384169250632e1a7d4d915062000c1990859060040162002a99565b600060405180830381600087803b15801562000c3457600080fd5b505af115801562000c49573d6000803e3d6000fd5b50505050505b505050565b60003362000c765760405162461bcd60e51b8152600401620004bf90620029d3565b6000821162000c995760405162461bcd60e51b8152600401620004bf90620027d2565b600454604051600091309186916001600160a01b03169062000cbb9062002486565b62000cc993929190620025e5565b604051809103906000f08015801562000ce6573d6000803e3d6000fd5b509050600062000cf562001753565b60045490915062000d12906001600160a01b0316333087620019ae565b600062000d1e62001753565b905062000d2c818362001a0a565b60045490955062000d48906001600160a01b0316848762001a87565b60405163534a7e1d60e11b81526001600160a01b0384169063a694fc3a9062000d7690889060040162002a99565b600060405180830381600087803b15801562000d9157600080fd5b505af115801562000da6573d6000803e3d6000fd5b5050506001600160a01b038716600090815260076020526040902062000dce91508462001d6f565b5062000ddc60088462001d6f565b5091925050505b92915050565b60006001600160a01b03821662000e145760405162461bcd60e51b8152600401620004bf9062002897565b6001600160a01b038216600090815260076020526040902062000de39062001a6c565b6005546001600160a01b031633148062000e5b57506006546001600160a01b031633145b62000e7a5760405162461bcd60e51b8152600401620004bf9062002877565b600654604080516366666aa960e01b815290516000926001600160a01b0316916366666aa991600480830192602092919082900301818787803b15801562000ec157600080fd5b505af115801562000ed6573d6000803e3d6000fd5b505050506040513d601f19601f8201168201806040525081019062000efc9190620024b3565b90506000816001600160a01b0316639994673d6040518163ffffffff1660e01b8152600401602060405180830381600087803b15801562000f3c57600080fd5b505af115801562000f51573d6000803e3d6000fd5b505050506040513d601f19601f8201168201806040525081019062000f77919062002580565b905080156200110c57600480546040516370a0823160e01b81526000926001600160a01b03909216916370a082319162000fb491309101620025b7565b60206040518083038186803b15801562000fcd57600080fd5b505afa15801562000fe2573d6000803e3d6000fd5b505050506040513d601f19601f8201168201806040525081019062001008919062002580565b9050826001600160a01b031663091dffca6040518163ffffffff1660e01b8152600401600060405180830381600087803b1580156200104657600080fd5b505af11580156200105b573d6000803e3d6000fd5b5050600480546040516370a0823160e01b8152600094506001600160a01b0390911692506370a08231916200109391309101620025b7565b60206040518083038186803b158015620010ac57600080fd5b505afa158015620010c1573d6000803e3d6000fd5b505050506040513d601f19601f82011682018060405250810190620010e7919062002580565b9050620010f5818362001a0a565b925082156200110957620011098362001d86565b50505b5050565b60008062001120600c8462001f89565b156200114a5750506001600160a01b0381166000908152600a602052604090206002015462000a7a565b60005b6001600160a01b0384166000908152600760205260409020620011709062001a6c565b81101562001238576001600160a01b03841660009081526007602052604081206200119c908362001a79565b90506200121f816001600160a01b031663b69ef8a86040518163ffffffff1660e01b815260040160206040518083038186803b158015620011dc57600080fd5b505afa158015620011f1573d6000803e3d6000fd5b505050506040513d601f19601f8201168201806040525081019062001217919062002580565b849062001b57565b92505080806200122f9062002b49565b9150506200114d565b5092915050565b62000a94620002883362001110565b6005546001600160a01b03163314806200127257506006546001600160a01b031633145b620012915760405162461bcd60e51b8152600401620004bf9062002877565b600355565b600480546040516370a0823160e01b815262000a94926001600160a01b03909216916370a0823191620012cc91339101620025b7565b60206040518083038186803b158015620012e557600080fd5b505afa158015620012fa573d6000803e3d6000fd5b505050506040513d601f19601f82011682018060405250810190620003c5919062002580565b6005546001600160a01b031633146200134d5760405162461bcd60e51b8152600401620004bf9062002716565b600680546001600160a01b0319166001600160a01b0392909216919091179055565b600154811015620013945760405162461bcd60e51b8152600401620004bf90620027fa565b6000620013a13362001bbf565b336000908152600a602052604090209091506001600160a01b038216156200148c576000620013cf62001753565b600454909150620013ec906001600160a01b0316333087620019ae565b6000620013f862001753565b905062001406818362001a0a565b60045490955062001422906001600160a01b0316858762001a87565b60405163534a7e1d60e11b81526001600160a01b0385169063a694fc3a906200145090889060040162002a99565b600060405180830381600087803b1580156200146b57600080fd5b505af115801562001480573d6000803e3d6000fd5b50505050505062001621565b6000546002820154620014a0908562001b57565b11156200159b57620014b3338462000c54565b506000620014c13362001bbf565b9050620014cd62001753565b826002015411620014e3578160020154620014ed565b620014ed62001753565b60045490945062001509906001600160a01b0316828662001a87565b60405163534a7e1d60e11b81526001600160a01b0382169063a694fc3a906200153790879060040162002a99565b600060405180830381600087803b1580156200155257600080fd5b505af115801562001567573d6000803e3d6000fd5b50505050620015763362001fa0565b506002820154600b546200158a9162001a0a565b600b55506000600282015562001621565b6000620015a762001753565b600454909150620015c4906001600160a01b0316333087620019ae565b6000620015d062001753565b9050620015de818362001a0a565b6002840154909550620015f2908662001b57565b60028401554283554360018401556200160b3362001b8b565b50600b546200161b908662001b57565b600b5550505b336000908152600e60205260409020600381015462001641574260038201555b6004810154620011095742600482015550505050565b6005546001600160a01b03163314620016845760405162461bcd60e51b8152600401620004bf9062002716565b600580546001600160a01b0319166001600160a01b0392909216919091179055565b6004546001600160a01b031681565b600080620016c262001753565b905060005b620016d3600862001a6c565b81101562000a51576000620016ea60088362001a79565b90506001600160a01b038116156200173d576200173a816001600160a01b031663b69ef8a86040518163ffffffff1660e01b815260040160206040518083038186803b158015620011dc57600080fd5b92505b50806200174a8162002b49565b915050620016c7565b600480546040516370a0823160e01b81526000926001600160a01b03909216916370a08231916200178791309101620025b7565b60206040518083038186803b158015620017a057600080fd5b505afa158015620017b5573d6000803e3d6000fd5b505050506040513d601f19601f82011682018060405250810190620017db919062002580565b905090565b336000908152600e602052604090206002810154156200110c5781816002015410156200180f57806002015491505b816200181a62001753565b10156200182e576200182b62001753565b91505b60045462001847906001600160a01b0316338462001d4d565b600281015462001858908362001a0a565b60028201555050565b6000620017db600862001a6c565b60005481565b6060600062001885600862001a6c565b67ffffffffffffffff811115620018ac57634e487b7160e01b600052604160045260246000fd5b604051908082528060200260200182016040528015620018d6578160200160208202803683370190505b50905060005b620018e8600862001a6c565b81101562000a5157620018fd60088262001a79565b8282815181106200191e57634e487b7160e01b600052603260045260246000fd5b6001600160a01b039092166020928302919091019091015280620019428162002b49565b915050620018dc565b6005546001600160a01b03163314806200196f57506006546001600160a01b031633145b6200198e5760405162461bcd60e51b8152600401620004bf9062002877565b600155565b60015481565b6006546001600160a01b031681565b3b151590565b62001109846323b872dd60e01b858585604051602401620019d29392919062002608565b60408051601f198184030181529190526020810180516001600160e01b03166001600160e01b03199093169290921790915262001fd5565b600062001a4e83836040518060400160405280601e81526020017f536166654d6174683a207375627472616374696f6e206f766572666c6f7700008152506200206c565b9392505050565b600062001a4e836001600160a01b038416620020ab565b600062000de382620021d4565b600062001a4e8383620021d8565b80158062001b165750604051636eb1769f60e11b81526001600160a01b0384169063dd62ed3e9062001ac09030908690600401620025cb565b60206040518083038186803b15801562001ad957600080fd5b505afa15801562001aee573d6000803e3d6000fd5b505050506040513d601f19601f8201168201806040525081019062001b14919062002580565b155b62001b355760405162461bcd60e51b8152600401620004bf9062002a43565b62000c4f8363095ea7b360e01b8484604051602401620019d29291906200262c565b60008062001b66838562002aa2565b90508381101562001a4e5760405162461bcd60e51b8152600401620004bf9062002772565b600062001b9a600c8362001f89565b62001bb75762001bac600c8362001d6f565b506000905062000a7a565b506001919050565b6000805b6001600160a01b038316600090815260076020526040902062001be69062001a6c565b81101562001d44576001600160a01b038316600090815260076020526040812062001c12908362001a79565b60005490915062001c2590600262002235565b816001600160a01b031663b69ef8a86040518163ffffffff1660e01b815260040160206040518083038186803b15801562001c5f57600080fd5b505afa15801562001c74573d6000803e3d6000fd5b505050506040513d601f19601f8201168201806040525081019062001c9a919062002580565b10801562001d1e5750806001600160a01b03166302fb0c5e6040518163ffffffff1660e01b815260040160206040518083038186803b15801562001cdd57600080fd5b505afa15801562001cf2573d6000803e3d6000fd5b505050506040513d601f19601f8201168201806040525081019062001d18919062002545565b15156001145b1562001d2e57915062000a7a9050565b508062001d3b8162002b49565b91505062001bc3565b50600092915050565b62000c4f8363a9059cbb60e01b8484604051602401620019d29291906200262c565b600062001a4e836001600160a01b03841662002283565b6000811162001da95760405162461bcd60e51b8152600401620004bf906200299c565b600062001dd062001dc8600162001dc1600862001a6c565b9062001b57565b8390620022d2565b905060005b62001de1600862001a6c565b81101562001ebd57600062001df860088362001a79565b6001600160a01b0316638da5cb5b6040518163ffffffff1660e01b815260040160206040518083038186803b15801562001e3157600080fd5b505afa15801562001e46573d6000803e3d6000fd5b505050506040513d601f19601f8201168201806040525081019062001e6c9190620024b3565b6001600160a01b0381166000908152600e6020526040902060028101549192509062001e99908562001b57565b6002820155436001820155429055508062001eb48162002b49565b91505062001dd5565b5060005b62001ecd600c62001a6c565b81101562000c4f576000600a8162001ee7600c8562001a79565b6001600160a01b03168152602081019190915260400160009081209150600e8162001f14600c8662001a79565b6001600160a01b03166001600160a01b03168152602001908152602001600020905062001f6d62001f61600b5462001f5a8560020154886200223590919063ffffffff16565b90620022d2565b60028301549062001b57565b600290910155508062001f808162002b49565b91505062001ec1565b600062001a4e836001600160a01b03841662002316565b600062001faf600c8362001f89565b1562001fcd5762001fc2600c8362001a55565b506001905062000a7a565b506000919050565b60006200202c826040518060400160405280602081526020017f5361666545524332303a206c6f772d6c6576656c2063616c6c206661696c6564815250856001600160a01b03166200232e9092919063ffffffff16565b80519091501562000c4f57808060200190518101906200204d919062002545565b62000c4f5760405162461bcd60e51b8152600401620004bf90620029f9565b60008184841115620020935760405162461bcd60e51b8152600401620004bf91906200269f565b506000620020a2848662002b00565b95945050505050565b60008181526001830160205260408120548015620021c9576000620020d260018362002b00565b8554909150600090620020e89060019062002b00565b905060008660000182815481106200211057634e487b7160e01b600052603260045260246000fd5b90600052602060002001549050808760000184815481106200214257634e487b7160e01b600052603260045260246000fd5b6000918252602090912001556200215b83600162002aa2565b600082815260018901602052604090205586548790806200218c57634e487b7160e01b600052603160045260246000fd5b6001900381819060005260206000200160009055905586600101600087815260200190815260200160002060009055600194505050505062000de3565b600091505062000de3565b5490565b81546000908210620021fe5760405162461bcd60e51b8152600401620004bf90620026d4565b8260000182815481106200222257634e487b7160e01b600052603260045260246000fd5b9060005260206000200154905092915050565b600082620022465750600062000de3565b600062002254838562002ade565b90508262002263858362002abd565b1462001a4e5760405162461bcd60e51b8152600401620004bf90620028c5565b600062002291838362002316565b620022c95750815460018181018455600084815260208082209093018490558454848252828601909352604090209190915562000de3565b50600062000de3565b600062001a4e83836040518060400160405280601a81526020017f536166654d6174683a206469766973696f6e206279207a65726f00000000000081525062002347565b60009081526001919091016020526040902054151590565b60606200233f84846000856200237a565b949350505050565b600081836200236b5760405162461bcd60e51b8152600401620004bf91906200269f565b506000620020a2848662002abd565b6060824710156200239f5760405162461bcd60e51b8152600401620004bf9062002831565b620023aa85620019a8565b620023c95760405162461bcd60e51b8152600401620004bf9062002965565b600080866001600160a01b03168587604051620023e7919062002599565b60006040518083038185875af1925050503d806000811462002426576040519150601f19603f3d011682016040523d82523d6000602084013e6200242b565b606091505b50915091506200243d82828662002448565b979650505050505050565b606083156200245957508162001a4e565b8251156200246a5782518084602001fd5b8160405162461bcd60e51b8152600401620004bf91906200269f565b610ff28062002b9783390190565b600060208284031215620024a6578081fd5b813562001a4e8162002b7d565b600060208284031215620024c5578081fd5b815162001a4e8162002b7d565b600080600060608486031215620024e7578182fd5b8335620024f48162002b7d565b92506020840135620025068162002b7d565b929592945050506040919091013590565b600080604083850312156200252a578182fd5b8235620025378162002b7d565b946020939093013593505050565b60006020828403121562002557578081fd5b8151801515811462001a4e578182fd5b60006020828403121562002579578081fd5b5035919050565b60006020828403121562002592578081fd5b5051919050565b60008251620025ad81846020870162002b1a565b9190910192915050565b6001600160a01b0391909116815260200190565b6001600160a01b0392831681529116602082015260400190565b6001600160a01b0393841681529183166020830152909116604082015260600190565b6001600160a01b039384168152919092166020820152604081019190915260600190565b6001600160a01b03929092168252602082015260400190565b6020808252825182820181905260009190848201906040850190845b81811015620026885783516001600160a01b03168352928401929184019160010162002661565b50909695505050505050565b901515815260200190565b6000602082528251806020840152620026c081604085016020870162002b1a565b601f01601f19169190910160400192915050565b60208082526022908201527f456e756d657261626c655365743a20696e646578206f7574206f6620626f756e604082015261647360f01b606082015260800190565b6020808252600b908201526a21676f7665726e616e636560a81b604082015260600190565b6020808252601f908201527f6e6f742061626c6520746f206e657874207769746864726177207374696c6c00604082015260600190565b6020808252601b908201527f536166654d6174683a206164646974696f6e206f766572666c6f770000000000604082015260600190565b6020808252600f908201526e696e76616c69642062616c616e636560881b604082015260600190565b6020808252600e908201526d1a5b9d985b1a5908185b5bdd5b9d60921b604082015260600190565b6020808252601b908201527f7374616b696e6720616d6f756e7420697320746f6f20736d616c6c0000000000604082015260600190565b60208082526026908201527f416464726573733a20696e73756666696369656e742062616c616e636520666f6040820152651c8818d85b1b60d21b606082015260800190565b60208082526006908201526510b0b236b4b760d11b604082015260600190565b602080825260149082015273696e76616c69642075736572206164647265737360601b604082015260600190565b60208082526021908201527f536166654d6174683a206d756c7469706c69636174696f6e206f766572666c6f6040820152607760f81b606082015260800190565b60208082526018908201527f6c6f636b656420746f207769746864726177207374696c6c0000000000000000604082015260600190565b6020808252600e908201526d10b737b2329037b91030b236b4b760911b604082015260600190565b6020808252601d908201527f416464726573733a2063616c6c20746f206e6f6e2d636f6e7472616374000000604082015260600190565b6020808252601b908201527f2176616c696420616d6f756e7420746f20646973747269627574650000000000604082015260600190565b6020808252600c908201526b34b73b30b634b2103ab9b2b960a11b604082015260600190565b6020808252602a908201527f5361666545524332303a204552433230206f7065726174696f6e20646964206e6040820152691bdd081cdd58d8d9595960b21b606082015260800190565b60208082526036908201527f5361666545524332303a20617070726f76652066726f6d206e6f6e2d7a65726f60408201527520746f206e6f6e2d7a65726f20616c6c6f77616e636560501b606082015260800190565b90815260200190565b6000821982111562002ab85762002ab862002b67565b500190565b60008262002ad957634e487b7160e01b81526012600452602481fd5b500490565b600081600019048311821515161562002afb5762002afb62002b67565b500290565b60008282101562002b155762002b1562002b67565b500390565b60005b8381101562002b3757818101518382015260200162002b1d565b83811115620011095750506000910152565b600060001982141562002b605762002b6062002b67565b5060010190565b634e487b7160e01b600052601160045260246000fd5b6001600160a01b038116811462002b9357600080fd5b5056fe60806040526000805460ff19166001908117825569021e19e0c9bab2400000905560055534801561002f57600080fd5b50604051610ff2380380610ff283398101604081905261004e916100ac565b600280546001600160a01b039485166001600160a01b0319918216179091556003805493851693821693909317909255600480549190931691161790556100ee565b80516001600160a01b03811681146100a757600080fd5b919050565b6000806000606084860312156100c0578283fd5b6100c984610090565b92506100d760208501610090565b91506100e560408501610090565b90509250925092565b610ef5806100fd6000396000f3fe608060405234801561001057600080fd5b50600436106100ea5760003560e01c806391915ef81161008c578063b69ef8a811610066578063b69ef8a81461019d578063c45a0155146101a5578063d0b06f5d146101ad578063fc0c546a146101b5576100ea565b806391915ef814610164578063a694fc3a14610177578063acec338a1461018a576100ea565b80635cfc1a51116100c85780635cfc1a5114610137578063806b984f1461013f578063853828b6146101475780638da5cb5b1461014f576100ea565b806302fb0c5e146100ef5780630b76619b1461010d5780632e1a7d4d14610122575b600080fd5b6100f76101bd565b6040516101049190610bcf565b60405180910390f35b6101156101c6565b6040516101049190610de7565b610135610130366004610b18565b6101cc565b005b61011561040c565b610115610412565b610135610418565b610157610425565b6040516101049190610b64565b610135610172366004610b18565b610434565b610135610185366004610b18565b610463565b610135610198366004610ae0565b610613565b610115610650565b6101576106d7565b6101156106e6565b6101576106ec565b60005460ff1681565b60055481565b6003546001600160a01b031632146101ff5760405162461bcd60e51b81526004016101f690610dc4565b60405180910390fd5b6000610209610650565b90506000600554831161021d57600061022b565b60055461022b9084906106fb565b9050801561029e5760025460035460405163636114c760e01b81526001600160a01b039283169263636114c79261026b9291169030908690600401610b92565b600060405180830381600087803b15801561028557600080fd5b505af1158015610299573d6000803e3d6000fd5b505050505b6102a883826106fb565b9250828210156102b6578192505b6003546004546102d3916001600160a01b03918216911685610746565b6005546102e090846106fb565b6005819055426006554360075560015411156103cc576000610300610650565b6005541161031057600554610318565b610318610650565b600254600454919250610339916001600160a01b03908116911660006107a1565b600254600454610356916001600160a01b039182169116836107a1565b6000805460ff19169055600254600354604051630262a55360e21b81526001600160a01b039283169263098a954c926103989291169030908690600401610b92565b600060405180830381600087803b1580156103b257600080fd5b505af11580156103c6573d6000803e3d6000fd5b50505050505b7f56ca301a9219608c91e7bcee90e083c19671d2cdcc96752c7af291cee5f9c8c8836005546040516103ff929190610df0565b60405180910390a1505050565b60015481565b60075481565b6104236005546101cc565b565b6003546001600160a01b031681565b6002546001600160a01b0316331461045e5760405162461bcd60e51b81526004016101f690610c8a565b600155565b600061046d610650565b60025460045491925061048e916001600160a01b0390811691163085610864565b6000610498610650565b90506104a481836106fb565b925060006104be600260015461088b90919063ffffffff16565b6005546104cb90866108d0565b116104d75760006104f8565b6104f86001546104f2866005546108d090919063ffffffff16565b906106fb565b905080156105b857600154600555600254600454610524916001600160a01b03918216911660006107a1565b600254600454610541916001600160a01b039182169116836107a1565b6000805460ff19169055600254600354604051636710837b60e01b81526001600160a01b0392831692636710837b92610581929116908590600401610bb6565b600060405180830381600087803b15801561059b57600080fd5b505af11580156105af573d6000803e3d6000fd5b505050506105c9565b6005546105c590856108d0565b6005555b42600655436007556005546040517fc9ec05ea5037818736839e1365dc3d9a74a735c447af0697da66633b7a9d0fab9161060591879190610df0565b60405180910390a150505050565b6002546001600160a01b0316331461063d5760405162461bcd60e51b81526004016101f690610c8a565b6000805460ff1916911515919091179055565b600480546040516370a0823160e01b81526000926001600160a01b03909216916370a082319161068291309101610b64565b60206040518083038186803b15801561069a57600080fd5b505afa1580156106ae573d6000803e3d6000fd5b505050506040513d601f19601f820116820180604052508101906106d29190610b30565b905090565b6002546001600160a01b031681565b60065481565b6004546001600160a01b031681565b600061073d83836040518060400160405280601e81526020017f536166654d6174683a207375627472616374696f6e206f766572666c6f7700008152506108ff565b90505b92915050565b61079c8363a9059cbb60e01b8484604051602401610765929190610bb6565b60408051601f198184030181529190526020810180516001600160e01b03166001600160e01b03199093169290921790915261093b565b505050565b8015806108295750604051636eb1769f60e11b81526001600160a01b0384169063dd62ed3e906107d79030908690600401610b78565b60206040518083038186803b1580156107ef57600080fd5b505afa158015610803573d6000803e3d6000fd5b505050506040513d601f19601f820116820180604052508101906108279190610b30565b155b6108455760405162461bcd60e51b81526004016101f690610d6e565b61079c8363095ea7b360e01b8484604051602401610765929190610bb6565b610885846323b872dd60e01b85858560405160240161076593929190610b92565b50505050565b60008261089a57506000610740565b60006108a68385610e36565b9050826108b38583610e16565b1461073d5760405162461bcd60e51b81526004016101f690610cac565b6000806108dd8385610dfe565b90508381101561073d5760405162461bcd60e51b81526004016101f690610c0d565b600081848411156109235760405162461bcd60e51b81526004016101f69190610bda565b5060006109308486610e55565b9150505b9392505050565b6000610990826040518060400160405280602081526020017f5361666545524332303a206c6f772d6c6576656c2063616c6c206661696c6564815250856001600160a01b03166109ca9092919063ffffffff16565b80519091501561079c57808060200190518101906109ae9190610afc565b61079c5760405162461bcd60e51b81526004016101f690610d24565b60606109d984846000856109e1565b949350505050565b606082471015610a035760405162461bcd60e51b81526004016101f690610c44565b610a0c85610aa1565b610a285760405162461bcd60e51b81526004016101f690610ced565b600080866001600160a01b03168587604051610a449190610b48565b60006040518083038185875af1925050503d8060008114610a81576040519150601f19603f3d011682016040523d82523d6000602084013e610a86565b606091505b5091509150610a96828286610aa7565b979650505050505050565b3b151590565b60608315610ab6575081610934565b825115610ac65782518084602001fd5b8160405162461bcd60e51b81526004016101f69190610bda565b600060208284031215610af1578081fd5b813561073d81610eae565b600060208284031215610b0d578081fd5b815161073d81610eae565b600060208284031215610b29578081fd5b5035919050565b600060208284031215610b41578081fd5b5051919050565b60008251610b5a818460208701610e6c565b9190910192915050565b6001600160a01b0391909116815260200190565b6001600160a01b0392831681529116602082015260400190565b6001600160a01b039384168152919092166020820152604081019190915260600190565b6001600160a01b03929092168252602082015260400190565b901515815260200190565b6000602082528251806020840152610bf9816040850160208701610e6c565b601f01601f19169190910160400192915050565b6020808252601b908201527f536166654d6174683a206164646974696f6e206f766572666c6f770000000000604082015260600190565b60208082526026908201527f416464726573733a20696e73756666696369656e742062616c616e636520666f6040820152651c8818d85b1b60d21b606082015260800190565b60208082526008908201526721666163746f727960c01b604082015260600190565b60208082526021908201527f536166654d6174683a206d756c7469706c69636174696f6e206f766572666c6f6040820152607760f81b606082015260800190565b6020808252601d908201527f416464726573733a2063616c6c20746f206e6f6e2d636f6e7472616374000000604082015260600190565b6020808252602a908201527f5361666545524332303a204552433230206f7065726174696f6e20646964206e6040820152691bdd081cdd58d8d9595960b21b606082015260800190565b60208082526036908201527f5361666545524332303a20617070726f76652066726f6d206e6f6e2d7a65726f60408201527520746f206e6f6e2d7a65726f20616c6c6f77616e636560501b606082015260800190565b6020808252600990820152683737ba1037bbb732b960b91b604082015260600190565b90815260200190565b918252602082015260400190565b60008219821115610e1157610e11610e98565b500190565b600082610e3157634e487b7160e01b81526012600452602481fd5b500490565b6000816000190483118215151615610e5057610e50610e98565b500290565b600082821015610e6757610e67610e98565b500390565b60005b83811015610e87578181015183820152602001610e6f565b838111156108855750506000910152565b634e487b7160e01b600052601160045260246000fd5b8015158114610ebc57600080fd5b5056fea26469706673582212201440a760a4ade03c6a113588343107263bcee041f93bc8f737ed6aa83b37768464736f6c63430008010033a26469706673582212201866759c67403331f240ae041db23b67fcb08cc764fb0a3e57ba29baae1b44a464736f6c63430008010033",
  "linkReferences": {},
  "deployedLinkReferences": {}
}