{
  "_format": "hh-sol-artifact-1",
  "contractName": "Vault",
  "sourceName": "contracts/Vault.sol",
  "abi": [
    {
      "inputs": [
        {
          "internalType": "address",
          "name": "_ptm",
          "type": "address"
        }
      ],
      "stateMutability": "nonpayable",
      "type": "constructor"
    },
    {
      "inputs": [],
      "name": "_totalPoint",
      "outputs": [
        {
          "internalType": "uint256",
          "name": "",
          "type": "uint256"
        }
      ],
      "stateMutability": "view",
      "type": "function"
    },
    {
      "inputs": [],
      "name": "_totalShares",
      "outputs": [
        {
          "internalType": "uint256",
          "name": "",
          "type": "uint256"
        }
      ],
      "stateMutability": "view",
      "type": "function"
    },
    {
      "inputs": [],
      "name": "admin",
      "outputs": [
        {
          "internalType": "address",
          "name": "",
          "type": "address"
        }
      ],
      "stateMutability": "view",
      "type": "function"
    },
    {
      "inputs": [],
      "name": "balance",
      "outputs": [
        {
          "internalType": "uint256",
          "name": "",
          "type": "uint256"
        }
      ],
      "stateMutability": "view",
      "type": "function"
    },
    {
      "inputs": [
        {
          "internalType": "address",
          "name": "_user",
          "type": "address"
        }
      ],
      "name": "balanceOf",
      "outputs": [
        {
          "internalType": "uint256",
          "name": "",
          "type": "uint256"
        }
      ],
      "stateMutability": "view",
      "type": "function"
    },
    {
      "inputs": [],
      "name": "claim",
      "outputs": [],
      "stateMutability": "nonpayable",
      "type": "function"
    },
    {
      "inputs": [
        {
          "internalType": "uint256",
          "name": "_amount",
          "type": "uint256"
        }
      ],
      "name": "claimSome",
      "outputs": [],
      "stateMutability": "nonpayable",
      "type": "function"
    },
    {
      "inputs": [],
      "name": "controller",
      "outputs": [
        {
          "internalType": "address",
          "name": "",
          "type": "address"
        }
      ],
      "stateMutability": "view",
      "type": "function"
    },
    {
      "inputs": [
        {
          "internalType": "address",
          "name": "_user",
          "type": "address"
        }
      ],
      "name": "countNodes",
      "outputs": [
        {
          "internalType": "uint256",
          "name": "",
          "type": "uint256"
        }
      ],
      "stateMutability": "view",
      "type": "function"
    },
    {
      "inputs": [],
      "name": "countNodesAll",
      "outputs": [
        {
          "internalType": "uint256",
          "name": "",
          "type": "uint256"
        }
      ],
      "stateMutability": "view",
      "type": "function"
    },
    {
      "inputs": [],
      "name": "countSharedUsers",
      "outputs": [
        {
          "internalType": "uint256",
          "name": "",
          "type": "uint256"
        }
      ],
      "stateMutability": "view",
      "type": "function"
    },
    {
      "inputs": [],
      "name": "countUsers",
      "outputs": [
        {
          "internalType": "uint256",
          "name": "",
          "type": "uint256"
        }
      ],
      "stateMutability": "view",
      "type": "function"
    },
    {
      "inputs": [
        {
          "internalType": "address",
          "name": "_user",
          "type": "address"
        },
        {
          "internalType": "uint256",
          "name": "_amount",
          "type": "uint256"
        }
      ],
      "name": "createNode",
      "outputs": [
        {
          "internalType": "address",
          "name": "",
          "type": "address"
        }
      ],
      "stateMutability": "nonpayable",
      "type": "function"
    },
    {
      "inputs": [],
      "name": "distributeRewards",
      "outputs": [],
      "stateMutability": "nonpayable",
      "type": "function"
    },
    {
      "inputs": [],
      "name": "governance",
      "outputs": [
        {
          "internalType": "address",
          "name": "",
          "type": "address"
        }
      ],
      "stateMutability": "view",
      "type": "function"
    },
    {
      "inputs": [
        {
          "internalType": "address",
          "name": "_user",
          "type": "address"
        }
      ],
      "name": "hasNode",
      "outputs": [
        {
          "internalType": "bool",
          "name": "",
          "type": "bool"
        }
      ],
      "stateMutability": "view",
      "type": "function"
    },
    {
      "inputs": [
        {
          "internalType": "address",
          "name": "_user",
          "type": "address"
        },
        {
          "internalType": "address",
          "name": "_node",
          "type": "address"
        },
        {
          "internalType": "uint256",
          "name": "_amount",
          "type": "uint256"
        }
      ],
      "name": "mergeNode",
      "outputs": [],
      "stateMutability": "nonpayable",
      "type": "function"
    },
    {
      "inputs": [],
      "name": "minStakeAmount",
      "outputs": [
        {
          "internalType": "uint256",
          "name": "",
          "type": "uint256"
        }
      ],
      "stateMutability": "view",
      "type": "function"
    },
    {
      "inputs": [],
      "name": "nodeCapacity",
      "outputs": [
        {
          "internalType": "uint256",
          "name": "",
          "type": "uint256"
        }
      ],
      "stateMutability": "view",
      "type": "function"
    },
    {
      "inputs": [],
      "name": "nodeList",
      "outputs": [
        {
          "internalType": "address[]",
          "name": "",
          "type": "address[]"
        }
      ],
      "stateMutability": "view",
      "type": "function"
    },
    {
      "inputs": [],
      "name": "nodeListAll",
      "outputs": [
        {
          "internalType": "address[]",
          "name": "",
          "type": "address[]"
        }
      ],
      "stateMutability": "view",
      "type": "function"
    },
    {
      "inputs": [],
      "name": "ptm",
      "outputs": [
        {
          "internalType": "address",
          "name": "",
          "type": "address"
        }
      ],
      "stateMutability": "view",
      "type": "function"
    },
    {
      "inputs": [
        {
          "internalType": "address",
          "name": "_user",
          "type": "address"
        },
        {
          "internalType": "address",
          "name": "_node",
          "type": "address"
        },
        {
          "internalType": "uint256",
          "name": "_amount",
          "type": "uint256"
        }
      ],
      "name": "removeNode",
      "outputs": [],
      "stateMutability": "nonpayable",
      "type": "function"
    },
    {
      "inputs": [
        {
          "internalType": "address",
          "name": "",
          "type": "address"
        }
      ],
      "name": "rewardPool",
      "outputs": [
        {
          "internalType": "uint256",
          "name": "shares",
          "type": "uint256"
        },
        {
          "internalType": "uint256",
          "name": "lastUpdated",
          "type": "uint256"
        },
        {
          "internalType": "uint256",
          "name": "lastBlock",
          "type": "uint256"
        },
        {
          "internalType": "uint256",
          "name": "rewardPoint",
          "type": "uint256"
        },
        {
          "internalType": "uint256",
          "name": "rewards",
          "type": "uint256"
        },
        {
          "internalType": "uint256",
          "name": "firstStaked",
          "type": "uint256"
        },
        {
          "internalType": "uint256",
          "name": "lastWithdrawed",
          "type": "uint256"
        }
      ],
      "stateMutability": "view",
      "type": "function"
    },
    {
      "inputs": [
        {
          "internalType": "address",
          "name": "_user",
          "type": "address"
        }
      ],
      "name": "rewardsOf",
      "outputs": [
        {
          "internalType": "uint256",
          "name": "",
          "type": "uint256"
        }
      ],
      "stateMutability": "view",
      "type": "function"
    },
    {
      "inputs": [
        {
          "internalType": "address",
          "name": "_admin",
          "type": "address"
        }
      ],
      "name": "setAdmin",
      "outputs": [],
      "stateMutability": "nonpayable",
      "type": "function"
    },
    {
      "inputs": [
        {
          "internalType": "address",
          "name": "_controller",
          "type": "address"
        }
      ],
      "name": "setController",
      "outputs": [],
      "stateMutability": "nonpayable",
      "type": "function"
    },
    {
      "inputs": [
        {
          "internalType": "address",
          "name": "_governance",
          "type": "address"
        }
      ],
      "name": "setGovernance",
      "outputs": [],
      "stateMutability": "nonpayable",
      "type": "function"
    },
    {
      "inputs": [
        {
          "internalType": "uint256",
          "name": "_amount",
          "type": "uint256"
        }
      ],
      "name": "setMinStakeAmount",
      "outputs": [],
      "stateMutability": "nonpayable",
      "type": "function"
    },
    {
      "inputs": [
        {
          "internalType": "uint256",
          "name": "_capacity",
          "type": "uint256"
        }
      ],
      "name": "setNodeCapacity",
      "outputs": [],
      "stateMutability": "nonpayable",
      "type": "function"
    },
    {
      "inputs": [
        {
          "internalType": "uint256",
          "name": "_period",
          "type": "uint256"
        }
      ],
      "name": "setStakeLockPeriod",
      "outputs": [],
      "stateMutability": "nonpayable",
      "type": "function"
    },
    {
      "inputs": [
        {
          "internalType": "uint256",
          "name": "_period",
          "type": "uint256"
        }
      ],
      "name": "setWithdrawLockPeriod",
      "outputs": [],
      "stateMutability": "nonpayable",
      "type": "function"
    },
    {
      "inputs": [],
      "name": "sharedBalance",
      "outputs": [
        {
          "internalType": "uint256",
          "name": "",
          "type": "uint256"
        }
      ],
      "stateMutability": "view",
      "type": "function"
    },
    {
      "inputs": [],
      "name": "sharedUsers",
      "outputs": [
        {
          "internalType": "address[]",
          "name": "",
          "type": "address[]"
        }
      ],
      "stateMutability": "view",
      "type": "function"
    },
    {
      "inputs": [
        {
          "internalType": "uint256",
          "name": "_amount",
          "type": "uint256"
        }
      ],
      "name": "stake",
      "outputs": [],
      "stateMutability": "nonpayable",
      "type": "function"
    },
    {
      "inputs": [],
      "name": "stakeAll",
      "outputs": [],
      "stateMutability": "nonpayable",
      "type": "function"
    },
    {
      "inputs": [],
      "name": "stakeLockPeriod",
      "outputs": [
        {
          "internalType": "uint256",
          "name": "",
          "type": "uint256"
        }
      ],
      "stateMutability": "view",
      "type": "function"
    },
    {
      "inputs": [],
      "name": "totalBalance",
      "outputs": [
        {
          "internalType": "uint256",
          "name": "",
          "type": "uint256"
        }
      ],
      "stateMutability": "view",
      "type": "function"
    },
    {
      "inputs": [],
      "name": "totalRewards",
      "outputs": [
        {
          "internalType": "uint256",
          "name": "",
          "type": "uint256"
        }
      ],
      "stateMutability": "view",
      "type": "function"
    },
    {
      "inputs": [],
      "name": "totalShares",
      "outputs": [
        {
          "internalType": "uint256",
          "name": "",
          "type": "uint256"
        }
      ],
      "stateMutability": "view",
      "type": "function"
    },
    {
      "inputs": [],
      "name": "userList",
      "outputs": [
        {
          "internalType": "address[]",
          "name": "",
          "type": "address[]"
        }
      ],
      "stateMutability": "view",
      "type": "function"
    },
    {
      "inputs": [
        {
          "internalType": "uint256",
          "name": "_amount",
          "type": "uint256"
        }
      ],
      "name": "withdraw",
      "outputs": [],
      "stateMutability": "nonpayable",
      "type": "function"
    },
    {
      "inputs": [],
      "name": "withdrawAll",
      "outputs": [],
      "stateMutability": "nonpayable",
      "type": "function"
    },
    {
      "inputs": [],
      "name": "withdrawLockPeriod",
      "outputs": [
        {
          "internalType": "uint256",
          "name": "",
          "type": "uint256"
        }
      ],
      "stateMutability": "view",
      "type": "function"
    }
  ],
  "bytecode": "0x608060405269021e19e0c9bab2400000600055683635c9adc5dea0000060015562278d00600255620151806003553480156200003a57600080fd5b506040516200452f3803806200452f8339810160408190526200005d9162000098565b600480546001600160a01b039092166001600160a01b03199283161790556005805482163390811790915560068054909216179055620000c8565b600060208284031215620000aa578081fd5b81516001600160a01b0381168114620000c1578182fd5b9392505050565b61445780620000d86000396000f3fe60806040523480156200001157600080fd5b5060043610620002b05760003560e01c8063853828b61162000171578063bebe4da611620000d5578063f18876841162000093578063f18876841462000577578063f77c47911462000581578063f851a440146200058b578063f8fb1d0f1462000595578063fe9636d3146200059f578063ff800d6314620005a957620002b0565b8063bebe4da6146200051c578063c1357e5c1462000526578063e89160111462000530578063e97c87711462000556578063eb4af045146200056057620002b0565b8063ab033ea9116200012f578063ab033ea914620004c6578063ad36712e14620004dd578063ad7a672f14620004e7578063b0428da614620004f1578063b69ef8a814620004fb578063bc67f330146200050557620002b0565b8063853828b6146200046d5780638aa0c7bb14620004775780638dcb4061146200048e57806392eefe9b1462000498578063a694fc3a14620004af57620002b0565b8063479ba7ae11620002195780636710837b11620001d75780636710837b14620003fd5780636d7d34f314620004145780636f4a2cd0146200042b5780636f79b7991462000435578063704b6c02146200043f57806370a08231146200045657620002b0565b8063479ba7ae14620003a2578063499ab37e14620003b95780634e71d92d14620003c35780635aa6e67514620003cd578063636114c714620003e657620002b0565b80632628490f11620002735780632628490f146200034c5780632e1a7d4d14620003565780632e3a9690146200036d57806339db45f614620003845780633a98ef39146200038e5780633b49244b146200039857620002b0565b8063098a954c14620002b55780630e0f785f14620002ce5780630e15561a14620002f05780631bcda1981462000309578063238f9dfb1462000335575b600080fd5b620002cc620002c636600462002d63565b620005b3565b005b620002d862000858565b604051620002e7919062002ed6565b60405180910390f35b620002fa62000934565b604051620002e7919062003305565b620003206200031a36600462002d25565b62000975565b604051620002e797969594939291906200330e565b620002cc6200034636600462002df8565b620009b2565b620002fa62000a10565b620002cc6200036736600462002df8565b62000a16565b620002cc6200037e36600462002df8565b62000c33565b620002d862000c91565b620002fa62000d95565b620002d862000d9b565b620002fa620003b336600462002d25565b62000e71565b620002fa62000e93565b620002cc62000e99565b620003d762000eaa565b604051620002e7919062002e48565b620002cc620003f736600462002d63565b62000eb9565b620003d76200040e36600462002da8565b62001068565b620002fa6200042536600462002d25565b620011fd565b620002cc6200124b565b620002fa62001560565b620002cc6200045036600462002d25565b62001573565b620002fa6200046736600462002d25565b620015ee565b620002cc6200171d565b620002cc6200048836600462002df8565b6200172c565b620002cc6200178a565b620002cc620004a936600462002d25565b62001814565b620002cc620004c036600462002df8565b6200188f565b620002cc620004d736600462002d25565b62001b99565b620003d762001c14565b620002fa62001c23565b620002fa62001cc1565b620002fa62001cc7565b620002cc6200051636600462002df8565b62001d4f565b620002fa62001dd0565b620002fa62001dde565b620005476200054136600462002d25565b62001de4565b604051620002e7919062002f25565b620002d862001e26565b620002cc6200057136600462002df8565b62001efc565b620002fa62001f5a565b620003d762001f60565b620003d762001f6f565b620002fa62001f7e565b620002fa62001f8c565b620002fa62001ff6565b620005c7826001600160a01b031662001ffc565b80620005dd57506005546001600160a01b031633145b80620005f357506007546001600160a01b031633145b6200061b5760405162461bcd60e51b81526004016200061290620031a9565b60405180910390fd5b60006200062762001cc7565b905081156200064a576004546200064a906001600160a01b031633308562002002565b60006200065662001cc7565b90506200066481836200205e565b6001600160a01b03861660009081526008602052604090209093506200068b9085620020a9565b5062000699600985620020a9565b506001600160a01b0385166000908152600860205260408120620006bd90620020c0565b1115620007f1576001600160a01b0385166000908152600860205260408120620006e89082620020cd565b9050831562000787576004546200070b906001600160a01b0316826000620020db565b60045462000724906001600160a01b03168286620020db565b60405163534a7e1d60e11b81526001600160a01b0382169063a694fc3a906200075290879060040162003305565b600060405180830381600087803b1580156200076d57600080fd5b505af115801562000782573d6000803e3d6000fd5b505050505b60405163567619c560e11b81526001600160a01b0382169063acec338a90620007b69060019060040162002f25565b600060405180830381600087803b158015620007d157600080fd5b505af1158015620007e6573d6000803e3d6000fd5b505050505062000851565b6001600160a01b0385166000908152600b6020526040902060028101546200081a9085620021ab565b60028201819055428255436001830155156200083d576200083b86620021df565b505b600c546200084c9085620021ab565b600c55505b5050505050565b6060600062000868600f620020c0565b67ffffffffffffffff8111156200088f57634e487b7160e01b600052604160045260246000fd5b604051908082528060200260200182016040528015620008b9578160200160208202803683370190505b50905060005b620008cb600f620020c0565b8110156200092e57620008e0600f82620020cd565b8282815181106200090157634e487b7160e01b600052603260045260246000fd5b6001600160a01b0390921660209283029190910190910152806200092581620033e5565b915050620008bf565b50905090565b6000806200094162001cc7565b905060006200094f62001f8c565b90508082106200096b576200096581836200339c565b6200096e565b60005b9250505090565b6013602052600090815260409020805460018201546002830154600384015460048501546005860154600690960154949593949293919290919087565b6006546001600160a01b0316331480620009d657506005546001600160a01b031633145b80620009ec57506007546001600160a01b031633145b62000a0b5760405162461bcd60e51b81526004016200061290620030e3565b600055565b60035481565b600062000a2333620015ee565b1162000a435760405162461bcd60e51b8152600401620006129062003015565b3360009081526013602052604090206002546005820154429162000a689190620021ab565b1062000a885760405162461bcd60e51b8152600401620006129062003172565b4262000aa46003548360060154620021ab90919063ffffffff16565b1062000ac45760405162461bcd60e51b8152600401620006129062002fa7565b62000acf3362002213565b600062000adc3362002300565b336000908152600b602052604090209091506001600160a01b0382161562000b6657604051632e1a7d4d60e01b81526001600160a01b03831690632e1a7d4d9062000b2c90879060040162003305565b600060405180830381600087803b15801562000b4757600080fd5b505af115801562000b5c573d6000803e3d6000fd5b5050505062000c0d565b806002015484111562000b7b57806002015493505b600062000b8762001cc7565b90508481101562000b96578094505b60045462000baf906001600160a01b031633876200248f565b600282015462000bc090866200205e565b6002830155428255436001830155600c54851162000bee5784600c5462000be891906200339c565b62000bf1565b60005b600c55600282015462000c0b5762000c0933620024b1565b505b505b62000c1833620024e6565b62000c23336200269b565b5042836006018190555050505050565b6006546001600160a01b031633148062000c5757506005546001600160a01b031633145b8062000c6d57506007546001600160a01b031633145b62000c8c5760405162461bcd60e51b81526004016200061290620030e3565b600255565b3360009081526008602052604081206060919062000caf90620020c0565b67ffffffffffffffff81111562000cd657634e487b7160e01b600052604160045260246000fd5b60405190808252806020026020018201604052801562000d00578160200160208202803683370190505b50905060005b33600090815260086020526040902062000d2090620020c0565b8110156200092e5733600090815260086020526040812062000d439083620020cd565b90508083838151811062000d6757634e487b7160e01b600052603260045260246000fd5b6001600160a01b0390921660209283029190910190910152508062000d8c81620033e5565b91505062000d06565b600c5481565b6060600062000dab6011620020c0565b67ffffffffffffffff81111562000dd257634e487b7160e01b600052604160045260246000fd5b60405190808252806020026020018201604052801562000dfc578160200160208202803683370190505b50905060005b62000e0e6011620020c0565b8110156200092e5762000e23601182620020cd565b82828151811062000e4457634e487b7160e01b600052603260045260246000fd5b6001600160a01b03909216602092830291909101909101528062000e6881620033e5565b91505062000e02565b6001600160a01b0381166000908152601360205260409020600401545b919050565b60025481565b62000ea8620005163362000e71565b565b6005546001600160a01b031681565b62000ecd826001600160a01b031662001ffc565b8062000ee357506005546001600160a01b031633145b8062000ef957506007546001600160a01b031633145b62000f185760405162461bcd60e51b81526004016200061290620031a9565b6001600160a01b038316600090815260086020526040902062000f3c9083620020a9565b5062000f4a600983620020a9565b506001600160a01b038316600090815260086020526040812062000f6e90620020c0565b111562001063576001600160a01b038316600090815260086020526040812062000f999082620020cd565b60405163567619c560e11b81529091506001600160a01b0382169063acec338a9062000fcb9060019060040162002f25565b600060405180830381600087803b15801562000fe657600080fd5b505af115801562000ffb573d6000803e3d6000fd5b5050604051632e1a7d4d60e01b81526001600160a01b0384169250632e1a7d4d91506200102d90859060040162003305565b600060405180830381600087803b1580156200104857600080fd5b505af11580156200105d573d6000803e3d6000fd5b50505050505b505050565b6000336200108a5760405162461bcd60e51b815260040162000612906200323f565b60008211620010ad5760405162461bcd60e51b815260040162000612906200303e565b600454604051600091309186916001600160a01b031690620010cf9062002d17565b620010dd9392919062002e76565b604051809103906000f080158015620010fa573d6000803e3d6000fd5b50905060006200110962001cc7565b60045490915062001126906001600160a01b031633308762002002565b60006200113262001cc7565b90506200114081836200205e565b6004549095506200115c906001600160a01b03168487620020db565b60405163534a7e1d60e11b81526001600160a01b0384169063a694fc3a906200118a90889060040162003305565b600060405180830381600087803b158015620011a557600080fd5b505af1158015620011ba573d6000803e3d6000fd5b5050506001600160a01b0387166000908152600860205260409020620011e2915084620026ee565b50620011f0600984620026ee565b5091925050505b92915050565b60006001600160a01b038216620012285760405162461bcd60e51b8152600401620006129062003103565b6001600160a01b0382166000908152600860205260409020620011f790620020c0565b6006546001600160a01b03163314806200126f57506005546001600160a01b031633145b806200128557506007546001600160a01b031633145b620012a45760405162461bcd60e51b81526004016200061290620030e3565b600c54158015620012be5750620012bc6009620020c0565b155b15620012ca5762000ea8565b600754604080516366666aa960e01b815290516000926001600160a01b0316916366666aa991600480830192602092919082900301818787803b1580156200131157600080fd5b505af115801562001326573d6000803e3d6000fd5b505050506040513d601f19601f820116820180604052508101906200134c919062002d44565b90506000816001600160a01b0316639994673d6040518163ffffffff1660e01b8152600401602060405180830381600087803b1580156200138c57600080fd5b505af1158015620013a1573d6000803e3d6000fd5b505050506040513d601f19601f82011682018060405250810190620013c7919062002e11565b905080156200155c57600480546040516370a0823160e01b81526000926001600160a01b03909216916370a0823191620014049130910162002e48565b60206040518083038186803b1580156200141d57600080fd5b505afa15801562001432573d6000803e3d6000fd5b505050506040513d601f19601f8201168201806040525081019062001458919062002e11565b9050826001600160a01b031663091dffca6040518163ffffffff1660e01b8152600401600060405180830381600087803b1580156200149657600080fd5b505af1158015620014ab573d6000803e3d6000fd5b5050600480546040516370a0823160e01b8152600094506001600160a01b0390911692506370a0823191620014e39130910162002e48565b60206040518083038186803b158015620014fc57600080fd5b505afa15801562001511573d6000803e3d6000fd5b505050506040513d601f19601f8201168201806040525081019062001537919062002e11565b90506200154581836200205e565b925082156200155957620015598362002705565b50505b5050565b60006200156e6011620020c0565b905090565b6006546001600160a01b03163314806200159757506005546001600160a01b031633145b80620015ad57506007546001600160a01b031633145b620015cc5760405162461bcd60e51b81526004016200061290620030e3565b600680546001600160a01b0319166001600160a01b0392909216919091179055565b600080620015fe6011846200282e565b15620016285750506001600160a01b0381166000908152600b602052604090206002015462000e8e565b60005b6001600160a01b03841660009081526008602052604090206200164e90620020c0565b81101562001716576001600160a01b03841660009081526008602052604081206200167a9083620020cd565b9050620016fd816001600160a01b031663b69ef8a86040518163ffffffff1660e01b815260040160206040518083038186803b158015620016ba57600080fd5b505afa158015620016cf573d6000803e3d6000fd5b505050506040513d601f19601f82011682018060405250810190620016f5919062002e11565b8490620021ab565b92505080806200170d90620033e5565b9150506200162b565b5092915050565b62000ea86200036733620015ee565b6006546001600160a01b03163314806200175057506005546001600160a01b031633145b806200176657506007546001600160a01b031633145b620017855760405162461bcd60e51b81526004016200061290620030e3565b600355565b600480546040516370a0823160e01b815262000ea8926001600160a01b03909216916370a0823191620017c09133910162002e48565b60206040518083038186803b158015620017d957600080fd5b505afa158015620017ee573d6000803e3d6000fd5b505050506040513d601f19601f82011682018060405250810190620004c0919062002e11565b6006546001600160a01b03163314806200183857506005546001600160a01b031633145b806200184e57506007546001600160a01b031633145b6200186d5760405162461bcd60e51b81526004016200061290620030e3565b600780546001600160a01b0319166001600160a01b0392909216919091179055565b600154811015620018b45760405162461bcd60e51b8152600401620006129062003066565b620018bf3362002845565b50620018cb3362002213565b6000620018d83362002300565b336000908152600b602052604090209091506001600160a01b03821615620019c35760006200190662001cc7565b60045490915062001923906001600160a01b031633308762002002565b60006200192f62001cc7565b90506200193d81836200205e565b60045490955062001959906001600160a01b03168587620020db565b60405163534a7e1d60e11b81526001600160a01b0385169063a694fc3a906200198790889060040162003305565b600060405180830381600087803b158015620019a257600080fd5b505af1158015620019b7573d6000803e3d6000fd5b50505050505062001b8e565b6000546002820154620019d79085620021ab565b1062001b0857620019e9338462001068565b506000620019f73362002300565b905062001a0362001cc7565b82600201541162001a1957816002015462001a23565b62001a2362001cc7565b935060008411801562001a3e57506001600160a01b03811615155b1562001ac05760045462001a5d906001600160a01b03168286620020db565b60405163534a7e1d60e11b81526001600160a01b0382169063a694fc3a9062001a8b90879060040162003305565b600060405180830381600087803b15801562001aa657600080fd5b505af115801562001abb573d6000803e3d6000fd5b505050505b62001acb33620024b1565b508160020154600c541062001af4578160020154600c5462001aee91906200339c565b62001af7565b60005b600c55506000600282015562001b8e565b600062001b1462001cc7565b60045490915062001b31906001600160a01b031633308762002002565b600062001b3d62001cc7565b905062001b4b81836200205e565b600284015490955062001b5f9086620021ab565b600284015542835543600184015562001b7833620021df565b50600c5462001b889086620021ab565b600c5550505b6200106333620024e6565b6006546001600160a01b031633148062001bbd57506005546001600160a01b031633145b8062001bd357506007546001600160a01b031633145b62001bf25760405162461bcd60e51b81526004016200061290620030e3565b600580546001600160a01b0319166001600160a01b0392909216919091179055565b6004546001600160a01b031681565b60008062001c3062001cc7565b905060005b62001c416009620020c0565b8110156200092e57600062001c58600983620020cd565b90506001600160a01b0381161562001cab5762001ca8816001600160a01b031663b69ef8a86040518163ffffffff1660e01b815260040160206040518083038186803b158015620016ba57600080fd5b92505b508062001cb881620033e5565b91505062001c35565b600d5481565b600480546040516370a0823160e01b81526000926001600160a01b03909216916370a082319162001cfb9130910162002e48565b60206040518083038186803b15801562001d1457600080fd5b505afa15801562001d29573d6000803e3d6000fd5b505050506040513d601f19601f820116820180604052508101906200156e919062002e11565b3360009081526013602052604090206004810154156200155c57818160040154101562001d7e57806004015491505b8162001d8962001cc7565b101562001d9d5762001d9a62001cc7565b91505b60045462001db6906001600160a01b031633846200248f565b600481015462001dc790836200205e565b60048201555050565b60006200156e6009620020c0565b60005481565b600062001df36011836200282e565b158015620011f757506001600160a01b038216600090815260086020526040812062001e1f90620020c0565b1192915050565b6060600062001e366009620020c0565b67ffffffffffffffff81111562001e5d57634e487b7160e01b600052604160045260246000fd5b60405190808252806020026020018201604052801562001e87578160200160208202803683370190505b50905060005b62001e996009620020c0565b8110156200092e5762001eae600982620020cd565b82828151811062001ecf57634e487b7160e01b600052603260045260246000fd5b6001600160a01b03909216602092830291909101909101528062001ef381620033e5565b91505062001e8d565b6006546001600160a01b031633148062001f2057506005546001600160a01b031633145b8062001f3657506007546001600160a01b031633145b62001f555760405162461bcd60e51b81526004016200061290620030e3565b600155565b60015481565b6007546001600160a01b031681565b6006546001600160a01b031681565b60006200156e600f620020c0565b600080805b62001f9d6011620020c0565b8110156200092e5762001fdf600b600062001fba601185620020cd565b6001600160a01b031681526020810191909152604001600020600201548390620021ab565b91508062001fed81620033e5565b91505062001f91565b600e5481565b3b151590565b62001559846323b872dd60e01b858585604051602401620020269392919062002e99565b60408051601f198184030181529190526020810180516001600160e01b03166001600160e01b03199093169290921790915262002866565b6000620020a283836040518060400160405280601e81526020017f536166654d6174683a207375627472616374696f6e206f766572666c6f770000815250620028fd565b9392505050565b6000620020a2836001600160a01b0384166200293c565b6000620011f78262002a65565b6000620020a2838362002a69565b8015806200216a5750604051636eb1769f60e11b81526001600160a01b0384169063dd62ed3e9062002114903090869060040162002e5c565b60206040518083038186803b1580156200212d57600080fd5b505afa15801562002142573d6000803e3d6000fd5b505050506040513d601f19601f8201168201806040525081019062002168919062002e11565b155b620021895760405162461bcd60e51b81526004016200061290620032af565b620010638363095ea7b360e01b84846040516024016200202692919062002ebd565b600080620021ba83856200333e565b905083811015620020a25760405162461bcd60e51b8152600401620006129062002fde565b6000620021ee6011836200282e565b6200220b5762002200601183620026ee565b506000905062000e8e565b506001919050565b6001600160a01b03811660009081526013602052604090206002810154620022485743600282015542600190910155620022fd565b600d54620022575750620022fd565b8060030154600e541062002283578060030154600e60008282546200227d91906200339c565b90915550505b620022c3600d54620022bc8360000154620022b56305f5e100620022b58760020154436200205e90919063ffffffff16565b9062002ac6565b9062002b14565b816003016000828254620022d891906200333e565b90915550506003810154600e8054600090620022f69084906200333e565b9091555050505b50565b6000805b6001600160a01b03831660009081526008602052604090206200232790620020c0565b81101562002486576001600160a01b0383166000908152600860205260408120620023539083620020cd565b6000549091506200236690600262002ac6565b816001600160a01b031663b69ef8a86040518163ffffffff1660e01b815260040160206040518083038186803b158015620023a057600080fd5b505afa158015620023b5573d6000803e3d6000fd5b505050506040513d601f19601f82011682018060405250810190620023db919062002e11565b11158015620024605750806001600160a01b03166302fb0c5e6040518163ffffffff1660e01b815260040160206040518083038186803b1580156200241f57600080fd5b505afa15801562002434573d6000803e3d6000fd5b505050506040513d601f19601f820116820180604052508101906200245a919062002dd6565b15156001145b156200247057915062000e8e9050565b50806200247d81620033e5565b91505062002304565b50600092915050565b620010638363a9059cbb60e01b84846040516024016200202692919062002ebd565b6000620024c06011836200282e565b15620024de57620024d3601183620020a9565b506001905062000e8e565b506000919050565b6001600160a01b0381166000908152601360205260408120906200250a83620015ee565b90506000620025376200251e6009620020c0565b6200252b9060016200333e565b6305f5e1009062002b14565b90508260000154600d541062002563578254600d80546000906200255d9084906200339c565b90915550505b6200256e8462001de4565b1562002613576001600160a01b03841660009081526008602052604090206200260b90620025ab90620025a190620020c0565b6000549062002ac6565b6001600160a01b0386166000908152600860205260409020620022bc908590620022b590620025da90620020c0565b620022b562002603620025ee6009620020c0565b620025fb9060026200337a565b899062002b14565b8890620021ab565b83556200264d565b600c54821062002630576200262a60028262003359565b6200264a565b600c546200264a90620022bc84620022b585600262002b14565b83555b8254600d8054600090620026639084906200333e565b9091555050436002840155426001840155600583015462002685574260058401555b6006830154620015595742600684015550505050565b6001600160a01b0381166000908152601360205260408120620026c0600f846200282e565b8015620026cf57506003810154155b156200248657620026e2600f84620020a9565b50600191505062000e8e565b6000620020a2836001600160a01b03841662002b58565b60008111620027285760405162461bcd60e51b8152600401620006129062003208565b60005b62002737600f620020c0565b81101562002782576200275662002750600f83620020cd565b62002213565b6200276d62002767600f83620020cd565b620024e6565b806200277981620033e5565b9150506200272b565b50600e546200279157620022fd565b60005b620027a0600f620020c0565b8110156200155c576000601381620027ba600f85620020cd565b6001600160a01b03166001600160a01b031681526020019081526020016000209050620027fc600e54620022bc83600301548662002ac690919063ffffffff16565b8160040160008282546200281191906200333e565b9091555082915062002825905081620033e5565b91505062002794565b6000620020a2836001600160a01b03841662002ba7565b600062002854600f836200282e565b6200220b5762002200600f83620026ee565b6000620028bd826040518060400160405280602081526020017f5361666545524332303a206c6f772d6c6576656c2063616c6c206661696c6564815250856001600160a01b031662002bbf9092919063ffffffff16565b805190915015620010635780806020019051810190620028de919062002dd6565b620010635760405162461bcd60e51b8152600401620006129062003265565b60008184841115620029245760405162461bcd60e51b815260040162000612919062002f30565b5060006200293384866200339c565b95945050505050565b6000818152600183016020526040812054801562002a5a576000620029636001836200339c565b855490915060009062002979906001906200339c565b90506000866000018281548110620029a157634e487b7160e01b600052603260045260246000fd5b9060005260206000200154905080876000018481548110620029d357634e487b7160e01b600052603260045260246000fd5b600091825260209091200155620029ec8360016200333e565b6000828152600189016020526040902055865487908062002a1d57634e487b7160e01b600052603160045260246000fd5b60019003818190600052602060002001600090559055866001016000878152602001908152602001600020600090556001945050505050620011f7565b6000915050620011f7565b5490565b8154600090821062002a8f5760405162461bcd60e51b8152600401620006129062002f65565b82600001828154811062002ab357634e487b7160e01b600052603260045260246000fd5b9060005260206000200154905092915050565b60008262002ad757506000620011f7565b600062002ae583856200337a565b90508262002af4858362003359565b14620020a25760405162461bcd60e51b8152600401620006129062003131565b6000620020a283836040518060400160405280601a81526020017f536166654d6174683a206469766973696f6e206279207a65726f00000000000081525062002bd8565b600062002b66838362002ba7565b62002b9e57508154600181810184556000848152602080822090930184905584548482528286019093526040902091909155620011f7565b506000620011f7565b60009081526001919091016020526040902054151590565b606062002bd0848460008562002c0b565b949350505050565b6000818362002bfc5760405162461bcd60e51b815260040162000612919062002f30565b50600062002933848662003359565b60608247101562002c305760405162461bcd60e51b815260040162000612906200309d565b62002c3b8562001ffc565b62002c5a5760405162461bcd60e51b81526004016200061290620031d1565b600080866001600160a01b0316858760405162002c78919062002e2a565b60006040518083038185875af1925050503d806000811462002cb7576040519150601f19603f3d011682016040523d82523d6000602084013e62002cbc565b606091505b509150915062002cce82828662002cd9565b979650505050505050565b6060831562002cea575081620020a2565b82511562002cfb5782518084602001fd5b8160405162461bcd60e51b815260040162000612919062002f30565b610ff2806200343083390190565b60006020828403121562002d37578081fd5b8135620020a28162003419565b60006020828403121562002d56578081fd5b8151620020a28162003419565b60008060006060848603121562002d78578182fd5b833562002d858162003419565b9250602084013562002d978162003419565b929592945050506040919091013590565b6000806040838503121562002dbb578182fd5b823562002dc88162003419565b946020939093013593505050565b60006020828403121562002de8578081fd5b81518015158114620020a2578182fd5b60006020828403121562002e0a578081fd5b5035919050565b60006020828403121562002e23578081fd5b5051919050565b6000825162002e3e818460208701620033b6565b9190910192915050565b6001600160a01b0391909116815260200190565b6001600160a01b0392831681529116602082015260400190565b6001600160a01b0393841681529183166020830152909116604082015260600190565b6001600160a01b039384168152919092166020820152604081019190915260600190565b6001600160a01b03929092168252602082015260400190565b6020808252825182820181905260009190848201906040850190845b8181101562002f195783516001600160a01b03168352928401929184019160010162002ef2565b50909695505050505050565b901515815260200190565b600060208252825180602084015262002f51816040850160208701620033b6565b601f01601f19169190910160400192915050565b60208082526022908201527f456e756d657261626c655365743a20696e646578206f7574206f6620626f756e604082015261647360f01b606082015260800190565b6020808252601f908201527f6e6f742061626c6520746f206e657874207769746864726177207374696c6c00604082015260600190565b6020808252601b908201527f536166654d6174683a206164646974696f6e206f766572666c6f770000000000604082015260600190565b6020808252600f908201526e696e76616c69642062616c616e636560881b604082015260600190565b6020808252600e908201526d1a5b9d985b1a5908185b5bdd5b9d60921b604082015260600190565b6020808252601b908201527f7374616b696e6720616d6f756e7420697320746f6f20736d616c6c0000000000604082015260600190565b60208082526026908201527f416464726573733a20696e73756666696369656e742062616c616e636520666f6040820152651c8818d85b1b60d21b606082015260800190565b60208082526006908201526510b0b236b4b760d11b604082015260600190565b602080825260149082015273696e76616c69642075736572206164647265737360601b604082015260600190565b60208082526021908201527f536166654d6174683a206d756c7469706c69636174696f6e206f766572666c6f6040820152607760f81b606082015260800190565b60208082526018908201527f6c6f636b656420746f207769746864726177207374696c6c0000000000000000604082015260600190565b6020808252600e908201526d10b737b2329037b91030b236b4b760911b604082015260600190565b6020808252601d908201527f416464726573733a2063616c6c20746f206e6f6e2d636f6e7472616374000000604082015260600190565b6020808252601b908201527f2176616c696420616d6f756e7420746f20646973747269627574650000000000604082015260600190565b6020808252600c908201526b34b73b30b634b2103ab9b2b960a11b604082015260600190565b6020808252602a908201527f5361666545524332303a204552433230206f7065726174696f6e20646964206e6040820152691bdd081cdd58d8d9595960b21b606082015260800190565b60208082526036908201527f5361666545524332303a20617070726f76652066726f6d206e6f6e2d7a65726f60408201527520746f206e6f6e2d7a65726f20616c6c6f77616e636560501b606082015260800190565b90815260200190565b968752602087019590955260408601939093526060850191909152608084015260a083015260c082015260e00190565b6000821982111562003354576200335462003403565b500190565b6000826200337557634e487b7160e01b81526012600452602481fd5b500490565b600081600019048311821515161562003397576200339762003403565b500290565b600082821015620033b157620033b162003403565b500390565b60005b83811015620033d3578181015183820152602001620033b9565b83811115620015595750506000910152565b6000600019821415620033fc57620033fc62003403565b5060010190565b634e487b7160e01b600052601160045260246000fd5b6001600160a01b0381168114620022fd57600080fdfe60806040526000805460ff19166001908117825569021e19e0c9bab2400000905560055534801561002f57600080fd5b50604051610ff2380380610ff283398101604081905261004e916100ac565b600280546001600160a01b039485166001600160a01b0319918216179091556003805493851693821693909317909255600480549190931691161790556100ee565b80516001600160a01b03811681146100a757600080fd5b919050565b6000806000606084860312156100c0578283fd5b6100c984610090565b92506100d760208501610090565b91506100e560408501610090565b90509250925092565b610ef5806100fd6000396000f3fe608060405234801561001057600080fd5b50600436106100ea5760003560e01c806391915ef81161008c578063b69ef8a811610066578063b69ef8a81461019d578063c45a0155146101a5578063d0b06f5d146101ad578063fc0c546a146101b5576100ea565b806391915ef814610164578063a694fc3a14610177578063acec338a1461018a576100ea565b80635cfc1a51116100c85780635cfc1a5114610137578063806b984f1461013f578063853828b6146101475780638da5cb5b1461014f576100ea565b806302fb0c5e146100ef5780630b76619b1461010d5780632e1a7d4d14610122575b600080fd5b6100f76101bd565b6040516101049190610bcf565b60405180910390f35b6101156101c6565b6040516101049190610de7565b610135610130366004610b18565b6101cc565b005b61011561040c565b610115610412565b610135610418565b610157610425565b6040516101049190610b64565b610135610172366004610b18565b610434565b610135610185366004610b18565b610463565b610135610198366004610ae0565b610613565b610115610650565b6101576106d7565b6101156106e6565b6101576106ec565b60005460ff1681565b60055481565b6003546001600160a01b031632146101ff5760405162461bcd60e51b81526004016101f690610dc4565b60405180910390fd5b6000610209610650565b90506000600554831161021d57600061022b565b60055461022b9084906106fb565b9050801561029e5760025460035460405163636114c760e01b81526001600160a01b039283169263636114c79261026b9291169030908690600401610b92565b600060405180830381600087803b15801561028557600080fd5b505af1158015610299573d6000803e3d6000fd5b505050505b6102a883826106fb565b9250828210156102b6578192505b6003546004546102d3916001600160a01b03918216911685610746565b6005546102e090846106fb565b6005819055426006554360075560015411156103cc576000610300610650565b6005541161031057600554610318565b610318610650565b600254600454919250610339916001600160a01b03908116911660006107a1565b600254600454610356916001600160a01b039182169116836107a1565b6000805460ff19169055600254600354604051630262a55360e21b81526001600160a01b039283169263098a954c926103989291169030908690600401610b92565b600060405180830381600087803b1580156103b257600080fd5b505af11580156103c6573d6000803e3d6000fd5b50505050505b7f56ca301a9219608c91e7bcee90e083c19671d2cdcc96752c7af291cee5f9c8c8836005546040516103ff929190610df0565b60405180910390a1505050565b60015481565b60075481565b6104236005546101cc565b565b6003546001600160a01b031681565b6002546001600160a01b0316331461045e5760405162461bcd60e51b81526004016101f690610c8a565b600155565b600061046d610650565b60025460045491925061048e916001600160a01b0390811691163085610864565b6000610498610650565b90506104a481836106fb565b925060006104be600260015461088b90919063ffffffff16565b6005546104cb90866108d0565b116104d75760006104f8565b6104f86001546104f2866005546108d090919063ffffffff16565b906106fb565b905080156105b857600154600555600254600454610524916001600160a01b03918216911660006107a1565b600254600454610541916001600160a01b039182169116836107a1565b6000805460ff19169055600254600354604051636710837b60e01b81526001600160a01b0392831692636710837b92610581929116908590600401610bb6565b600060405180830381600087803b15801561059b57600080fd5b505af11580156105af573d6000803e3d6000fd5b505050506105c9565b6005546105c590856108d0565b6005555b42600655436007556005546040517fc9ec05ea5037818736839e1365dc3d9a74a735c447af0697da66633b7a9d0fab9161060591879190610df0565b60405180910390a150505050565b6002546001600160a01b0316331461063d5760405162461bcd60e51b81526004016101f690610c8a565b6000805460ff1916911515919091179055565b600480546040516370a0823160e01b81526000926001600160a01b03909216916370a082319161068291309101610b64565b60206040518083038186803b15801561069a57600080fd5b505afa1580156106ae573d6000803e3d6000fd5b505050506040513d601f19601f820116820180604052508101906106d29190610b30565b905090565b6002546001600160a01b031681565b60065481565b6004546001600160a01b031681565b600061073d83836040518060400160405280601e81526020017f536166654d6174683a207375627472616374696f6e206f766572666c6f7700008152506108ff565b90505b92915050565b61079c8363a9059cbb60e01b8484604051602401610765929190610bb6565b60408051601f198184030181529190526020810180516001600160e01b03166001600160e01b03199093169290921790915261093b565b505050565b8015806108295750604051636eb1769f60e11b81526001600160a01b0384169063dd62ed3e906107d79030908690600401610b78565b60206040518083038186803b1580156107ef57600080fd5b505afa158015610803573d6000803e3d6000fd5b505050506040513d601f19601f820116820180604052508101906108279190610b30565b155b6108455760405162461bcd60e51b81526004016101f690610d6e565b61079c8363095ea7b360e01b8484604051602401610765929190610bb6565b610885846323b872dd60e01b85858560405160240161076593929190610b92565b50505050565b60008261089a57506000610740565b60006108a68385610e36565b9050826108b38583610e16565b1461073d5760405162461bcd60e51b81526004016101f690610cac565b6000806108dd8385610dfe565b90508381101561073d5760405162461bcd60e51b81526004016101f690610c0d565b600081848411156109235760405162461bcd60e51b81526004016101f69190610bda565b5060006109308486610e55565b9150505b9392505050565b6000610990826040518060400160405280602081526020017f5361666545524332303a206c6f772d6c6576656c2063616c6c206661696c6564815250856001600160a01b03166109ca9092919063ffffffff16565b80519091501561079c57808060200190518101906109ae9190610afc565b61079c5760405162461bcd60e51b81526004016101f690610d24565b60606109d984846000856109e1565b949350505050565b606082471015610a035760405162461bcd60e51b81526004016101f690610c44565b610a0c85610aa1565b610a285760405162461bcd60e51b81526004016101f690610ced565b600080866001600160a01b03168587604051610a449190610b48565b60006040518083038185875af1925050503d8060008114610a81576040519150601f19603f3d011682016040523d82523d6000602084013e610a86565b606091505b5091509150610a96828286610aa7565b979650505050505050565b3b151590565b60608315610ab6575081610934565b825115610ac65782518084602001fd5b8160405162461bcd60e51b81526004016101f69190610bda565b600060208284031215610af1578081fd5b813561073d81610eae565b600060208284031215610b0d578081fd5b815161073d81610eae565b600060208284031215610b29578081fd5b5035919050565b600060208284031215610b41578081fd5b5051919050565b60008251610b5a818460208701610e6c565b9190910192915050565b6001600160a01b0391909116815260200190565b6001600160a01b0392831681529116602082015260400190565b6001600160a01b039384168152919092166020820152604081019190915260600190565b6001600160a01b03929092168252602082015260400190565b901515815260200190565b6000602082528251806020840152610bf9816040850160208701610e6c565b601f01601f19169190910160400192915050565b6020808252601b908201527f536166654d6174683a206164646974696f6e206f766572666c6f770000000000604082015260600190565b60208082526026908201527f416464726573733a20696e73756666696369656e742062616c616e636520666f6040820152651c8818d85b1b60d21b606082015260800190565b60208082526008908201526721666163746f727960c01b604082015260600190565b60208082526021908201527f536166654d6174683a206d756c7469706c69636174696f6e206f766572666c6f6040820152607760f81b606082015260800190565b6020808252601d908201527f416464726573733a2063616c6c20746f206e6f6e2d636f6e7472616374000000604082015260600190565b6020808252602a908201527f5361666545524332303a204552433230206f7065726174696f6e20646964206e6040820152691bdd081cdd58d8d9595960b21b606082015260800190565b60208082526036908201527f5361666545524332303a20617070726f76652066726f6d206e6f6e2d7a65726f60408201527520746f206e6f6e2d7a65726f20616c6c6f77616e636560501b606082015260800190565b6020808252600990820152683737ba1037bbb732b960b91b604082015260600190565b90815260200190565b918252602082015260400190565b60008219821115610e1157610e11610e98565b500190565b600082610e3157634e487b7160e01b81526012600452602481fd5b500490565b6000816000190483118215151615610e5057610e50610e98565b500290565b600082821015610e6757610e67610e98565b500390565b60005b83811015610e87578181015183820152602001610e6f565b838111156108855750506000910152565b634e487b7160e01b600052601160045260246000fd5b8015158114610ebc57600080fd5b5056fea26469706673582212201440a760a4ade03c6a113588343107263bcee041f93bc8f737ed6aa83b37768464736f6c63430008010033a26469706673582212209bcc94cdb82bfd26a958aaa7d95a5601db775c41a0f4924b12c2c2c2cbf95eef64736f6c63430008010033",
  "linkReferences": {},
  "deployedLinkReferences": {}
}