{
  "_format": "hh-sol-artifact-1",
  "contractName": "PotentiamPool",
  "sourceName": "contracts/PotentiamPool.sol",
  "abi": [
    {
      "inputs": [],
      "name": "admin",
      "outputs": [
        {
          "internalType": "address",
          "name": "",
          "type": "address"
        }
      ],
      "stateMutability": "view",
      "type": "function"
    },
    {
      "inputs": [],
      "name": "balance",
      "outputs": [
        {
          "internalType": "uint256",
          "name": "",
          "type": "uint256"
        }
      ],
      "stateMutability": "view",
      "type": "function"
    },
    {
      "inputs": [],
      "name": "controller",
      "outputs": [
        {
          "internalType": "address",
          "name": "",
          "type": "address"
        }
      ],
      "stateMutability": "view",
      "type": "function"
    },
    {
      "inputs": [
        {
          "internalType": "uint256",
          "name": "_amount",
          "type": "uint256"
        }
      ],
      "name": "deposit",
      "outputs": [],
      "stateMutability": "nonpayable",
      "type": "function"
    },
    {
      "inputs": [],
      "name": "depositAll",
      "outputs": [],
      "stateMutability": "nonpayable",
      "type": "function"
    },
    {
      "inputs": [],
      "name": "governance",
      "outputs": [
        {
          "internalType": "address",
          "name": "",
          "type": "address"
        }
      ],
      "stateMutability": "view",
      "type": "function"
    },
    {
      "inputs": [],
      "name": "ptm",
      "outputs": [
        {
          "internalType": "contract IERC20",
          "name": "",
          "type": "address"
        }
      ],
      "stateMutability": "view",
      "type": "function"
    },
    {
      "inputs": [
        {
          "internalType": "address",
          "name": "_admin",
          "type": "address"
        }
      ],
      "name": "setAdmin",
      "outputs": [],
      "stateMutability": "nonpayable",
      "type": "function"
    },
    {
      "inputs": [
        {
          "internalType": "address",
          "name": "_controller",
          "type": "address"
        }
      ],
      "name": "setController",
      "outputs": [],
      "stateMutability": "nonpayable",
      "type": "function"
    },
    {
      "inputs": [
        {
          "internalType": "address",
          "name": "_governance",
          "type": "address"
        }
      ],
      "name": "setGovernace",
      "outputs": [],
      "stateMutability": "nonpayable",
      "type": "function"
    },
    {
      "inputs": [
        {
          "internalType": "address",
          "name": "_ptm",
          "type": "address"
        }
      ],
      "name": "setPTM",
      "outputs": [],
      "stateMutability": "nonpayable",
      "type": "function"
    },
    {
      "inputs": [
        {
          "internalType": "uint256",
          "name": "_amount",
          "type": "uint256"
        }
      ],
      "name": "withdraw",
      "outputs": [],
      "stateMutability": "nonpayable",
      "type": "function"
    },
    {
      "inputs": [],
      "name": "withdrawAll",
      "outputs": [],
      "stateMutability": "nonpayable",
      "type": "function"
    }
  ],
  "bytecode": "0x608060405234801561001057600080fd5b50610a15806100206000396000f3fe608060405234801561001057600080fd5b50600436106100cf5760003560e01c806392eefe9b1161008c578063b6b55f2511610066578063b6b55f2514610178578063de5f62681461018b578063f77c479114610193578063f851a4401461019b576100cf565b806392eefe9b14610148578063ad36712e1461015b578063b69ef8a814610163576100cf565b80632e1a7d4d146100d45780635aa6e675146100e9578063664a61f214610107578063704b6c021461011a578063851e3ca51461012d578063853828b614610140575b600080fd5b6100e76100e23660046107e5565b6101a3565b005b6100f1610234565b6040516100fe9190610831565b60405180910390f35b6100e761011536600461079e565b610243565b6100e761012836600461079e565b6102b9565b6100e761013b36600461079e565b61032f565b6100e76103a5565b6100e761015636600461079e565b6103b2565b6100f1610428565b61016b610437565b6040516100fe91906109aa565b6100e76101863660046107e5565b6104bd565b6100e76104d5565b6100f1610557565b6100f1610566565b6002546001600160a01b03163314806101c657506003546001600160a01b031633145b806101db57506001546001600160a01b031633145b6102005760405162461bcd60e51b81526004016101f7906108fb565b60405180910390fd5b610208610437565b81111561021a57610217610437565b90505b600054610231906001600160a01b03163383610575565b50565b6002546001600160a01b031681565b6002546001600160a01b031633148061026657506003546001600160a01b031633145b8061027b57506001546001600160a01b031633145b6102975760405162461bcd60e51b81526004016101f7906108fb565b600080546001600160a01b0319166001600160a01b0392909216919091179055565b6002546001600160a01b03163314806102dc57506003546001600160a01b031633145b806102f157506001546001600160a01b031633145b61030d5760405162461bcd60e51b81526004016101f7906108fb565b600380546001600160a01b0319166001600160a01b0392909216919091179055565b6002546001600160a01b031633148061035257506003546001600160a01b031633145b8061036757506001546001600160a01b031633145b6103835760405162461bcd60e51b81526004016101f7906108fb565b600280546001600160a01b0319166001600160a01b0392909216919091179055565b6103b06100e2610437565b565b6002546001600160a01b03163314806103d557506003546001600160a01b031633145b806103ea57506001546001600160a01b031633145b6104065760405162461bcd60e51b81526004016101f7906108fb565b600180546001600160a01b0319166001600160a01b0392909216919091179055565b6000546001600160a01b031681565b600080546040516370a0823160e01b81526001600160a01b03909116906370a0823190610468903090600401610831565b60206040518083038186803b15801561048057600080fd5b505afa158015610494573d6000803e3d6000fd5b505050506040513d601f19601f820116820180604052508101906104b891906107fd565b905090565b600054610231906001600160a01b03163330846105d0565b6000546040516370a0823160e01b81526103b0916001600160a01b0316906370a0823190610507903390600401610831565b60206040518083038186803b15801561051f57600080fd5b505afa158015610533573d6000803e3d6000fd5b505050506040513d601f19601f8201168201806040525081019061018691906107fd565b6001546001600160a01b031681565b6003546001600160a01b031681565b6105cb8363a9059cbb60e01b8484604051602401610594929190610869565b60408051601f198184030181529190526020810180516001600160e01b03166001600160e01b0319909316929092179091526105f7565b505050565b6105f1846323b872dd60e01b85858560405160240161059493929190610845565b50505050565b600061064c826040518060400160405280602081526020017f5361666545524332303a206c6f772d6c6576656c2063616c6c206661696c6564815250856001600160a01b03166106869092919063ffffffff16565b8051909150156105cb578080602001905181019061066a91906107c5565b6105cb5760405162461bcd60e51b81526004016101f790610960565b6060610695848460008561069f565b90505b9392505050565b6060824710156106c15760405162461bcd60e51b81526004016101f7906108b5565b6106ca8561075f565b6106e65760405162461bcd60e51b81526004016101f790610929565b600080866001600160a01b031685876040516107029190610815565b60006040518083038185875af1925050503d806000811461073f576040519150601f19603f3d011682016040523d82523d6000602084013e610744565b606091505b5091509150610754828286610765565b979650505050505050565b3b151590565b60608315610774575081610698565b8251156107845782518084602001fd5b8160405162461bcd60e51b81526004016101f79190610882565b6000602082840312156107af578081fd5b81356001600160a01b0381168114610698578182fd5b6000602082840312156107d6578081fd5b81518015158114610698578182fd5b6000602082840312156107f6578081fd5b5035919050565b60006020828403121561080e578081fd5b5051919050565b600082516108278184602087016109b3565b9190910192915050565b6001600160a01b0391909116815260200190565b6001600160a01b039384168152919092166020820152604081019190915260600190565b6001600160a01b03929092168252602082015260400190565b60006020825282518060208401526108a18160408501602087016109b3565b601f01601f19169190910160400192915050565b60208082526026908201527f416464726573733a20696e73756666696369656e742062616c616e636520666f6040820152651c8818d85b1b60d21b606082015260800190565b60208082526014908201527310b0b236b4b71037b91031b7b73a3937b63632b960611b604082015260600190565b6020808252601d908201527f416464726573733a2063616c6c20746f206e6f6e2d636f6e7472616374000000604082015260600190565b6020808252602a908201527f5361666545524332303a204552433230206f7065726174696f6e20646964206e6040820152691bdd081cdd58d8d9595960b21b606082015260800190565b90815260200190565b60005b838110156109ce5781810151838201526020016109b6565b838111156105f1575050600091015256fea2646970667358221220a81ad484c8aeca6f99e2a0e4b4f1d3cc485038ab0aa92018f451dea112e0263e64736f6c63430008010033",
  "linkReferences": {},
  "deployedLinkReferences": {}
}