{
  "_format": "hh-sol-artifact-1",
  "contractName": "PotentiamPool",
  "sourceName": "contracts/PotentiamPool.sol",
  "abi": [
    {
      "inputs": [],
      "name": "admin",
      "outputs": [
        {
          "internalType": "address",
          "name": "",
          "type": "address"
        }
      ],
      "stateMutability": "view",
      "type": "function"
    },
    {
      "inputs": [],
      "name": "balance",
      "outputs": [
        {
          "internalType": "uint256",
          "name": "",
          "type": "uint256"
        }
      ],
      "stateMutability": "view",
      "type": "function"
    },
    {
      "inputs": [],
      "name": "controller",
      "outputs": [
        {
          "internalType": "address",
          "name": "",
          "type": "address"
        }
      ],
      "stateMutability": "view",
      "type": "function"
    },
    {
      "inputs": [
        {
          "internalType": "uint256",
          "name": "_amount",
          "type": "uint256"
        }
      ],
      "name": "deposit",
      "outputs": [],
      "stateMutability": "nonpayable",
      "type": "function"
    },
    {
      "inputs": [],
      "name": "depositAll",
      "outputs": [],
      "stateMutability": "nonpayable",
      "type": "function"
    },
    {
      "inputs": [],
      "name": "governance",
      "outputs": [
        {
          "internalType": "address",
          "name": "",
          "type": "address"
        }
      ],
      "stateMutability": "view",
      "type": "function"
    },
    {
      "inputs": [],
      "name": "ptm",
      "outputs": [
        {
          "internalType": "contract IERC20",
          "name": "",
          "type": "address"
        }
      ],
      "stateMutability": "view",
      "type": "function"
    },
    {
      "inputs": [
        {
          "internalType": "address",
          "name": "_admin",
          "type": "address"
        }
      ],
      "name": "setAdmin",
      "outputs": [],
      "stateMutability": "nonpayable",
      "type": "function"
    },
    {
      "inputs": [
        {
          "internalType": "address",
          "name": "_controller",
          "type": "address"
        }
      ],
      "name": "setController",
      "outputs": [],
      "stateMutability": "nonpayable",
      "type": "function"
    },
    {
      "inputs": [
        {
          "internalType": "address",
          "name": "_governance",
          "type": "address"
        }
      ],
      "name": "setGovernace",
      "outputs": [],
      "stateMutability": "nonpayable",
      "type": "function"
    },
    {
      "inputs": [
        {
          "internalType": "address",
          "name": "_ptm",
          "type": "address"
        }
      ],
      "name": "setPTM",
      "outputs": [],
      "stateMutability": "nonpayable",
      "type": "function"
    },
    {
      "inputs": [
        {
          "internalType": "uint256",
          "name": "_amount",
          "type": "uint256"
        }
      ],
      "name": "withdraw",
      "outputs": [],
      "stateMutability": "nonpayable",
      "type": "function"
    },
    {
      "inputs": [],
      "name": "withdrawAll",
      "outputs": [],
      "stateMutability": "nonpayable",
      "type": "function"
    }
  ],
  "bytecode": "0x608060405234801561001057600080fd5b506109f6806100206000396000f3fe608060405234801561001057600080fd5b50600436106100cf5760003560e01c806392eefe9b1161008c578063b6b55f2511610066578063b6b55f2514610178578063de5f62681461018b578063f77c479114610193578063f851a4401461019b576100cf565b806392eefe9b14610148578063ad36712e1461015b578063b69ef8a814610163576100cf565b80632e1a7d4d146100d45780635aa6e675146100e9578063664a61f214610107578063704b6c021461011a578063851e3ca51461012d578063853828b614610140575b600080fd5b6100e76100e23660046107a6565b6101a3565b005b6100f1610234565b6040516100fe91906107f2565b60405180910390f35b6100e761011536600461075f565b610243565b6100e761012836600461075f565b6102b9565b6100e761013b36600461075f565b61031a565b6100e761037b565b6100e761015636600461075f565b610388565b6100f16103e9565b61016b6103f8565b6040516100fe919061098b565b6100e76101863660046107a6565b61047e565b6100e7610496565b6100f1610518565b6100f1610527565b6002546001600160a01b03163314806101c657506003546001600160a01b031633145b806101db57506001546001600160a01b031633145b6102005760405162461bcd60e51b81526004016101f7906108dc565b60405180910390fd5b6102086103f8565b81111561021a576102176103f8565b90505b600054610231906001600160a01b03163383610536565b50565b6002546001600160a01b031681565b6002546001600160a01b031633148061026657506003546001600160a01b031633145b8061027b57506001546001600160a01b031633145b6102975760405162461bcd60e51b81526004016101f7906108dc565b600080546001600160a01b0319166001600160a01b0392909216919091179055565b6002546001600160a01b03163314806102dc57506003546001600160a01b031633145b6102f85760405162461bcd60e51b81526004016101f7906108bc565b600380546001600160a01b0319166001600160a01b0392909216919091179055565b6002546001600160a01b031633148061033d57506003546001600160a01b031633145b6103595760405162461bcd60e51b81526004016101f7906108bc565b600280546001600160a01b0319166001600160a01b0392909216919091179055565b6103866100e26103f8565b565b6002546001600160a01b03163314806103ab57506003546001600160a01b031633145b6103c75760405162461bcd60e51b81526004016101f7906108bc565b600180546001600160a01b0319166001600160a01b0392909216919091179055565b6000546001600160a01b031681565b600080546040516370a0823160e01b81526001600160a01b03909116906370a08231906104299030906004016107f2565b60206040518083038186803b15801561044157600080fd5b505afa158015610455573d6000803e3d6000fd5b505050506040513d601f19601f8201168201806040525081019061047991906107be565b905090565b600054610231906001600160a01b0316333084610591565b6000546040516370a0823160e01b8152610386916001600160a01b0316906370a08231906104c89033906004016107f2565b60206040518083038186803b1580156104e057600080fd5b505afa1580156104f4573d6000803e3d6000fd5b505050506040513d601f19601f8201168201806040525081019061018691906107be565b6001546001600160a01b031681565b6003546001600160a01b031681565b61058c8363a9059cbb60e01b848460405160240161055592919061082a565b60408051601f198184030181529190526020810180516001600160e01b03166001600160e01b0319909316929092179091526105b8565b505050565b6105b2846323b872dd60e01b85858560405160240161055593929190610806565b50505050565b600061060d826040518060400160405280602081526020017f5361666545524332303a206c6f772d6c6576656c2063616c6c206661696c6564815250856001600160a01b03166106479092919063ffffffff16565b80519091501561058c578080602001905181019061062b9190610786565b61058c5760405162461bcd60e51b81526004016101f790610941565b60606106568484600085610660565b90505b9392505050565b6060824710156106825760405162461bcd60e51b81526004016101f790610876565b61068b85610720565b6106a75760405162461bcd60e51b81526004016101f79061090a565b600080866001600160a01b031685876040516106c391906107d6565b60006040518083038185875af1925050503d8060008114610700576040519150601f19603f3d011682016040523d82523d6000602084013e610705565b606091505b5091509150610715828286610726565b979650505050505050565b3b151590565b60608315610735575081610659565b8251156107455782518084602001fd5b8160405162461bcd60e51b81526004016101f79190610843565b600060208284031215610770578081fd5b81356001600160a01b0381168114610659578182fd5b600060208284031215610797578081fd5b81518015158114610659578182fd5b6000602082840312156107b7578081fd5b5035919050565b6000602082840312156107cf578081fd5b5051919050565b600082516107e8818460208701610994565b9190910192915050565b6001600160a01b0391909116815260200190565b6001600160a01b039384168152919092166020820152604081019190915260600190565b6001600160a01b03929092168252602082015260400190565b6000602082528251806020840152610862816040850160208701610994565b601f01601f19169190910160400192915050565b60208082526026908201527f416464726573733a20696e73756666696369656e742062616c616e636520666f6040820152651c8818d85b1b60d21b606082015260800190565b60208082526006908201526510b0b236b4b760d11b604082015260600190565b60208082526014908201527310b0b236b4b71037b91031b7b73a3937b63632b960611b604082015260600190565b6020808252601d908201527f416464726573733a2063616c6c20746f206e6f6e2d636f6e7472616374000000604082015260600190565b6020808252602a908201527f5361666545524332303a204552433230206f7065726174696f6e20646964206e6040820152691bdd081cdd58d8d9595960b21b606082015260800190565b90815260200190565b60005b838110156109af578181015183820152602001610997565b838111156105b2575050600091015256fea264697066735822122074ac862e0a1ad17ec989acfc75488fb11c4a6ed450f6b6c52791fb3e26bf221464736f6c63430008010033",
  "linkReferences": {},
  "deployedLinkReferences": {}
}